{
	"contracts/Staking/StakingPool.sol": {
		"StakingPool": {
			"abi": [
				{
					"inputs": [
						{
							"internalType": "address",
							"name": "_stakingToken",
							"type": "address"
						},
						{
							"internalType": "address",
							"name": "_rewardToken",
							"type": "address"
						}
					],
					"stateMutability": "nonpayable",
					"type": "constructor"
				},
				{
					"inputs": [],
					"name": "ReentrancyGuardReentrantCall",
					"type": "error"
				},
				{
					"anonymous": false,
					"inputs": [
						{
							"indexed": true,
							"internalType": "address",
							"name": "user",
							"type": "address"
						},
						{
							"indexed": false,
							"internalType": "uint256",
							"name": "reward",
							"type": "uint256"
						}
					],
					"name": "RewardPaid",
					"type": "event"
				},
				{
					"anonymous": false,
					"inputs": [
						{
							"indexed": true,
							"internalType": "address",
							"name": "user",
							"type": "address"
						},
						{
							"indexed": false,
							"internalType": "uint256",
							"name": "amount",
							"type": "uint256"
						}
					],
					"name": "Staked",
					"type": "event"
				},
				{
					"anonymous": false,
					"inputs": [
						{
							"indexed": true,
							"internalType": "address",
							"name": "user",
							"type": "address"
						},
						{
							"indexed": false,
							"internalType": "uint256",
							"name": "amount",
							"type": "uint256"
						}
					],
					"name": "Withdrawn",
					"type": "event"
				},
				{
					"inputs": [],
					"name": "claimReward",
					"outputs": [],
					"stateMutability": "nonpayable",
					"type": "function"
				},
				{
					"inputs": [
						{
							"internalType": "address",
							"name": "account",
							"type": "address"
						}
					],
					"name": "earned",
					"outputs": [
						{
							"internalType": "uint256",
							"name": "",
							"type": "uint256"
						}
					],
					"stateMutability": "view",
					"type": "function"
				},
				{
					"inputs": [
						{
							"internalType": "address",
							"name": "",
							"type": "address"
						}
					],
					"name": "lastUpdateTime",
					"outputs": [
						{
							"internalType": "uint256",
							"name": "",
							"type": "uint256"
						}
					],
					"stateMutability": "view",
					"type": "function"
				},
				{
					"inputs": [],
					"name": "rewardRate",
					"outputs": [
						{
							"internalType": "uint256",
							"name": "",
							"type": "uint256"
						}
					],
					"stateMutability": "view",
					"type": "function"
				},
				{
					"inputs": [],
					"name": "rewardToken",
					"outputs": [
						{
							"internalType": "contract IERC20",
							"name": "",
							"type": "address"
						}
					],
					"stateMutability": "view",
					"type": "function"
				},
				{
					"inputs": [
						{
							"internalType": "address",
							"name": "",
							"type": "address"
						}
					],
					"name": "rewards",
					"outputs": [
						{
							"internalType": "uint256",
							"name": "",
							"type": "uint256"
						}
					],
					"stateMutability": "view",
					"type": "function"
				},
				{
					"inputs": [
						{
							"internalType": "uint256",
							"name": "amount",
							"type": "uint256"
						}
					],
					"name": "stake",
					"outputs": [],
					"stateMutability": "nonpayable",
					"type": "function"
				},
				{
					"inputs": [
						{
							"internalType": "address",
							"name": "",
							"type": "address"
						}
					],
					"name": "stakingBalance",
					"outputs": [
						{
							"internalType": "uint256",
							"name": "",
							"type": "uint256"
						}
					],
					"stateMutability": "view",
					"type": "function"
				},
				{
					"inputs": [],
					"name": "stakingToken",
					"outputs": [
						{
							"internalType": "contract IERC20",
							"name": "",
							"type": "address"
						}
					],
					"stateMutability": "view",
					"type": "function"
				},
				{
					"inputs": [],
					"name": "totalStaked",
					"outputs": [
						{
							"internalType": "uint256",
							"name": "",
							"type": "uint256"
						}
					],
					"stateMutability": "view",
					"type": "function"
				},
				{
					"inputs": [
						{
							"internalType": "uint256",
							"name": "amount",
							"type": "uint256"
						}
					],
					"name": "withdraw",
					"outputs": [],
					"stateMutability": "nonpayable",
					"type": "function"
				}
			],
			"devdoc": {
				"errors": {
					"ReentrancyGuardReentrantCall()": [
						{
							"details": "Unauthorized reentrant call."
						}
					]
				},
				"kind": "dev",
				"methods": {},
				"version": 1
			},
			"evm": {
				"assembly": "    /* \"contracts/Staking/StakingPool.sol\":182:3953  contract StakingPool is ReentrancyGuard {... */\n  mstore(0x40, 0x80)\n    /* \"contracts/Staking/StakingPool.sol\":508:512  1e13 */\n  0x09184e72a000\n    /* \"contracts/Staking/StakingPool.sol\":480:512  uint256 public rewardRate = 1e13 */\n  0x02\n  sstore\n    /* \"contracts/Staking/StakingPool.sol\":1127:1284  constructor(address _stakingToken, address _rewardToken) {... */\n  callvalue\n  dup1\n  iszero\n  tag_1\n  jumpi\n  revert(0x00, 0x00)\ntag_1:\n  pop\n  mload(0x40)\n  sub(codesize, bytecodeSize)\n  dup1\n  bytecodeSize\n  dup4\n  codecopy\n  dup2\n  dup2\n  add\n  0x40\n  mstore\n  dup2\n  add\n  swap1\n  tag_2\n  swap2\n  swap1\n  tag_3\n  jump\t// in\ntag_2:\n    /* \"@openzeppelin/contracts/utils/ReentrancyGuard.sol\":2365:2366  1 */\n  0x01\n    /* \"@openzeppelin/contracts/utils/ReentrancyGuard.sol\":2539:2585  _reentrancyGuardStorageSlot().getUint256Slot() */\n  tag_7\n    /* \"@openzeppelin/contracts/utils/ReentrancyGuard.sol\":2539:2568  _reentrancyGuardStorageSlot() */\n  tag_8\n    /* \"@openzeppelin/contracts/utils/ReentrancyGuard.sol\":2539:2566  _reentrancyGuardStorageSlot */\n  shl(0x20, tag_9)\n    /* \"@openzeppelin/contracts/utils/ReentrancyGuard.sol\":2539:2568  _reentrancyGuardStorageSlot() */\n  0x20\n  shr\n  jump\t// in\ntag_8:\n    /* \"@openzeppelin/contracts/utils/ReentrancyGuard.sol\":2539:2583  _reentrancyGuardStorageSlot().getUint256Slot */\n  shl(0x20, tag_10)\n    /* \"@openzeppelin/contracts/utils/ReentrancyGuard.sol\":2539:2585  _reentrancyGuardStorageSlot().getUint256Slot() */\n  0x20\n  shr\n  jump\t// in\ntag_7:\n    /* \"@openzeppelin/contracts/utils/ReentrancyGuard.sol\":2539:2591  _reentrancyGuardStorageSlot().getUint256Slot().value */\n  0x00\n  add\n    /* \"@openzeppelin/contracts/utils/ReentrancyGuard.sol\":2539:2605  _reentrancyGuardStorageSlot().getUint256Slot().value = NOT_ENTERED */\n  dup2\n  swap1\n  sstore\n  pop\n    /* \"contracts/Staking/StakingPool.sol\":1217:1230  _stakingToken */\n  dup2\n    /* \"contracts/Staking/StakingPool.sol\":1195:1207  stakingToken */\n  0x00\n  0x00\n    /* \"contracts/Staking/StakingPool.sol\":1195:1231  stakingToken = IERC20(_stakingToken) */\n  0x0100\n  exp\n  dup2\n  sload\n  dup2\n  0xffffffffffffffffffffffffffffffffffffffff\n  mul\n  not\n  and\n  swap1\n  dup4\n  0xffffffffffffffffffffffffffffffffffffffff\n  and\n  mul\n  or\n  swap1\n  sstore\n  pop\n    /* \"contracts/Staking/StakingPool.sol\":1263:1275  _rewardToken */\n  dup1\n    /* \"contracts/Staking/StakingPool.sol\":1242:1253  rewardToken */\n  0x01\n  0x00\n    /* \"contracts/Staking/StakingPool.sol\":1242:1276  rewardToken = IERC20(_rewardToken) */\n  0x0100\n  exp\n  dup2\n  sload\n  dup2\n  0xffffffffffffffffffffffffffffffffffffffff\n  mul\n  not\n  and\n  swap1\n  dup4\n  0xffffffffffffffffffffffffffffffffffffffff\n  and\n  mul\n  or\n  swap1\n  sstore\n  pop\n    /* \"contracts/Staking/StakingPool.sol\":1127:1284  constructor(address _stakingToken, address _rewardToken) {... */\n  pop\n  pop\n    /* \"contracts/Staking/StakingPool.sol\":182:3953  contract StakingPool is ReentrancyGuard {... */\n  jump(tag_12)\n    /* \"@openzeppelin/contracts/utils/ReentrancyGuard.sol\":4636:4763  function _reentrancyGuardStorageSlot() internal pure virtual returns (bytes32) {... */\ntag_9:\n    /* \"@openzeppelin/contracts/utils/ReentrancyGuard.sol\":4706:4713  bytes32 */\n  0x00\n    /* \"@openzeppelin/contracts/utils/ReentrancyGuard.sol\":1505:1571  0x9b779b17422d0df92223018b32b4d1fa46e071723d6817e2486d003becc55f00 */\n  0x9b779b17422d0df92223018b32b4d1fa46e071723d6817e2486d003becc55f00\n    /* \"@openzeppelin/contracts/utils/ReentrancyGuard.sol\":4732:4756  REENTRANCY_GUARD_STORAGE */\n  0x00\n  shl\n    /* \"@openzeppelin/contracts/utils/ReentrancyGuard.sol\":4725:4756  return REENTRANCY_GUARD_STORAGE */\n  swap1\n  pop\n    /* \"@openzeppelin/contracts/utils/ReentrancyGuard.sol\":4636:4763  function _reentrancyGuardStorageSlot() internal pure virtual returns (bytes32) {... */\n  swap1\n  jump\t// out\n    /* \"@openzeppelin/contracts/utils/StorageSlot.sol\":2679:2842  function getUint256Slot(bytes32 slot) internal pure returns (Uint256Slot storage r) {... */\ntag_10:\n    /* \"@openzeppelin/contracts/utils/StorageSlot.sol\":2740:2761  Uint256Slot storage r */\n  0x00\n    /* \"@openzeppelin/contracts/utils/StorageSlot.sol\":2822:2826  slot */\n  dup2\n    /* \"@openzeppelin/contracts/utils/StorageSlot.sol\":2812:2826  r.slot := slot */\n  swap1\n  pop\n    /* \"@openzeppelin/contracts/utils/StorageSlot.sol\":2679:2842  function getUint256Slot(bytes32 slot) internal pure returns (Uint256Slot storage r) {... */\n  swap2\n  swap1\n  pop\n  jump\t// out\n    /* \"#utility.yul\":88:205   */\ntag_16:\n    /* \"#utility.yul\":197:198   */\n  0x00\n    /* \"#utility.yul\":194:195   */\n  0x00\n    /* \"#utility.yul\":187:199   */\n  revert\n    /* \"#utility.yul\":334:460   */\ntag_18:\n    /* \"#utility.yul\":371:378   */\n  0x00\n    /* \"#utility.yul\":411:453   */\n  0xffffffffffffffffffffffffffffffffffffffff\n    /* \"#utility.yul\":404:409   */\n  dup3\n    /* \"#utility.yul\":400:454   */\n  and\n    /* \"#utility.yul\":389:454   */\n  swap1\n  pop\n    /* \"#utility.yul\":334:460   */\n  swap2\n  swap1\n  pop\n  jump\t// out\n    /* \"#utility.yul\":466:562   */\ntag_19:\n    /* \"#utility.yul\":503:510   */\n  0x00\n    /* \"#utility.yul\":532:556   */\n  tag_28\n    /* \"#utility.yul\":550:555   */\n  dup3\n    /* \"#utility.yul\":532:556   */\n  tag_18\n  jump\t// in\ntag_28:\n    /* \"#utility.yul\":521:556   */\n  swap1\n  pop\n    /* \"#utility.yul\":466:562   */\n  swap2\n  swap1\n  pop\n  jump\t// out\n    /* \"#utility.yul\":568:690   */\ntag_20:\n    /* \"#utility.yul\":641:665   */\n  tag_30\n    /* \"#utility.yul\":659:664   */\n  dup2\n    /* \"#utility.yul\":641:665   */\n  tag_19\n  jump\t// in\ntag_30:\n    /* \"#utility.yul\":634:639   */\n  dup2\n    /* \"#utility.yul\":631:666   */\n  eq\n    /* \"#utility.yul\":621:684   */\n  tag_31\n  jumpi\n    /* \"#utility.yul\":680:681   */\n  0x00\n    /* \"#utility.yul\":677:678   */\n  0x00\n    /* \"#utility.yul\":670:682   */\n  revert\n    /* \"#utility.yul\":621:684   */\ntag_31:\n    /* \"#utility.yul\":568:690   */\n  pop\n  jump\t// out\n    /* \"#utility.yul\":696:839   */\ntag_21:\n    /* \"#utility.yul\":753:758   */\n  0x00\n    /* \"#utility.yul\":784:790   */\n  dup2\n    /* \"#utility.yul\":778:791   */\n  mload\n    /* \"#utility.yul\":769:791   */\n  swap1\n  pop\n    /* \"#utility.yul\":800:833   */\n  tag_33\n    /* \"#utility.yul\":827:832   */\n  dup2\n    /* \"#utility.yul\":800:833   */\n  tag_20\n  jump\t// in\ntag_33:\n    /* \"#utility.yul\":696:839   */\n  swap3\n  swap2\n  pop\n  pop\n  jump\t// out\n    /* \"#utility.yul\":845:1352   */\ntag_3:\n    /* \"#utility.yul\":924:930   */\n  0x00\n    /* \"#utility.yul\":932:938   */\n  0x00\n    /* \"#utility.yul\":981:983   */\n  0x40\n    /* \"#utility.yul\":969:978   */\n  dup4\n    /* \"#utility.yul\":960:967   */\n  dup6\n    /* \"#utility.yul\":956:979   */\n  sub\n    /* \"#utility.yul\":952:984   */\n  slt\n    /* \"#utility.yul\":949:1068   */\n  iszero\n  tag_35\n  jumpi\n    /* \"#utility.yul\":987:1066   */\n  tag_36\n  tag_16\n  jump\t// in\ntag_36:\n    /* \"#utility.yul\":949:1068   */\ntag_35:\n    /* \"#utility.yul\":1107:1108   */\n  0x00\n    /* \"#utility.yul\":1132:1196   */\n  tag_37\n    /* \"#utility.yul\":1188:1195   */\n  dup6\n    /* \"#utility.yul\":1179:1185   */\n  dup3\n    /* \"#utility.yul\":1168:1177   */\n  dup7\n    /* \"#utility.yul\":1164:1186   */\n  add\n    /* \"#utility.yul\":1132:1196   */\n  tag_21\n  jump\t// in\ntag_37:\n    /* \"#utility.yul\":1122:1196   */\n  swap3\n  pop\n    /* \"#utility.yul\":1078:1206   */\n  pop\n    /* \"#utility.yul\":1245:1247   */\n  0x20\n    /* \"#utility.yul\":1271:1335   */\n  tag_38\n    /* \"#utility.yul\":1327:1334   */\n  dup6\n    /* \"#utility.yul\":1318:1324   */\n  dup3\n    /* \"#utility.yul\":1307:1316   */\n  dup7\n    /* \"#utility.yul\":1303:1325   */\n  add\n    /* \"#utility.yul\":1271:1335   */\n  tag_21\n  jump\t// in\ntag_38:\n    /* \"#utility.yul\":1261:1335   */\n  swap2\n  pop\n    /* \"#utility.yul\":1216:1345   */\n  pop\n    /* \"#utility.yul\":845:1352   */\n  swap3\n  pop\n  swap3\n  swap1\n  pop\n  jump\t// out\n    /* \"contracts/Staking/StakingPool.sol\":182:3953  contract StakingPool is ReentrancyGuard {... */\ntag_12:\n  dataSize(sub_0)\n  dup1\n  dataOffset(sub_0)\n  0x00\n  codecopy\n  0x00\n  return\nstop\n\nsub_0: assembly {\n        /* \"contracts/Staking/StakingPool.sol\":182:3953  contract StakingPool is ReentrancyGuard {... */\n      mstore(0x40, 0x80)\n      callvalue\n      dup1\n      iszero\n      tag_1\n      jumpi\n      revert(0x00, 0x00)\n    tag_1:\n      pop\n      jumpi(tag_2, lt(calldatasize, 0x04))\n      shr(0xe0, calldataload(0x00))\n      dup1\n      0x72f702f3\n      gt\n      tag_14\n      jumpi\n      dup1\n      0x72f702f3\n      eq\n      tag_8\n      jumpi\n      dup1\n      0x7b0a47ee\n      eq\n      tag_9\n      jumpi\n      dup1\n      0x817b1cd2\n      eq\n      tag_10\n      jumpi\n      dup1\n      0xa694fc3a\n      eq\n      tag_11\n      jumpi\n      dup1\n      0xb88a802f\n      eq\n      tag_12\n      jumpi\n      dup1\n      0xf7c618c1\n      eq\n      tag_13\n      jumpi\n      jump(tag_2)\n    tag_14:\n      dup1\n      0x8cc262\n      eq\n      tag_3\n      jumpi\n      dup1\n      0x0700037d\n      eq\n      tag_4\n      jumpi\n      dup1\n      0x2ce9aead\n      eq\n      tag_5\n      jumpi\n      dup1\n      0x2e1a7d4d\n      eq\n      tag_6\n      jumpi\n      dup1\n      0x45bc78ab\n      eq\n      tag_7\n      jumpi\n    tag_2:\n      revert(0x00, 0x00)\n        /* \"contracts/Staking/StakingPool.sol\":1720:2206  function earned(address account) public view returns (uint256) {... */\n    tag_3:\n      tag_15\n      0x04\n      dup1\n      calldatasize\n      sub\n      dup2\n      add\n      swap1\n      tag_16\n      swap2\n      swap1\n      tag_17\n      jump\t// in\n    tag_16:\n      tag_18\n      jump\t// in\n    tag_15:\n      mload(0x40)\n      tag_19\n      swap2\n      swap1\n      tag_20\n      jump\t// in\n    tag_19:\n      mload(0x40)\n      dup1\n      swap2\n      sub\n      swap1\n      return\n        /* \"contracts/Staking/StakingPool.sol\":746:788  mapping(address => uint256) public rewards */\n    tag_4:\n      tag_21\n      0x04\n      dup1\n      calldatasize\n      sub\n      dup2\n      add\n      swap1\n      tag_22\n      swap2\n      swap1\n      tag_17\n      jump\t// in\n    tag_22:\n      tag_23\n      jump\t// in\n    tag_21:\n      mload(0x40)\n      tag_24\n      swap2\n      swap1\n      tag_20\n      jump\t// in\n    tag_24:\n      mload(0x40)\n      dup1\n      swap2\n      sub\n      swap1\n      return\n        /* \"contracts/Staking/StakingPool.sol\":642:691  mapping(address => uint256) public lastUpdateTime */\n    tag_5:\n      tag_25\n      0x04\n      dup1\n      calldatasize\n      sub\n      dup2\n      add\n      swap1\n      tag_26\n      swap2\n      swap1\n      tag_17\n      jump\t// in\n    tag_26:\n      tag_27\n      jump\t// in\n    tag_25:\n      mload(0x40)\n      tag_28\n      swap2\n      swap1\n      tag_20\n      jump\t// in\n    tag_28:\n      mload(0x40)\n      dup1\n      swap2\n      sub\n      swap1\n      return\n        /* \"contracts/Staking/StakingPool.sol\":2891:3422  function withdraw(uint256 amount) external nonReentrant updateReward(msg.sender) {... */\n    tag_6:\n      tag_29\n      0x04\n      dup1\n      calldatasize\n      sub\n      dup2\n      add\n      swap1\n      tag_30\n      swap2\n      swap1\n      tag_31\n      jump\t// in\n    tag_30:\n      tag_32\n      jump\t// in\n    tag_29:\n      stop\n        /* \"contracts/Staking/StakingPool.sol\":547:596  mapping(address => uint256) public stakingBalance */\n    tag_7:\n      tag_33\n      0x04\n      dup1\n      calldatasize\n      sub\n      dup2\n      add\n      swap1\n      tag_34\n      swap2\n      swap1\n      tag_17\n      jump\t// in\n    tag_34:\n      tag_35\n      jump\t// in\n    tag_33:\n      mload(0x40)\n      tag_36\n      swap2\n      swap1\n      tag_20\n      jump\t// in\n    tag_36:\n      mload(0x40)\n      dup1\n      swap2\n      sub\n      swap1\n      return\n        /* \"contracts/Staking/StakingPool.sol\":229:255  IERC20 public stakingToken */\n    tag_8:\n      tag_37\n      tag_38\n      jump\t// in\n    tag_37:\n      mload(0x40)\n      tag_39\n      swap2\n      swap1\n      tag_40\n      jump\t// in\n    tag_39:\n      mload(0x40)\n      dup1\n      swap2\n      sub\n      swap1\n      return\n        /* \"contracts/Staking/StakingPool.sol\":480:512  uint256 public rewardRate = 1e13 */\n    tag_9:\n      tag_41\n      tag_42\n      jump\t// in\n    tag_41:\n      mload(0x40)\n      tag_43\n      swap2\n      swap1\n      tag_20\n      jump\t// in\n    tag_43:\n      mload(0x40)\n      dup1\n      swap2\n      sub\n      swap1\n      return\n        /* \"contracts/Staking/StakingPool.sol\":848:874  uint256 public totalStaked */\n    tag_10:\n      tag_44\n      tag_45\n      jump\t// in\n    tag_44:\n      mload(0x40)\n      tag_46\n      swap2\n      swap1\n      tag_20\n      jump\t// in\n    tag_46:\n      mload(0x40)\n      dup1\n      swap2\n      sub\n      swap1\n      return\n        /* \"contracts/Staking/StakingPool.sol\":2263:2835  function stake(uint256 amount) external nonReentrant updateReward(msg.sender) {... */\n    tag_11:\n      tag_47\n      0x04\n      dup1\n      calldatasize\n      sub\n      dup2\n      add\n      swap1\n      tag_48\n      swap2\n      swap1\n      tag_31\n      jump\t// in\n    tag_48:\n      tag_49\n      jump\t// in\n    tag_47:\n      stop\n        /* \"contracts/Staking/StakingPool.sol\":3518:3950  function claimReward() external nonReentrant updateReward(msg.sender) {... */\n    tag_12:\n      tag_50\n      tag_51\n      jump\t// in\n    tag_50:\n      stop\n        /* \"contracts/Staking/StakingPool.sol\":262:287  IERC20 public rewardToken */\n    tag_13:\n      tag_52\n      tag_53\n      jump\t// in\n    tag_52:\n      mload(0x40)\n      tag_54\n      swap2\n      swap1\n      tag_40\n      jump\t// in\n    tag_54:\n      mload(0x40)\n      dup1\n      swap2\n      sub\n      swap1\n      return\n        /* \"contracts/Staking/StakingPool.sol\":1720:2206  function earned(address account) public view returns (uint256) {... */\n    tag_18:\n        /* \"contracts/Staking/StakingPool.sol\":1774:1781  uint256 */\n      0x00\n        /* \"contracts/Staking/StakingPool.sol\":1825:1826  0 */\n      0x00\n        /* \"contracts/Staking/StakingPool.sol\":1798:1812  stakingBalance */\n      0x03\n        /* \"contracts/Staking/StakingPool.sol\":1798:1821  stakingBalance[account] */\n      0x00\n        /* \"contracts/Staking/StakingPool.sol\":1813:1820  account */\n      dup5\n        /* \"contracts/Staking/StakingPool.sol\":1798:1821  stakingBalance[account] */\n      0xffffffffffffffffffffffffffffffffffffffff\n      and\n      0xffffffffffffffffffffffffffffffffffffffff\n      and\n      dup2\n      mstore\n      0x20\n      add\n      swap1\n      dup2\n      mstore\n      0x20\n      add\n      0x00\n      keccak256\n      sload\n        /* \"contracts/Staking/StakingPool.sol\":1798:1826  stakingBalance[account] == 0 */\n      sub\n        /* \"contracts/Staking/StakingPool.sol\":1794:1878  if (stakingBalance[account] == 0) {... */\n      tag_56\n      jumpi\n        /* \"contracts/Staking/StakingPool.sol\":1850:1857  rewards */\n      0x05\n        /* \"contracts/Staking/StakingPool.sol\":1850:1866  rewards[account] */\n      0x00\n        /* \"contracts/Staking/StakingPool.sol\":1858:1865  account */\n      dup4\n        /* \"contracts/Staking/StakingPool.sol\":1850:1866  rewards[account] */\n      0xffffffffffffffffffffffffffffffffffffffff\n      and\n      0xffffffffffffffffffffffffffffffffffffffff\n      and\n      dup2\n      mstore\n      0x20\n      add\n      swap1\n      dup2\n      mstore\n      0x20\n      add\n      0x00\n      keccak256\n      sload\n        /* \"contracts/Staking/StakingPool.sol\":1843:1866  return rewards[account] */\n      swap1\n      pop\n      jump(tag_55)\n        /* \"contracts/Staking/StakingPool.sol\":1794:1878  if (stakingBalance[account] == 0) {... */\n    tag_56:\n        /* \"contracts/Staking/StakingPool.sol\":1898:1917  uint256 timeElapsed */\n      0x00\n        /* \"contracts/Staking/StakingPool.sol\":1938:1952  lastUpdateTime */\n      0x04\n        /* \"contracts/Staking/StakingPool.sol\":1938:1961  lastUpdateTime[account] */\n      0x00\n        /* \"contracts/Staking/StakingPool.sol\":1953:1960  account */\n      dup5\n        /* \"contracts/Staking/StakingPool.sol\":1938:1961  lastUpdateTime[account] */\n      0xffffffffffffffffffffffffffffffffffffffff\n      and\n      0xffffffffffffffffffffffffffffffffffffffff\n      and\n      dup2\n      mstore\n      0x20\n      add\n      swap1\n      dup2\n      mstore\n      0x20\n      add\n      0x00\n      keccak256\n      sload\n        /* \"contracts/Staking/StakingPool.sol\":1920:1935  block.timestamp */\n      timestamp\n        /* \"contracts/Staking/StakingPool.sol\":1920:1961  block.timestamp - lastUpdateTime[account] */\n      tag_57\n      swap2\n      swap1\n      tag_58\n      jump\t// in\n    tag_57:\n        /* \"contracts/Staking/StakingPool.sol\":1898:1961  uint256 timeElapsed = block.timestamp - lastUpdateTime[account] */\n      swap1\n      pop\n        /* \"contracts/Staking/StakingPool.sol\":2065:2086  uint256 pendingReward */\n      0x00\n        /* \"contracts/Staking/StakingPool.sol\":2144:2148  1e18 */\n      0x0de0b6b3a7640000\n        /* \"contracts/Staking/StakingPool.sol\":2130:2140  rewardRate */\n      sload(0x02)\n        /* \"contracts/Staking/StakingPool.sol\":2116:2127  timeElapsed */\n      dup4\n        /* \"contracts/Staking/StakingPool.sol\":2090:2104  stakingBalance */\n      0x03\n        /* \"contracts/Staking/StakingPool.sol\":2090:2113  stakingBalance[account] */\n      0x00\n        /* \"contracts/Staking/StakingPool.sol\":2105:2112  account */\n      dup9\n        /* \"contracts/Staking/StakingPool.sol\":2090:2113  stakingBalance[account] */\n      0xffffffffffffffffffffffffffffffffffffffff\n      and\n      0xffffffffffffffffffffffffffffffffffffffff\n      and\n      dup2\n      mstore\n      0x20\n      add\n      swap1\n      dup2\n      mstore\n      0x20\n      add\n      0x00\n      keccak256\n      sload\n        /* \"contracts/Staking/StakingPool.sol\":2090:2127  stakingBalance[account] * timeElapsed */\n      tag_59\n      swap2\n      swap1\n      tag_60\n      jump\t// in\n    tag_59:\n        /* \"contracts/Staking/StakingPool.sol\":2090:2140  stakingBalance[account] * timeElapsed * rewardRate */\n      tag_61\n      swap2\n      swap1\n      tag_60\n      jump\t// in\n    tag_61:\n        /* \"contracts/Staking/StakingPool.sol\":2089:2148  (stakingBalance[account] * timeElapsed * rewardRate) / 1e18 */\n      tag_62\n      swap2\n      swap1\n      tag_63\n      jump\t// in\n    tag_62:\n        /* \"contracts/Staking/StakingPool.sol\":2065:2148  uint256 pendingReward = (stakingBalance[account] * timeElapsed * rewardRate) / 1e18 */\n      swap1\n      pop\n        /* \"contracts/Staking/StakingPool.sol\":2185:2198  pendingReward */\n      dup1\n        /* \"contracts/Staking/StakingPool.sol\":2166:2173  rewards */\n      0x05\n        /* \"contracts/Staking/StakingPool.sol\":2166:2182  rewards[account] */\n      0x00\n        /* \"contracts/Staking/StakingPool.sol\":2174:2181  account */\n      dup7\n        /* \"contracts/Staking/StakingPool.sol\":2166:2182  rewards[account] */\n      0xffffffffffffffffffffffffffffffffffffffff\n      and\n      0xffffffffffffffffffffffffffffffffffffffff\n      and\n      dup2\n      mstore\n      0x20\n      add\n      swap1\n      dup2\n      mstore\n      0x20\n      add\n      0x00\n      keccak256\n      sload\n        /* \"contracts/Staking/StakingPool.sol\":2166:2198  rewards[account] + pendingReward */\n      tag_64\n      swap2\n      swap1\n      tag_65\n      jump\t// in\n    tag_64:\n        /* \"contracts/Staking/StakingPool.sol\":2159:2198  return rewards[account] + pendingReward */\n      swap3\n      pop\n      pop\n      pop\n        /* \"contracts/Staking/StakingPool.sol\":1720:2206  function earned(address account) public view returns (uint256) {... */\n    tag_55:\n      swap2\n      swap1\n      pop\n      jump\t// out\n        /* \"contracts/Staking/StakingPool.sol\":746:788  mapping(address => uint256) public rewards */\n    tag_23:\n      mstore(0x20, 0x05)\n      dup1\n      0x00\n      mstore\n      keccak256(0x00, 0x40)\n      0x00\n      swap2\n      pop\n      swap1\n      pop\n      sload\n      dup2\n      jump\t// out\n        /* \"contracts/Staking/StakingPool.sol\":642:691  mapping(address => uint256) public lastUpdateTime */\n    tag_27:\n      mstore(0x20, 0x04)\n      dup1\n      0x00\n      mstore\n      keccak256(0x00, 0x40)\n      0x00\n      swap2\n      pop\n      swap1\n      pop\n      sload\n      dup2\n      jump\t// out\n        /* \"contracts/Staking/StakingPool.sol\":2891:3422  function withdraw(uint256 amount) external nonReentrant updateReward(msg.sender) {... */\n    tag_32:\n        /* \"@openzeppelin/contracts/utils/ReentrancyGuard.sol\":3023:3044  _nonReentrantBefore() */\n      tag_67\n        /* \"@openzeppelin/contracts/utils/ReentrancyGuard.sol\":3023:3042  _nonReentrantBefore */\n      tag_68\n        /* \"@openzeppelin/contracts/utils/ReentrancyGuard.sol\":3023:3044  _nonReentrantBefore() */\n      jump\t// in\n    tag_67:\n        /* \"contracts/Staking/StakingPool.sol\":2960:2970  msg.sender */\n      caller\n        /* \"contracts/Staking/StakingPool.sol\":1464:1479  earned(account) */\n      tag_70\n        /* \"contracts/Staking/StakingPool.sol\":1471:1478  account */\n      dup2\n        /* \"contracts/Staking/StakingPool.sol\":1464:1470  earned */\n      tag_18\n        /* \"contracts/Staking/StakingPool.sol\":1464:1479  earned(account) */\n      jump\t// in\n    tag_70:\n        /* \"contracts/Staking/StakingPool.sol\":1445:1452  rewards */\n      0x05\n        /* \"contracts/Staking/StakingPool.sol\":1445:1461  rewards[account] */\n      0x00\n        /* \"contracts/Staking/StakingPool.sol\":1453:1460  account */\n      dup4\n        /* \"contracts/Staking/StakingPool.sol\":1445:1461  rewards[account] */\n      0xffffffffffffffffffffffffffffffffffffffff\n      and\n      0xffffffffffffffffffffffffffffffffffffffff\n      and\n      dup2\n      mstore\n      0x20\n      add\n      swap1\n      dup2\n      mstore\n      0x20\n      add\n      0x00\n      keccak256\n        /* \"contracts/Staking/StakingPool.sol\":1445:1479  rewards[account] = earned(account) */\n      dup2\n      swap1\n      sstore\n      pop\n        /* \"contracts/Staking/StakingPool.sol\":1516:1531  block.timestamp */\n      timestamp\n        /* \"contracts/Staking/StakingPool.sol\":1490:1504  lastUpdateTime */\n      0x04\n        /* \"contracts/Staking/StakingPool.sol\":1490:1513  lastUpdateTime[account] */\n      0x00\n        /* \"contracts/Staking/StakingPool.sol\":1505:1512  account */\n      dup4\n        /* \"contracts/Staking/StakingPool.sol\":1490:1513  lastUpdateTime[account] */\n      0xffffffffffffffffffffffffffffffffffffffff\n      and\n      0xffffffffffffffffffffffffffffffffffffffff\n      and\n      dup2\n      mstore\n      0x20\n      add\n      swap1\n      dup2\n      mstore\n      0x20\n      add\n      0x00\n      keccak256\n        /* \"contracts/Staking/StakingPool.sol\":1490:1531  lastUpdateTime[account] = block.timestamp */\n      dup2\n      swap1\n      sstore\n      pop\n        /* \"contracts/Staking/StakingPool.sol\":3000:3001  0 */\n      0x00\n        /* \"contracts/Staking/StakingPool.sol\":2991:2997  amount */\n      dup3\n        /* \"contracts/Staking/StakingPool.sol\":2991:3001  amount > 0 */\n      gt\n        /* \"contracts/Staking/StakingPool.sol\":2983:3034  require(amount > 0, \"Kwota musi byc wieksza niz 0\") */\n      tag_72\n      jumpi\n      mload(0x40)\n      0x08c379a000000000000000000000000000000000000000000000000000000000\n      dup2\n      mstore\n      0x04\n      add\n      tag_73\n      swap1\n      tag_74\n      jump\t// in\n    tag_73:\n      mload(0x40)\n      dup1\n      swap2\n      sub\n      swap1\n      revert\n    tag_72:\n        /* \"contracts/Staking/StakingPool.sol\":3083:3089  amount */\n      dup2\n        /* \"contracts/Staking/StakingPool.sol\":3053:3067  stakingBalance */\n      0x03\n        /* \"contracts/Staking/StakingPool.sol\":3053:3079  stakingBalance[msg.sender] */\n      0x00\n        /* \"contracts/Staking/StakingPool.sol\":3068:3078  msg.sender */\n      caller\n        /* \"contracts/Staking/StakingPool.sol\":3053:3079  stakingBalance[msg.sender] */\n      0xffffffffffffffffffffffffffffffffffffffff\n      and\n      0xffffffffffffffffffffffffffffffffffffffff\n      and\n      dup2\n      mstore\n      0x20\n      add\n      swap1\n      dup2\n      mstore\n      0x20\n      add\n      0x00\n      keccak256\n      sload\n        /* \"contracts/Staking/StakingPool.sol\":3053:3089  stakingBalance[msg.sender] >= amount */\n      lt\n      iszero\n        /* \"contracts/Staking/StakingPool.sol\":3045:3123  require(stakingBalance[msg.sender] >= amount, \"Za malo zablokowanych srodkow\") */\n      tag_75\n      jumpi\n      mload(0x40)\n      0x08c379a000000000000000000000000000000000000000000000000000000000\n      dup2\n      mstore\n      0x04\n      add\n      tag_76\n      swap1\n      tag_77\n      jump\t// in\n    tag_76:\n      mload(0x40)\n      dup1\n      swap2\n      sub\n      swap1\n      revert\n    tag_75:\n        /* \"contracts/Staking/StakingPool.sol\":3166:3172  amount */\n      dup2\n        /* \"contracts/Staking/StakingPool.sol\":3136:3150  stakingBalance */\n      0x03\n        /* \"contracts/Staking/StakingPool.sol\":3136:3162  stakingBalance[msg.sender] */\n      0x00\n        /* \"contracts/Staking/StakingPool.sol\":3151:3161  msg.sender */\n      caller\n        /* \"contracts/Staking/StakingPool.sol\":3136:3162  stakingBalance[msg.sender] */\n      0xffffffffffffffffffffffffffffffffffffffff\n      and\n      0xffffffffffffffffffffffffffffffffffffffff\n      and\n      dup2\n      mstore\n      0x20\n      add\n      swap1\n      dup2\n      mstore\n      0x20\n      add\n      0x00\n      keccak256\n      0x00\n        /* \"contracts/Staking/StakingPool.sol\":3136:3172  stakingBalance[msg.sender] -= amount */\n      dup3\n      dup3\n      sload\n      tag_78\n      swap2\n      swap1\n      tag_58\n      jump\t// in\n    tag_78:\n      swap3\n      pop\n      pop\n      dup2\n      swap1\n      sstore\n      pop\n        /* \"contracts/Staking/StakingPool.sol\":3198:3204  amount */\n      dup2\n        /* \"contracts/Staking/StakingPool.sol\":3183:3194  totalStaked */\n      0x06\n      0x00\n        /* \"contracts/Staking/StakingPool.sol\":3183:3204  totalStaked -= amount */\n      dup3\n      dup3\n      sload\n      tag_79\n      swap2\n      swap1\n      tag_58\n      jump\t// in\n    tag_79:\n      swap3\n      pop\n      pop\n      dup2\n      swap1\n      sstore\n      pop\n        /* \"contracts/Staking/StakingPool.sol\":3288:3300  stakingToken */\n      0x00\n      0x00\n      swap1\n      sload\n      swap1\n      0x0100\n      exp\n      swap1\n      div\n      0xffffffffffffffffffffffffffffffffffffffff\n      and\n        /* \"contracts/Staking/StakingPool.sol\":3288:3309  stakingToken.transfer */\n      0xffffffffffffffffffffffffffffffffffffffff\n      and\n      0xa9059cbb\n        /* \"contracts/Staking/StakingPool.sol\":3310:3320  msg.sender */\n      caller\n        /* \"contracts/Staking/StakingPool.sol\":3322:3328  amount */\n      dup5\n        /* \"contracts/Staking/StakingPool.sol\":3288:3329  stakingToken.transfer(msg.sender, amount) */\n      mload(0x40)\n      dup4\n      0xffffffff\n      and\n      0xe0\n      shl\n      dup2\n      mstore\n      0x04\n      add\n      tag_80\n      swap3\n      swap2\n      swap1\n      tag_81\n      jump\t// in\n    tag_80:\n      0x20\n      mload(0x40)\n      dup1\n      dup4\n      sub\n      dup2\n      0x00\n      dup8\n      gas\n      call\n      iszero\n      dup1\n      iszero\n      tag_83\n      jumpi\n      returndatacopy(0x00, 0x00, returndatasize)\n      revert(0x00, returndatasize)\n    tag_83:\n      pop\n      pop\n      pop\n      pop\n      mload(0x40)\n      returndatasize\n      not(0x1f)\n      0x1f\n      dup3\n      add\n      and\n      dup3\n      add\n      dup1\n      0x40\n      mstore\n      pop\n      dup2\n      add\n      swap1\n      tag_84\n      swap2\n      swap1\n      tag_85\n      jump\t// in\n    tag_84:\n        /* \"contracts/Staking/StakingPool.sol\":3280:3359  require(stakingToken.transfer(msg.sender, amount), \"Transfer zwrotny nieudany\") */\n      tag_86\n      jumpi\n      mload(0x40)\n      0x08c379a000000000000000000000000000000000000000000000000000000000\n      dup2\n      mstore\n      0x04\n      add\n      tag_87\n      swap1\n      tag_88\n      jump\t// in\n    tag_87:\n      mload(0x40)\n      dup1\n      swap2\n      sub\n      swap1\n      revert\n    tag_86:\n        /* \"contracts/Staking/StakingPool.sol\":3395:3405  msg.sender */\n      caller\n        /* \"contracts/Staking/StakingPool.sol\":3385:3414  Withdrawn(msg.sender, amount) */\n      0xffffffffffffffffffffffffffffffffffffffff\n      and\n      0x7084f5476618d8e60b11ef0d7d3f06914655adb8793e28ff7f018d4c76d505d5\n        /* \"contracts/Staking/StakingPool.sol\":3407:3413  amount */\n      dup4\n        /* \"contracts/Staking/StakingPool.sol\":3385:3414  Withdrawn(msg.sender, amount) */\n      mload(0x40)\n      tag_89\n      swap2\n      swap1\n      tag_20\n      jump\t// in\n    tag_89:\n      mload(0x40)\n      dup1\n      swap2\n      sub\n      swap1\n      log2\n        /* \"@openzeppelin/contracts/utils/ReentrancyGuard.sol\":3054:3055  _ */\n      pop\n        /* \"@openzeppelin/contracts/utils/ReentrancyGuard.sol\":3065:3085  _nonReentrantAfter() */\n      tag_90\n        /* \"@openzeppelin/contracts/utils/ReentrancyGuard.sol\":3065:3083  _nonReentrantAfter */\n      tag_91\n        /* \"@openzeppelin/contracts/utils/ReentrancyGuard.sol\":3065:3085  _nonReentrantAfter() */\n      jump\t// in\n    tag_90:\n        /* \"contracts/Staking/StakingPool.sol\":2891:3422  function withdraw(uint256 amount) external nonReentrant updateReward(msg.sender) {... */\n      pop\n      jump\t// out\n        /* \"contracts/Staking/StakingPool.sol\":547:596  mapping(address => uint256) public stakingBalance */\n    tag_35:\n      mstore(0x20, 0x03)\n      dup1\n      0x00\n      mstore\n      keccak256(0x00, 0x40)\n      0x00\n      swap2\n      pop\n      swap1\n      pop\n      sload\n      dup2\n      jump\t// out\n        /* \"contracts/Staking/StakingPool.sol\":229:255  IERC20 public stakingToken */\n    tag_38:\n      0x00\n      0x00\n      swap1\n      sload\n      swap1\n      0x0100\n      exp\n      swap1\n      div\n      0xffffffffffffffffffffffffffffffffffffffff\n      and\n      dup2\n      jump\t// out\n        /* \"contracts/Staking/StakingPool.sol\":480:512  uint256 public rewardRate = 1e13 */\n    tag_42:\n      sload(0x02)\n      dup2\n      jump\t// out\n        /* \"contracts/Staking/StakingPool.sol\":848:874  uint256 public totalStaked */\n    tag_45:\n      sload(0x06)\n      dup2\n      jump\t// out\n        /* \"contracts/Staking/StakingPool.sol\":2263:2835  function stake(uint256 amount) external nonReentrant updateReward(msg.sender) {... */\n    tag_49:\n        /* \"@openzeppelin/contracts/utils/ReentrancyGuard.sol\":3023:3044  _nonReentrantBefore() */\n      tag_93\n        /* \"@openzeppelin/contracts/utils/ReentrancyGuard.sol\":3023:3042  _nonReentrantBefore */\n      tag_68\n        /* \"@openzeppelin/contracts/utils/ReentrancyGuard.sol\":3023:3044  _nonReentrantBefore() */\n      jump\t// in\n    tag_93:\n        /* \"contracts/Staking/StakingPool.sol\":2329:2339  msg.sender */\n      caller\n        /* \"contracts/Staking/StakingPool.sol\":1464:1479  earned(account) */\n      tag_95\n        /* \"contracts/Staking/StakingPool.sol\":1471:1478  account */\n      dup2\n        /* \"contracts/Staking/StakingPool.sol\":1464:1470  earned */\n      tag_18\n        /* \"contracts/Staking/StakingPool.sol\":1464:1479  earned(account) */\n      jump\t// in\n    tag_95:\n        /* \"contracts/Staking/StakingPool.sol\":1445:1452  rewards */\n      0x05\n        /* \"contracts/Staking/StakingPool.sol\":1445:1461  rewards[account] */\n      0x00\n        /* \"contracts/Staking/StakingPool.sol\":1453:1460  account */\n      dup4\n        /* \"contracts/Staking/StakingPool.sol\":1445:1461  rewards[account] */\n      0xffffffffffffffffffffffffffffffffffffffff\n      and\n      0xffffffffffffffffffffffffffffffffffffffff\n      and\n      dup2\n      mstore\n      0x20\n      add\n      swap1\n      dup2\n      mstore\n      0x20\n      add\n      0x00\n      keccak256\n        /* \"contracts/Staking/StakingPool.sol\":1445:1479  rewards[account] = earned(account) */\n      dup2\n      swap1\n      sstore\n      pop\n        /* \"contracts/Staking/StakingPool.sol\":1516:1531  block.timestamp */\n      timestamp\n        /* \"contracts/Staking/StakingPool.sol\":1490:1504  lastUpdateTime */\n      0x04\n        /* \"contracts/Staking/StakingPool.sol\":1490:1513  lastUpdateTime[account] */\n      0x00\n        /* \"contracts/Staking/StakingPool.sol\":1505:1512  account */\n      dup4\n        /* \"contracts/Staking/StakingPool.sol\":1490:1513  lastUpdateTime[account] */\n      0xffffffffffffffffffffffffffffffffffffffff\n      and\n      0xffffffffffffffffffffffffffffffffffffffff\n      and\n      dup2\n      mstore\n      0x20\n      add\n      swap1\n      dup2\n      mstore\n      0x20\n      add\n      0x00\n      keccak256\n        /* \"contracts/Staking/StakingPool.sol\":1490:1531  lastUpdateTime[account] = block.timestamp */\n      dup2\n      swap1\n      sstore\n      pop\n        /* \"contracts/Staking/StakingPool.sol\":2369:2370  0 */\n      0x00\n        /* \"contracts/Staking/StakingPool.sol\":2360:2366  amount */\n      dup3\n        /* \"contracts/Staking/StakingPool.sol\":2360:2370  amount > 0 */\n      gt\n        /* \"contracts/Staking/StakingPool.sol\":2352:2403  require(amount > 0, \"Kwota musi byc wieksza niz 0\") */\n      tag_97\n      jumpi\n      mload(0x40)\n      0x08c379a000000000000000000000000000000000000000000000000000000000\n      dup2\n      mstore\n      0x04\n      add\n      tag_98\n      swap1\n      tag_74\n      jump\t// in\n    tag_98:\n      mload(0x40)\n      dup1\n      swap2\n      sub\n      swap1\n      revert\n    tag_97:\n        /* \"contracts/Staking/StakingPool.sol\":2454:2460  amount */\n      dup2\n        /* \"contracts/Staking/StakingPool.sol\":2424:2438  stakingBalance */\n      0x03\n        /* \"contracts/Staking/StakingPool.sol\":2424:2450  stakingBalance[msg.sender] */\n      0x00\n        /* \"contracts/Staking/StakingPool.sol\":2439:2449  msg.sender */\n      caller\n        /* \"contracts/Staking/StakingPool.sol\":2424:2450  stakingBalance[msg.sender] */\n      0xffffffffffffffffffffffffffffffffffffffff\n      and\n      0xffffffffffffffffffffffffffffffffffffffff\n      and\n      dup2\n      mstore\n      0x20\n      add\n      swap1\n      dup2\n      mstore\n      0x20\n      add\n      0x00\n      keccak256\n      0x00\n        /* \"contracts/Staking/StakingPool.sol\":2424:2460  stakingBalance[msg.sender] += amount */\n      dup3\n      dup3\n      sload\n      tag_99\n      swap2\n      swap1\n      tag_65\n      jump\t// in\n    tag_99:\n      swap3\n      pop\n      pop\n      dup2\n      swap1\n      sstore\n      pop\n        /* \"contracts/Staking/StakingPool.sol\":2486:2492  amount */\n      dup2\n        /* \"contracts/Staking/StakingPool.sol\":2471:2482  totalStaked */\n      0x06\n      0x00\n        /* \"contracts/Staking/StakingPool.sol\":2471:2492  totalStaked += amount */\n      dup3\n      dup3\n      sload\n      tag_100\n      swap2\n      swap1\n      tag_65\n      jump\t// in\n    tag_100:\n      swap3\n      pop\n      pop\n      dup2\n      swap1\n      sstore\n      pop\n        /* \"contracts/Staking/StakingPool.sol\":2685:2697  stakingToken */\n      0x00\n      0x00\n      swap1\n      sload\n      swap1\n      0x0100\n      exp\n      swap1\n      div\n      0xffffffffffffffffffffffffffffffffffffffff\n      and\n        /* \"contracts/Staking/StakingPool.sol\":2685:2710  stakingToken.transferFrom */\n      0xffffffffffffffffffffffffffffffffffffffff\n      and\n      0x23b872dd\n        /* \"contracts/Staking/StakingPool.sol\":2711:2721  msg.sender */\n      caller\n        /* \"contracts/Staking/StakingPool.sol\":2731:2735  this */\n      address\n        /* \"contracts/Staking/StakingPool.sol\":2738:2744  amount */\n      dup6\n        /* \"contracts/Staking/StakingPool.sol\":2685:2745  stakingToken.transferFrom(msg.sender, address(this), amount) */\n      mload(0x40)\n      dup5\n      0xffffffff\n      and\n      0xe0\n      shl\n      dup2\n      mstore\n      0x04\n      add\n      tag_101\n      swap4\n      swap3\n      swap2\n      swap1\n      tag_102\n      jump\t// in\n    tag_101:\n      0x20\n      mload(0x40)\n      dup1\n      dup4\n      sub\n      dup2\n      0x00\n      dup8\n      gas\n      call\n      iszero\n      dup1\n      iszero\n      tag_104\n      jumpi\n      returndatacopy(0x00, 0x00, returndatasize)\n      revert(0x00, returndatasize)\n    tag_104:\n      pop\n      pop\n      pop\n      pop\n      mload(0x40)\n      returndatasize\n      not(0x1f)\n      0x1f\n      dup3\n      add\n      and\n      dup3\n      add\n      dup1\n      0x40\n      mstore\n      pop\n      dup2\n      add\n      swap1\n      tag_105\n      swap2\n      swap1\n      tag_85\n      jump\t// in\n    tag_105:\n        /* \"contracts/Staking/StakingPool.sol\":2677:2775  require(stakingToken.transferFrom(msg.sender, address(this), amount), \"Transfer do puli nieudany\") */\n      tag_106\n      jumpi\n      mload(0x40)\n      0x08c379a000000000000000000000000000000000000000000000000000000000\n      dup2\n      mstore\n      0x04\n      add\n      tag_107\n      swap1\n      tag_108\n      jump\t// in\n    tag_107:\n      mload(0x40)\n      dup1\n      swap2\n      sub\n      swap1\n      revert\n    tag_106:\n        /* \"contracts/Staking/StakingPool.sol\":2808:2818  msg.sender */\n      caller\n        /* \"contracts/Staking/StakingPool.sol\":2801:2827  Staked(msg.sender, amount) */\n      0xffffffffffffffffffffffffffffffffffffffff\n      and\n      0x9e71bc8eea02a63969f509818f2dafb9254532904319f9dbda79b67bd34a5f3d\n        /* \"contracts/Staking/StakingPool.sol\":2820:2826  amount */\n      dup4\n        /* \"contracts/Staking/StakingPool.sol\":2801:2827  Staked(msg.sender, amount) */\n      mload(0x40)\n      tag_109\n      swap2\n      swap1\n      tag_20\n      jump\t// in\n    tag_109:\n      mload(0x40)\n      dup1\n      swap2\n      sub\n      swap1\n      log2\n        /* \"@openzeppelin/contracts/utils/ReentrancyGuard.sol\":3054:3055  _ */\n      pop\n        /* \"@openzeppelin/contracts/utils/ReentrancyGuard.sol\":3065:3085  _nonReentrantAfter() */\n      tag_110\n        /* \"@openzeppelin/contracts/utils/ReentrancyGuard.sol\":3065:3083  _nonReentrantAfter */\n      tag_91\n        /* \"@openzeppelin/contracts/utils/ReentrancyGuard.sol\":3065:3085  _nonReentrantAfter() */\n      jump\t// in\n    tag_110:\n        /* \"contracts/Staking/StakingPool.sol\":2263:2835  function stake(uint256 amount) external nonReentrant updateReward(msg.sender) {... */\n      pop\n      jump\t// out\n        /* \"contracts/Staking/StakingPool.sol\":3518:3950  function claimReward() external nonReentrant updateReward(msg.sender) {... */\n    tag_51:\n        /* \"@openzeppelin/contracts/utils/ReentrancyGuard.sol\":3023:3044  _nonReentrantBefore() */\n      tag_112\n        /* \"@openzeppelin/contracts/utils/ReentrancyGuard.sol\":3023:3042  _nonReentrantBefore */\n      tag_68\n        /* \"@openzeppelin/contracts/utils/ReentrancyGuard.sol\":3023:3044  _nonReentrantBefore() */\n      jump\t// in\n    tag_112:\n        /* \"contracts/Staking/StakingPool.sol\":3576:3586  msg.sender */\n      caller\n        /* \"contracts/Staking/StakingPool.sol\":1464:1479  earned(account) */\n      tag_114\n        /* \"contracts/Staking/StakingPool.sol\":1471:1478  account */\n      dup2\n        /* \"contracts/Staking/StakingPool.sol\":1464:1470  earned */\n      tag_18\n        /* \"contracts/Staking/StakingPool.sol\":1464:1479  earned(account) */\n      jump\t// in\n    tag_114:\n        /* \"contracts/Staking/StakingPool.sol\":1445:1452  rewards */\n      0x05\n        /* \"contracts/Staking/StakingPool.sol\":1445:1461  rewards[account] */\n      0x00\n        /* \"contracts/Staking/StakingPool.sol\":1453:1460  account */\n      dup4\n        /* \"contracts/Staking/StakingPool.sol\":1445:1461  rewards[account] */\n      0xffffffffffffffffffffffffffffffffffffffff\n      and\n      0xffffffffffffffffffffffffffffffffffffffff\n      and\n      dup2\n      mstore\n      0x20\n      add\n      swap1\n      dup2\n      mstore\n      0x20\n      add\n      0x00\n      keccak256\n        /* \"contracts/Staking/StakingPool.sol\":1445:1479  rewards[account] = earned(account) */\n      dup2\n      swap1\n      sstore\n      pop\n        /* \"contracts/Staking/StakingPool.sol\":1516:1531  block.timestamp */\n      timestamp\n        /* \"contracts/Staking/StakingPool.sol\":1490:1504  lastUpdateTime */\n      0x04\n        /* \"contracts/Staking/StakingPool.sol\":1490:1513  lastUpdateTime[account] */\n      0x00\n        /* \"contracts/Staking/StakingPool.sol\":1505:1512  account */\n      dup4\n        /* \"contracts/Staking/StakingPool.sol\":1490:1513  lastUpdateTime[account] */\n      0xffffffffffffffffffffffffffffffffffffffff\n      and\n      0xffffffffffffffffffffffffffffffffffffffff\n      and\n      dup2\n      mstore\n      0x20\n      add\n      swap1\n      dup2\n      mstore\n      0x20\n      add\n      0x00\n      keccak256\n        /* \"contracts/Staking/StakingPool.sol\":1490:1531  lastUpdateTime[account] = block.timestamp */\n      dup2\n      swap1\n      sstore\n      pop\n        /* \"contracts/Staking/StakingPool.sol\":3599:3613  uint256 reward */\n      0x00\n        /* \"contracts/Staking/StakingPool.sol\":3616:3623  rewards */\n      0x05\n        /* \"contracts/Staking/StakingPool.sol\":3616:3635  rewards[msg.sender] */\n      0x00\n        /* \"contracts/Staking/StakingPool.sol\":3624:3634  msg.sender */\n      caller\n        /* \"contracts/Staking/StakingPool.sol\":3616:3635  rewards[msg.sender] */\n      0xffffffffffffffffffffffffffffffffffffffff\n      and\n      0xffffffffffffffffffffffffffffffffffffffff\n      and\n      dup2\n      mstore\n      0x20\n      add\n      swap1\n      dup2\n      mstore\n      0x20\n      add\n      0x00\n      keccak256\n      sload\n        /* \"contracts/Staking/StakingPool.sol\":3599:3635  uint256 reward = rewards[msg.sender] */\n      swap1\n      pop\n        /* \"contracts/Staking/StakingPool.sol\":3659:3660  0 */\n      0x00\n        /* \"contracts/Staking/StakingPool.sol\":3650:3656  reward */\n      dup2\n        /* \"contracts/Staking/StakingPool.sol\":3650:3660  reward > 0 */\n      gt\n        /* \"contracts/Staking/StakingPool.sol\":3646:3943  if (reward > 0) {... */\n      iszero\n      tag_116\n      jumpi\n        /* \"contracts/Staking/StakingPool.sol\":3699:3700  0 */\n      0x00\n        /* \"contracts/Staking/StakingPool.sol\":3677:3684  rewards */\n      0x05\n        /* \"contracts/Staking/StakingPool.sol\":3677:3696  rewards[msg.sender] */\n      0x00\n        /* \"contracts/Staking/StakingPool.sol\":3685:3695  msg.sender */\n      caller\n        /* \"contracts/Staking/StakingPool.sol\":3677:3696  rewards[msg.sender] */\n      0xffffffffffffffffffffffffffffffffffffffff\n      and\n      0xffffffffffffffffffffffffffffffffffffffff\n      and\n      dup2\n      mstore\n      0x20\n      add\n      swap1\n      dup2\n      mstore\n      0x20\n      add\n      0x00\n      keccak256\n        /* \"contracts/Staking/StakingPool.sol\":3677:3700  rewards[msg.sender] = 0 */\n      dup2\n      swap1\n      sstore\n      pop\n        /* \"contracts/Staking/StakingPool.sol\":3798:3809  rewardToken */\n      0x01\n      0x00\n      swap1\n      sload\n      swap1\n      0x0100\n      exp\n      swap1\n      div\n      0xffffffffffffffffffffffffffffffffffffffff\n      and\n        /* \"contracts/Staking/StakingPool.sol\":3798:3818  rewardToken.transfer */\n      0xffffffffffffffffffffffffffffffffffffffff\n      and\n      0xa9059cbb\n        /* \"contracts/Staking/StakingPool.sol\":3819:3829  msg.sender */\n      caller\n        /* \"contracts/Staking/StakingPool.sol\":3831:3837  reward */\n      dup4\n        /* \"contracts/Staking/StakingPool.sol\":3798:3838  rewardToken.transfer(msg.sender, reward) */\n      mload(0x40)\n      dup4\n      0xffffffff\n      and\n      0xe0\n      shl\n      dup2\n      mstore\n      0x04\n      add\n      tag_117\n      swap3\n      swap2\n      swap1\n      tag_81\n      jump\t// in\n    tag_117:\n      0x20\n      mload(0x40)\n      dup1\n      dup4\n      sub\n      dup2\n      0x00\n      dup8\n      gas\n      call\n      iszero\n      dup1\n      iszero\n      tag_119\n      jumpi\n      returndatacopy(0x00, 0x00, returndatasize)\n      revert(0x00, returndatasize)\n    tag_119:\n      pop\n      pop\n      pop\n      pop\n      mload(0x40)\n      returndatasize\n      not(0x1f)\n      0x1f\n      dup3\n      add\n      and\n      dup3\n      add\n      dup1\n      0x40\n      mstore\n      pop\n      dup2\n      add\n      swap1\n      tag_120\n      swap2\n      swap1\n      tag_85\n      jump\t// in\n    tag_120:\n        /* \"contracts/Staking/StakingPool.sol\":3790:3867  require(rewardToken.transfer(msg.sender, reward), \"Wyplata nagrody nieudana\") */\n      tag_121\n      jumpi\n      mload(0x40)\n      0x08c379a000000000000000000000000000000000000000000000000000000000\n      dup2\n      mstore\n      0x04\n      add\n      tag_122\n      swap1\n      tag_123\n      jump\t// in\n    tag_122:\n      mload(0x40)\n      dup1\n      swap2\n      sub\n      swap1\n      revert\n    tag_121:\n        /* \"contracts/Staking/StakingPool.sol\":3912:3922  msg.sender */\n      caller\n        /* \"contracts/Staking/StakingPool.sol\":3901:3931  RewardPaid(msg.sender, reward) */\n      0xffffffffffffffffffffffffffffffffffffffff\n      and\n      0xe2403640ba68fed3a2f88b7557551d1993f84b99bb10ff833f0cf8db0c5e0486\n        /* \"contracts/Staking/StakingPool.sol\":3924:3930  reward */\n      dup3\n        /* \"contracts/Staking/StakingPool.sol\":3901:3931  RewardPaid(msg.sender, reward) */\n      mload(0x40)\n      tag_124\n      swap2\n      swap1\n      tag_20\n      jump\t// in\n    tag_124:\n      mload(0x40)\n      dup1\n      swap2\n      sub\n      swap1\n      log2\n        /* \"contracts/Staking/StakingPool.sol\":3646:3943  if (reward > 0) {... */\n    tag_116:\n        /* \"contracts/Staking/StakingPool.sol\":3588:3950  {... */\n      pop\n        /* \"@openzeppelin/contracts/utils/ReentrancyGuard.sol\":3054:3055  _ */\n      pop\n        /* \"@openzeppelin/contracts/utils/ReentrancyGuard.sol\":3065:3085  _nonReentrantAfter() */\n      tag_125\n        /* \"@openzeppelin/contracts/utils/ReentrancyGuard.sol\":3065:3083  _nonReentrantAfter */\n      tag_91\n        /* \"@openzeppelin/contracts/utils/ReentrancyGuard.sol\":3065:3085  _nonReentrantAfter() */\n      jump\t// in\n    tag_125:\n        /* \"contracts/Staking/StakingPool.sol\":3518:3950  function claimReward() external nonReentrant updateReward(msg.sender) {... */\n      jump\t// out\n        /* \"contracts/Staking/StakingPool.sol\":262:287  IERC20 public rewardToken */\n    tag_53:\n      0x01\n      0x00\n      swap1\n      sload\n      swap1\n      0x0100\n      exp\n      swap1\n      div\n      0xffffffffffffffffffffffffffffffffffffffff\n      and\n      dup2\n      jump\t// out\n        /* \"@openzeppelin/contracts/utils/ReentrancyGuard.sol\":3749:4041  function _nonReentrantBefore() private {... */\n    tag_68:\n        /* \"@openzeppelin/contracts/utils/ReentrancyGuard.sol\":3872:3897  _nonReentrantBeforeView() */\n      tag_127\n        /* \"@openzeppelin/contracts/utils/ReentrancyGuard.sol\":3872:3895  _nonReentrantBeforeView */\n      tag_128\n        /* \"@openzeppelin/contracts/utils/ReentrancyGuard.sol\":3872:3897  _nonReentrantBeforeView() */\n      jump\t// in\n    tag_127:\n        /* \"@openzeppelin/contracts/utils/ReentrancyGuard.sol\":2407:2408  2 */\n      0x02\n        /* \"@openzeppelin/contracts/utils/ReentrancyGuard.sol\":3972:4018  _reentrancyGuardStorageSlot().getUint256Slot() */\n      tag_129\n        /* \"@openzeppelin/contracts/utils/ReentrancyGuard.sol\":3972:4001  _reentrancyGuardStorageSlot() */\n      tag_130\n        /* \"@openzeppelin/contracts/utils/ReentrancyGuard.sol\":3972:3999  _reentrancyGuardStorageSlot */\n      tag_131\n        /* \"@openzeppelin/contracts/utils/ReentrancyGuard.sol\":3972:4001  _reentrancyGuardStorageSlot() */\n      jump\t// in\n    tag_130:\n        /* \"@openzeppelin/contracts/utils/ReentrancyGuard.sol\":3972:4016  _reentrancyGuardStorageSlot().getUint256Slot */\n      tag_132\n        /* \"@openzeppelin/contracts/utils/ReentrancyGuard.sol\":3972:4018  _reentrancyGuardStorageSlot().getUint256Slot() */\n      jump\t// in\n    tag_129:\n        /* \"@openzeppelin/contracts/utils/ReentrancyGuard.sol\":3972:4024  _reentrancyGuardStorageSlot().getUint256Slot().value */\n      0x00\n      add\n        /* \"@openzeppelin/contracts/utils/ReentrancyGuard.sol\":3972:4034  _reentrancyGuardStorageSlot().getUint256Slot().value = ENTERED */\n      dup2\n      swap1\n      sstore\n      pop\n        /* \"@openzeppelin/contracts/utils/ReentrancyGuard.sol\":3749:4041  function _nonReentrantBefore() private {... */\n      jump\t// out\n        /* \"@openzeppelin/contracts/utils/ReentrancyGuard.sol\":4047:4300  function _nonReentrantAfter() private {... */\n    tag_91:\n        /* \"@openzeppelin/contracts/utils/ReentrancyGuard.sol\":2365:2366  1 */\n      0x01\n        /* \"@openzeppelin/contracts/utils/ReentrancyGuard.sol\":4227:4273  _reentrancyGuardStorageSlot().getUint256Slot() */\n      tag_134\n        /* \"@openzeppelin/contracts/utils/ReentrancyGuard.sol\":4227:4256  _reentrancyGuardStorageSlot() */\n      tag_135\n        /* \"@openzeppelin/contracts/utils/ReentrancyGuard.sol\":4227:4254  _reentrancyGuardStorageSlot */\n      tag_131\n        /* \"@openzeppelin/contracts/utils/ReentrancyGuard.sol\":4227:4256  _reentrancyGuardStorageSlot() */\n      jump\t// in\n    tag_135:\n        /* \"@openzeppelin/contracts/utils/ReentrancyGuard.sol\":4227:4271  _reentrancyGuardStorageSlot().getUint256Slot */\n      tag_132\n        /* \"@openzeppelin/contracts/utils/ReentrancyGuard.sol\":4227:4273  _reentrancyGuardStorageSlot().getUint256Slot() */\n      jump\t// in\n    tag_134:\n        /* \"@openzeppelin/contracts/utils/ReentrancyGuard.sol\":4227:4279  _reentrancyGuardStorageSlot().getUint256Slot().value */\n      0x00\n      add\n        /* \"@openzeppelin/contracts/utils/ReentrancyGuard.sol\":4227:4293  _reentrancyGuardStorageSlot().getUint256Slot().value = NOT_ENTERED */\n      dup2\n      swap1\n      sstore\n      pop\n        /* \"@openzeppelin/contracts/utils/ReentrancyGuard.sol\":4047:4300  function _nonReentrantAfter() private {... */\n      jump\t// out\n        /* \"@openzeppelin/contracts/utils/ReentrancyGuard.sol\":3586:3743  function _nonReentrantBeforeView() private view {... */\n    tag_128:\n        /* \"@openzeppelin/contracts/utils/ReentrancyGuard.sol\":3648:3673  _reentrancyGuardEntered() */\n      tag_137\n        /* \"@openzeppelin/contracts/utils/ReentrancyGuard.sol\":3648:3671  _reentrancyGuardEntered */\n      tag_138\n        /* \"@openzeppelin/contracts/utils/ReentrancyGuard.sol\":3648:3673  _reentrancyGuardEntered() */\n      jump\t// in\n    tag_137:\n        /* \"@openzeppelin/contracts/utils/ReentrancyGuard.sol\":3644:3737  if (_reentrancyGuardEntered()) {... */\n      iszero\n      tag_139\n      jumpi\n        /* \"@openzeppelin/contracts/utils/ReentrancyGuard.sol\":3696:3726  ReentrancyGuardReentrantCall() */\n      mload(0x40)\n      0x3ee5aeb500000000000000000000000000000000000000000000000000000000\n      dup2\n      mstore\n      0x04\n      add\n      mload(0x40)\n      dup1\n      swap2\n      sub\n      swap1\n      revert\n        /* \"@openzeppelin/contracts/utils/ReentrancyGuard.sol\":3644:3737  if (_reentrancyGuardEntered()) {... */\n    tag_139:\n        /* \"@openzeppelin/contracts/utils/ReentrancyGuard.sol\":3586:3743  function _nonReentrantBeforeView() private view {... */\n      jump\t// out\n        /* \"@openzeppelin/contracts/utils/ReentrancyGuard.sol\":4636:4763  function _reentrancyGuardStorageSlot() internal pure virtual returns (bytes32) {... */\n    tag_131:\n        /* \"@openzeppelin/contracts/utils/ReentrancyGuard.sol\":4706:4713  bytes32 */\n      0x00\n        /* \"@openzeppelin/contracts/utils/ReentrancyGuard.sol\":1505:1571  0x9b779b17422d0df92223018b32b4d1fa46e071723d6817e2486d003becc55f00 */\n      0x9b779b17422d0df92223018b32b4d1fa46e071723d6817e2486d003becc55f00\n        /* \"@openzeppelin/contracts/utils/ReentrancyGuard.sol\":4732:4756  REENTRANCY_GUARD_STORAGE */\n      0x00\n      shl\n        /* \"@openzeppelin/contracts/utils/ReentrancyGuard.sol\":4725:4756  return REENTRANCY_GUARD_STORAGE */\n      swap1\n      pop\n        /* \"@openzeppelin/contracts/utils/ReentrancyGuard.sol\":4636:4763  function _reentrancyGuardStorageSlot() internal pure virtual returns (bytes32) {... */\n      swap1\n      jump\t// out\n        /* \"@openzeppelin/contracts/utils/StorageSlot.sol\":2679:2842  function getUint256Slot(bytes32 slot) internal pure returns (Uint256Slot storage r) {... */\n    tag_132:\n        /* \"@openzeppelin/contracts/utils/StorageSlot.sol\":2740:2761  Uint256Slot storage r */\n      0x00\n        /* \"@openzeppelin/contracts/utils/StorageSlot.sol\":2822:2826  slot */\n      dup2\n        /* \"@openzeppelin/contracts/utils/StorageSlot.sol\":2812:2826  r.slot := slot */\n      swap1\n      pop\n        /* \"@openzeppelin/contracts/utils/StorageSlot.sol\":2679:2842  function getUint256Slot(bytes32 slot) internal pure returns (Uint256Slot storage r) {... */\n      swap2\n      swap1\n      pop\n      jump\t// out\n        /* \"@openzeppelin/contracts/utils/ReentrancyGuard.sol\":4479:4630  function _reentrancyGuardEntered() internal view returns (bool) {... */\n    tag_138:\n        /* \"@openzeppelin/contracts/utils/ReentrancyGuard.sol\":4537:4541  bool */\n      0x00\n        /* \"@openzeppelin/contracts/utils/ReentrancyGuard.sol\":2407:2408  2 */\n      0x02\n        /* \"@openzeppelin/contracts/utils/ReentrancyGuard.sol\":4560:4606  _reentrancyGuardStorageSlot().getUint256Slot() */\n      tag_143\n        /* \"@openzeppelin/contracts/utils/ReentrancyGuard.sol\":4560:4589  _reentrancyGuardStorageSlot() */\n      tag_144\n        /* \"@openzeppelin/contracts/utils/ReentrancyGuard.sol\":4560:4587  _reentrancyGuardStorageSlot */\n      tag_131\n        /* \"@openzeppelin/contracts/utils/ReentrancyGuard.sol\":4560:4589  _reentrancyGuardStorageSlot() */\n      jump\t// in\n    tag_144:\n        /* \"@openzeppelin/contracts/utils/ReentrancyGuard.sol\":4560:4604  _reentrancyGuardStorageSlot().getUint256Slot */\n      tag_132\n        /* \"@openzeppelin/contracts/utils/ReentrancyGuard.sol\":4560:4606  _reentrancyGuardStorageSlot().getUint256Slot() */\n      jump\t// in\n    tag_143:\n        /* \"@openzeppelin/contracts/utils/ReentrancyGuard.sol\":4560:4612  _reentrancyGuardStorageSlot().getUint256Slot().value */\n      0x00\n      add\n      sload\n        /* \"@openzeppelin/contracts/utils/ReentrancyGuard.sol\":4560:4623  _reentrancyGuardStorageSlot().getUint256Slot().value == ENTERED */\n      eq\n        /* \"@openzeppelin/contracts/utils/ReentrancyGuard.sol\":4553:4623  return _reentrancyGuardStorageSlot().getUint256Slot().value == ENTERED */\n      swap1\n      pop\n        /* \"@openzeppelin/contracts/utils/ReentrancyGuard.sol\":4479:4630  function _reentrancyGuardEntered() internal view returns (bool) {... */\n      swap1\n      jump\t// out\n        /* \"#utility.yul\":88:205   */\n    tag_146:\n        /* \"#utility.yul\":197:198   */\n      0x00\n        /* \"#utility.yul\":194:195   */\n      0x00\n        /* \"#utility.yul\":187:199   */\n      revert\n        /* \"#utility.yul\":334:460   */\n    tag_148:\n        /* \"#utility.yul\":371:378   */\n      0x00\n        /* \"#utility.yul\":411:453   */\n      0xffffffffffffffffffffffffffffffffffffffff\n        /* \"#utility.yul\":404:409   */\n      dup3\n        /* \"#utility.yul\":400:454   */\n      and\n        /* \"#utility.yul\":389:454   */\n      swap1\n      pop\n        /* \"#utility.yul\":334:460   */\n      swap2\n      swap1\n      pop\n      jump\t// out\n        /* \"#utility.yul\":466:562   */\n    tag_149:\n        /* \"#utility.yul\":503:510   */\n      0x00\n        /* \"#utility.yul\":532:556   */\n      tag_184\n        /* \"#utility.yul\":550:555   */\n      dup3\n        /* \"#utility.yul\":532:556   */\n      tag_148\n      jump\t// in\n    tag_184:\n        /* \"#utility.yul\":521:556   */\n      swap1\n      pop\n        /* \"#utility.yul\":466:562   */\n      swap2\n      swap1\n      pop\n      jump\t// out\n        /* \"#utility.yul\":568:690   */\n    tag_150:\n        /* \"#utility.yul\":641:665   */\n      tag_186\n        /* \"#utility.yul\":659:664   */\n      dup2\n        /* \"#utility.yul\":641:665   */\n      tag_149\n      jump\t// in\n    tag_186:\n        /* \"#utility.yul\":634:639   */\n      dup2\n        /* \"#utility.yul\":631:666   */\n      eq\n        /* \"#utility.yul\":621:684   */\n      tag_187\n      jumpi\n        /* \"#utility.yul\":680:681   */\n      0x00\n        /* \"#utility.yul\":677:678   */\n      0x00\n        /* \"#utility.yul\":670:682   */\n      revert\n        /* \"#utility.yul\":621:684   */\n    tag_187:\n        /* \"#utility.yul\":568:690   */\n      pop\n      jump\t// out\n        /* \"#utility.yul\":696:835   */\n    tag_151:\n        /* \"#utility.yul\":742:747   */\n      0x00\n        /* \"#utility.yul\":780:786   */\n      dup2\n        /* \"#utility.yul\":767:787   */\n      calldataload\n        /* \"#utility.yul\":758:787   */\n      swap1\n      pop\n        /* \"#utility.yul\":796:829   */\n      tag_189\n        /* \"#utility.yul\":823:828   */\n      dup2\n        /* \"#utility.yul\":796:829   */\n      tag_150\n      jump\t// in\n    tag_189:\n        /* \"#utility.yul\":696:835   */\n      swap3\n      swap2\n      pop\n      pop\n      jump\t// out\n        /* \"#utility.yul\":841:1170   */\n    tag_17:\n        /* \"#utility.yul\":900:906   */\n      0x00\n        /* \"#utility.yul\":949:951   */\n      0x20\n        /* \"#utility.yul\":937:946   */\n      dup3\n        /* \"#utility.yul\":928:935   */\n      dup5\n        /* \"#utility.yul\":924:947   */\n      sub\n        /* \"#utility.yul\":920:952   */\n      slt\n        /* \"#utility.yul\":917:1036   */\n      iszero\n      tag_191\n      jumpi\n        /* \"#utility.yul\":955:1034   */\n      tag_192\n      tag_146\n      jump\t// in\n    tag_192:\n        /* \"#utility.yul\":917:1036   */\n    tag_191:\n        /* \"#utility.yul\":1075:1076   */\n      0x00\n        /* \"#utility.yul\":1100:1153   */\n      tag_193\n        /* \"#utility.yul\":1145:1152   */\n      dup5\n        /* \"#utility.yul\":1136:1142   */\n      dup3\n        /* \"#utility.yul\":1125:1134   */\n      dup6\n        /* \"#utility.yul\":1121:1143   */\n      add\n        /* \"#utility.yul\":1100:1153   */\n      tag_151\n      jump\t// in\n    tag_193:\n        /* \"#utility.yul\":1090:1153   */\n      swap2\n      pop\n        /* \"#utility.yul\":1046:1163   */\n      pop\n        /* \"#utility.yul\":841:1170   */\n      swap3\n      swap2\n      pop\n      pop\n      jump\t// out\n        /* \"#utility.yul\":1176:1253   */\n    tag_152:\n        /* \"#utility.yul\":1213:1220   */\n      0x00\n        /* \"#utility.yul\":1242:1247   */\n      dup2\n        /* \"#utility.yul\":1231:1247   */\n      swap1\n      pop\n        /* \"#utility.yul\":1176:1253   */\n      swap2\n      swap1\n      pop\n      jump\t// out\n        /* \"#utility.yul\":1259:1377   */\n    tag_153:\n        /* \"#utility.yul\":1346:1370   */\n      tag_196\n        /* \"#utility.yul\":1364:1369   */\n      dup2\n        /* \"#utility.yul\":1346:1370   */\n      tag_152\n      jump\t// in\n    tag_196:\n        /* \"#utility.yul\":1341:1344   */\n      dup3\n        /* \"#utility.yul\":1334:1371   */\n      mstore\n        /* \"#utility.yul\":1259:1377   */\n      pop\n      pop\n      jump\t// out\n        /* \"#utility.yul\":1383:1605   */\n    tag_20:\n        /* \"#utility.yul\":1476:1480   */\n      0x00\n        /* \"#utility.yul\":1514:1516   */\n      0x20\n        /* \"#utility.yul\":1503:1512   */\n      dup3\n        /* \"#utility.yul\":1499:1517   */\n      add\n        /* \"#utility.yul\":1491:1517   */\n      swap1\n      pop\n        /* \"#utility.yul\":1527:1598   */\n      tag_198\n        /* \"#utility.yul\":1595:1596   */\n      0x00\n        /* \"#utility.yul\":1584:1593   */\n      dup4\n        /* \"#utility.yul\":1580:1597   */\n      add\n        /* \"#utility.yul\":1571:1577   */\n      dup5\n        /* \"#utility.yul\":1527:1598   */\n      tag_153\n      jump\t// in\n    tag_198:\n        /* \"#utility.yul\":1383:1605   */\n      swap3\n      swap2\n      pop\n      pop\n      jump\t// out\n        /* \"#utility.yul\":1611:1733   */\n    tag_154:\n        /* \"#utility.yul\":1684:1708   */\n      tag_200\n        /* \"#utility.yul\":1702:1707   */\n      dup2\n        /* \"#utility.yul\":1684:1708   */\n      tag_152\n      jump\t// in\n    tag_200:\n        /* \"#utility.yul\":1677:1682   */\n      dup2\n        /* \"#utility.yul\":1674:1709   */\n      eq\n        /* \"#utility.yul\":1664:1727   */\n      tag_201\n      jumpi\n        /* \"#utility.yul\":1723:1724   */\n      0x00\n        /* \"#utility.yul\":1720:1721   */\n      0x00\n        /* \"#utility.yul\":1713:1725   */\n      revert\n        /* \"#utility.yul\":1664:1727   */\n    tag_201:\n        /* \"#utility.yul\":1611:1733   */\n      pop\n      jump\t// out\n        /* \"#utility.yul\":1739:1878   */\n    tag_155:\n        /* \"#utility.yul\":1785:1790   */\n      0x00\n        /* \"#utility.yul\":1823:1829   */\n      dup2\n        /* \"#utility.yul\":1810:1830   */\n      calldataload\n        /* \"#utility.yul\":1801:1830   */\n      swap1\n      pop\n        /* \"#utility.yul\":1839:1872   */\n      tag_203\n        /* \"#utility.yul\":1866:1871   */\n      dup2\n        /* \"#utility.yul\":1839:1872   */\n      tag_154\n      jump\t// in\n    tag_203:\n        /* \"#utility.yul\":1739:1878   */\n      swap3\n      swap2\n      pop\n      pop\n      jump\t// out\n        /* \"#utility.yul\":1884:2213   */\n    tag_31:\n        /* \"#utility.yul\":1943:1949   */\n      0x00\n        /* \"#utility.yul\":1992:1994   */\n      0x20\n        /* \"#utility.yul\":1980:1989   */\n      dup3\n        /* \"#utility.yul\":1971:1978   */\n      dup5\n        /* \"#utility.yul\":1967:1990   */\n      sub\n        /* \"#utility.yul\":1963:1995   */\n      slt\n        /* \"#utility.yul\":1960:2079   */\n      iszero\n      tag_205\n      jumpi\n        /* \"#utility.yul\":1998:2077   */\n      tag_206\n      tag_146\n      jump\t// in\n    tag_206:\n        /* \"#utility.yul\":1960:2079   */\n    tag_205:\n        /* \"#utility.yul\":2118:2119   */\n      0x00\n        /* \"#utility.yul\":2143:2196   */\n      tag_207\n        /* \"#utility.yul\":2188:2195   */\n      dup5\n        /* \"#utility.yul\":2179:2185   */\n      dup3\n        /* \"#utility.yul\":2168:2177   */\n      dup6\n        /* \"#utility.yul\":2164:2186   */\n      add\n        /* \"#utility.yul\":2143:2196   */\n      tag_155\n      jump\t// in\n    tag_207:\n        /* \"#utility.yul\":2133:2196   */\n      swap2\n      pop\n        /* \"#utility.yul\":2089:2206   */\n      pop\n        /* \"#utility.yul\":1884:2213   */\n      swap3\n      swap2\n      pop\n      pop\n      jump\t// out\n        /* \"#utility.yul\":2219:2279   */\n    tag_156:\n        /* \"#utility.yul\":2247:2250   */\n      0x00\n        /* \"#utility.yul\":2268:2273   */\n      dup2\n        /* \"#utility.yul\":2261:2273   */\n      swap1\n      pop\n        /* \"#utility.yul\":2219:2279   */\n      swap2\n      swap1\n      pop\n      jump\t// out\n        /* \"#utility.yul\":2285:2427   */\n    tag_157:\n        /* \"#utility.yul\":2335:2344   */\n      0x00\n        /* \"#utility.yul\":2368:2421   */\n      tag_210\n        /* \"#utility.yul\":2386:2420   */\n      tag_211\n        /* \"#utility.yul\":2395:2419   */\n      tag_212\n        /* \"#utility.yul\":2413:2418   */\n      dup5\n        /* \"#utility.yul\":2395:2419   */\n      tag_148\n      jump\t// in\n    tag_212:\n        /* \"#utility.yul\":2386:2420   */\n      tag_156\n      jump\t// in\n    tag_211:\n        /* \"#utility.yul\":2368:2421   */\n      tag_148\n      jump\t// in\n    tag_210:\n        /* \"#utility.yul\":2355:2421   */\n      swap1\n      pop\n        /* \"#utility.yul\":2285:2427   */\n      swap2\n      swap1\n      pop\n      jump\t// out\n        /* \"#utility.yul\":2433:2559   */\n    tag_158:\n        /* \"#utility.yul\":2483:2492   */\n      0x00\n        /* \"#utility.yul\":2516:2553   */\n      tag_214\n        /* \"#utility.yul\":2547:2552   */\n      dup3\n        /* \"#utility.yul\":2516:2553   */\n      tag_157\n      jump\t// in\n    tag_214:\n        /* \"#utility.yul\":2503:2553   */\n      swap1\n      pop\n        /* \"#utility.yul\":2433:2559   */\n      swap2\n      swap1\n      pop\n      jump\t// out\n        /* \"#utility.yul\":2565:2704   */\n    tag_159:\n        /* \"#utility.yul\":2628:2637   */\n      0x00\n        /* \"#utility.yul\":2661:2698   */\n      tag_216\n        /* \"#utility.yul\":2692:2697   */\n      dup3\n        /* \"#utility.yul\":2661:2698   */\n      tag_158\n      jump\t// in\n    tag_216:\n        /* \"#utility.yul\":2648:2698   */\n      swap1\n      pop\n        /* \"#utility.yul\":2565:2704   */\n      swap2\n      swap1\n      pop\n      jump\t// out\n        /* \"#utility.yul\":2710:2867   */\n    tag_160:\n        /* \"#utility.yul\":2810:2860   */\n      tag_218\n        /* \"#utility.yul\":2854:2859   */\n      dup2\n        /* \"#utility.yul\":2810:2860   */\n      tag_159\n      jump\t// in\n    tag_218:\n        /* \"#utility.yul\":2805:2808   */\n      dup3\n        /* \"#utility.yul\":2798:2861   */\n      mstore\n        /* \"#utility.yul\":2710:2867   */\n      pop\n      pop\n      jump\t// out\n        /* \"#utility.yul\":2873:3121   */\n    tag_40:\n        /* \"#utility.yul\":2979:2983   */\n      0x00\n        /* \"#utility.yul\":3017:3019   */\n      0x20\n        /* \"#utility.yul\":3006:3015   */\n      dup3\n        /* \"#utility.yul\":3002:3020   */\n      add\n        /* \"#utility.yul\":2994:3020   */\n      swap1\n      pop\n        /* \"#utility.yul\":3030:3114   */\n      tag_220\n        /* \"#utility.yul\":3111:3112   */\n      0x00\n        /* \"#utility.yul\":3100:3109   */\n      dup4\n        /* \"#utility.yul\":3096:3113   */\n      add\n        /* \"#utility.yul\":3087:3093   */\n      dup5\n        /* \"#utility.yul\":3030:3114   */\n      tag_160\n      jump\t// in\n    tag_220:\n        /* \"#utility.yul\":2873:3121   */\n      swap3\n      swap2\n      pop\n      pop\n      jump\t// out\n        /* \"#utility.yul\":3127:3307   */\n    tag_161:\n        /* \"#utility.yul\":3175:3252   */\n      0x4e487b7100000000000000000000000000000000000000000000000000000000\n        /* \"#utility.yul\":3172:3173   */\n      0x00\n        /* \"#utility.yul\":3165:3253   */\n      mstore\n        /* \"#utility.yul\":3272:3276   */\n      0x11\n        /* \"#utility.yul\":3269:3270   */\n      0x04\n        /* \"#utility.yul\":3262:3277   */\n      mstore\n        /* \"#utility.yul\":3296:3300   */\n      0x24\n        /* \"#utility.yul\":3293:3294   */\n      0x00\n        /* \"#utility.yul\":3286:3301   */\n      revert\n        /* \"#utility.yul\":3313:3507   */\n    tag_58:\n        /* \"#utility.yul\":3353:3357   */\n      0x00\n        /* \"#utility.yul\":3373:3393   */\n      tag_223\n        /* \"#utility.yul\":3391:3392   */\n      dup3\n        /* \"#utility.yul\":3373:3393   */\n      tag_152\n      jump\t// in\n    tag_223:\n        /* \"#utility.yul\":3368:3393   */\n      swap2\n      pop\n        /* \"#utility.yul\":3407:3427   */\n      tag_224\n        /* \"#utility.yul\":3425:3426   */\n      dup4\n        /* \"#utility.yul\":3407:3427   */\n      tag_152\n      jump\t// in\n    tag_224:\n        /* \"#utility.yul\":3402:3427   */\n      swap3\n      pop\n        /* \"#utility.yul\":3451:3452   */\n      dup3\n        /* \"#utility.yul\":3448:3449   */\n      dup3\n        /* \"#utility.yul\":3444:3453   */\n      sub\n        /* \"#utility.yul\":3436:3453   */\n      swap1\n      pop\n        /* \"#utility.yul\":3475:3476   */\n      dup2\n        /* \"#utility.yul\":3469:3473   */\n      dup2\n        /* \"#utility.yul\":3466:3477   */\n      gt\n        /* \"#utility.yul\":3463:3500   */\n      iszero\n      tag_225\n      jumpi\n        /* \"#utility.yul\":3480:3498   */\n      tag_226\n      tag_161\n      jump\t// in\n    tag_226:\n        /* \"#utility.yul\":3463:3500   */\n    tag_225:\n        /* \"#utility.yul\":3313:3507   */\n      swap3\n      swap2\n      pop\n      pop\n      jump\t// out\n        /* \"#utility.yul\":3513:3923   */\n    tag_60:\n        /* \"#utility.yul\":3553:3560   */\n      0x00\n        /* \"#utility.yul\":3576:3596   */\n      tag_228\n        /* \"#utility.yul\":3594:3595   */\n      dup3\n        /* \"#utility.yul\":3576:3596   */\n      tag_152\n      jump\t// in\n    tag_228:\n        /* \"#utility.yul\":3571:3596   */\n      swap2\n      pop\n        /* \"#utility.yul\":3610:3630   */\n      tag_229\n        /* \"#utility.yul\":3628:3629   */\n      dup4\n        /* \"#utility.yul\":3610:3630   */\n      tag_152\n      jump\t// in\n    tag_229:\n        /* \"#utility.yul\":3605:3630   */\n      swap3\n      pop\n        /* \"#utility.yul\":3665:3666   */\n      dup3\n        /* \"#utility.yul\":3662:3663   */\n      dup3\n        /* \"#utility.yul\":3658:3667   */\n      mul\n        /* \"#utility.yul\":3687:3717   */\n      tag_230\n        /* \"#utility.yul\":3705:3716   */\n      dup2\n        /* \"#utility.yul\":3687:3717   */\n      tag_152\n      jump\t// in\n    tag_230:\n        /* \"#utility.yul\":3676:3717   */\n      swap2\n      pop\n        /* \"#utility.yul\":3866:3867   */\n      dup3\n        /* \"#utility.yul\":3857:3864   */\n      dup3\n        /* \"#utility.yul\":3853:3868   */\n      div\n        /* \"#utility.yul\":3850:3851   */\n      dup5\n        /* \"#utility.yul\":3847:3869   */\n      eq\n        /* \"#utility.yul\":3827:3828   */\n      dup4\n        /* \"#utility.yul\":3820:3829   */\n      iszero\n        /* \"#utility.yul\":3800:3883   */\n      or\n        /* \"#utility.yul\":3777:3916   */\n      tag_231\n      jumpi\n        /* \"#utility.yul\":3896:3914   */\n      tag_232\n      tag_161\n      jump\t// in\n    tag_232:\n        /* \"#utility.yul\":3777:3916   */\n    tag_231:\n        /* \"#utility.yul\":3561:3923   */\n      pop\n        /* \"#utility.yul\":3513:3923   */\n      swap3\n      swap2\n      pop\n      pop\n      jump\t// out\n        /* \"#utility.yul\":3929:4109   */\n    tag_162:\n        /* \"#utility.yul\":3977:4054   */\n      0x4e487b7100000000000000000000000000000000000000000000000000000000\n        /* \"#utility.yul\":3974:3975   */\n      0x00\n        /* \"#utility.yul\":3967:4055   */\n      mstore\n        /* \"#utility.yul\":4074:4078   */\n      0x12\n        /* \"#utility.yul\":4071:4072   */\n      0x04\n        /* \"#utility.yul\":4064:4079   */\n      mstore\n        /* \"#utility.yul\":4098:4102   */\n      0x24\n        /* \"#utility.yul\":4095:4096   */\n      0x00\n        /* \"#utility.yul\":4088:4103   */\n      revert\n        /* \"#utility.yul\":4115:4300   */\n    tag_63:\n        /* \"#utility.yul\":4155:4156   */\n      0x00\n        /* \"#utility.yul\":4172:4192   */\n      tag_235\n        /* \"#utility.yul\":4190:4191   */\n      dup3\n        /* \"#utility.yul\":4172:4192   */\n      tag_152\n      jump\t// in\n    tag_235:\n        /* \"#utility.yul\":4167:4192   */\n      swap2\n      pop\n        /* \"#utility.yul\":4206:4226   */\n      tag_236\n        /* \"#utility.yul\":4224:4225   */\n      dup4\n        /* \"#utility.yul\":4206:4226   */\n      tag_152\n      jump\t// in\n    tag_236:\n        /* \"#utility.yul\":4201:4226   */\n      swap3\n      pop\n        /* \"#utility.yul\":4245:4246   */\n      dup3\n        /* \"#utility.yul\":4235:4270   */\n      tag_237\n      jumpi\n        /* \"#utility.yul\":4250:4268   */\n      tag_238\n      tag_162\n      jump\t// in\n    tag_238:\n        /* \"#utility.yul\":4235:4270   */\n    tag_237:\n        /* \"#utility.yul\":4292:4293   */\n      dup3\n        /* \"#utility.yul\":4289:4290   */\n      dup3\n        /* \"#utility.yul\":4285:4294   */\n      div\n        /* \"#utility.yul\":4280:4294   */\n      swap1\n      pop\n        /* \"#utility.yul\":4115:4300   */\n      swap3\n      swap2\n      pop\n      pop\n      jump\t// out\n        /* \"#utility.yul\":4306:4497   */\n    tag_65:\n        /* \"#utility.yul\":4346:4349   */\n      0x00\n        /* \"#utility.yul\":4365:4385   */\n      tag_240\n        /* \"#utility.yul\":4383:4384   */\n      dup3\n        /* \"#utility.yul\":4365:4385   */\n      tag_152\n      jump\t// in\n    tag_240:\n        /* \"#utility.yul\":4360:4385   */\n      swap2\n      pop\n        /* \"#utility.yul\":4399:4419   */\n      tag_241\n        /* \"#utility.yul\":4417:4418   */\n      dup4\n        /* \"#utility.yul\":4399:4419   */\n      tag_152\n      jump\t// in\n    tag_241:\n        /* \"#utility.yul\":4394:4419   */\n      swap3\n      pop\n        /* \"#utility.yul\":4442:4443   */\n      dup3\n        /* \"#utility.yul\":4439:4440   */\n      dup3\n        /* \"#utility.yul\":4435:4444   */\n      add\n        /* \"#utility.yul\":4428:4444   */\n      swap1\n      pop\n        /* \"#utility.yul\":4463:4466   */\n      dup1\n        /* \"#utility.yul\":4460:4461   */\n      dup3\n        /* \"#utility.yul\":4457:4467   */\n      gt\n        /* \"#utility.yul\":4454:4490   */\n      iszero\n      tag_242\n      jumpi\n        /* \"#utility.yul\":4470:4488   */\n      tag_243\n      tag_161\n      jump\t// in\n    tag_243:\n        /* \"#utility.yul\":4454:4490   */\n    tag_242:\n        /* \"#utility.yul\":4306:4497   */\n      swap3\n      swap2\n      pop\n      pop\n      jump\t// out\n        /* \"#utility.yul\":4503:4672   */\n    tag_163:\n        /* \"#utility.yul\":4587:4598   */\n      0x00\n        /* \"#utility.yul\":4621:4627   */\n      dup3\n        /* \"#utility.yul\":4616:4619   */\n      dup3\n        /* \"#utility.yul\":4609:4628   */\n      mstore\n        /* \"#utility.yul\":4661:4665   */\n      0x20\n        /* \"#utility.yul\":4656:4659   */\n      dup3\n        /* \"#utility.yul\":4652:4666   */\n      add\n        /* \"#utility.yul\":4637:4666   */\n      swap1\n      pop\n        /* \"#utility.yul\":4503:4672   */\n      swap3\n      swap2\n      pop\n      pop\n      jump\t// out\n        /* \"#utility.yul\":4678:4856   */\n    tag_164:\n        /* \"#utility.yul\":4818:4848   */\n      0x4b776f7461206d75736920627963207769656b737a61206e697a203000000000\n        /* \"#utility.yul\":4814:4815   */\n      0x00\n        /* \"#utility.yul\":4806:4812   */\n      dup3\n        /* \"#utility.yul\":4802:4816   */\n      add\n        /* \"#utility.yul\":4795:4849   */\n      mstore\n        /* \"#utility.yul\":4678:4856   */\n      pop\n      jump\t// out\n        /* \"#utility.yul\":4862:5228   */\n    tag_165:\n        /* \"#utility.yul\":5004:5007   */\n      0x00\n        /* \"#utility.yul\":5025:5092   */\n      tag_247\n        /* \"#utility.yul\":5089:5091   */\n      0x1c\n        /* \"#utility.yul\":5084:5087   */\n      dup4\n        /* \"#utility.yul\":5025:5092   */\n      tag_163\n      jump\t// in\n    tag_247:\n        /* \"#utility.yul\":5018:5092   */\n      swap2\n      pop\n        /* \"#utility.yul\":5101:5194   */\n      tag_248\n        /* \"#utility.yul\":5190:5193   */\n      dup3\n        /* \"#utility.yul\":5101:5194   */\n      tag_164\n      jump\t// in\n    tag_248:\n        /* \"#utility.yul\":5219:5221   */\n      0x20\n        /* \"#utility.yul\":5214:5217   */\n      dup3\n        /* \"#utility.yul\":5210:5222   */\n      add\n        /* \"#utility.yul\":5203:5222   */\n      swap1\n      pop\n        /* \"#utility.yul\":4862:5228   */\n      swap2\n      swap1\n      pop\n      jump\t// out\n        /* \"#utility.yul\":5234:5653   */\n    tag_74:\n        /* \"#utility.yul\":5400:5404   */\n      0x00\n        /* \"#utility.yul\":5438:5440   */\n      0x20\n        /* \"#utility.yul\":5427:5436   */\n      dup3\n        /* \"#utility.yul\":5423:5441   */\n      add\n        /* \"#utility.yul\":5415:5441   */\n      swap1\n      pop\n        /* \"#utility.yul\":5487:5496   */\n      dup2\n        /* \"#utility.yul\":5481:5485   */\n      dup2\n        /* \"#utility.yul\":5477:5497   */\n      sub\n        /* \"#utility.yul\":5473:5474   */\n      0x00\n        /* \"#utility.yul\":5462:5471   */\n      dup4\n        /* \"#utility.yul\":5458:5475   */\n      add\n        /* \"#utility.yul\":5451:5498   */\n      mstore\n        /* \"#utility.yul\":5515:5646   */\n      tag_250\n        /* \"#utility.yul\":5641:5645   */\n      dup2\n        /* \"#utility.yul\":5515:5646   */\n      tag_165\n      jump\t// in\n    tag_250:\n        /* \"#utility.yul\":5507:5646   */\n      swap1\n      pop\n        /* \"#utility.yul\":5234:5653   */\n      swap2\n      swap1\n      pop\n      jump\t// out\n        /* \"#utility.yul\":5659:5838   */\n    tag_166:\n        /* \"#utility.yul\":5799:5830   */\n      0x5a61206d616c6f207a61626c6f6b6f77616e7963682073726f646b6f77000000\n        /* \"#utility.yul\":5795:5796   */\n      0x00\n        /* \"#utility.yul\":5787:5793   */\n      dup3\n        /* \"#utility.yul\":5783:5797   */\n      add\n        /* \"#utility.yul\":5776:5831   */\n      mstore\n        /* \"#utility.yul\":5659:5838   */\n      pop\n      jump\t// out\n        /* \"#utility.yul\":5844:6210   */\n    tag_167:\n        /* \"#utility.yul\":5986:5989   */\n      0x00\n        /* \"#utility.yul\":6007:6074   */\n      tag_253\n        /* \"#utility.yul\":6071:6073   */\n      0x1d\n        /* \"#utility.yul\":6066:6069   */\n      dup4\n        /* \"#utility.yul\":6007:6074   */\n      tag_163\n      jump\t// in\n    tag_253:\n        /* \"#utility.yul\":6000:6074   */\n      swap2\n      pop\n        /* \"#utility.yul\":6083:6176   */\n      tag_254\n        /* \"#utility.yul\":6172:6175   */\n      dup3\n        /* \"#utility.yul\":6083:6176   */\n      tag_166\n      jump\t// in\n    tag_254:\n        /* \"#utility.yul\":6201:6203   */\n      0x20\n        /* \"#utility.yul\":6196:6199   */\n      dup3\n        /* \"#utility.yul\":6192:6204   */\n      add\n        /* \"#utility.yul\":6185:6204   */\n      swap1\n      pop\n        /* \"#utility.yul\":5844:6210   */\n      swap2\n      swap1\n      pop\n      jump\t// out\n        /* \"#utility.yul\":6216:6635   */\n    tag_77:\n        /* \"#utility.yul\":6382:6386   */\n      0x00\n        /* \"#utility.yul\":6420:6422   */\n      0x20\n        /* \"#utility.yul\":6409:6418   */\n      dup3\n        /* \"#utility.yul\":6405:6423   */\n      add\n        /* \"#utility.yul\":6397:6423   */\n      swap1\n      pop\n        /* \"#utility.yul\":6469:6478   */\n      dup2\n        /* \"#utility.yul\":6463:6467   */\n      dup2\n        /* \"#utility.yul\":6459:6479   */\n      sub\n        /* \"#utility.yul\":6455:6456   */\n      0x00\n        /* \"#utility.yul\":6444:6453   */\n      dup4\n        /* \"#utility.yul\":6440:6457   */\n      add\n        /* \"#utility.yul\":6433:6480   */\n      mstore\n        /* \"#utility.yul\":6497:6628   */\n      tag_256\n        /* \"#utility.yul\":6623:6627   */\n      dup2\n        /* \"#utility.yul\":6497:6628   */\n      tag_167\n      jump\t// in\n    tag_256:\n        /* \"#utility.yul\":6489:6628   */\n      swap1\n      pop\n        /* \"#utility.yul\":6216:6635   */\n      swap2\n      swap1\n      pop\n      jump\t// out\n        /* \"#utility.yul\":6641:6759   */\n    tag_168:\n        /* \"#utility.yul\":6728:6752   */\n      tag_258\n        /* \"#utility.yul\":6746:6751   */\n      dup2\n        /* \"#utility.yul\":6728:6752   */\n      tag_149\n      jump\t// in\n    tag_258:\n        /* \"#utility.yul\":6723:6726   */\n      dup3\n        /* \"#utility.yul\":6716:6753   */\n      mstore\n        /* \"#utility.yul\":6641:6759   */\n      pop\n      pop\n      jump\t// out\n        /* \"#utility.yul\":6765:7097   */\n    tag_81:\n        /* \"#utility.yul\":6886:6890   */\n      0x00\n        /* \"#utility.yul\":6924:6926   */\n      0x40\n        /* \"#utility.yul\":6913:6922   */\n      dup3\n        /* \"#utility.yul\":6909:6927   */\n      add\n        /* \"#utility.yul\":6901:6927   */\n      swap1\n      pop\n        /* \"#utility.yul\":6937:7008   */\n      tag_260\n        /* \"#utility.yul\":7005:7006   */\n      0x00\n        /* \"#utility.yul\":6994:7003   */\n      dup4\n        /* \"#utility.yul\":6990:7007   */\n      add\n        /* \"#utility.yul\":6981:6987   */\n      dup6\n        /* \"#utility.yul\":6937:7008   */\n      tag_168\n      jump\t// in\n    tag_260:\n        /* \"#utility.yul\":7018:7090   */\n      tag_261\n        /* \"#utility.yul\":7086:7088   */\n      0x20\n        /* \"#utility.yul\":7075:7084   */\n      dup4\n        /* \"#utility.yul\":7071:7089   */\n      add\n        /* \"#utility.yul\":7062:7068   */\n      dup5\n        /* \"#utility.yul\":7018:7090   */\n      tag_153\n      jump\t// in\n    tag_261:\n        /* \"#utility.yul\":6765:7097   */\n      swap4\n      swap3\n      pop\n      pop\n      pop\n      jump\t// out\n        /* \"#utility.yul\":7103:7193   */\n    tag_169:\n        /* \"#utility.yul\":7137:7144   */\n      0x00\n        /* \"#utility.yul\":7180:7185   */\n      dup2\n        /* \"#utility.yul\":7173:7186   */\n      iszero\n        /* \"#utility.yul\":7166:7187   */\n      iszero\n        /* \"#utility.yul\":7155:7187   */\n      swap1\n      pop\n        /* \"#utility.yul\":7103:7193   */\n      swap2\n      swap1\n      pop\n      jump\t// out\n        /* \"#utility.yul\":7199:7315   */\n    tag_170:\n        /* \"#utility.yul\":7269:7290   */\n      tag_264\n        /* \"#utility.yul\":7284:7289   */\n      dup2\n        /* \"#utility.yul\":7269:7290   */\n      tag_169\n      jump\t// in\n    tag_264:\n        /* \"#utility.yul\":7262:7267   */\n      dup2\n        /* \"#utility.yul\":7259:7291   */\n      eq\n        /* \"#utility.yul\":7249:7309   */\n      tag_265\n      jumpi\n        /* \"#utility.yul\":7305:7306   */\n      0x00\n        /* \"#utility.yul\":7302:7303   */\n      0x00\n        /* \"#utility.yul\":7295:7307   */\n      revert\n        /* \"#utility.yul\":7249:7309   */\n    tag_265:\n        /* \"#utility.yul\":7199:7315   */\n      pop\n      jump\t// out\n        /* \"#utility.yul\":7321:7458   */\n    tag_171:\n        /* \"#utility.yul\":7375:7380   */\n      0x00\n        /* \"#utility.yul\":7406:7412   */\n      dup2\n        /* \"#utility.yul\":7400:7413   */\n      mload\n        /* \"#utility.yul\":7391:7413   */\n      swap1\n      pop\n        /* \"#utility.yul\":7422:7452   */\n      tag_267\n        /* \"#utility.yul\":7446:7451   */\n      dup2\n        /* \"#utility.yul\":7422:7452   */\n      tag_170\n      jump\t// in\n    tag_267:\n        /* \"#utility.yul\":7321:7458   */\n      swap3\n      swap2\n      pop\n      pop\n      jump\t// out\n        /* \"#utility.yul\":7464:7809   */\n    tag_85:\n        /* \"#utility.yul\":7531:7537   */\n      0x00\n        /* \"#utility.yul\":7580:7582   */\n      0x20\n        /* \"#utility.yul\":7568:7577   */\n      dup3\n        /* \"#utility.yul\":7559:7566   */\n      dup5\n        /* \"#utility.yul\":7555:7578   */\n      sub\n        /* \"#utility.yul\":7551:7583   */\n      slt\n        /* \"#utility.yul\":7548:7667   */\n      iszero\n      tag_269\n      jumpi\n        /* \"#utility.yul\":7586:7665   */\n      tag_270\n      tag_146\n      jump\t// in\n    tag_270:\n        /* \"#utility.yul\":7548:7667   */\n    tag_269:\n        /* \"#utility.yul\":7706:7707   */\n      0x00\n        /* \"#utility.yul\":7731:7792   */\n      tag_271\n        /* \"#utility.yul\":7784:7791   */\n      dup5\n        /* \"#utility.yul\":7775:7781   */\n      dup3\n        /* \"#utility.yul\":7764:7773   */\n      dup6\n        /* \"#utility.yul\":7760:7782   */\n      add\n        /* \"#utility.yul\":7731:7792   */\n      tag_171\n      jump\t// in\n    tag_271:\n        /* \"#utility.yul\":7721:7792   */\n      swap2\n      pop\n        /* \"#utility.yul\":7677:7802   */\n      pop\n        /* \"#utility.yul\":7464:7809   */\n      swap3\n      swap2\n      pop\n      pop\n      jump\t// out\n        /* \"#utility.yul\":7815:7990   */\n    tag_172:\n        /* \"#utility.yul\":7955:7982   */\n      0x5472616e73666572207a77726f746e79206e69657564616e7900000000000000\n        /* \"#utility.yul\":7951:7952   */\n      0x00\n        /* \"#utility.yul\":7943:7949   */\n      dup3\n        /* \"#utility.yul\":7939:7953   */\n      add\n        /* \"#utility.yul\":7932:7983   */\n      mstore\n        /* \"#utility.yul\":7815:7990   */\n      pop\n      jump\t// out\n        /* \"#utility.yul\":7996:8362   */\n    tag_173:\n        /* \"#utility.yul\":8138:8141   */\n      0x00\n        /* \"#utility.yul\":8159:8226   */\n      tag_274\n        /* \"#utility.yul\":8223:8225   */\n      0x19\n        /* \"#utility.yul\":8218:8221   */\n      dup4\n        /* \"#utility.yul\":8159:8226   */\n      tag_163\n      jump\t// in\n    tag_274:\n        /* \"#utility.yul\":8152:8226   */\n      swap2\n      pop\n        /* \"#utility.yul\":8235:8328   */\n      tag_275\n        /* \"#utility.yul\":8324:8327   */\n      dup3\n        /* \"#utility.yul\":8235:8328   */\n      tag_172\n      jump\t// in\n    tag_275:\n        /* \"#utility.yul\":8353:8355   */\n      0x20\n        /* \"#utility.yul\":8348:8351   */\n      dup3\n        /* \"#utility.yul\":8344:8356   */\n      add\n        /* \"#utility.yul\":8337:8356   */\n      swap1\n      pop\n        /* \"#utility.yul\":7996:8362   */\n      swap2\n      swap1\n      pop\n      jump\t// out\n        /* \"#utility.yul\":8368:8787   */\n    tag_88:\n        /* \"#utility.yul\":8534:8538   */\n      0x00\n        /* \"#utility.yul\":8572:8574   */\n      0x20\n        /* \"#utility.yul\":8561:8570   */\n      dup3\n        /* \"#utility.yul\":8557:8575   */\n      add\n        /* \"#utility.yul\":8549:8575   */\n      swap1\n      pop\n        /* \"#utility.yul\":8621:8630   */\n      dup2\n        /* \"#utility.yul\":8615:8619   */\n      dup2\n        /* \"#utility.yul\":8611:8631   */\n      sub\n        /* \"#utility.yul\":8607:8608   */\n      0x00\n        /* \"#utility.yul\":8596:8605   */\n      dup4\n        /* \"#utility.yul\":8592:8609   */\n      add\n        /* \"#utility.yul\":8585:8632   */\n      mstore\n        /* \"#utility.yul\":8649:8780   */\n      tag_277\n        /* \"#utility.yul\":8775:8779   */\n      dup2\n        /* \"#utility.yul\":8649:8780   */\n      tag_173\n      jump\t// in\n    tag_277:\n        /* \"#utility.yul\":8641:8780   */\n      swap1\n      pop\n        /* \"#utility.yul\":8368:8787   */\n      swap2\n      swap1\n      pop\n      jump\t// out\n        /* \"#utility.yul\":8793:9235   */\n    tag_102:\n        /* \"#utility.yul\":8942:8946   */\n      0x00\n        /* \"#utility.yul\":8980:8982   */\n      0x60\n        /* \"#utility.yul\":8969:8978   */\n      dup3\n        /* \"#utility.yul\":8965:8983   */\n      add\n        /* \"#utility.yul\":8957:8983   */\n      swap1\n      pop\n        /* \"#utility.yul\":8993:9064   */\n      tag_279\n        /* \"#utility.yul\":9061:9062   */\n      0x00\n        /* \"#utility.yul\":9050:9059   */\n      dup4\n        /* \"#utility.yul\":9046:9063   */\n      add\n        /* \"#utility.yul\":9037:9043   */\n      dup7\n        /* \"#utility.yul\":8993:9064   */\n      tag_168\n      jump\t// in\n    tag_279:\n        /* \"#utility.yul\":9074:9146   */\n      tag_280\n        /* \"#utility.yul\":9142:9144   */\n      0x20\n        /* \"#utility.yul\":9131:9140   */\n      dup4\n        /* \"#utility.yul\":9127:9145   */\n      add\n        /* \"#utility.yul\":9118:9124   */\n      dup6\n        /* \"#utility.yul\":9074:9146   */\n      tag_168\n      jump\t// in\n    tag_280:\n        /* \"#utility.yul\":9156:9228   */\n      tag_281\n        /* \"#utility.yul\":9224:9226   */\n      0x40\n        /* \"#utility.yul\":9213:9222   */\n      dup4\n        /* \"#utility.yul\":9209:9227   */\n      add\n        /* \"#utility.yul\":9200:9206   */\n      dup5\n        /* \"#utility.yul\":9156:9228   */\n      tag_153\n      jump\t// in\n    tag_281:\n        /* \"#utility.yul\":8793:9235   */\n      swap5\n      swap4\n      pop\n      pop\n      pop\n      pop\n      jump\t// out\n        /* \"#utility.yul\":9241:9416   */\n    tag_174:\n        /* \"#utility.yul\":9381:9408   */\n      0x5472616e7366657220646f2070756c69206e69657564616e7900000000000000\n        /* \"#utility.yul\":9377:9378   */\n      0x00\n        /* \"#utility.yul\":9369:9375   */\n      dup3\n        /* \"#utility.yul\":9365:9379   */\n      add\n        /* \"#utility.yul\":9358:9409   */\n      mstore\n        /* \"#utility.yul\":9241:9416   */\n      pop\n      jump\t// out\n        /* \"#utility.yul\":9422:9788   */\n    tag_175:\n        /* \"#utility.yul\":9564:9567   */\n      0x00\n        /* \"#utility.yul\":9585:9652   */\n      tag_284\n        /* \"#utility.yul\":9649:9651   */\n      0x19\n        /* \"#utility.yul\":9644:9647   */\n      dup4\n        /* \"#utility.yul\":9585:9652   */\n      tag_163\n      jump\t// in\n    tag_284:\n        /* \"#utility.yul\":9578:9652   */\n      swap2\n      pop\n        /* \"#utility.yul\":9661:9754   */\n      tag_285\n        /* \"#utility.yul\":9750:9753   */\n      dup3\n        /* \"#utility.yul\":9661:9754   */\n      tag_174\n      jump\t// in\n    tag_285:\n        /* \"#utility.yul\":9779:9781   */\n      0x20\n        /* \"#utility.yul\":9774:9777   */\n      dup3\n        /* \"#utility.yul\":9770:9782   */\n      add\n        /* \"#utility.yul\":9763:9782   */\n      swap1\n      pop\n        /* \"#utility.yul\":9422:9788   */\n      swap2\n      swap1\n      pop\n      jump\t// out\n        /* \"#utility.yul\":9794:10213   */\n    tag_108:\n        /* \"#utility.yul\":9960:9964   */\n      0x00\n        /* \"#utility.yul\":9998:10000   */\n      0x20\n        /* \"#utility.yul\":9987:9996   */\n      dup3\n        /* \"#utility.yul\":9983:10001   */\n      add\n        /* \"#utility.yul\":9975:10001   */\n      swap1\n      pop\n        /* \"#utility.yul\":10047:10056   */\n      dup2\n        /* \"#utility.yul\":10041:10045   */\n      dup2\n        /* \"#utility.yul\":10037:10057   */\n      sub\n        /* \"#utility.yul\":10033:10034   */\n      0x00\n        /* \"#utility.yul\":10022:10031   */\n      dup4\n        /* \"#utility.yul\":10018:10035   */\n      add\n        /* \"#utility.yul\":10011:10058   */\n      mstore\n        /* \"#utility.yul\":10075:10206   */\n      tag_287\n        /* \"#utility.yul\":10201:10205   */\n      dup2\n        /* \"#utility.yul\":10075:10206   */\n      tag_175\n      jump\t// in\n    tag_287:\n        /* \"#utility.yul\":10067:10206   */\n      swap1\n      pop\n        /* \"#utility.yul\":9794:10213   */\n      swap2\n      swap1\n      pop\n      jump\t// out\n        /* \"#utility.yul\":10219:10393   */\n    tag_176:\n        /* \"#utility.yul\":10359:10385   */\n      0x5779706c617461206e6167726f6479206e69657564616e610000000000000000\n        /* \"#utility.yul\":10355:10356   */\n      0x00\n        /* \"#utility.yul\":10347:10353   */\n      dup3\n        /* \"#utility.yul\":10343:10357   */\n      add\n        /* \"#utility.yul\":10336:10386   */\n      mstore\n        /* \"#utility.yul\":10219:10393   */\n      pop\n      jump\t// out\n        /* \"#utility.yul\":10399:10765   */\n    tag_177:\n        /* \"#utility.yul\":10541:10544   */\n      0x00\n        /* \"#utility.yul\":10562:10629   */\n      tag_290\n        /* \"#utility.yul\":10626:10628   */\n      0x18\n        /* \"#utility.yul\":10621:10624   */\n      dup4\n        /* \"#utility.yul\":10562:10629   */\n      tag_163\n      jump\t// in\n    tag_290:\n        /* \"#utility.yul\":10555:10629   */\n      swap2\n      pop\n        /* \"#utility.yul\":10638:10731   */\n      tag_291\n        /* \"#utility.yul\":10727:10730   */\n      dup3\n        /* \"#utility.yul\":10638:10731   */\n      tag_176\n      jump\t// in\n    tag_291:\n        /* \"#utility.yul\":10756:10758   */\n      0x20\n        /* \"#utility.yul\":10751:10754   */\n      dup3\n        /* \"#utility.yul\":10747:10759   */\n      add\n        /* \"#utility.yul\":10740:10759   */\n      swap1\n      pop\n        /* \"#utility.yul\":10399:10765   */\n      swap2\n      swap1\n      pop\n      jump\t// out\n        /* \"#utility.yul\":10771:11190   */\n    tag_123:\n        /* \"#utility.yul\":10937:10941   */\n      0x00\n        /* \"#utility.yul\":10975:10977   */\n      0x20\n        /* \"#utility.yul\":10964:10973   */\n      dup3\n        /* \"#utility.yul\":10960:10978   */\n      add\n        /* \"#utility.yul\":10952:10978   */\n      swap1\n      pop\n        /* \"#utility.yul\":11024:11033   */\n      dup2\n        /* \"#utility.yul\":11018:11022   */\n      dup2\n        /* \"#utility.yul\":11014:11034   */\n      sub\n        /* \"#utility.yul\":11010:11011   */\n      0x00\n        /* \"#utility.yul\":10999:11008   */\n      dup4\n        /* \"#utility.yul\":10995:11012   */\n      add\n        /* \"#utility.yul\":10988:11035   */\n      mstore\n        /* \"#utility.yul\":11052:11183   */\n      tag_293\n        /* \"#utility.yul\":11178:11182   */\n      dup2\n        /* \"#utility.yul\":11052:11183   */\n      tag_177\n      jump\t// in\n    tag_293:\n        /* \"#utility.yul\":11044:11183   */\n      swap1\n      pop\n        /* \"#utility.yul\":10771:11190   */\n      swap2\n      swap1\n      pop\n      jump\t// out\n\n    auxdata: 0xa26469706673582212202fc734a51de410f4b15087955a812ab02bff73ab0347dd3a682a2beb1e0a552464736f6c63430008220033\n}\n",
				"bytecode": {
					"linkReferences": {},
					"object": "60806040526509184e72a000600255348015610019575f5ffd5b50604051611469380380611469833981810160405281019061003b9190610175565b600161005961004e6100e560201b60201c565b61010e60201b60201c565b5f0181905550815f5f6101000a81548173ffffffffffffffffffffffffffffffffffffffff021916908373ffffffffffffffffffffffffffffffffffffffff1602179055508060015f6101000a81548173ffffffffffffffffffffffffffffffffffffffff021916908373ffffffffffffffffffffffffffffffffffffffff16021790555050506101b3565b5f7f9b779b17422d0df92223018b32b4d1fa46e071723d6817e2486d003becc55f005f1b905090565b5f819050919050565b5f5ffd5b5f73ffffffffffffffffffffffffffffffffffffffff82169050919050565b5f6101448261011b565b9050919050565b6101548161013a565b811461015e575f5ffd5b50565b5f8151905061016f8161014b565b92915050565b5f5f6040838503121561018b5761018a610117565b5b5f61019885828601610161565b92505060206101a985828601610161565b9150509250929050565b6112a9806101c05f395ff3fe608060405234801561000f575f5ffd5b50600436106100a6575f3560e01c806372f702f31161006f57806372f702f3146101865780637b0a47ee146101a4578063817b1cd2146101c2578063a694fc3a146101e0578063b88a802f146101fc578063f7c618c114610206576100a6565b80628cc262146100aa5780630700037d146100da5780632ce9aead1461010a5780632e1a7d4d1461013a57806345bc78ab14610156575b5f5ffd5b6100c460048036038101906100bf9190610d3a565b610224565b6040516100d19190610d7d565b60405180910390f35b6100f460048036038101906100ef9190610d3a565b6103b9565b6040516101019190610d7d565b60405180910390f35b610124600480360381019061011f9190610d3a565b6103ce565b6040516101319190610d7d565b60405180910390f35b610154600480360381019061014f9190610dc0565b6103e3565b005b610170600480360381019061016b9190610d3a565b6106d9565b60405161017d9190610d7d565b60405180910390f35b61018e6106ee565b60405161019b9190610e46565b60405180910390f35b6101ac610712565b6040516101b99190610d7d565b60405180910390f35b6101ca610718565b6040516101d79190610d7d565b60405180910390f35b6101fa60048036038101906101f59190610dc0565b61071e565b005b610204610996565b005b61020e610bec565b60405161021b9190610e46565b60405180910390f35b5f5f60035f8473ffffffffffffffffffffffffffffffffffffffff1673ffffffffffffffffffffffffffffffffffffffff1681526020019081526020015f2054036102ae5760055f8373ffffffffffffffffffffffffffffffffffffffff1673ffffffffffffffffffffffffffffffffffffffff1681526020019081526020015f205490506103b4565b5f60045f8473ffffffffffffffffffffffffffffffffffffffff1673ffffffffffffffffffffffffffffffffffffffff1681526020019081526020015f2054426102f89190610e8c565b90505f670de0b6b3a76400006002548360035f8873ffffffffffffffffffffffffffffffffffffffff1673ffffffffffffffffffffffffffffffffffffffff1681526020019081526020015f20546103509190610ebf565b61035a9190610ebf565b6103649190610f2d565b90508060055f8673ffffffffffffffffffffffffffffffffffffffff1673ffffffffffffffffffffffffffffffffffffffff1681526020019081526020015f20546103af9190610f5d565b925050505b919050565b6005602052805f5260405f205f915090505481565b6004602052805f5260405f205f915090505481565b6103eb610c11565b336103f581610224565b60055f8373ffffffffffffffffffffffffffffffffffffffff1673ffffffffffffffffffffffffffffffffffffffff1681526020019081526020015f20819055504260045f8373ffffffffffffffffffffffffffffffffffffffff1673ffffffffffffffffffffffffffffffffffffffff1681526020019081526020015f20819055505f82116104ba576040517f08c379a00000000000000000000000000000000000000000000000000000000081526004016104b190610fea565b60405180910390fd5b8160035f3373ffffffffffffffffffffffffffffffffffffffff1673ffffffffffffffffffffffffffffffffffffffff1681526020019081526020015f2054101561053a576040517f08c379a000000000000000000000000000000000000000000000000000000000815260040161053190611052565b60405180910390fd5b8160035f3373ffffffffffffffffffffffffffffffffffffffff1673ffffffffffffffffffffffffffffffffffffffff1681526020019081526020015f205f8282546105869190610e8c565b925050819055508160065f82825461059e9190610e8c565b925050819055505f5f9054906101000a900473ffffffffffffffffffffffffffffffffffffffff1673ffffffffffffffffffffffffffffffffffffffff1663a9059cbb33846040518363ffffffff1660e01b815260040161060092919061107f565b6020604051808303815f875af115801561061c573d5f5f3e3d5ffd5b505050506040513d601f19601f8201168201806040525081019061064091906110db565b61067f576040517f08c379a000000000000000000000000000000000000000000000000000000000815260040161067690611150565b60405180910390fd5b3373ffffffffffffffffffffffffffffffffffffffff167f7084f5476618d8e60b11ef0d7d3f06914655adb8793e28ff7f018d4c76d505d5836040516106c59190610d7d565b60405180910390a2506106d6610c33565b50565b6003602052805f5260405f205f915090505481565b5f5f9054906101000a900473ffffffffffffffffffffffffffffffffffffffff1681565b60025481565b60065481565b610726610c11565b3361073081610224565b60055f8373ffffffffffffffffffffffffffffffffffffffff1673ffffffffffffffffffffffffffffffffffffffff1681526020019081526020015f20819055504260045f8373ffffffffffffffffffffffffffffffffffffffff1673ffffffffffffffffffffffffffffffffffffffff1681526020019081526020015f20819055505f82116107f5576040517f08c379a00000000000000000000000000000000000000000000000000000000081526004016107ec90610fea565b60405180910390fd5b8160035f3373ffffffffffffffffffffffffffffffffffffffff1673ffffffffffffffffffffffffffffffffffffffff1681526020019081526020015f205f8282546108419190610f5d565b925050819055508160065f8282546108599190610f5d565b925050819055505f5f9054906101000a900473ffffffffffffffffffffffffffffffffffffffff1673ffffffffffffffffffffffffffffffffffffffff166323b872dd3330856040518463ffffffff1660e01b81526004016108bd9392919061116e565b6020604051808303815f875af11580156108d9573d5f5f3e3d5ffd5b505050506040513d601f19601f820116820180604052508101906108fd91906110db565b61093c576040517f08c379a0000000000000000000000000000000000000000000000000000000008152600401610933906111ed565b60405180910390fd5b3373ffffffffffffffffffffffffffffffffffffffff167f9e71bc8eea02a63969f509818f2dafb9254532904319f9dbda79b67bd34a5f3d836040516109829190610d7d565b60405180910390a250610993610c33565b50565b61099e610c11565b336109a881610224565b60055f8373ffffffffffffffffffffffffffffffffffffffff1673ffffffffffffffffffffffffffffffffffffffff1681526020019081526020015f20819055504260045f8373ffffffffffffffffffffffffffffffffffffffff1673ffffffffffffffffffffffffffffffffffffffff1681526020019081526020015f20819055505f60055f3373ffffffffffffffffffffffffffffffffffffffff1673ffffffffffffffffffffffffffffffffffffffff1681526020019081526020015f205490505f811115610be0575f60055f3373ffffffffffffffffffffffffffffffffffffffff1673ffffffffffffffffffffffffffffffffffffffff1681526020019081526020015f208190555060015f9054906101000a900473ffffffffffffffffffffffffffffffffffffffff1673ffffffffffffffffffffffffffffffffffffffff1663a9059cbb33836040518363ffffffff1660e01b8152600401610b1292919061107f565b6020604051808303815f875af1158015610b2e573d5f5f3e3d5ffd5b505050506040513d601f19601f82011682018060405250810190610b5291906110db565b610b91576040517f08c379a0000000000000000000000000000000000000000000000000000000008152600401610b8890611255565b60405180910390fd5b3373ffffffffffffffffffffffffffffffffffffffff167fe2403640ba68fed3a2f88b7557551d1993f84b99bb10ff833f0cf8db0c5e048682604051610bd79190610d7d565b60405180910390a25b5050610bea610c33565b565b60015f9054906101000a900473ffffffffffffffffffffffffffffffffffffffff1681565b610c19610c4d565b6002610c2b610c26610c8e565b610cb7565b5f0181905550565b6001610c45610c40610c8e565b610cb7565b5f0181905550565b610c55610cc0565b15610c8c576040517f3ee5aeb500000000000000000000000000000000000000000000000000000000815260040160405180910390fd5b565b5f7f9b779b17422d0df92223018b32b4d1fa46e071723d6817e2486d003becc55f005f1b905090565b5f819050919050565b5f6002610cd3610cce610c8e565b610cb7565b5f015414905090565b5f5ffd5b5f73ffffffffffffffffffffffffffffffffffffffff82169050919050565b5f610d0982610ce0565b9050919050565b610d1981610cff565b8114610d23575f5ffd5b50565b5f81359050610d3481610d10565b92915050565b5f60208284031215610d4f57610d4e610cdc565b5b5f610d5c84828501610d26565b91505092915050565b5f819050919050565b610d7781610d65565b82525050565b5f602082019050610d905f830184610d6e565b92915050565b610d9f81610d65565b8114610da9575f5ffd5b50565b5f81359050610dba81610d96565b92915050565b5f60208284031215610dd557610dd4610cdc565b5b5f610de284828501610dac565b91505092915050565b5f819050919050565b5f610e0e610e09610e0484610ce0565b610deb565b610ce0565b9050919050565b5f610e1f82610df4565b9050919050565b5f610e3082610e15565b9050919050565b610e4081610e26565b82525050565b5f602082019050610e595f830184610e37565b92915050565b7f4e487b71000000000000000000000000000000000000000000000000000000005f52601160045260245ffd5b5f610e9682610d65565b9150610ea183610d65565b9250828203905081811115610eb957610eb8610e5f565b5b92915050565b5f610ec982610d65565b9150610ed483610d65565b9250828202610ee281610d65565b91508282048414831517610ef957610ef8610e5f565b5b5092915050565b7f4e487b71000000000000000000000000000000000000000000000000000000005f52601260045260245ffd5b5f610f3782610d65565b9150610f4283610d65565b925082610f5257610f51610f00565b5b828204905092915050565b5f610f6782610d65565b9150610f7283610d65565b9250828201905080821115610f8a57610f89610e5f565b5b92915050565b5f82825260208201905092915050565b7f4b776f7461206d75736920627963207769656b737a61206e697a2030000000005f82015250565b5f610fd4601c83610f90565b9150610fdf82610fa0565b602082019050919050565b5f6020820190508181035f83015261100181610fc8565b9050919050565b7f5a61206d616c6f207a61626c6f6b6f77616e7963682073726f646b6f770000005f82015250565b5f61103c601d83610f90565b915061104782611008565b602082019050919050565b5f6020820190508181035f83015261106981611030565b9050919050565b61107981610cff565b82525050565b5f6040820190506110925f830185611070565b61109f6020830184610d6e565b9392505050565b5f8115159050919050565b6110ba816110a6565b81146110c4575f5ffd5b50565b5f815190506110d5816110b1565b92915050565b5f602082840312156110f0576110ef610cdc565b5b5f6110fd848285016110c7565b91505092915050565b7f5472616e73666572207a77726f746e79206e69657564616e79000000000000005f82015250565b5f61113a601983610f90565b915061114582611106565b602082019050919050565b5f6020820190508181035f8301526111678161112e565b9050919050565b5f6060820190506111815f830186611070565b61118e6020830185611070565b61119b6040830184610d6e565b949350505050565b7f5472616e7366657220646f2070756c69206e69657564616e79000000000000005f82015250565b5f6111d7601983610f90565b91506111e2826111a3565b602082019050919050565b5f6020820190508181035f830152611204816111cb565b9050919050565b7f5779706c617461206e6167726f6479206e69657564616e6100000000000000005f82015250565b5f61123f601883610f90565b915061124a8261120b565b602082019050919050565b5f6020820190508181035f83015261126c81611233565b905091905056fea26469706673582212202fc734a51de410f4b15087955a812ab02bff73ab0347dd3a682a2beb1e0a552464736f6c63430008220033",
					"opcodes": "PUSH1 0x80 PUSH1 0x40 MSTORE PUSH6 0x9184E72A000 PUSH1 0x2 SSTORE CALLVALUE DUP1 ISZERO PUSH2 0x19 JUMPI PUSH0 PUSH0 REVERT JUMPDEST POP PUSH1 0x40 MLOAD PUSH2 0x1469 CODESIZE SUB DUP1 PUSH2 0x1469 DUP4 CODECOPY DUP2 DUP2 ADD PUSH1 0x40 MSTORE DUP2 ADD SWAP1 PUSH2 0x3B SWAP2 SWAP1 PUSH2 0x175 JUMP JUMPDEST PUSH1 0x1 PUSH2 0x59 PUSH2 0x4E PUSH2 0xE5 PUSH1 0x20 SHL PUSH1 0x20 SHR JUMP JUMPDEST PUSH2 0x10E PUSH1 0x20 SHL PUSH1 0x20 SHR JUMP JUMPDEST PUSH0 ADD DUP2 SWAP1 SSTORE POP DUP2 PUSH0 PUSH0 PUSH2 0x100 EXP DUP2 SLOAD DUP2 PUSH20 0xFFFFFFFFFFFFFFFFFFFFFFFFFFFFFFFFFFFFFFFF MUL NOT AND SWAP1 DUP4 PUSH20 0xFFFFFFFFFFFFFFFFFFFFFFFFFFFFFFFFFFFFFFFF AND MUL OR SWAP1 SSTORE POP DUP1 PUSH1 0x1 PUSH0 PUSH2 0x100 EXP DUP2 SLOAD DUP2 PUSH20 0xFFFFFFFFFFFFFFFFFFFFFFFFFFFFFFFFFFFFFFFF MUL NOT AND SWAP1 DUP4 PUSH20 0xFFFFFFFFFFFFFFFFFFFFFFFFFFFFFFFFFFFFFFFF AND MUL OR SWAP1 SSTORE POP POP POP PUSH2 0x1B3 JUMP JUMPDEST PUSH0 PUSH32 0x9B779B17422D0DF92223018B32B4D1FA46E071723D6817E2486D003BECC55F00 PUSH0 SHL SWAP1 POP SWAP1 JUMP JUMPDEST PUSH0 DUP2 SWAP1 POP SWAP2 SWAP1 POP JUMP JUMPDEST PUSH0 PUSH0 REVERT JUMPDEST PUSH0 PUSH20 0xFFFFFFFFFFFFFFFFFFFFFFFFFFFFFFFFFFFFFFFF DUP3 AND SWAP1 POP SWAP2 SWAP1 POP JUMP JUMPDEST PUSH0 PUSH2 0x144 DUP3 PUSH2 0x11B JUMP JUMPDEST SWAP1 POP SWAP2 SWAP1 POP JUMP JUMPDEST PUSH2 0x154 DUP2 PUSH2 0x13A JUMP JUMPDEST DUP2 EQ PUSH2 0x15E JUMPI PUSH0 PUSH0 REVERT JUMPDEST POP JUMP JUMPDEST PUSH0 DUP2 MLOAD SWAP1 POP PUSH2 0x16F DUP2 PUSH2 0x14B JUMP JUMPDEST SWAP3 SWAP2 POP POP JUMP JUMPDEST PUSH0 PUSH0 PUSH1 0x40 DUP4 DUP6 SUB SLT ISZERO PUSH2 0x18B JUMPI PUSH2 0x18A PUSH2 0x117 JUMP JUMPDEST JUMPDEST PUSH0 PUSH2 0x198 DUP6 DUP3 DUP7 ADD PUSH2 0x161 JUMP JUMPDEST SWAP3 POP POP PUSH1 0x20 PUSH2 0x1A9 DUP6 DUP3 DUP7 ADD PUSH2 0x161 JUMP JUMPDEST SWAP2 POP POP SWAP3 POP SWAP3 SWAP1 POP JUMP JUMPDEST PUSH2 0x12A9 DUP1 PUSH2 0x1C0 PUSH0 CODECOPY PUSH0 RETURN INVALID PUSH1 0x80 PUSH1 0x40 MSTORE CALLVALUE DUP1 ISZERO PUSH2 0xF JUMPI PUSH0 PUSH0 REVERT JUMPDEST POP PUSH1 0x4 CALLDATASIZE LT PUSH2 0xA6 JUMPI PUSH0 CALLDATALOAD PUSH1 0xE0 SHR DUP1 PUSH4 0x72F702F3 GT PUSH2 0x6F JUMPI DUP1 PUSH4 0x72F702F3 EQ PUSH2 0x186 JUMPI DUP1 PUSH4 0x7B0A47EE EQ PUSH2 0x1A4 JUMPI DUP1 PUSH4 0x817B1CD2 EQ PUSH2 0x1C2 JUMPI DUP1 PUSH4 0xA694FC3A EQ PUSH2 0x1E0 JUMPI DUP1 PUSH4 0xB88A802F EQ PUSH2 0x1FC JUMPI DUP1 PUSH4 0xF7C618C1 EQ PUSH2 0x206 JUMPI PUSH2 0xA6 JUMP JUMPDEST DUP1 PUSH3 0x8CC262 EQ PUSH2 0xAA JUMPI DUP1 PUSH4 0x700037D EQ PUSH2 0xDA JUMPI DUP1 PUSH4 0x2CE9AEAD EQ PUSH2 0x10A JUMPI DUP1 PUSH4 0x2E1A7D4D EQ PUSH2 0x13A JUMPI DUP1 PUSH4 0x45BC78AB EQ PUSH2 0x156 JUMPI JUMPDEST PUSH0 PUSH0 REVERT JUMPDEST PUSH2 0xC4 PUSH1 0x4 DUP1 CALLDATASIZE SUB DUP2 ADD SWAP1 PUSH2 0xBF SWAP2 SWAP1 PUSH2 0xD3A JUMP JUMPDEST PUSH2 0x224 JUMP JUMPDEST PUSH1 0x40 MLOAD PUSH2 0xD1 SWAP2 SWAP1 PUSH2 0xD7D JUMP JUMPDEST PUSH1 0x40 MLOAD DUP1 SWAP2 SUB SWAP1 RETURN JUMPDEST PUSH2 0xF4 PUSH1 0x4 DUP1 CALLDATASIZE SUB DUP2 ADD SWAP1 PUSH2 0xEF SWAP2 SWAP1 PUSH2 0xD3A JUMP JUMPDEST PUSH2 0x3B9 JUMP JUMPDEST PUSH1 0x40 MLOAD PUSH2 0x101 SWAP2 SWAP1 PUSH2 0xD7D JUMP JUMPDEST PUSH1 0x40 MLOAD DUP1 SWAP2 SUB SWAP1 RETURN JUMPDEST PUSH2 0x124 PUSH1 0x4 DUP1 CALLDATASIZE SUB DUP2 ADD SWAP1 PUSH2 0x11F SWAP2 SWAP1 PUSH2 0xD3A JUMP JUMPDEST PUSH2 0x3CE JUMP JUMPDEST PUSH1 0x40 MLOAD PUSH2 0x131 SWAP2 SWAP1 PUSH2 0xD7D JUMP JUMPDEST PUSH1 0x40 MLOAD DUP1 SWAP2 SUB SWAP1 RETURN JUMPDEST PUSH2 0x154 PUSH1 0x4 DUP1 CALLDATASIZE SUB DUP2 ADD SWAP1 PUSH2 0x14F SWAP2 SWAP1 PUSH2 0xDC0 JUMP JUMPDEST PUSH2 0x3E3 JUMP JUMPDEST STOP JUMPDEST PUSH2 0x170 PUSH1 0x4 DUP1 CALLDATASIZE SUB DUP2 ADD SWAP1 PUSH2 0x16B SWAP2 SWAP1 PUSH2 0xD3A JUMP JUMPDEST PUSH2 0x6D9 JUMP JUMPDEST PUSH1 0x40 MLOAD PUSH2 0x17D SWAP2 SWAP1 PUSH2 0xD7D JUMP JUMPDEST PUSH1 0x40 MLOAD DUP1 SWAP2 SUB SWAP1 RETURN JUMPDEST PUSH2 0x18E PUSH2 0x6EE JUMP JUMPDEST PUSH1 0x40 MLOAD PUSH2 0x19B SWAP2 SWAP1 PUSH2 0xE46 JUMP JUMPDEST PUSH1 0x40 MLOAD DUP1 SWAP2 SUB SWAP1 RETURN JUMPDEST PUSH2 0x1AC PUSH2 0x712 JUMP JUMPDEST PUSH1 0x40 MLOAD PUSH2 0x1B9 SWAP2 SWAP1 PUSH2 0xD7D JUMP JUMPDEST PUSH1 0x40 MLOAD DUP1 SWAP2 SUB SWAP1 RETURN JUMPDEST PUSH2 0x1CA PUSH2 0x718 JUMP JUMPDEST PUSH1 0x40 MLOAD PUSH2 0x1D7 SWAP2 SWAP1 PUSH2 0xD7D JUMP JUMPDEST PUSH1 0x40 MLOAD DUP1 SWAP2 SUB SWAP1 RETURN JUMPDEST PUSH2 0x1FA PUSH1 0x4 DUP1 CALLDATASIZE SUB DUP2 ADD SWAP1 PUSH2 0x1F5 SWAP2 SWAP1 PUSH2 0xDC0 JUMP JUMPDEST PUSH2 0x71E JUMP JUMPDEST STOP JUMPDEST PUSH2 0x204 PUSH2 0x996 JUMP JUMPDEST STOP JUMPDEST PUSH2 0x20E PUSH2 0xBEC JUMP JUMPDEST PUSH1 0x40 MLOAD PUSH2 0x21B SWAP2 SWAP1 PUSH2 0xE46 JUMP JUMPDEST PUSH1 0x40 MLOAD DUP1 SWAP2 SUB SWAP1 RETURN JUMPDEST PUSH0 PUSH0 PUSH1 0x3 PUSH0 DUP5 PUSH20 0xFFFFFFFFFFFFFFFFFFFFFFFFFFFFFFFFFFFFFFFF AND PUSH20 0xFFFFFFFFFFFFFFFFFFFFFFFFFFFFFFFFFFFFFFFF AND DUP2 MSTORE PUSH1 0x20 ADD SWAP1 DUP2 MSTORE PUSH1 0x20 ADD PUSH0 KECCAK256 SLOAD SUB PUSH2 0x2AE JUMPI PUSH1 0x5 PUSH0 DUP4 PUSH20 0xFFFFFFFFFFFFFFFFFFFFFFFFFFFFFFFFFFFFFFFF AND PUSH20 0xFFFFFFFFFFFFFFFFFFFFFFFFFFFFFFFFFFFFFFFF AND DUP2 MSTORE PUSH1 0x20 ADD SWAP1 DUP2 MSTORE PUSH1 0x20 ADD PUSH0 KECCAK256 SLOAD SWAP1 POP PUSH2 0x3B4 JUMP JUMPDEST PUSH0 PUSH1 0x4 PUSH0 DUP5 PUSH20 0xFFFFFFFFFFFFFFFFFFFFFFFFFFFFFFFFFFFFFFFF AND PUSH20 0xFFFFFFFFFFFFFFFFFFFFFFFFFFFFFFFFFFFFFFFF AND DUP2 MSTORE PUSH1 0x20 ADD SWAP1 DUP2 MSTORE PUSH1 0x20 ADD PUSH0 KECCAK256 SLOAD TIMESTAMP PUSH2 0x2F8 SWAP2 SWAP1 PUSH2 0xE8C JUMP JUMPDEST SWAP1 POP PUSH0 PUSH8 0xDE0B6B3A7640000 PUSH1 0x2 SLOAD DUP4 PUSH1 0x3 PUSH0 DUP9 PUSH20 0xFFFFFFFFFFFFFFFFFFFFFFFFFFFFFFFFFFFFFFFF AND PUSH20 0xFFFFFFFFFFFFFFFFFFFFFFFFFFFFFFFFFFFFFFFF AND DUP2 MSTORE PUSH1 0x20 ADD SWAP1 DUP2 MSTORE PUSH1 0x20 ADD PUSH0 KECCAK256 SLOAD PUSH2 0x350 SWAP2 SWAP1 PUSH2 0xEBF JUMP JUMPDEST PUSH2 0x35A SWAP2 SWAP1 PUSH2 0xEBF JUMP JUMPDEST PUSH2 0x364 SWAP2 SWAP1 PUSH2 0xF2D JUMP JUMPDEST SWAP1 POP DUP1 PUSH1 0x5 PUSH0 DUP7 PUSH20 0xFFFFFFFFFFFFFFFFFFFFFFFFFFFFFFFFFFFFFFFF AND PUSH20 0xFFFFFFFFFFFFFFFFFFFFFFFFFFFFFFFFFFFFFFFF AND DUP2 MSTORE PUSH1 0x20 ADD SWAP1 DUP2 MSTORE PUSH1 0x20 ADD PUSH0 KECCAK256 SLOAD PUSH2 0x3AF SWAP2 SWAP1 PUSH2 0xF5D JUMP JUMPDEST SWAP3 POP POP POP JUMPDEST SWAP2 SWAP1 POP JUMP JUMPDEST PUSH1 0x5 PUSH1 0x20 MSTORE DUP1 PUSH0 MSTORE PUSH1 0x40 PUSH0 KECCAK256 PUSH0 SWAP2 POP SWAP1 POP SLOAD DUP2 JUMP JUMPDEST PUSH1 0x4 PUSH1 0x20 MSTORE DUP1 PUSH0 MSTORE PUSH1 0x40 PUSH0 KECCAK256 PUSH0 SWAP2 POP SWAP1 POP SLOAD DUP2 JUMP JUMPDEST PUSH2 0x3EB PUSH2 0xC11 JUMP JUMPDEST CALLER PUSH2 0x3F5 DUP2 PUSH2 0x224 JUMP JUMPDEST PUSH1 0x5 PUSH0 DUP4 PUSH20 0xFFFFFFFFFFFFFFFFFFFFFFFFFFFFFFFFFFFFFFFF AND PUSH20 0xFFFFFFFFFFFFFFFFFFFFFFFFFFFFFFFFFFFFFFFF AND DUP2 MSTORE PUSH1 0x20 ADD SWAP1 DUP2 MSTORE PUSH1 0x20 ADD PUSH0 KECCAK256 DUP2 SWAP1 SSTORE POP TIMESTAMP PUSH1 0x4 PUSH0 DUP4 PUSH20 0xFFFFFFFFFFFFFFFFFFFFFFFFFFFFFFFFFFFFFFFF AND PUSH20 0xFFFFFFFFFFFFFFFFFFFFFFFFFFFFFFFFFFFFFFFF AND DUP2 MSTORE PUSH1 0x20 ADD SWAP1 DUP2 MSTORE PUSH1 0x20 ADD PUSH0 KECCAK256 DUP2 SWAP1 SSTORE POP PUSH0 DUP3 GT PUSH2 0x4BA JUMPI PUSH1 0x40 MLOAD PUSH32 0x8C379A000000000000000000000000000000000000000000000000000000000 DUP2 MSTORE PUSH1 0x4 ADD PUSH2 0x4B1 SWAP1 PUSH2 0xFEA JUMP JUMPDEST PUSH1 0x40 MLOAD DUP1 SWAP2 SUB SWAP1 REVERT JUMPDEST DUP2 PUSH1 0x3 PUSH0 CALLER PUSH20 0xFFFFFFFFFFFFFFFFFFFFFFFFFFFFFFFFFFFFFFFF AND PUSH20 0xFFFFFFFFFFFFFFFFFFFFFFFFFFFFFFFFFFFFFFFF AND DUP2 MSTORE PUSH1 0x20 ADD SWAP1 DUP2 MSTORE PUSH1 0x20 ADD PUSH0 KECCAK256 SLOAD LT ISZERO PUSH2 0x53A JUMPI PUSH1 0x40 MLOAD PUSH32 0x8C379A000000000000000000000000000000000000000000000000000000000 DUP2 MSTORE PUSH1 0x4 ADD PUSH2 0x531 SWAP1 PUSH2 0x1052 JUMP JUMPDEST PUSH1 0x40 MLOAD DUP1 SWAP2 SUB SWAP1 REVERT JUMPDEST DUP2 PUSH1 0x3 PUSH0 CALLER PUSH20 0xFFFFFFFFFFFFFFFFFFFFFFFFFFFFFFFFFFFFFFFF AND PUSH20 0xFFFFFFFFFFFFFFFFFFFFFFFFFFFFFFFFFFFFFFFF AND DUP2 MSTORE PUSH1 0x20 ADD SWAP1 DUP2 MSTORE PUSH1 0x20 ADD PUSH0 KECCAK256 PUSH0 DUP3 DUP3 SLOAD PUSH2 0x586 SWAP2 SWAP1 PUSH2 0xE8C JUMP JUMPDEST SWAP3 POP POP DUP2 SWAP1 SSTORE POP DUP2 PUSH1 0x6 PUSH0 DUP3 DUP3 SLOAD PUSH2 0x59E SWAP2 SWAP1 PUSH2 0xE8C JUMP JUMPDEST SWAP3 POP POP DUP2 SWAP1 SSTORE POP PUSH0 PUSH0 SWAP1 SLOAD SWAP1 PUSH2 0x100 EXP SWAP1 DIV PUSH20 0xFFFFFFFFFFFFFFFFFFFFFFFFFFFFFFFFFFFFFFFF AND PUSH20 0xFFFFFFFFFFFFFFFFFFFFFFFFFFFFFFFFFFFFFFFF AND PUSH4 0xA9059CBB CALLER DUP5 PUSH1 0x40 MLOAD DUP4 PUSH4 0xFFFFFFFF AND PUSH1 0xE0 SHL DUP2 MSTORE PUSH1 0x4 ADD PUSH2 0x600 SWAP3 SWAP2 SWAP1 PUSH2 0x107F JUMP JUMPDEST PUSH1 0x20 PUSH1 0x40 MLOAD DUP1 DUP4 SUB DUP2 PUSH0 DUP8 GAS CALL ISZERO DUP1 ISZERO PUSH2 0x61C JUMPI RETURNDATASIZE PUSH0 PUSH0 RETURNDATACOPY RETURNDATASIZE PUSH0 REVERT JUMPDEST POP POP POP POP PUSH1 0x40 MLOAD RETURNDATASIZE PUSH1 0x1F NOT PUSH1 0x1F DUP3 ADD AND DUP3 ADD DUP1 PUSH1 0x40 MSTORE POP DUP2 ADD SWAP1 PUSH2 0x640 SWAP2 SWAP1 PUSH2 0x10DB JUMP JUMPDEST PUSH2 0x67F JUMPI PUSH1 0x40 MLOAD PUSH32 0x8C379A000000000000000000000000000000000000000000000000000000000 DUP2 MSTORE PUSH1 0x4 ADD PUSH2 0x676 SWAP1 PUSH2 0x1150 JUMP JUMPDEST PUSH1 0x40 MLOAD DUP1 SWAP2 SUB SWAP1 REVERT JUMPDEST CALLER PUSH20 0xFFFFFFFFFFFFFFFFFFFFFFFFFFFFFFFFFFFFFFFF AND PUSH32 0x7084F5476618D8E60B11EF0D7D3F06914655ADB8793E28FF7F018D4C76D505D5 DUP4 PUSH1 0x40 MLOAD PUSH2 0x6C5 SWAP2 SWAP1 PUSH2 0xD7D JUMP JUMPDEST PUSH1 0x40 MLOAD DUP1 SWAP2 SUB SWAP1 LOG2 POP PUSH2 0x6D6 PUSH2 0xC33 JUMP JUMPDEST POP JUMP JUMPDEST PUSH1 0x3 PUSH1 0x20 MSTORE DUP1 PUSH0 MSTORE PUSH1 0x40 PUSH0 KECCAK256 PUSH0 SWAP2 POP SWAP1 POP SLOAD DUP2 JUMP JUMPDEST PUSH0 PUSH0 SWAP1 SLOAD SWAP1 PUSH2 0x100 EXP SWAP1 DIV PUSH20 0xFFFFFFFFFFFFFFFFFFFFFFFFFFFFFFFFFFFFFFFF AND DUP2 JUMP JUMPDEST PUSH1 0x2 SLOAD DUP2 JUMP JUMPDEST PUSH1 0x6 SLOAD DUP2 JUMP JUMPDEST PUSH2 0x726 PUSH2 0xC11 JUMP JUMPDEST CALLER PUSH2 0x730 DUP2 PUSH2 0x224 JUMP JUMPDEST PUSH1 0x5 PUSH0 DUP4 PUSH20 0xFFFFFFFFFFFFFFFFFFFFFFFFFFFFFFFFFFFFFFFF AND PUSH20 0xFFFFFFFFFFFFFFFFFFFFFFFFFFFFFFFFFFFFFFFF AND DUP2 MSTORE PUSH1 0x20 ADD SWAP1 DUP2 MSTORE PUSH1 0x20 ADD PUSH0 KECCAK256 DUP2 SWAP1 SSTORE POP TIMESTAMP PUSH1 0x4 PUSH0 DUP4 PUSH20 0xFFFFFFFFFFFFFFFFFFFFFFFFFFFFFFFFFFFFFFFF AND PUSH20 0xFFFFFFFFFFFFFFFFFFFFFFFFFFFFFFFFFFFFFFFF AND DUP2 MSTORE PUSH1 0x20 ADD SWAP1 DUP2 MSTORE PUSH1 0x20 ADD PUSH0 KECCAK256 DUP2 SWAP1 SSTORE POP PUSH0 DUP3 GT PUSH2 0x7F5 JUMPI PUSH1 0x40 MLOAD PUSH32 0x8C379A000000000000000000000000000000000000000000000000000000000 DUP2 MSTORE PUSH1 0x4 ADD PUSH2 0x7EC SWAP1 PUSH2 0xFEA JUMP JUMPDEST PUSH1 0x40 MLOAD DUP1 SWAP2 SUB SWAP1 REVERT JUMPDEST DUP2 PUSH1 0x3 PUSH0 CALLER PUSH20 0xFFFFFFFFFFFFFFFFFFFFFFFFFFFFFFFFFFFFFFFF AND PUSH20 0xFFFFFFFFFFFFFFFFFFFFFFFFFFFFFFFFFFFFFFFF AND DUP2 MSTORE PUSH1 0x20 ADD SWAP1 DUP2 MSTORE PUSH1 0x20 ADD PUSH0 KECCAK256 PUSH0 DUP3 DUP3 SLOAD PUSH2 0x841 SWAP2 SWAP1 PUSH2 0xF5D JUMP JUMPDEST SWAP3 POP POP DUP2 SWAP1 SSTORE POP DUP2 PUSH1 0x6 PUSH0 DUP3 DUP3 SLOAD PUSH2 0x859 SWAP2 SWAP1 PUSH2 0xF5D JUMP JUMPDEST SWAP3 POP POP DUP2 SWAP1 SSTORE POP PUSH0 PUSH0 SWAP1 SLOAD SWAP1 PUSH2 0x100 EXP SWAP1 DIV PUSH20 0xFFFFFFFFFFFFFFFFFFFFFFFFFFFFFFFFFFFFFFFF AND PUSH20 0xFFFFFFFFFFFFFFFFFFFFFFFFFFFFFFFFFFFFFFFF AND PUSH4 0x23B872DD CALLER ADDRESS DUP6 PUSH1 0x40 MLOAD DUP5 PUSH4 0xFFFFFFFF AND PUSH1 0xE0 SHL DUP2 MSTORE PUSH1 0x4 ADD PUSH2 0x8BD SWAP4 SWAP3 SWAP2 SWAP1 PUSH2 0x116E JUMP JUMPDEST PUSH1 0x20 PUSH1 0x40 MLOAD DUP1 DUP4 SUB DUP2 PUSH0 DUP8 GAS CALL ISZERO DUP1 ISZERO PUSH2 0x8D9 JUMPI RETURNDATASIZE PUSH0 PUSH0 RETURNDATACOPY RETURNDATASIZE PUSH0 REVERT JUMPDEST POP POP POP POP PUSH1 0x40 MLOAD RETURNDATASIZE PUSH1 0x1F NOT PUSH1 0x1F DUP3 ADD AND DUP3 ADD DUP1 PUSH1 0x40 MSTORE POP DUP2 ADD SWAP1 PUSH2 0x8FD SWAP2 SWAP1 PUSH2 0x10DB JUMP JUMPDEST PUSH2 0x93C JUMPI PUSH1 0x40 MLOAD PUSH32 0x8C379A000000000000000000000000000000000000000000000000000000000 DUP2 MSTORE PUSH1 0x4 ADD PUSH2 0x933 SWAP1 PUSH2 0x11ED JUMP JUMPDEST PUSH1 0x40 MLOAD DUP1 SWAP2 SUB SWAP1 REVERT JUMPDEST CALLER PUSH20 0xFFFFFFFFFFFFFFFFFFFFFFFFFFFFFFFFFFFFFFFF AND PUSH32 0x9E71BC8EEA02A63969F509818F2DAFB9254532904319F9DBDA79B67BD34A5F3D DUP4 PUSH1 0x40 MLOAD PUSH2 0x982 SWAP2 SWAP1 PUSH2 0xD7D JUMP JUMPDEST PUSH1 0x40 MLOAD DUP1 SWAP2 SUB SWAP1 LOG2 POP PUSH2 0x993 PUSH2 0xC33 JUMP JUMPDEST POP JUMP JUMPDEST PUSH2 0x99E PUSH2 0xC11 JUMP JUMPDEST CALLER PUSH2 0x9A8 DUP2 PUSH2 0x224 JUMP JUMPDEST PUSH1 0x5 PUSH0 DUP4 PUSH20 0xFFFFFFFFFFFFFFFFFFFFFFFFFFFFFFFFFFFFFFFF AND PUSH20 0xFFFFFFFFFFFFFFFFFFFFFFFFFFFFFFFFFFFFFFFF AND DUP2 MSTORE PUSH1 0x20 ADD SWAP1 DUP2 MSTORE PUSH1 0x20 ADD PUSH0 KECCAK256 DUP2 SWAP1 SSTORE POP TIMESTAMP PUSH1 0x4 PUSH0 DUP4 PUSH20 0xFFFFFFFFFFFFFFFFFFFFFFFFFFFFFFFFFFFFFFFF AND PUSH20 0xFFFFFFFFFFFFFFFFFFFFFFFFFFFFFFFFFFFFFFFF AND DUP2 MSTORE PUSH1 0x20 ADD SWAP1 DUP2 MSTORE PUSH1 0x20 ADD PUSH0 KECCAK256 DUP2 SWAP1 SSTORE POP PUSH0 PUSH1 0x5 PUSH0 CALLER PUSH20 0xFFFFFFFFFFFFFFFFFFFFFFFFFFFFFFFFFFFFFFFF AND PUSH20 0xFFFFFFFFFFFFFFFFFFFFFFFFFFFFFFFFFFFFFFFF AND DUP2 MSTORE PUSH1 0x20 ADD SWAP1 DUP2 MSTORE PUSH1 0x20 ADD PUSH0 KECCAK256 SLOAD SWAP1 POP PUSH0 DUP2 GT ISZERO PUSH2 0xBE0 JUMPI PUSH0 PUSH1 0x5 PUSH0 CALLER PUSH20 0xFFFFFFFFFFFFFFFFFFFFFFFFFFFFFFFFFFFFFFFF AND PUSH20 0xFFFFFFFFFFFFFFFFFFFFFFFFFFFFFFFFFFFFFFFF AND DUP2 MSTORE PUSH1 0x20 ADD SWAP1 DUP2 MSTORE PUSH1 0x20 ADD PUSH0 KECCAK256 DUP2 SWAP1 SSTORE POP PUSH1 0x1 PUSH0 SWAP1 SLOAD SWAP1 PUSH2 0x100 EXP SWAP1 DIV PUSH20 0xFFFFFFFFFFFFFFFFFFFFFFFFFFFFFFFFFFFFFFFF AND PUSH20 0xFFFFFFFFFFFFFFFFFFFFFFFFFFFFFFFFFFFFFFFF AND PUSH4 0xA9059CBB CALLER DUP4 PUSH1 0x40 MLOAD DUP4 PUSH4 0xFFFFFFFF AND PUSH1 0xE0 SHL DUP2 MSTORE PUSH1 0x4 ADD PUSH2 0xB12 SWAP3 SWAP2 SWAP1 PUSH2 0x107F JUMP JUMPDEST PUSH1 0x20 PUSH1 0x40 MLOAD DUP1 DUP4 SUB DUP2 PUSH0 DUP8 GAS CALL ISZERO DUP1 ISZERO PUSH2 0xB2E JUMPI RETURNDATASIZE PUSH0 PUSH0 RETURNDATACOPY RETURNDATASIZE PUSH0 REVERT JUMPDEST POP POP POP POP PUSH1 0x40 MLOAD RETURNDATASIZE PUSH1 0x1F NOT PUSH1 0x1F DUP3 ADD AND DUP3 ADD DUP1 PUSH1 0x40 MSTORE POP DUP2 ADD SWAP1 PUSH2 0xB52 SWAP2 SWAP1 PUSH2 0x10DB JUMP JUMPDEST PUSH2 0xB91 JUMPI PUSH1 0x40 MLOAD PUSH32 0x8C379A000000000000000000000000000000000000000000000000000000000 DUP2 MSTORE PUSH1 0x4 ADD PUSH2 0xB88 SWAP1 PUSH2 0x1255 JUMP JUMPDEST PUSH1 0x40 MLOAD DUP1 SWAP2 SUB SWAP1 REVERT JUMPDEST CALLER PUSH20 0xFFFFFFFFFFFFFFFFFFFFFFFFFFFFFFFFFFFFFFFF AND PUSH32 0xE2403640BA68FED3A2F88B7557551D1993F84B99BB10FF833F0CF8DB0C5E0486 DUP3 PUSH1 0x40 MLOAD PUSH2 0xBD7 SWAP2 SWAP1 PUSH2 0xD7D JUMP JUMPDEST PUSH1 0x40 MLOAD DUP1 SWAP2 SUB SWAP1 LOG2 JUMPDEST POP POP PUSH2 0xBEA PUSH2 0xC33 JUMP JUMPDEST JUMP JUMPDEST PUSH1 0x1 PUSH0 SWAP1 SLOAD SWAP1 PUSH2 0x100 EXP SWAP1 DIV PUSH20 0xFFFFFFFFFFFFFFFFFFFFFFFFFFFFFFFFFFFFFFFF AND DUP2 JUMP JUMPDEST PUSH2 0xC19 PUSH2 0xC4D JUMP JUMPDEST PUSH1 0x2 PUSH2 0xC2B PUSH2 0xC26 PUSH2 0xC8E JUMP JUMPDEST PUSH2 0xCB7 JUMP JUMPDEST PUSH0 ADD DUP2 SWAP1 SSTORE POP JUMP JUMPDEST PUSH1 0x1 PUSH2 0xC45 PUSH2 0xC40 PUSH2 0xC8E JUMP JUMPDEST PUSH2 0xCB7 JUMP JUMPDEST PUSH0 ADD DUP2 SWAP1 SSTORE POP JUMP JUMPDEST PUSH2 0xC55 PUSH2 0xCC0 JUMP JUMPDEST ISZERO PUSH2 0xC8C JUMPI PUSH1 0x40 MLOAD PUSH32 0x3EE5AEB500000000000000000000000000000000000000000000000000000000 DUP2 MSTORE PUSH1 0x4 ADD PUSH1 0x40 MLOAD DUP1 SWAP2 SUB SWAP1 REVERT JUMPDEST JUMP JUMPDEST PUSH0 PUSH32 0x9B779B17422D0DF92223018B32B4D1FA46E071723D6817E2486D003BECC55F00 PUSH0 SHL SWAP1 POP SWAP1 JUMP JUMPDEST PUSH0 DUP2 SWAP1 POP SWAP2 SWAP1 POP JUMP JUMPDEST PUSH0 PUSH1 0x2 PUSH2 0xCD3 PUSH2 0xCCE PUSH2 0xC8E JUMP JUMPDEST PUSH2 0xCB7 JUMP JUMPDEST PUSH0 ADD SLOAD EQ SWAP1 POP SWAP1 JUMP JUMPDEST PUSH0 PUSH0 REVERT JUMPDEST PUSH0 PUSH20 0xFFFFFFFFFFFFFFFFFFFFFFFFFFFFFFFFFFFFFFFF DUP3 AND SWAP1 POP SWAP2 SWAP1 POP JUMP JUMPDEST PUSH0 PUSH2 0xD09 DUP3 PUSH2 0xCE0 JUMP JUMPDEST SWAP1 POP SWAP2 SWAP1 POP JUMP JUMPDEST PUSH2 0xD19 DUP2 PUSH2 0xCFF JUMP JUMPDEST DUP2 EQ PUSH2 0xD23 JUMPI PUSH0 PUSH0 REVERT JUMPDEST POP JUMP JUMPDEST PUSH0 DUP2 CALLDATALOAD SWAP1 POP PUSH2 0xD34 DUP2 PUSH2 0xD10 JUMP JUMPDEST SWAP3 SWAP2 POP POP JUMP JUMPDEST PUSH0 PUSH1 0x20 DUP3 DUP5 SUB SLT ISZERO PUSH2 0xD4F JUMPI PUSH2 0xD4E PUSH2 0xCDC JUMP JUMPDEST JUMPDEST PUSH0 PUSH2 0xD5C DUP5 DUP3 DUP6 ADD PUSH2 0xD26 JUMP JUMPDEST SWAP2 POP POP SWAP3 SWAP2 POP POP JUMP JUMPDEST PUSH0 DUP2 SWAP1 POP SWAP2 SWAP1 POP JUMP JUMPDEST PUSH2 0xD77 DUP2 PUSH2 0xD65 JUMP JUMPDEST DUP3 MSTORE POP POP JUMP JUMPDEST PUSH0 PUSH1 0x20 DUP3 ADD SWAP1 POP PUSH2 0xD90 PUSH0 DUP4 ADD DUP5 PUSH2 0xD6E JUMP JUMPDEST SWAP3 SWAP2 POP POP JUMP JUMPDEST PUSH2 0xD9F DUP2 PUSH2 0xD65 JUMP JUMPDEST DUP2 EQ PUSH2 0xDA9 JUMPI PUSH0 PUSH0 REVERT JUMPDEST POP JUMP JUMPDEST PUSH0 DUP2 CALLDATALOAD SWAP1 POP PUSH2 0xDBA DUP2 PUSH2 0xD96 JUMP JUMPDEST SWAP3 SWAP2 POP POP JUMP JUMPDEST PUSH0 PUSH1 0x20 DUP3 DUP5 SUB SLT ISZERO PUSH2 0xDD5 JUMPI PUSH2 0xDD4 PUSH2 0xCDC JUMP JUMPDEST JUMPDEST PUSH0 PUSH2 0xDE2 DUP5 DUP3 DUP6 ADD PUSH2 0xDAC JUMP JUMPDEST SWAP2 POP POP SWAP3 SWAP2 POP POP JUMP JUMPDEST PUSH0 DUP2 SWAP1 POP SWAP2 SWAP1 POP JUMP JUMPDEST PUSH0 PUSH2 0xE0E PUSH2 0xE09 PUSH2 0xE04 DUP5 PUSH2 0xCE0 JUMP JUMPDEST PUSH2 0xDEB JUMP JUMPDEST PUSH2 0xCE0 JUMP JUMPDEST SWAP1 POP SWAP2 SWAP1 POP JUMP JUMPDEST PUSH0 PUSH2 0xE1F DUP3 PUSH2 0xDF4 JUMP JUMPDEST SWAP1 POP SWAP2 SWAP1 POP JUMP JUMPDEST PUSH0 PUSH2 0xE30 DUP3 PUSH2 0xE15 JUMP JUMPDEST SWAP1 POP SWAP2 SWAP1 POP JUMP JUMPDEST PUSH2 0xE40 DUP2 PUSH2 0xE26 JUMP JUMPDEST DUP3 MSTORE POP POP JUMP JUMPDEST PUSH0 PUSH1 0x20 DUP3 ADD SWAP1 POP PUSH2 0xE59 PUSH0 DUP4 ADD DUP5 PUSH2 0xE37 JUMP JUMPDEST SWAP3 SWAP2 POP POP JUMP JUMPDEST PUSH32 0x4E487B7100000000000000000000000000000000000000000000000000000000 PUSH0 MSTORE PUSH1 0x11 PUSH1 0x4 MSTORE PUSH1 0x24 PUSH0 REVERT JUMPDEST PUSH0 PUSH2 0xE96 DUP3 PUSH2 0xD65 JUMP JUMPDEST SWAP2 POP PUSH2 0xEA1 DUP4 PUSH2 0xD65 JUMP JUMPDEST SWAP3 POP DUP3 DUP3 SUB SWAP1 POP DUP2 DUP2 GT ISZERO PUSH2 0xEB9 JUMPI PUSH2 0xEB8 PUSH2 0xE5F JUMP JUMPDEST JUMPDEST SWAP3 SWAP2 POP POP JUMP JUMPDEST PUSH0 PUSH2 0xEC9 DUP3 PUSH2 0xD65 JUMP JUMPDEST SWAP2 POP PUSH2 0xED4 DUP4 PUSH2 0xD65 JUMP JUMPDEST SWAP3 POP DUP3 DUP3 MUL PUSH2 0xEE2 DUP2 PUSH2 0xD65 JUMP JUMPDEST SWAP2 POP DUP3 DUP3 DIV DUP5 EQ DUP4 ISZERO OR PUSH2 0xEF9 JUMPI PUSH2 0xEF8 PUSH2 0xE5F JUMP JUMPDEST JUMPDEST POP SWAP3 SWAP2 POP POP JUMP JUMPDEST PUSH32 0x4E487B7100000000000000000000000000000000000000000000000000000000 PUSH0 MSTORE PUSH1 0x12 PUSH1 0x4 MSTORE PUSH1 0x24 PUSH0 REVERT JUMPDEST PUSH0 PUSH2 0xF37 DUP3 PUSH2 0xD65 JUMP JUMPDEST SWAP2 POP PUSH2 0xF42 DUP4 PUSH2 0xD65 JUMP JUMPDEST SWAP3 POP DUP3 PUSH2 0xF52 JUMPI PUSH2 0xF51 PUSH2 0xF00 JUMP JUMPDEST JUMPDEST DUP3 DUP3 DIV SWAP1 POP SWAP3 SWAP2 POP POP JUMP JUMPDEST PUSH0 PUSH2 0xF67 DUP3 PUSH2 0xD65 JUMP JUMPDEST SWAP2 POP PUSH2 0xF72 DUP4 PUSH2 0xD65 JUMP JUMPDEST SWAP3 POP DUP3 DUP3 ADD SWAP1 POP DUP1 DUP3 GT ISZERO PUSH2 0xF8A JUMPI PUSH2 0xF89 PUSH2 0xE5F JUMP JUMPDEST JUMPDEST SWAP3 SWAP2 POP POP JUMP JUMPDEST PUSH0 DUP3 DUP3 MSTORE PUSH1 0x20 DUP3 ADD SWAP1 POP SWAP3 SWAP2 POP POP JUMP JUMPDEST PUSH32 0x4B776F7461206D75736920627963207769656B737A61206E697A203000000000 PUSH0 DUP3 ADD MSTORE POP JUMP JUMPDEST PUSH0 PUSH2 0xFD4 PUSH1 0x1C DUP4 PUSH2 0xF90 JUMP JUMPDEST SWAP2 POP PUSH2 0xFDF DUP3 PUSH2 0xFA0 JUMP JUMPDEST PUSH1 0x20 DUP3 ADD SWAP1 POP SWAP2 SWAP1 POP JUMP JUMPDEST PUSH0 PUSH1 0x20 DUP3 ADD SWAP1 POP DUP2 DUP2 SUB PUSH0 DUP4 ADD MSTORE PUSH2 0x1001 DUP2 PUSH2 0xFC8 JUMP JUMPDEST SWAP1 POP SWAP2 SWAP1 POP JUMP JUMPDEST PUSH32 0x5A61206D616C6F207A61626C6F6B6F77616E7963682073726F646B6F77000000 PUSH0 DUP3 ADD MSTORE POP JUMP JUMPDEST PUSH0 PUSH2 0x103C PUSH1 0x1D DUP4 PUSH2 0xF90 JUMP JUMPDEST SWAP2 POP PUSH2 0x1047 DUP3 PUSH2 0x1008 JUMP JUMPDEST PUSH1 0x20 DUP3 ADD SWAP1 POP SWAP2 SWAP1 POP JUMP JUMPDEST PUSH0 PUSH1 0x20 DUP3 ADD SWAP1 POP DUP2 DUP2 SUB PUSH0 DUP4 ADD MSTORE PUSH2 0x1069 DUP2 PUSH2 0x1030 JUMP JUMPDEST SWAP1 POP SWAP2 SWAP1 POP JUMP JUMPDEST PUSH2 0x1079 DUP2 PUSH2 0xCFF JUMP JUMPDEST DUP3 MSTORE POP POP JUMP JUMPDEST PUSH0 PUSH1 0x40 DUP3 ADD SWAP1 POP PUSH2 0x1092 PUSH0 DUP4 ADD DUP6 PUSH2 0x1070 JUMP JUMPDEST PUSH2 0x109F PUSH1 0x20 DUP4 ADD DUP5 PUSH2 0xD6E JUMP JUMPDEST SWAP4 SWAP3 POP POP POP JUMP JUMPDEST PUSH0 DUP2 ISZERO ISZERO SWAP1 POP SWAP2 SWAP1 POP JUMP JUMPDEST PUSH2 0x10BA DUP2 PUSH2 0x10A6 JUMP JUMPDEST DUP2 EQ PUSH2 0x10C4 JUMPI PUSH0 PUSH0 REVERT JUMPDEST POP JUMP JUMPDEST PUSH0 DUP2 MLOAD SWAP1 POP PUSH2 0x10D5 DUP2 PUSH2 0x10B1 JUMP JUMPDEST SWAP3 SWAP2 POP POP JUMP JUMPDEST PUSH0 PUSH1 0x20 DUP3 DUP5 SUB SLT ISZERO PUSH2 0x10F0 JUMPI PUSH2 0x10EF PUSH2 0xCDC JUMP JUMPDEST JUMPDEST PUSH0 PUSH2 0x10FD DUP5 DUP3 DUP6 ADD PUSH2 0x10C7 JUMP JUMPDEST SWAP2 POP POP SWAP3 SWAP2 POP POP JUMP JUMPDEST PUSH32 0x5472616E73666572207A77726F746E79206E69657564616E7900000000000000 PUSH0 DUP3 ADD MSTORE POP JUMP JUMPDEST PUSH0 PUSH2 0x113A PUSH1 0x19 DUP4 PUSH2 0xF90 JUMP JUMPDEST SWAP2 POP PUSH2 0x1145 DUP3 PUSH2 0x1106 JUMP JUMPDEST PUSH1 0x20 DUP3 ADD SWAP1 POP SWAP2 SWAP1 POP JUMP JUMPDEST PUSH0 PUSH1 0x20 DUP3 ADD SWAP1 POP DUP2 DUP2 SUB PUSH0 DUP4 ADD MSTORE PUSH2 0x1167 DUP2 PUSH2 0x112E JUMP JUMPDEST SWAP1 POP SWAP2 SWAP1 POP JUMP JUMPDEST PUSH0 PUSH1 0x60 DUP3 ADD SWAP1 POP PUSH2 0x1181 PUSH0 DUP4 ADD DUP7 PUSH2 0x1070 JUMP JUMPDEST PUSH2 0x118E PUSH1 0x20 DUP4 ADD DUP6 PUSH2 0x1070 JUMP JUMPDEST PUSH2 0x119B PUSH1 0x40 DUP4 ADD DUP5 PUSH2 0xD6E JUMP JUMPDEST SWAP5 SWAP4 POP POP POP POP JUMP JUMPDEST PUSH32 0x5472616E7366657220646F2070756C69206E69657564616E7900000000000000 PUSH0 DUP3 ADD MSTORE POP JUMP JUMPDEST PUSH0 PUSH2 0x11D7 PUSH1 0x19 DUP4 PUSH2 0xF90 JUMP JUMPDEST SWAP2 POP PUSH2 0x11E2 DUP3 PUSH2 0x11A3 JUMP JUMPDEST PUSH1 0x20 DUP3 ADD SWAP1 POP SWAP2 SWAP1 POP JUMP JUMPDEST PUSH0 PUSH1 0x20 DUP3 ADD SWAP1 POP DUP2 DUP2 SUB PUSH0 DUP4 ADD MSTORE PUSH2 0x1204 DUP2 PUSH2 0x11CB JUMP JUMPDEST SWAP1 POP SWAP2 SWAP1 POP JUMP JUMPDEST PUSH32 0x5779706C617461206E6167726F6479206E69657564616E610000000000000000 PUSH0 DUP3 ADD MSTORE POP JUMP JUMPDEST PUSH0 PUSH2 0x123F PUSH1 0x18 DUP4 PUSH2 0xF90 JUMP JUMPDEST SWAP2 POP PUSH2 0x124A DUP3 PUSH2 0x120B JUMP JUMPDEST PUSH1 0x20 DUP3 ADD SWAP1 POP SWAP2 SWAP1 POP JUMP JUMPDEST PUSH0 PUSH1 0x20 DUP3 ADD SWAP1 POP DUP2 DUP2 SUB PUSH0 DUP4 ADD MSTORE PUSH2 0x126C DUP2 PUSH2 0x1233 JUMP JUMPDEST SWAP1 POP SWAP2 SWAP1 POP JUMP INVALID LOG2 PUSH5 0x6970667358 0x22 SLT KECCAK256 0x2F 0xC7 CALLVALUE 0xA5 SAR RETF LT DELEGATECALL 0xB1 POP DUP8 SWAP6 GAS DUP2 0x2A 0xB0 0x2B SELFDESTRUCT PUSH20 0xAB0347DD3A682A2BEB1E0A552464736F6C634300 ADDMOD 0x22 STOP CALLER "
				},
				"gasEstimates": {
					"creation": {
						"codeDepositCost": "955400",
						"executionCost": "infinite",
						"totalCost": "infinite"
					},
					"external": {
						"claimReward()": "infinite",
						"earned(address)": "infinite",
						"lastUpdateTime(address)": "2847",
						"rewardRate()": "2447",
						"rewardToken()": "infinite",
						"rewards(address)": "2825",
						"stake(uint256)": "infinite",
						"stakingBalance(address)": "2891",
						"stakingToken()": "infinite",
						"totalStaked()": "2469",
						"withdraw(uint256)": "infinite"
					}
				},
				"methodIdentifiers": {
					"claimReward()": "b88a802f",
					"earned(address)": "008cc262",
					"lastUpdateTime(address)": "2ce9aead",
					"rewardRate()": "7b0a47ee",
					"rewardToken()": "f7c618c1",
					"rewards(address)": "0700037d",
					"stake(uint256)": "a694fc3a",
					"stakingBalance(address)": "45bc78ab",
					"stakingToken()": "72f702f3",
					"totalStaked()": "817b1cd2",
					"withdraw(uint256)": "2e1a7d4d"
				}
			},
			"storageLayout": {
				"storage": [
					{
						"astId": 323,
						"contract": "contracts/Staking/StakingPool.sol:StakingPool",
						"label": "stakingToken",
						"offset": 0,
						"slot": "0",
						"type": "t_contract(IERC20)77"
					},
					{
						"astId": 326,
						"contract": "contracts/Staking/StakingPool.sol:StakingPool",
						"label": "rewardToken",
						"offset": 0,
						"slot": "1",
						"type": "t_contract(IERC20)77"
					},
					{
						"astId": 329,
						"contract": "contracts/Staking/StakingPool.sol:StakingPool",
						"label": "rewardRate",
						"offset": 0,
						"slot": "2",
						"type": "t_uint256"
					},
					{
						"astId": 333,
						"contract": "contracts/Staking/StakingPool.sol:StakingPool",
						"label": "stakingBalance",
						"offset": 0,
						"slot": "3",
						"type": "t_mapping(t_address,t_uint256)"
					},
					{
						"astId": 337,
						"contract": "contracts/Staking/StakingPool.sol:StakingPool",
						"label": "lastUpdateTime",
						"offset": 0,
						"slot": "4",
						"type": "t_mapping(t_address,t_uint256)"
					},
					{
						"astId": 341,
						"contract": "contracts/Staking/StakingPool.sol:StakingPool",
						"label": "rewards",
						"offset": 0,
						"slot": "5",
						"type": "t_mapping(t_address,t_uint256)"
					},
					{
						"astId": 343,
						"contract": "contracts/Staking/StakingPool.sol:StakingPool",
						"label": "totalStaked",
						"offset": 0,
						"slot": "6",
						"type": "t_uint256"
					}
				],
				"types": {
					"t_address": {
						"encoding": "inplace",
						"label": "address",
						"numberOfBytes": "20"
					},
					"t_contract(IERC20)77": {
						"encoding": "inplace",
						"label": "contract IERC20",
						"numberOfBytes": "20"
					},
					"t_mapping(t_address,t_uint256)": {
						"encoding": "mapping",
						"key": "t_address",
						"label": "mapping(address => uint256)",
						"numberOfBytes": "32",
						"value": "t_uint256"
					},
					"t_uint256": {
						"encoding": "inplace",
						"label": "uint256",
						"numberOfBytes": "32"
					}
				}
			},
			"userdoc": {
				"kind": "user",
				"methods": {},
				"version": 1
			}
		}
	}
}