{
	"contracts/flashloan/FlashLender.sol": {
		"FlashLender": {
			"abi": [
				{
					"inputs": [
						{
							"internalType": "address",
							"name": "_token",
							"type": "address"
						}
					],
					"stateMutability": "nonpayable",
					"type": "constructor"
				},
				{
					"anonymous": false,
					"inputs": [
						{
							"indexed": true,
							"internalType": "address",
							"name": "borrower",
							"type": "address"
						},
						{
							"indexed": false,
							"internalType": "uint256",
							"name": "amount",
							"type": "uint256"
						},
						{
							"indexed": false,
							"internalType": "uint256",
							"name": "fee",
							"type": "uint256"
						}
					],
					"name": "FlashLoanSuccessful",
					"type": "event"
				},
				{
					"inputs": [],
					"name": "feePercent",
					"outputs": [
						{
							"internalType": "uint256",
							"name": "",
							"type": "uint256"
						}
					],
					"stateMutability": "view",
					"type": "function"
				},
				{
					"inputs": [
						{
							"internalType": "address",
							"name": "borrower",
							"type": "address"
						},
						{
							"internalType": "uint256",
							"name": "amount",
							"type": "uint256"
						}
					],
					"name": "flashLoan",
					"outputs": [],
					"stateMutability": "nonpayable",
					"type": "function"
				},
				{
					"inputs": [],
					"name": "token",
					"outputs": [
						{
							"internalType": "contract IERC20",
							"name": "",
							"type": "address"
						}
					],
					"stateMutability": "view",
					"type": "function"
				}
			],
			"devdoc": {
				"kind": "dev",
				"methods": {},
				"version": 1
			},
			"evm": {
				"assembly": "    /* \"contracts/flashloan/FlashLender.sol\":239:1379  contract FlashLender {... */\n  mstore(0x40, 0x80)\n    /* \"contracts/flashloan/FlashLender.sol\":321:322  1 */\n  0x01\n    /* \"contracts/flashloan/FlashLender.sol\":293:322  uint256 public feePercent = 1 */\n  dup1\n  sstore\n    /* \"contracts/flashloan/FlashLender.sol\":542:611  constructor(address _token) {... */\n  callvalue\n  dup1\n  iszero\n  tag_1\n  jumpi\n  revert(0x00, 0x00)\ntag_1:\n  pop\n  mload(0x40)\n  sub(codesize, bytecodeSize)\n  dup1\n  bytecodeSize\n  dup4\n  codecopy\n  dup2\n  dup2\n  add\n  0x40\n  mstore\n  dup2\n  add\n  swap1\n  tag_2\n  swap2\n  swap1\n  tag_3\n  jump\t// in\ntag_2:\n    /* \"contracts/flashloan/FlashLender.sol\":596:602  _token */\n  dup1\n    /* \"contracts/flashloan/FlashLender.sol\":581:586  token */\n  0x00\n  0x00\n    /* \"contracts/flashloan/FlashLender.sol\":581:603  token = IERC20(_token) */\n  0x0100\n  exp\n  dup2\n  sload\n  dup2\n  0xffffffffffffffffffffffffffffffffffffffff\n  mul\n  not\n  and\n  swap1\n  dup4\n  0xffffffffffffffffffffffffffffffffffffffff\n  and\n  mul\n  or\n  swap1\n  sstore\n  pop\n    /* \"contracts/flashloan/FlashLender.sol\":542:611  constructor(address _token) {... */\n  pop\n    /* \"contracts/flashloan/FlashLender.sol\":239:1379  contract FlashLender {... */\n  jump(tag_6)\n    /* \"#utility.yul\":88:205   */\ntag_8:\n    /* \"#utility.yul\":197:198   */\n  0x00\n    /* \"#utility.yul\":194:195   */\n  0x00\n    /* \"#utility.yul\":187:199   */\n  revert\n    /* \"#utility.yul\":334:460   */\ntag_10:\n    /* \"#utility.yul\":371:378   */\n  0x00\n    /* \"#utility.yul\":411:453   */\n  0xffffffffffffffffffffffffffffffffffffffff\n    /* \"#utility.yul\":404:409   */\n  dup3\n    /* \"#utility.yul\":400:454   */\n  and\n    /* \"#utility.yul\":389:454   */\n  swap1\n  pop\n    /* \"#utility.yul\":334:460   */\n  swap2\n  swap1\n  pop\n  jump\t// out\n    /* \"#utility.yul\":466:562   */\ntag_11:\n    /* \"#utility.yul\":503:510   */\n  0x00\n    /* \"#utility.yul\":532:556   */\n  tag_20\n    /* \"#utility.yul\":550:555   */\n  dup3\n    /* \"#utility.yul\":532:556   */\n  tag_10\n  jump\t// in\ntag_20:\n    /* \"#utility.yul\":521:556   */\n  swap1\n  pop\n    /* \"#utility.yul\":466:562   */\n  swap2\n  swap1\n  pop\n  jump\t// out\n    /* \"#utility.yul\":568:690   */\ntag_12:\n    /* \"#utility.yul\":641:665   */\n  tag_22\n    /* \"#utility.yul\":659:664   */\n  dup2\n    /* \"#utility.yul\":641:665   */\n  tag_11\n  jump\t// in\ntag_22:\n    /* \"#utility.yul\":634:639   */\n  dup2\n    /* \"#utility.yul\":631:666   */\n  eq\n    /* \"#utility.yul\":621:684   */\n  tag_23\n  jumpi\n    /* \"#utility.yul\":680:681   */\n  0x00\n    /* \"#utility.yul\":677:678   */\n  0x00\n    /* \"#utility.yul\":670:682   */\n  revert\n    /* \"#utility.yul\":621:684   */\ntag_23:\n    /* \"#utility.yul\":568:690   */\n  pop\n  jump\t// out\n    /* \"#utility.yul\":696:839   */\ntag_13:\n    /* \"#utility.yul\":753:758   */\n  0x00\n    /* \"#utility.yul\":784:790   */\n  dup2\n    /* \"#utility.yul\":778:791   */\n  mload\n    /* \"#utility.yul\":769:791   */\n  swap1\n  pop\n    /* \"#utility.yul\":800:833   */\n  tag_25\n    /* \"#utility.yul\":827:832   */\n  dup2\n    /* \"#utility.yul\":800:833   */\n  tag_12\n  jump\t// in\ntag_25:\n    /* \"#utility.yul\":696:839   */\n  swap3\n  swap2\n  pop\n  pop\n  jump\t// out\n    /* \"#utility.yul\":845:1196   */\ntag_3:\n    /* \"#utility.yul\":915:921   */\n  0x00\n    /* \"#utility.yul\":964:966   */\n  0x20\n    /* \"#utility.yul\":952:961   */\n  dup3\n    /* \"#utility.yul\":943:950   */\n  dup5\n    /* \"#utility.yul\":939:962   */\n  sub\n    /* \"#utility.yul\":935:967   */\n  slt\n    /* \"#utility.yul\":932:1051   */\n  iszero\n  tag_27\n  jumpi\n    /* \"#utility.yul\":970:1049   */\n  tag_28\n  tag_8\n  jump\t// in\ntag_28:\n    /* \"#utility.yul\":932:1051   */\ntag_27:\n    /* \"#utility.yul\":1090:1091   */\n  0x00\n    /* \"#utility.yul\":1115:1179   */\n  tag_29\n    /* \"#utility.yul\":1171:1178   */\n  dup5\n    /* \"#utility.yul\":1162:1168   */\n  dup3\n    /* \"#utility.yul\":1151:1160   */\n  dup6\n    /* \"#utility.yul\":1147:1169   */\n  add\n    /* \"#utility.yul\":1115:1179   */\n  tag_13\n  jump\t// in\ntag_29:\n    /* \"#utility.yul\":1105:1179   */\n  swap2\n  pop\n    /* \"#utility.yul\":1061:1189   */\n  pop\n    /* \"#utility.yul\":845:1196   */\n  swap3\n  swap2\n  pop\n  pop\n  jump\t// out\n    /* \"contracts/flashloan/FlashLender.sol\":239:1379  contract FlashLender {... */\ntag_6:\n  dataSize(sub_0)\n  dup1\n  dataOffset(sub_0)\n  0x00\n  codecopy\n  0x00\n  return\nstop\n\nsub_0: assembly {\n        /* \"contracts/flashloan/FlashLender.sol\":239:1379  contract FlashLender {... */\n      mstore(0x40, 0x80)\n      callvalue\n      dup1\n      iszero\n      tag_1\n      jumpi\n      revert(0x00, 0x00)\n    tag_1:\n      pop\n      jumpi(tag_2, lt(calldatasize, 0x04))\n      shr(0xe0, calldataload(0x00))\n      dup1\n      0x7fd6f15c\n      eq\n      tag_3\n      jumpi\n      dup1\n      0x9d9e465c\n      eq\n      tag_4\n      jumpi\n      dup1\n      0xfc0c546a\n      eq\n      tag_5\n      jumpi\n    tag_2:\n      revert(0x00, 0x00)\n        /* \"contracts/flashloan/FlashLender.sol\":293:322  uint256 public feePercent = 1 */\n    tag_3:\n      tag_6\n      tag_7\n      jump\t// in\n    tag_6:\n      mload(0x40)\n      tag_8\n      swap2\n      swap1\n      tag_9\n      jump\t// in\n    tag_8:\n      mload(0x40)\n      dup1\n      swap2\n      sub\n      swap1\n      return\n        /* \"contracts/flashloan/FlashLender.sol\":619:1376  function flashLoan(address borrower, uint256 amount) external {... */\n    tag_4:\n      tag_10\n      0x04\n      dup1\n      calldatasize\n      sub\n      dup2\n      add\n      swap1\n      tag_11\n      swap2\n      swap1\n      tag_12\n      jump\t// in\n    tag_11:\n      tag_13\n      jump\t// in\n    tag_10:\n      stop\n        /* \"contracts/flashloan/FlashLender.sol\":267:286  IERC20 public token */\n    tag_5:\n      tag_14\n      tag_15\n      jump\t// in\n    tag_14:\n      mload(0x40)\n      tag_16\n      swap2\n      swap1\n      tag_17\n      jump\t// in\n    tag_16:\n      mload(0x40)\n      dup1\n      swap2\n      sub\n      swap1\n      return\n        /* \"contracts/flashloan/FlashLender.sol\":293:322  uint256 public feePercent = 1 */\n    tag_7:\n      sload(0x01)\n      dup2\n      jump\t// out\n        /* \"contracts/flashloan/FlashLender.sol\":619:1376  function flashLoan(address borrower, uint256 amount) external {... */\n    tag_13:\n        /* \"contracts/flashloan/FlashLender.sol\":692:713  uint256 balanceBefore */\n      0x00\n        /* \"contracts/flashloan/FlashLender.sol\":716:721  token */\n      0x00\n      0x00\n      swap1\n      sload\n      swap1\n      0x0100\n      exp\n      swap1\n      div\n      0xffffffffffffffffffffffffffffffffffffffff\n      and\n        /* \"contracts/flashloan/FlashLender.sol\":716:731  token.balanceOf */\n      0xffffffffffffffffffffffffffffffffffffffff\n      and\n      0x70a08231\n        /* \"contracts/flashloan/FlashLender.sol\":740:744  this */\n      address\n        /* \"contracts/flashloan/FlashLender.sol\":716:746  token.balanceOf(address(this)) */\n      mload(0x40)\n      dup3\n      0xffffffff\n      and\n      0xe0\n      shl\n      dup2\n      mstore\n      0x04\n      add\n      tag_19\n      swap2\n      swap1\n      tag_20\n      jump\t// in\n    tag_19:\n      0x20\n      mload(0x40)\n      dup1\n      dup4\n      sub\n      dup2\n      dup7\n      gas\n      staticcall\n      iszero\n      dup1\n      iszero\n      tag_22\n      jumpi\n      returndatacopy(0x00, 0x00, returndatasize)\n      revert(0x00, returndatasize)\n    tag_22:\n      pop\n      pop\n      pop\n      pop\n      mload(0x40)\n      returndatasize\n      not(0x1f)\n      0x1f\n      dup3\n      add\n      and\n      dup3\n      add\n      dup1\n      0x40\n      mstore\n      pop\n      dup2\n      add\n      swap1\n      tag_23\n      swap2\n      swap1\n      tag_24\n      jump\t// in\n    tag_23:\n        /* \"contracts/flashloan/FlashLender.sol\":692:746  uint256 balanceBefore = token.balanceOf(address(this)) */\n      swap1\n      pop\n        /* \"contracts/flashloan/FlashLender.sol\":782:788  amount */\n      dup2\n        /* \"contracts/flashloan/FlashLender.sol\":765:778  balanceBefore */\n      dup2\n        /* \"contracts/flashloan/FlashLender.sol\":765:788  balanceBefore >= amount */\n      lt\n      iszero\n        /* \"contracts/flashloan/FlashLender.sol\":757:815  require(balanceBefore >= amount, \"Za malo srodkow w puli\") */\n      tag_25\n      jumpi\n      mload(0x40)\n      0x08c379a000000000000000000000000000000000000000000000000000000000\n      dup2\n      mstore\n      0x04\n      add\n      tag_26\n      swap1\n      tag_27\n      jump\t// in\n    tag_26:\n      mload(0x40)\n      dup1\n      swap2\n      sub\n      swap1\n      revert\n    tag_25:\n        /* \"contracts/flashloan/FlashLender.sol\":828:839  uint256 fee */\n      0x00\n        /* \"contracts/flashloan/FlashLender.sol\":866:869  100 */\n      0x64\n        /* \"contracts/flashloan/FlashLender.sol\":852:862  feePercent */\n      sload(0x01)\n        /* \"contracts/flashloan/FlashLender.sol\":843:849  amount */\n      dup5\n        /* \"contracts/flashloan/FlashLender.sol\":843:862  amount * feePercent */\n      tag_28\n      swap2\n      swap1\n      tag_29\n      jump\t// in\n    tag_28:\n        /* \"contracts/flashloan/FlashLender.sol\":842:869  (amount * feePercent) / 100 */\n      tag_30\n      swap2\n      swap1\n      tag_31\n      jump\t// in\n    tag_30:\n        /* \"contracts/flashloan/FlashLender.sol\":828:869  uint256 fee = (amount * feePercent) / 100 */\n      swap1\n      pop\n        /* \"contracts/flashloan/FlashLender.sol\":882:887  token */\n      0x00\n      0x00\n      swap1\n      sload\n      swap1\n      0x0100\n      exp\n      swap1\n      div\n      0xffffffffffffffffffffffffffffffffffffffff\n      and\n        /* \"contracts/flashloan/FlashLender.sol\":882:896  token.transfer */\n      0xffffffffffffffffffffffffffffffffffffffff\n      and\n      0xa9059cbb\n        /* \"contracts/flashloan/FlashLender.sol\":897:905  borrower */\n      dup6\n        /* \"contracts/flashloan/FlashLender.sol\":907:913  amount */\n      dup6\n        /* \"contracts/flashloan/FlashLender.sol\":882:914  token.transfer(borrower, amount) */\n      mload(0x40)\n      dup4\n      0xffffffff\n      and\n      0xe0\n      shl\n      dup2\n      mstore\n      0x04\n      add\n      tag_32\n      swap3\n      swap2\n      swap1\n      tag_33\n      jump\t// in\n    tag_32:\n      0x20\n      mload(0x40)\n      dup1\n      dup4\n      sub\n      dup2\n      0x00\n      dup8\n      gas\n      call\n      iszero\n      dup1\n      iszero\n      tag_35\n      jumpi\n      returndatacopy(0x00, 0x00, returndatasize)\n      revert(0x00, returndatasize)\n    tag_35:\n      pop\n      pop\n      pop\n      pop\n      mload(0x40)\n      returndatasize\n      not(0x1f)\n      0x1f\n      dup3\n      add\n      and\n      dup3\n      add\n      dup1\n      0x40\n      mstore\n      pop\n      dup2\n      add\n      swap1\n      tag_36\n      swap2\n      swap1\n      tag_37\n      jump\t// in\n    tag_36:\n      pop\n        /* \"contracts/flashloan/FlashLender.sol\":964:972  borrower */\n      dup4\n        /* \"contracts/flashloan/FlashLender.sol\":949:990  IFlashBorrower(borrower).executeOperation */\n      0xffffffffffffffffffffffffffffffffffffffff\n      and\n      0x2f22e215\n        /* \"contracts/flashloan/FlashLender.sol\":991:997  amount */\n      dup5\n        /* \"contracts/flashloan/FlashLender.sol\":999:1002  fee */\n      dup4\n        /* \"contracts/flashloan/FlashLender.sol\":949:1003  IFlashBorrower(borrower).executeOperation(amount, fee) */\n      mload(0x40)\n      dup4\n      0xffffffff\n      and\n      0xe0\n      shl\n      dup2\n      mstore\n      0x04\n      add\n      tag_38\n      swap3\n      swap2\n      swap1\n      tag_39\n      jump\t// in\n    tag_38:\n      0x20\n      mload(0x40)\n      dup1\n      dup4\n      sub\n      dup2\n      0x00\n      dup8\n      gas\n      call\n      iszero\n      dup1\n      iszero\n      tag_41\n      jumpi\n      returndatacopy(0x00, 0x00, returndatasize)\n      revert(0x00, returndatasize)\n    tag_41:\n      pop\n      pop\n      pop\n      pop\n      mload(0x40)\n      returndatasize\n      not(0x1f)\n      0x1f\n      dup3\n      add\n      and\n      dup3\n      add\n      dup1\n      0x40\n      mstore\n      pop\n      dup2\n      add\n      swap1\n      tag_42\n      swap2\n      swap1\n      tag_37\n      jump\t// in\n    tag_42:\n        /* \"contracts/flashloan/FlashLender.sol\":927:1071  require(... */\n      tag_43\n      jumpi\n      mload(0x40)\n      0x08c379a000000000000000000000000000000000000000000000000000000000\n      dup2\n      mstore\n      0x04\n      add\n      tag_44\n      swap1\n      tag_45\n      jump\t// in\n    tag_44:\n      mload(0x40)\n      dup1\n      swap2\n      sub\n      swap1\n      revert\n    tag_43:\n        /* \"contracts/flashloan/FlashLender.sol\":1084:1104  uint256 balanceAfter */\n      0x00\n        /* \"contracts/flashloan/FlashLender.sol\":1107:1112  token */\n      0x00\n      0x00\n      swap1\n      sload\n      swap1\n      0x0100\n      exp\n      swap1\n      div\n      0xffffffffffffffffffffffffffffffffffffffff\n      and\n        /* \"contracts/flashloan/FlashLender.sol\":1107:1122  token.balanceOf */\n      0xffffffffffffffffffffffffffffffffffffffff\n      and\n      0x70a08231\n        /* \"contracts/flashloan/FlashLender.sol\":1131:1135  this */\n      address\n        /* \"contracts/flashloan/FlashLender.sol\":1107:1137  token.balanceOf(address(this)) */\n      mload(0x40)\n      dup3\n      0xffffffff\n      and\n      0xe0\n      shl\n      dup2\n      mstore\n      0x04\n      add\n      tag_46\n      swap2\n      swap1\n      tag_20\n      jump\t// in\n    tag_46:\n      0x20\n      mload(0x40)\n      dup1\n      dup4\n      sub\n      dup2\n      dup7\n      gas\n      staticcall\n      iszero\n      dup1\n      iszero\n      tag_48\n      jumpi\n      returndatacopy(0x00, 0x00, returndatasize)\n      revert(0x00, returndatasize)\n    tag_48:\n      pop\n      pop\n      pop\n      pop\n      mload(0x40)\n      returndatasize\n      not(0x1f)\n      0x1f\n      dup3\n      add\n      and\n      dup3\n      add\n      dup1\n      0x40\n      mstore\n      pop\n      dup2\n      add\n      swap1\n      tag_49\n      swap2\n      swap1\n      tag_24\n      jump\t// in\n    tag_49:\n        /* \"contracts/flashloan/FlashLender.sol\":1084:1137  uint256 balanceAfter = token.balanceOf(address(this)) */\n      swap1\n      pop\n        /* \"contracts/flashloan/FlashLender.sol\":1188:1191  fee */\n      dup2\n        /* \"contracts/flashloan/FlashLender.sol\":1172:1185  balanceBefore */\n      dup4\n        /* \"contracts/flashloan/FlashLender.sol\":1172:1191  balanceBefore + fee */\n      tag_50\n      swap2\n      swap1\n      tag_51\n      jump\t// in\n    tag_50:\n        /* \"contracts/flashloan/FlashLender.sol\":1156:1168  balanceAfter */\n      dup2\n        /* \"contracts/flashloan/FlashLender.sol\":1156:1191  balanceAfter >= balanceBefore + fee */\n      lt\n      iszero\n        /* \"contracts/flashloan/FlashLender.sol\":1148:1234  require(balanceAfter >= balanceBefore + fee, \"Pozyczka nie zostala oddana z prowizja\") */\n      tag_52\n      jumpi\n      mload(0x40)\n      0x08c379a000000000000000000000000000000000000000000000000000000000\n      dup2\n      mstore\n      0x04\n      add\n      tag_53\n      swap1\n      tag_54\n      jump\t// in\n    tag_53:\n      mload(0x40)\n      dup1\n      swap2\n      sub\n      swap1\n      revert\n    tag_52:\n        /* \"contracts/flashloan/FlashLender.sol\":1346:1354  borrower */\n      dup5\n        /* \"contracts/flashloan/FlashLender.sol\":1326:1368  FlashLoanSuccessful(borrower, amount, fee) */\n      0xffffffffffffffffffffffffffffffffffffffff\n      and\n      0x1b4678be01875999e214fb4f1fb5ad36f4f9cf364f53dde4e55df77f7cc7f762\n        /* \"contracts/flashloan/FlashLender.sol\":1356:1362  amount */\n      dup6\n        /* \"contracts/flashloan/FlashLender.sol\":1364:1367  fee */\n      dup5\n        /* \"contracts/flashloan/FlashLender.sol\":1326:1368  FlashLoanSuccessful(borrower, amount, fee) */\n      mload(0x40)\n      tag_55\n      swap3\n      swap2\n      swap1\n      tag_39\n      jump\t// in\n    tag_55:\n      mload(0x40)\n      dup1\n      swap2\n      sub\n      swap1\n      log2\n        /* \"contracts/flashloan/FlashLender.sol\":681:1376  {... */\n      pop\n      pop\n      pop\n        /* \"contracts/flashloan/FlashLender.sol\":619:1376  function flashLoan(address borrower, uint256 amount) external {... */\n      pop\n      pop\n      jump\t// out\n        /* \"contracts/flashloan/FlashLender.sol\":267:286  IERC20 public token */\n    tag_15:\n      0x00\n      0x00\n      swap1\n      sload\n      swap1\n      0x0100\n      exp\n      swap1\n      div\n      0xffffffffffffffffffffffffffffffffffffffff\n      and\n      dup2\n      jump\t// out\n        /* \"#utility.yul\":7:84   */\n    tag_56:\n        /* \"#utility.yul\":44:51   */\n      0x00\n        /* \"#utility.yul\":73:78   */\n      dup2\n        /* \"#utility.yul\":62:78   */\n      swap1\n      pop\n        /* \"#utility.yul\":7:84   */\n      swap2\n      swap1\n      pop\n      jump\t// out\n        /* \"#utility.yul\":90:208   */\n    tag_57:\n        /* \"#utility.yul\":177:201   */\n      tag_89\n        /* \"#utility.yul\":195:200   */\n      dup2\n        /* \"#utility.yul\":177:201   */\n      tag_56\n      jump\t// in\n    tag_89:\n        /* \"#utility.yul\":172:175   */\n      dup3\n        /* \"#utility.yul\":165:202   */\n      mstore\n        /* \"#utility.yul\":90:208   */\n      pop\n      pop\n      jump\t// out\n        /* \"#utility.yul\":214:436   */\n    tag_9:\n        /* \"#utility.yul\":307:311   */\n      0x00\n        /* \"#utility.yul\":345:347   */\n      0x20\n        /* \"#utility.yul\":334:343   */\n      dup3\n        /* \"#utility.yul\":330:348   */\n      add\n        /* \"#utility.yul\":322:348   */\n      swap1\n      pop\n        /* \"#utility.yul\":358:429   */\n      tag_91\n        /* \"#utility.yul\":426:427   */\n      0x00\n        /* \"#utility.yul\":415:424   */\n      dup4\n        /* \"#utility.yul\":411:428   */\n      add\n        /* \"#utility.yul\":402:408   */\n      dup5\n        /* \"#utility.yul\":358:429   */\n      tag_57\n      jump\t// in\n    tag_91:\n        /* \"#utility.yul\":214:436   */\n      swap3\n      swap2\n      pop\n      pop\n      jump\t// out\n        /* \"#utility.yul\":523:640   */\n    tag_59:\n        /* \"#utility.yul\":632:633   */\n      0x00\n        /* \"#utility.yul\":629:630   */\n      0x00\n        /* \"#utility.yul\":622:634   */\n      revert\n        /* \"#utility.yul\":769:895   */\n    tag_61:\n        /* \"#utility.yul\":806:813   */\n      0x00\n        /* \"#utility.yul\":846:888   */\n      0xffffffffffffffffffffffffffffffffffffffff\n        /* \"#utility.yul\":839:844   */\n      dup3\n        /* \"#utility.yul\":835:889   */\n      and\n        /* \"#utility.yul\":824:889   */\n      swap1\n      pop\n        /* \"#utility.yul\":769:895   */\n      swap2\n      swap1\n      pop\n      jump\t// out\n        /* \"#utility.yul\":901:997   */\n    tag_62:\n        /* \"#utility.yul\":938:945   */\n      0x00\n        /* \"#utility.yul\":967:991   */\n      tag_97\n        /* \"#utility.yul\":985:990   */\n      dup3\n        /* \"#utility.yul\":967:991   */\n      tag_61\n      jump\t// in\n    tag_97:\n        /* \"#utility.yul\":956:991   */\n      swap1\n      pop\n        /* \"#utility.yul\":901:997   */\n      swap2\n      swap1\n      pop\n      jump\t// out\n        /* \"#utility.yul\":1003:1125   */\n    tag_63:\n        /* \"#utility.yul\":1076:1100   */\n      tag_99\n        /* \"#utility.yul\":1094:1099   */\n      dup2\n        /* \"#utility.yul\":1076:1100   */\n      tag_62\n      jump\t// in\n    tag_99:\n        /* \"#utility.yul\":1069:1074   */\n      dup2\n        /* \"#utility.yul\":1066:1101   */\n      eq\n        /* \"#utility.yul\":1056:1119   */\n      tag_100\n      jumpi\n        /* \"#utility.yul\":1115:1116   */\n      0x00\n        /* \"#utility.yul\":1112:1113   */\n      0x00\n        /* \"#utility.yul\":1105:1117   */\n      revert\n        /* \"#utility.yul\":1056:1119   */\n    tag_100:\n        /* \"#utility.yul\":1003:1125   */\n      pop\n      jump\t// out\n        /* \"#utility.yul\":1131:1270   */\n    tag_64:\n        /* \"#utility.yul\":1177:1182   */\n      0x00\n        /* \"#utility.yul\":1215:1221   */\n      dup2\n        /* \"#utility.yul\":1202:1222   */\n      calldataload\n        /* \"#utility.yul\":1193:1222   */\n      swap1\n      pop\n        /* \"#utility.yul\":1231:1264   */\n      tag_102\n        /* \"#utility.yul\":1258:1263   */\n      dup2\n        /* \"#utility.yul\":1231:1264   */\n      tag_63\n      jump\t// in\n    tag_102:\n        /* \"#utility.yul\":1131:1270   */\n      swap3\n      swap2\n      pop\n      pop\n      jump\t// out\n        /* \"#utility.yul\":1276:1398   */\n    tag_65:\n        /* \"#utility.yul\":1349:1373   */\n      tag_104\n        /* \"#utility.yul\":1367:1372   */\n      dup2\n        /* \"#utility.yul\":1349:1373   */\n      tag_56\n      jump\t// in\n    tag_104:\n        /* \"#utility.yul\":1342:1347   */\n      dup2\n        /* \"#utility.yul\":1339:1374   */\n      eq\n        /* \"#utility.yul\":1329:1392   */\n      tag_105\n      jumpi\n        /* \"#utility.yul\":1388:1389   */\n      0x00\n        /* \"#utility.yul\":1385:1386   */\n      0x00\n        /* \"#utility.yul\":1378:1390   */\n      revert\n        /* \"#utility.yul\":1329:1392   */\n    tag_105:\n        /* \"#utility.yul\":1276:1398   */\n      pop\n      jump\t// out\n        /* \"#utility.yul\":1404:1543   */\n    tag_66:\n        /* \"#utility.yul\":1450:1455   */\n      0x00\n        /* \"#utility.yul\":1488:1494   */\n      dup2\n        /* \"#utility.yul\":1475:1495   */\n      calldataload\n        /* \"#utility.yul\":1466:1495   */\n      swap1\n      pop\n        /* \"#utility.yul\":1504:1537   */\n      tag_107\n        /* \"#utility.yul\":1531:1536   */\n      dup2\n        /* \"#utility.yul\":1504:1537   */\n      tag_65\n      jump\t// in\n    tag_107:\n        /* \"#utility.yul\":1404:1543   */\n      swap3\n      swap2\n      pop\n      pop\n      jump\t// out\n        /* \"#utility.yul\":1549:2023   */\n    tag_12:\n        /* \"#utility.yul\":1617:1623   */\n      0x00\n        /* \"#utility.yul\":1625:1631   */\n      0x00\n        /* \"#utility.yul\":1674:1676   */\n      0x40\n        /* \"#utility.yul\":1662:1671   */\n      dup4\n        /* \"#utility.yul\":1653:1660   */\n      dup6\n        /* \"#utility.yul\":1649:1672   */\n      sub\n        /* \"#utility.yul\":1645:1677   */\n      slt\n        /* \"#utility.yul\":1642:1761   */\n      iszero\n      tag_109\n      jumpi\n        /* \"#utility.yul\":1680:1759   */\n      tag_110\n      tag_59\n      jump\t// in\n    tag_110:\n        /* \"#utility.yul\":1642:1761   */\n    tag_109:\n        /* \"#utility.yul\":1800:1801   */\n      0x00\n        /* \"#utility.yul\":1825:1878   */\n      tag_111\n        /* \"#utility.yul\":1870:1877   */\n      dup6\n        /* \"#utility.yul\":1861:1867   */\n      dup3\n        /* \"#utility.yul\":1850:1859   */\n      dup7\n        /* \"#utility.yul\":1846:1868   */\n      add\n        /* \"#utility.yul\":1825:1878   */\n      tag_64\n      jump\t// in\n    tag_111:\n        /* \"#utility.yul\":1815:1878   */\n      swap3\n      pop\n        /* \"#utility.yul\":1771:1888   */\n      pop\n        /* \"#utility.yul\":1927:1929   */\n      0x20\n        /* \"#utility.yul\":1953:2006   */\n      tag_112\n        /* \"#utility.yul\":1998:2005   */\n      dup6\n        /* \"#utility.yul\":1989:1995   */\n      dup3\n        /* \"#utility.yul\":1978:1987   */\n      dup7\n        /* \"#utility.yul\":1974:1996   */\n      add\n        /* \"#utility.yul\":1953:2006   */\n      tag_66\n      jump\t// in\n    tag_112:\n        /* \"#utility.yul\":1943:2006   */\n      swap2\n      pop\n        /* \"#utility.yul\":1898:2016   */\n      pop\n        /* \"#utility.yul\":1549:2023   */\n      swap3\n      pop\n      swap3\n      swap1\n      pop\n      jump\t// out\n        /* \"#utility.yul\":2029:2089   */\n    tag_67:\n        /* \"#utility.yul\":2057:2060   */\n      0x00\n        /* \"#utility.yul\":2078:2083   */\n      dup2\n        /* \"#utility.yul\":2071:2083   */\n      swap1\n      pop\n        /* \"#utility.yul\":2029:2089   */\n      swap2\n      swap1\n      pop\n      jump\t// out\n        /* \"#utility.yul\":2095:2237   */\n    tag_68:\n        /* \"#utility.yul\":2145:2154   */\n      0x00\n        /* \"#utility.yul\":2178:2231   */\n      tag_115\n        /* \"#utility.yul\":2196:2230   */\n      tag_116\n        /* \"#utility.yul\":2205:2229   */\n      tag_117\n        /* \"#utility.yul\":2223:2228   */\n      dup5\n        /* \"#utility.yul\":2205:2229   */\n      tag_61\n      jump\t// in\n    tag_117:\n        /* \"#utility.yul\":2196:2230   */\n      tag_67\n      jump\t// in\n    tag_116:\n        /* \"#utility.yul\":2178:2231   */\n      tag_61\n      jump\t// in\n    tag_115:\n        /* \"#utility.yul\":2165:2231   */\n      swap1\n      pop\n        /* \"#utility.yul\":2095:2237   */\n      swap2\n      swap1\n      pop\n      jump\t// out\n        /* \"#utility.yul\":2243:2369   */\n    tag_69:\n        /* \"#utility.yul\":2293:2302   */\n      0x00\n        /* \"#utility.yul\":2326:2363   */\n      tag_119\n        /* \"#utility.yul\":2357:2362   */\n      dup3\n        /* \"#utility.yul\":2326:2363   */\n      tag_68\n      jump\t// in\n    tag_119:\n        /* \"#utility.yul\":2313:2363   */\n      swap1\n      pop\n        /* \"#utility.yul\":2243:2369   */\n      swap2\n      swap1\n      pop\n      jump\t// out\n        /* \"#utility.yul\":2375:2514   */\n    tag_70:\n        /* \"#utility.yul\":2438:2447   */\n      0x00\n        /* \"#utility.yul\":2471:2508   */\n      tag_121\n        /* \"#utility.yul\":2502:2507   */\n      dup3\n        /* \"#utility.yul\":2471:2508   */\n      tag_69\n      jump\t// in\n    tag_121:\n        /* \"#utility.yul\":2458:2508   */\n      swap1\n      pop\n        /* \"#utility.yul\":2375:2514   */\n      swap2\n      swap1\n      pop\n      jump\t// out\n        /* \"#utility.yul\":2520:2677   */\n    tag_71:\n        /* \"#utility.yul\":2620:2670   */\n      tag_123\n        /* \"#utility.yul\":2664:2669   */\n      dup2\n        /* \"#utility.yul\":2620:2670   */\n      tag_70\n      jump\t// in\n    tag_123:\n        /* \"#utility.yul\":2615:2618   */\n      dup3\n        /* \"#utility.yul\":2608:2671   */\n      mstore\n        /* \"#utility.yul\":2520:2677   */\n      pop\n      pop\n      jump\t// out\n        /* \"#utility.yul\":2683:2931   */\n    tag_17:\n        /* \"#utility.yul\":2789:2793   */\n      0x00\n        /* \"#utility.yul\":2827:2829   */\n      0x20\n        /* \"#utility.yul\":2816:2825   */\n      dup3\n        /* \"#utility.yul\":2812:2830   */\n      add\n        /* \"#utility.yul\":2804:2830   */\n      swap1\n      pop\n        /* \"#utility.yul\":2840:2924   */\n      tag_125\n        /* \"#utility.yul\":2921:2922   */\n      0x00\n        /* \"#utility.yul\":2910:2919   */\n      dup4\n        /* \"#utility.yul\":2906:2923   */\n      add\n        /* \"#utility.yul\":2897:2903   */\n      dup5\n        /* \"#utility.yul\":2840:2924   */\n      tag_71\n      jump\t// in\n    tag_125:\n        /* \"#utility.yul\":2683:2931   */\n      swap3\n      swap2\n      pop\n      pop\n      jump\t// out\n        /* \"#utility.yul\":2937:3055   */\n    tag_72:\n        /* \"#utility.yul\":3024:3048   */\n      tag_127\n        /* \"#utility.yul\":3042:3047   */\n      dup2\n        /* \"#utility.yul\":3024:3048   */\n      tag_62\n      jump\t// in\n    tag_127:\n        /* \"#utility.yul\":3019:3022   */\n      dup3\n        /* \"#utility.yul\":3012:3049   */\n      mstore\n        /* \"#utility.yul\":2937:3055   */\n      pop\n      pop\n      jump\t// out\n        /* \"#utility.yul\":3061:3283   */\n    tag_20:\n        /* \"#utility.yul\":3154:3158   */\n      0x00\n        /* \"#utility.yul\":3192:3194   */\n      0x20\n        /* \"#utility.yul\":3181:3190   */\n      dup3\n        /* \"#utility.yul\":3177:3195   */\n      add\n        /* \"#utility.yul\":3169:3195   */\n      swap1\n      pop\n        /* \"#utility.yul\":3205:3276   */\n      tag_129\n        /* \"#utility.yul\":3273:3274   */\n      0x00\n        /* \"#utility.yul\":3262:3271   */\n      dup4\n        /* \"#utility.yul\":3258:3275   */\n      add\n        /* \"#utility.yul\":3249:3255   */\n      dup5\n        /* \"#utility.yul\":3205:3276   */\n      tag_72\n      jump\t// in\n    tag_129:\n        /* \"#utility.yul\":3061:3283   */\n      swap3\n      swap2\n      pop\n      pop\n      jump\t// out\n        /* \"#utility.yul\":3289:3432   */\n    tag_73:\n        /* \"#utility.yul\":3346:3351   */\n      0x00\n        /* \"#utility.yul\":3377:3383   */\n      dup2\n        /* \"#utility.yul\":3371:3384   */\n      mload\n        /* \"#utility.yul\":3362:3384   */\n      swap1\n      pop\n        /* \"#utility.yul\":3393:3426   */\n      tag_131\n        /* \"#utility.yul\":3420:3425   */\n      dup2\n        /* \"#utility.yul\":3393:3426   */\n      tag_65\n      jump\t// in\n    tag_131:\n        /* \"#utility.yul\":3289:3432   */\n      swap3\n      swap2\n      pop\n      pop\n      jump\t// out\n        /* \"#utility.yul\":3438:3789   */\n    tag_24:\n        /* \"#utility.yul\":3508:3514   */\n      0x00\n        /* \"#utility.yul\":3557:3559   */\n      0x20\n        /* \"#utility.yul\":3545:3554   */\n      dup3\n        /* \"#utility.yul\":3536:3543   */\n      dup5\n        /* \"#utility.yul\":3532:3555   */\n      sub\n        /* \"#utility.yul\":3528:3560   */\n      slt\n        /* \"#utility.yul\":3525:3644   */\n      iszero\n      tag_133\n      jumpi\n        /* \"#utility.yul\":3563:3642   */\n      tag_134\n      tag_59\n      jump\t// in\n    tag_134:\n        /* \"#utility.yul\":3525:3644   */\n    tag_133:\n        /* \"#utility.yul\":3683:3684   */\n      0x00\n        /* \"#utility.yul\":3708:3772   */\n      tag_135\n        /* \"#utility.yul\":3764:3771   */\n      dup5\n        /* \"#utility.yul\":3755:3761   */\n      dup3\n        /* \"#utility.yul\":3744:3753   */\n      dup6\n        /* \"#utility.yul\":3740:3762   */\n      add\n        /* \"#utility.yul\":3708:3772   */\n      tag_73\n      jump\t// in\n    tag_135:\n        /* \"#utility.yul\":3698:3772   */\n      swap2\n      pop\n        /* \"#utility.yul\":3654:3782   */\n      pop\n        /* \"#utility.yul\":3438:3789   */\n      swap3\n      swap2\n      pop\n      pop\n      jump\t// out\n        /* \"#utility.yul\":3795:3964   */\n    tag_74:\n        /* \"#utility.yul\":3879:3890   */\n      0x00\n        /* \"#utility.yul\":3913:3919   */\n      dup3\n        /* \"#utility.yul\":3908:3911   */\n      dup3\n        /* \"#utility.yul\":3901:3920   */\n      mstore\n        /* \"#utility.yul\":3953:3957   */\n      0x20\n        /* \"#utility.yul\":3948:3951   */\n      dup3\n        /* \"#utility.yul\":3944:3958   */\n      add\n        /* \"#utility.yul\":3929:3958   */\n      swap1\n      pop\n        /* \"#utility.yul\":3795:3964   */\n      swap3\n      swap2\n      pop\n      pop\n      jump\t// out\n        /* \"#utility.yul\":3970:4142   */\n    tag_75:\n        /* \"#utility.yul\":4110:4134   */\n      0x5a61206d616c6f2073726f646b6f7720772070756c6900000000000000000000\n        /* \"#utility.yul\":4106:4107   */\n      0x00\n        /* \"#utility.yul\":4098:4104   */\n      dup3\n        /* \"#utility.yul\":4094:4108   */\n      add\n        /* \"#utility.yul\":4087:4135   */\n      mstore\n        /* \"#utility.yul\":3970:4142   */\n      pop\n      jump\t// out\n        /* \"#utility.yul\":4148:4514   */\n    tag_76:\n        /* \"#utility.yul\":4290:4293   */\n      0x00\n        /* \"#utility.yul\":4311:4378   */\n      tag_139\n        /* \"#utility.yul\":4375:4377   */\n      0x16\n        /* \"#utility.yul\":4370:4373   */\n      dup4\n        /* \"#utility.yul\":4311:4378   */\n      tag_74\n      jump\t// in\n    tag_139:\n        /* \"#utility.yul\":4304:4378   */\n      swap2\n      pop\n        /* \"#utility.yul\":4387:4480   */\n      tag_140\n        /* \"#utility.yul\":4476:4479   */\n      dup3\n        /* \"#utility.yul\":4387:4480   */\n      tag_75\n      jump\t// in\n    tag_140:\n        /* \"#utility.yul\":4505:4507   */\n      0x20\n        /* \"#utility.yul\":4500:4503   */\n      dup3\n        /* \"#utility.yul\":4496:4508   */\n      add\n        /* \"#utility.yul\":4489:4508   */\n      swap1\n      pop\n        /* \"#utility.yul\":4148:4514   */\n      swap2\n      swap1\n      pop\n      jump\t// out\n        /* \"#utility.yul\":4520:4939   */\n    tag_27:\n        /* \"#utility.yul\":4686:4690   */\n      0x00\n        /* \"#utility.yul\":4724:4726   */\n      0x20\n        /* \"#utility.yul\":4713:4722   */\n      dup3\n        /* \"#utility.yul\":4709:4727   */\n      add\n        /* \"#utility.yul\":4701:4727   */\n      swap1\n      pop\n        /* \"#utility.yul\":4773:4782   */\n      dup2\n        /* \"#utility.yul\":4767:4771   */\n      dup2\n        /* \"#utility.yul\":4763:4783   */\n      sub\n        /* \"#utility.yul\":4759:4760   */\n      0x00\n        /* \"#utility.yul\":4748:4757   */\n      dup4\n        /* \"#utility.yul\":4744:4761   */\n      add\n        /* \"#utility.yul\":4737:4784   */\n      mstore\n        /* \"#utility.yul\":4801:4932   */\n      tag_142\n        /* \"#utility.yul\":4927:4931   */\n      dup2\n        /* \"#utility.yul\":4801:4932   */\n      tag_76\n      jump\t// in\n    tag_142:\n        /* \"#utility.yul\":4793:4932   */\n      swap1\n      pop\n        /* \"#utility.yul\":4520:4939   */\n      swap2\n      swap1\n      pop\n      jump\t// out\n        /* \"#utility.yul\":4945:5125   */\n    tag_77:\n        /* \"#utility.yul\":4993:5070   */\n      0x4e487b7100000000000000000000000000000000000000000000000000000000\n        /* \"#utility.yul\":4990:4991   */\n      0x00\n        /* \"#utility.yul\":4983:5071   */\n      mstore\n        /* \"#utility.yul\":5090:5094   */\n      0x11\n        /* \"#utility.yul\":5087:5088   */\n      0x04\n        /* \"#utility.yul\":5080:5095   */\n      mstore\n        /* \"#utility.yul\":5114:5118   */\n      0x24\n        /* \"#utility.yul\":5111:5112   */\n      0x00\n        /* \"#utility.yul\":5104:5119   */\n      revert\n        /* \"#utility.yul\":5131:5541   */\n    tag_29:\n        /* \"#utility.yul\":5171:5178   */\n      0x00\n        /* \"#utility.yul\":5194:5214   */\n      tag_145\n        /* \"#utility.yul\":5212:5213   */\n      dup3\n        /* \"#utility.yul\":5194:5214   */\n      tag_56\n      jump\t// in\n    tag_145:\n        /* \"#utility.yul\":5189:5214   */\n      swap2\n      pop\n        /* \"#utility.yul\":5228:5248   */\n      tag_146\n        /* \"#utility.yul\":5246:5247   */\n      dup4\n        /* \"#utility.yul\":5228:5248   */\n      tag_56\n      jump\t// in\n    tag_146:\n        /* \"#utility.yul\":5223:5248   */\n      swap3\n      pop\n        /* \"#utility.yul\":5283:5284   */\n      dup3\n        /* \"#utility.yul\":5280:5281   */\n      dup3\n        /* \"#utility.yul\":5276:5285   */\n      mul\n        /* \"#utility.yul\":5305:5335   */\n      tag_147\n        /* \"#utility.yul\":5323:5334   */\n      dup2\n        /* \"#utility.yul\":5305:5335   */\n      tag_56\n      jump\t// in\n    tag_147:\n        /* \"#utility.yul\":5294:5335   */\n      swap2\n      pop\n        /* \"#utility.yul\":5484:5485   */\n      dup3\n        /* \"#utility.yul\":5475:5482   */\n      dup3\n        /* \"#utility.yul\":5471:5486   */\n      div\n        /* \"#utility.yul\":5468:5469   */\n      dup5\n        /* \"#utility.yul\":5465:5487   */\n      eq\n        /* \"#utility.yul\":5445:5446   */\n      dup4\n        /* \"#utility.yul\":5438:5447   */\n      iszero\n        /* \"#utility.yul\":5418:5501   */\n      or\n        /* \"#utility.yul\":5395:5534   */\n      tag_148\n      jumpi\n        /* \"#utility.yul\":5514:5532   */\n      tag_149\n      tag_77\n      jump\t// in\n    tag_149:\n        /* \"#utility.yul\":5395:5534   */\n    tag_148:\n        /* \"#utility.yul\":5179:5541   */\n      pop\n        /* \"#utility.yul\":5131:5541   */\n      swap3\n      swap2\n      pop\n      pop\n      jump\t// out\n        /* \"#utility.yul\":5547:5727   */\n    tag_78:\n        /* \"#utility.yul\":5595:5672   */\n      0x4e487b7100000000000000000000000000000000000000000000000000000000\n        /* \"#utility.yul\":5592:5593   */\n      0x00\n        /* \"#utility.yul\":5585:5673   */\n      mstore\n        /* \"#utility.yul\":5692:5696   */\n      0x12\n        /* \"#utility.yul\":5689:5690   */\n      0x04\n        /* \"#utility.yul\":5682:5697   */\n      mstore\n        /* \"#utility.yul\":5716:5720   */\n      0x24\n        /* \"#utility.yul\":5713:5714   */\n      0x00\n        /* \"#utility.yul\":5706:5721   */\n      revert\n        /* \"#utility.yul\":5733:5918   */\n    tag_31:\n        /* \"#utility.yul\":5773:5774   */\n      0x00\n        /* \"#utility.yul\":5790:5810   */\n      tag_152\n        /* \"#utility.yul\":5808:5809   */\n      dup3\n        /* \"#utility.yul\":5790:5810   */\n      tag_56\n      jump\t// in\n    tag_152:\n        /* \"#utility.yul\":5785:5810   */\n      swap2\n      pop\n        /* \"#utility.yul\":5824:5844   */\n      tag_153\n        /* \"#utility.yul\":5842:5843   */\n      dup4\n        /* \"#utility.yul\":5824:5844   */\n      tag_56\n      jump\t// in\n    tag_153:\n        /* \"#utility.yul\":5819:5844   */\n      swap3\n      pop\n        /* \"#utility.yul\":5863:5864   */\n      dup3\n        /* \"#utility.yul\":5853:5888   */\n      tag_154\n      jumpi\n        /* \"#utility.yul\":5868:5886   */\n      tag_155\n      tag_78\n      jump\t// in\n    tag_155:\n        /* \"#utility.yul\":5853:5888   */\n    tag_154:\n        /* \"#utility.yul\":5910:5911   */\n      dup3\n        /* \"#utility.yul\":5907:5908   */\n      dup3\n        /* \"#utility.yul\":5903:5912   */\n      div\n        /* \"#utility.yul\":5898:5912   */\n      swap1\n      pop\n        /* \"#utility.yul\":5733:5918   */\n      swap3\n      swap2\n      pop\n      pop\n      jump\t// out\n        /* \"#utility.yul\":5924:6256   */\n    tag_33:\n        /* \"#utility.yul\":6045:6049   */\n      0x00\n        /* \"#utility.yul\":6083:6085   */\n      0x40\n        /* \"#utility.yul\":6072:6081   */\n      dup3\n        /* \"#utility.yul\":6068:6086   */\n      add\n        /* \"#utility.yul\":6060:6086   */\n      swap1\n      pop\n        /* \"#utility.yul\":6096:6167   */\n      tag_157\n        /* \"#utility.yul\":6164:6165   */\n      0x00\n        /* \"#utility.yul\":6153:6162   */\n      dup4\n        /* \"#utility.yul\":6149:6166   */\n      add\n        /* \"#utility.yul\":6140:6146   */\n      dup6\n        /* \"#utility.yul\":6096:6167   */\n      tag_72\n      jump\t// in\n    tag_157:\n        /* \"#utility.yul\":6177:6249   */\n      tag_158\n        /* \"#utility.yul\":6245:6247   */\n      0x20\n        /* \"#utility.yul\":6234:6243   */\n      dup4\n        /* \"#utility.yul\":6230:6248   */\n      add\n        /* \"#utility.yul\":6221:6227   */\n      dup5\n        /* \"#utility.yul\":6177:6249   */\n      tag_57\n      jump\t// in\n    tag_158:\n        /* \"#utility.yul\":5924:6256   */\n      swap4\n      swap3\n      pop\n      pop\n      pop\n      jump\t// out\n        /* \"#utility.yul\":6262:6352   */\n    tag_79:\n        /* \"#utility.yul\":6296:6303   */\n      0x00\n        /* \"#utility.yul\":6339:6344   */\n      dup2\n        /* \"#utility.yul\":6332:6345   */\n      iszero\n        /* \"#utility.yul\":6325:6346   */\n      iszero\n        /* \"#utility.yul\":6314:6346   */\n      swap1\n      pop\n        /* \"#utility.yul\":6262:6352   */\n      swap2\n      swap1\n      pop\n      jump\t// out\n        /* \"#utility.yul\":6358:6474   */\n    tag_80:\n        /* \"#utility.yul\":6428:6449   */\n      tag_161\n        /* \"#utility.yul\":6443:6448   */\n      dup2\n        /* \"#utility.yul\":6428:6449   */\n      tag_79\n      jump\t// in\n    tag_161:\n        /* \"#utility.yul\":6421:6426   */\n      dup2\n        /* \"#utility.yul\":6418:6450   */\n      eq\n        /* \"#utility.yul\":6408:6468   */\n      tag_162\n      jumpi\n        /* \"#utility.yul\":6464:6465   */\n      0x00\n        /* \"#utility.yul\":6461:6462   */\n      0x00\n        /* \"#utility.yul\":6454:6466   */\n      revert\n        /* \"#utility.yul\":6408:6468   */\n    tag_162:\n        /* \"#utility.yul\":6358:6474   */\n      pop\n      jump\t// out\n        /* \"#utility.yul\":6480:6617   */\n    tag_81:\n        /* \"#utility.yul\":6534:6539   */\n      0x00\n        /* \"#utility.yul\":6565:6571   */\n      dup2\n        /* \"#utility.yul\":6559:6572   */\n      mload\n        /* \"#utility.yul\":6550:6572   */\n      swap1\n      pop\n        /* \"#utility.yul\":6581:6611   */\n      tag_164\n        /* \"#utility.yul\":6605:6610   */\n      dup2\n        /* \"#utility.yul\":6581:6611   */\n      tag_80\n      jump\t// in\n    tag_164:\n        /* \"#utility.yul\":6480:6617   */\n      swap3\n      swap2\n      pop\n      pop\n      jump\t// out\n        /* \"#utility.yul\":6623:6968   */\n    tag_37:\n        /* \"#utility.yul\":6690:6696   */\n      0x00\n        /* \"#utility.yul\":6739:6741   */\n      0x20\n        /* \"#utility.yul\":6727:6736   */\n      dup3\n        /* \"#utility.yul\":6718:6725   */\n      dup5\n        /* \"#utility.yul\":6714:6737   */\n      sub\n        /* \"#utility.yul\":6710:6742   */\n      slt\n        /* \"#utility.yul\":6707:6826   */\n      iszero\n      tag_166\n      jumpi\n        /* \"#utility.yul\":6745:6824   */\n      tag_167\n      tag_59\n      jump\t// in\n    tag_167:\n        /* \"#utility.yul\":6707:6826   */\n    tag_166:\n        /* \"#utility.yul\":6865:6866   */\n      0x00\n        /* \"#utility.yul\":6890:6951   */\n      tag_168\n        /* \"#utility.yul\":6943:6950   */\n      dup5\n        /* \"#utility.yul\":6934:6940   */\n      dup3\n        /* \"#utility.yul\":6923:6932   */\n      dup6\n        /* \"#utility.yul\":6919:6941   */\n      add\n        /* \"#utility.yul\":6890:6951   */\n      tag_81\n      jump\t// in\n    tag_168:\n        /* \"#utility.yul\":6880:6951   */\n      swap2\n      pop\n        /* \"#utility.yul\":6836:6961   */\n      pop\n        /* \"#utility.yul\":6623:6968   */\n      swap3\n      swap2\n      pop\n      pop\n      jump\t// out\n        /* \"#utility.yul\":6974:7306   */\n    tag_39:\n        /* \"#utility.yul\":7095:7099   */\n      0x00\n        /* \"#utility.yul\":7133:7135   */\n      0x40\n        /* \"#utility.yul\":7122:7131   */\n      dup3\n        /* \"#utility.yul\":7118:7136   */\n      add\n        /* \"#utility.yul\":7110:7136   */\n      swap1\n      pop\n        /* \"#utility.yul\":7146:7217   */\n      tag_170\n        /* \"#utility.yul\":7214:7215   */\n      0x00\n        /* \"#utility.yul\":7203:7212   */\n      dup4\n        /* \"#utility.yul\":7199:7216   */\n      add\n        /* \"#utility.yul\":7190:7196   */\n      dup6\n        /* \"#utility.yul\":7146:7217   */\n      tag_57\n      jump\t// in\n    tag_170:\n        /* \"#utility.yul\":7227:7299   */\n      tag_171\n        /* \"#utility.yul\":7295:7297   */\n      0x20\n        /* \"#utility.yul\":7284:7293   */\n      dup4\n        /* \"#utility.yul\":7280:7298   */\n      add\n        /* \"#utility.yul\":7271:7277   */\n      dup5\n        /* \"#utility.yul\":7227:7299   */\n      tag_57\n      jump\t// in\n    tag_171:\n        /* \"#utility.yul\":6974:7306   */\n      swap4\n      swap3\n      pop\n      pop\n      pop\n      jump\t// out\n        /* \"#utility.yul\":7312:7539   */\n    tag_82:\n        /* \"#utility.yul\":7452:7486   */\n      0x4f70657261636a6120706f7a79637a6b6f62696f726379206e696520706f7769\n        /* \"#utility.yul\":7448:7449   */\n      0x00\n        /* \"#utility.yul\":7440:7446   */\n      dup3\n        /* \"#utility.yul\":7436:7450   */\n      add\n        /* \"#utility.yul\":7429:7487   */\n      mstore\n        /* \"#utility.yul\":7521:7531   */\n      0x6f646c6120736965000000000000000000000000000000000000000000000000\n        /* \"#utility.yul\":7516:7518   */\n      0x20\n        /* \"#utility.yul\":7508:7514   */\n      dup3\n        /* \"#utility.yul\":7504:7519   */\n      add\n        /* \"#utility.yul\":7497:7532   */\n      mstore\n        /* \"#utility.yul\":7312:7539   */\n      pop\n      jump\t// out\n        /* \"#utility.yul\":7545:7911   */\n    tag_83:\n        /* \"#utility.yul\":7687:7690   */\n      0x00\n        /* \"#utility.yul\":7708:7775   */\n      tag_174\n        /* \"#utility.yul\":7772:7774   */\n      0x28\n        /* \"#utility.yul\":7767:7770   */\n      dup4\n        /* \"#utility.yul\":7708:7775   */\n      tag_74\n      jump\t// in\n    tag_174:\n        /* \"#utility.yul\":7701:7775   */\n      swap2\n      pop\n        /* \"#utility.yul\":7784:7877   */\n      tag_175\n        /* \"#utility.yul\":7873:7876   */\n      dup3\n        /* \"#utility.yul\":7784:7877   */\n      tag_82\n      jump\t// in\n    tag_175:\n        /* \"#utility.yul\":7902:7904   */\n      0x40\n        /* \"#utility.yul\":7897:7900   */\n      dup3\n        /* \"#utility.yul\":7893:7905   */\n      add\n        /* \"#utility.yul\":7886:7905   */\n      swap1\n      pop\n        /* \"#utility.yul\":7545:7911   */\n      swap2\n      swap1\n      pop\n      jump\t// out\n        /* \"#utility.yul\":7917:8336   */\n    tag_45:\n        /* \"#utility.yul\":8083:8087   */\n      0x00\n        /* \"#utility.yul\":8121:8123   */\n      0x20\n        /* \"#utility.yul\":8110:8119   */\n      dup3\n        /* \"#utility.yul\":8106:8124   */\n      add\n        /* \"#utility.yul\":8098:8124   */\n      swap1\n      pop\n        /* \"#utility.yul\":8170:8179   */\n      dup2\n        /* \"#utility.yul\":8164:8168   */\n      dup2\n        /* \"#utility.yul\":8160:8180   */\n      sub\n        /* \"#utility.yul\":8156:8157   */\n      0x00\n        /* \"#utility.yul\":8145:8154   */\n      dup4\n        /* \"#utility.yul\":8141:8158   */\n      add\n        /* \"#utility.yul\":8134:8181   */\n      mstore\n        /* \"#utility.yul\":8198:8329   */\n      tag_177\n        /* \"#utility.yul\":8324:8328   */\n      dup2\n        /* \"#utility.yul\":8198:8329   */\n      tag_83\n      jump\t// in\n    tag_177:\n        /* \"#utility.yul\":8190:8329   */\n      swap1\n      pop\n        /* \"#utility.yul\":7917:8336   */\n      swap2\n      swap1\n      pop\n      jump\t// out\n        /* \"#utility.yul\":8342:8533   */\n    tag_51:\n        /* \"#utility.yul\":8382:8385   */\n      0x00\n        /* \"#utility.yul\":8401:8421   */\n      tag_179\n        /* \"#utility.yul\":8419:8420   */\n      dup3\n        /* \"#utility.yul\":8401:8421   */\n      tag_56\n      jump\t// in\n    tag_179:\n        /* \"#utility.yul\":8396:8421   */\n      swap2\n      pop\n        /* \"#utility.yul\":8435:8455   */\n      tag_180\n        /* \"#utility.yul\":8453:8454   */\n      dup4\n        /* \"#utility.yul\":8435:8455   */\n      tag_56\n      jump\t// in\n    tag_180:\n        /* \"#utility.yul\":8430:8455   */\n      swap3\n      pop\n        /* \"#utility.yul\":8478:8479   */\n      dup3\n        /* \"#utility.yul\":8475:8476   */\n      dup3\n        /* \"#utility.yul\":8471:8480   */\n      add\n        /* \"#utility.yul\":8464:8480   */\n      swap1\n      pop\n        /* \"#utility.yul\":8499:8502   */\n      dup1\n        /* \"#utility.yul\":8496:8497   */\n      dup3\n        /* \"#utility.yul\":8493:8503   */\n      gt\n        /* \"#utility.yul\":8490:8526   */\n      iszero\n      tag_181\n      jumpi\n        /* \"#utility.yul\":8506:8524   */\n      tag_182\n      tag_77\n      jump\t// in\n    tag_182:\n        /* \"#utility.yul\":8490:8526   */\n    tag_181:\n        /* \"#utility.yul\":8342:8533   */\n      swap3\n      swap2\n      pop\n      pop\n      jump\t// out\n        /* \"#utility.yul\":8539:8764   */\n    tag_84:\n        /* \"#utility.yul\":8679:8713   */\n      0x506f7a79637a6b61206e6965207a6f7374616c61206f6464616e61207a207072\n        /* \"#utility.yul\":8675:8676   */\n      0x00\n        /* \"#utility.yul\":8667:8673   */\n      dup3\n        /* \"#utility.yul\":8663:8677   */\n      add\n        /* \"#utility.yul\":8656:8714   */\n      mstore\n        /* \"#utility.yul\":8748:8756   */\n      0x6f77697a6a610000000000000000000000000000000000000000000000000000\n        /* \"#utility.yul\":8743:8745   */\n      0x20\n        /* \"#utility.yul\":8735:8741   */\n      dup3\n        /* \"#utility.yul\":8731:8746   */\n      add\n        /* \"#utility.yul\":8724:8757   */\n      mstore\n        /* \"#utility.yul\":8539:8764   */\n      pop\n      jump\t// out\n        /* \"#utility.yul\":8770:9136   */\n    tag_85:\n        /* \"#utility.yul\":8912:8915   */\n      0x00\n        /* \"#utility.yul\":8933:9000   */\n      tag_185\n        /* \"#utility.yul\":8997:8999   */\n      0x26\n        /* \"#utility.yul\":8992:8995   */\n      dup4\n        /* \"#utility.yul\":8933:9000   */\n      tag_74\n      jump\t// in\n    tag_185:\n        /* \"#utility.yul\":8926:9000   */\n      swap2\n      pop\n        /* \"#utility.yul\":9009:9102   */\n      tag_186\n        /* \"#utility.yul\":9098:9101   */\n      dup3\n        /* \"#utility.yul\":9009:9102   */\n      tag_84\n      jump\t// in\n    tag_186:\n        /* \"#utility.yul\":9127:9129   */\n      0x40\n        /* \"#utility.yul\":9122:9125   */\n      dup3\n        /* \"#utility.yul\":9118:9130   */\n      add\n        /* \"#utility.yul\":9111:9130   */\n      swap1\n      pop\n        /* \"#utility.yul\":8770:9136   */\n      swap2\n      swap1\n      pop\n      jump\t// out\n        /* \"#utility.yul\":9142:9561   */\n    tag_54:\n        /* \"#utility.yul\":9308:9312   */\n      0x00\n        /* \"#utility.yul\":9346:9348   */\n      0x20\n        /* \"#utility.yul\":9335:9344   */\n      dup3\n        /* \"#utility.yul\":9331:9349   */\n      add\n        /* \"#utility.yul\":9323:9349   */\n      swap1\n      pop\n        /* \"#utility.yul\":9395:9404   */\n      dup2\n        /* \"#utility.yul\":9389:9393   */\n      dup2\n        /* \"#utility.yul\":9385:9405   */\n      sub\n        /* \"#utility.yul\":9381:9382   */\n      0x00\n        /* \"#utility.yul\":9370:9379   */\n      dup4\n        /* \"#utility.yul\":9366:9383   */\n      add\n        /* \"#utility.yul\":9359:9406   */\n      mstore\n        /* \"#utility.yul\":9423:9554   */\n      tag_188\n        /* \"#utility.yul\":9549:9553   */\n      dup2\n        /* \"#utility.yul\":9423:9554   */\n      tag_85\n      jump\t// in\n    tag_188:\n        /* \"#utility.yul\":9415:9554   */\n      swap1\n      pop\n        /* \"#utility.yul\":9142:9561   */\n      swap2\n      swap1\n      pop\n      jump\t// out\n\n    auxdata: 0xa26469706673582212202905a47e785a2a0320837652adf3661aabc8e491c0e7156dcfc0ff884b13038764736f6c63430008220033\n}\n",
				"bytecode": {
					"linkReferences": {},
					"object": "608060405260018055348015610013575f5ffd5b50604051610aae380380610aae833981810160405281019061003591906100d8565b805f5f6101000a81548173ffffffffffffffffffffffffffffffffffffffff021916908373ffffffffffffffffffffffffffffffffffffffff16021790555050610103565b5f5ffd5b5f73ffffffffffffffffffffffffffffffffffffffff82169050919050565b5f6100a78261007e565b9050919050565b6100b78161009d565b81146100c1575f5ffd5b50565b5f815190506100d2816100ae565b92915050565b5f602082840312156100ed576100ec61007a565b5b5f6100fa848285016100c4565b91505092915050565b61099e806101105f395ff3fe608060405234801561000f575f5ffd5b506004361061003f575f3560e01c80637fd6f15c146100435780639d9e465c14610061578063fc0c546a1461007d575b5f5ffd5b61004b61009b565b604051610058919061046e565b60405180910390f35b61007b6004803603810190610076919061050f565b6100a1565b005b610085610432565b60405161009291906105a8565b60405180910390f35b60015481565b5f5f5f9054906101000a900473ffffffffffffffffffffffffffffffffffffffff1673ffffffffffffffffffffffffffffffffffffffff166370a08231306040518263ffffffff1660e01b81526004016100fb91906105d0565b602060405180830381865afa158015610116573d5f5f3e3d5ffd5b505050506040513d601f19601f8201168201806040525081019061013a91906105fd565b90508181101561017f576040517f08c379a000000000000000000000000000000000000000000000000000000000815260040161017690610682565b60405180910390fd5b5f60646001548461019091906106cd565b61019a919061073b565b90505f5f9054906101000a900473ffffffffffffffffffffffffffffffffffffffff1673ffffffffffffffffffffffffffffffffffffffff1663a9059cbb85856040518363ffffffff1660e01b81526004016101f792919061076b565b6020604051808303815f875af1158015610213573d5f5f3e3d5ffd5b505050506040513d601f19601f8201168201806040525081019061023791906107c7565b508373ffffffffffffffffffffffffffffffffffffffff16632f22e21584836040518363ffffffff1660e01b81526004016102739291906107f2565b6020604051808303815f875af115801561028f573d5f5f3e3d5ffd5b505050506040513d601f19601f820116820180604052508101906102b391906107c7565b6102f2576040517f08c379a00000000000000000000000000000000000000000000000000000000081526004016102e990610889565b60405180910390fd5b5f5f5f9054906101000a900473ffffffffffffffffffffffffffffffffffffffff1673ffffffffffffffffffffffffffffffffffffffff166370a08231306040518263ffffffff1660e01b815260040161034c91906105d0565b602060405180830381865afa158015610367573d5f5f3e3d5ffd5b505050506040513d601f19601f8201168201806040525081019061038b91906105fd565b9050818361039991906108a7565b8110156103db576040517f08c379a00000000000000000000000000000000000000000000000000000000081526004016103d29061094a565b60405180910390fd5b8473ffffffffffffffffffffffffffffffffffffffff167f1b4678be01875999e214fb4f1fb5ad36f4f9cf364f53dde4e55df77f7cc7f76285846040516104239291906107f2565b60405180910390a25050505050565b5f5f9054906101000a900473ffffffffffffffffffffffffffffffffffffffff1681565b5f819050919050565b61046881610456565b82525050565b5f6020820190506104815f83018461045f565b92915050565b5f5ffd5b5f73ffffffffffffffffffffffffffffffffffffffff82169050919050565b5f6104b48261048b565b9050919050565b6104c4816104aa565b81146104ce575f5ffd5b50565b5f813590506104df816104bb565b92915050565b6104ee81610456565b81146104f8575f5ffd5b50565b5f81359050610509816104e5565b92915050565b5f5f6040838503121561052557610524610487565b5b5f610532858286016104d1565b9250506020610543858286016104fb565b9150509250929050565b5f819050919050565b5f61057061056b6105668461048b565b61054d565b61048b565b9050919050565b5f61058182610556565b9050919050565b5f61059282610577565b9050919050565b6105a281610588565b82525050565b5f6020820190506105bb5f830184610599565b92915050565b6105ca816104aa565b82525050565b5f6020820190506105e35f8301846105c1565b92915050565b5f815190506105f7816104e5565b92915050565b5f6020828403121561061257610611610487565b5b5f61061f848285016105e9565b91505092915050565b5f82825260208201905092915050565b7f5a61206d616c6f2073726f646b6f7720772070756c69000000000000000000005f82015250565b5f61066c601683610628565b915061067782610638565b602082019050919050565b5f6020820190508181035f83015261069981610660565b9050919050565b7f4e487b71000000000000000000000000000000000000000000000000000000005f52601160045260245ffd5b5f6106d782610456565b91506106e283610456565b92508282026106f081610456565b91508282048414831517610707576107066106a0565b5b5092915050565b7f4e487b71000000000000000000000000000000000000000000000000000000005f52601260045260245ffd5b5f61074582610456565b915061075083610456565b9250826107605761075f61070e565b5b828204905092915050565b5f60408201905061077e5f8301856105c1565b61078b602083018461045f565b9392505050565b5f8115159050919050565b6107a681610792565b81146107b0575f5ffd5b50565b5f815190506107c18161079d565b92915050565b5f602082840312156107dc576107db610487565b5b5f6107e9848285016107b3565b91505092915050565b5f6040820190506108055f83018561045f565b610812602083018461045f565b9392505050565b7f4f70657261636a6120706f7a79637a6b6f62696f726379206e696520706f77695f8201527f6f646c6120736965000000000000000000000000000000000000000000000000602082015250565b5f610873602883610628565b915061087e82610819565b604082019050919050565b5f6020820190508181035f8301526108a081610867565b9050919050565b5f6108b182610456565b91506108bc83610456565b92508282019050808211156108d4576108d36106a0565b5b92915050565b7f506f7a79637a6b61206e6965207a6f7374616c61206f6464616e61207a2070725f8201527f6f77697a6a610000000000000000000000000000000000000000000000000000602082015250565b5f610934602683610628565b915061093f826108da565b604082019050919050565b5f6020820190508181035f83015261096181610928565b905091905056fea26469706673582212202905a47e785a2a0320837652adf3661aabc8e491c0e7156dcfc0ff884b13038764736f6c63430008220033",
					"opcodes": "PUSH1 0x80 PUSH1 0x40 MSTORE PUSH1 0x1 DUP1 SSTORE CALLVALUE DUP1 ISZERO PUSH2 0x13 JUMPI PUSH0 PUSH0 REVERT JUMPDEST POP PUSH1 0x40 MLOAD PUSH2 0xAAE CODESIZE SUB DUP1 PUSH2 0xAAE DUP4 CODECOPY DUP2 DUP2 ADD PUSH1 0x40 MSTORE DUP2 ADD SWAP1 PUSH2 0x35 SWAP2 SWAP1 PUSH2 0xD8 JUMP JUMPDEST DUP1 PUSH0 PUSH0 PUSH2 0x100 EXP DUP2 SLOAD DUP2 PUSH20 0xFFFFFFFFFFFFFFFFFFFFFFFFFFFFFFFFFFFFFFFF MUL NOT AND SWAP1 DUP4 PUSH20 0xFFFFFFFFFFFFFFFFFFFFFFFFFFFFFFFFFFFFFFFF AND MUL OR SWAP1 SSTORE POP POP PUSH2 0x103 JUMP JUMPDEST PUSH0 PUSH0 REVERT JUMPDEST PUSH0 PUSH20 0xFFFFFFFFFFFFFFFFFFFFFFFFFFFFFFFFFFFFFFFF DUP3 AND SWAP1 POP SWAP2 SWAP1 POP JUMP JUMPDEST PUSH0 PUSH2 0xA7 DUP3 PUSH2 0x7E JUMP JUMPDEST SWAP1 POP SWAP2 SWAP1 POP JUMP JUMPDEST PUSH2 0xB7 DUP2 PUSH2 0x9D JUMP JUMPDEST DUP2 EQ PUSH2 0xC1 JUMPI PUSH0 PUSH0 REVERT JUMPDEST POP JUMP JUMPDEST PUSH0 DUP2 MLOAD SWAP1 POP PUSH2 0xD2 DUP2 PUSH2 0xAE JUMP JUMPDEST SWAP3 SWAP2 POP POP JUMP JUMPDEST PUSH0 PUSH1 0x20 DUP3 DUP5 SUB SLT ISZERO PUSH2 0xED JUMPI PUSH2 0xEC PUSH2 0x7A JUMP JUMPDEST JUMPDEST PUSH0 PUSH2 0xFA DUP5 DUP3 DUP6 ADD PUSH2 0xC4 JUMP JUMPDEST SWAP2 POP POP SWAP3 SWAP2 POP POP JUMP JUMPDEST PUSH2 0x99E DUP1 PUSH2 0x110 PUSH0 CODECOPY PUSH0 RETURN INVALID PUSH1 0x80 PUSH1 0x40 MSTORE CALLVALUE DUP1 ISZERO PUSH2 0xF JUMPI PUSH0 PUSH0 REVERT JUMPDEST POP PUSH1 0x4 CALLDATASIZE LT PUSH2 0x3F JUMPI PUSH0 CALLDATALOAD PUSH1 0xE0 SHR DUP1 PUSH4 0x7FD6F15C EQ PUSH2 0x43 JUMPI DUP1 PUSH4 0x9D9E465C EQ PUSH2 0x61 JUMPI DUP1 PUSH4 0xFC0C546A EQ PUSH2 0x7D JUMPI JUMPDEST PUSH0 PUSH0 REVERT JUMPDEST PUSH2 0x4B PUSH2 0x9B JUMP JUMPDEST PUSH1 0x40 MLOAD PUSH2 0x58 SWAP2 SWAP1 PUSH2 0x46E JUMP JUMPDEST PUSH1 0x40 MLOAD DUP1 SWAP2 SUB SWAP1 RETURN JUMPDEST PUSH2 0x7B PUSH1 0x4 DUP1 CALLDATASIZE SUB DUP2 ADD SWAP1 PUSH2 0x76 SWAP2 SWAP1 PUSH2 0x50F JUMP JUMPDEST PUSH2 0xA1 JUMP JUMPDEST STOP JUMPDEST PUSH2 0x85 PUSH2 0x432 JUMP JUMPDEST PUSH1 0x40 MLOAD PUSH2 0x92 SWAP2 SWAP1 PUSH2 0x5A8 JUMP JUMPDEST PUSH1 0x40 MLOAD DUP1 SWAP2 SUB SWAP1 RETURN JUMPDEST PUSH1 0x1 SLOAD DUP2 JUMP JUMPDEST PUSH0 PUSH0 PUSH0 SWAP1 SLOAD SWAP1 PUSH2 0x100 EXP SWAP1 DIV PUSH20 0xFFFFFFFFFFFFFFFFFFFFFFFFFFFFFFFFFFFFFFFF AND PUSH20 0xFFFFFFFFFFFFFFFFFFFFFFFFFFFFFFFFFFFFFFFF AND PUSH4 0x70A08231 ADDRESS PUSH1 0x40 MLOAD DUP3 PUSH4 0xFFFFFFFF AND PUSH1 0xE0 SHL DUP2 MSTORE PUSH1 0x4 ADD PUSH2 0xFB SWAP2 SWAP1 PUSH2 0x5D0 JUMP JUMPDEST PUSH1 0x20 PUSH1 0x40 MLOAD DUP1 DUP4 SUB DUP2 DUP7 GAS STATICCALL ISZERO DUP1 ISZERO PUSH2 0x116 JUMPI RETURNDATASIZE PUSH0 PUSH0 RETURNDATACOPY RETURNDATASIZE PUSH0 REVERT JUMPDEST POP POP POP POP PUSH1 0x40 MLOAD RETURNDATASIZE PUSH1 0x1F NOT PUSH1 0x1F DUP3 ADD AND DUP3 ADD DUP1 PUSH1 0x40 MSTORE POP DUP2 ADD SWAP1 PUSH2 0x13A SWAP2 SWAP1 PUSH2 0x5FD JUMP JUMPDEST SWAP1 POP DUP2 DUP2 LT ISZERO PUSH2 0x17F JUMPI PUSH1 0x40 MLOAD PUSH32 0x8C379A000000000000000000000000000000000000000000000000000000000 DUP2 MSTORE PUSH1 0x4 ADD PUSH2 0x176 SWAP1 PUSH2 0x682 JUMP JUMPDEST PUSH1 0x40 MLOAD DUP1 SWAP2 SUB SWAP1 REVERT JUMPDEST PUSH0 PUSH1 0x64 PUSH1 0x1 SLOAD DUP5 PUSH2 0x190 SWAP2 SWAP1 PUSH2 0x6CD JUMP JUMPDEST PUSH2 0x19A SWAP2 SWAP1 PUSH2 0x73B JUMP JUMPDEST SWAP1 POP PUSH0 PUSH0 SWAP1 SLOAD SWAP1 PUSH2 0x100 EXP SWAP1 DIV PUSH20 0xFFFFFFFFFFFFFFFFFFFFFFFFFFFFFFFFFFFFFFFF AND PUSH20 0xFFFFFFFFFFFFFFFFFFFFFFFFFFFFFFFFFFFFFFFF AND PUSH4 0xA9059CBB DUP6 DUP6 PUSH1 0x40 MLOAD DUP4 PUSH4 0xFFFFFFFF AND PUSH1 0xE0 SHL DUP2 MSTORE PUSH1 0x4 ADD PUSH2 0x1F7 SWAP3 SWAP2 SWAP1 PUSH2 0x76B JUMP JUMPDEST PUSH1 0x20 PUSH1 0x40 MLOAD DUP1 DUP4 SUB DUP2 PUSH0 DUP8 GAS CALL ISZERO DUP1 ISZERO PUSH2 0x213 JUMPI RETURNDATASIZE PUSH0 PUSH0 RETURNDATACOPY RETURNDATASIZE PUSH0 REVERT JUMPDEST POP POP POP POP PUSH1 0x40 MLOAD RETURNDATASIZE PUSH1 0x1F NOT PUSH1 0x1F DUP3 ADD AND DUP3 ADD DUP1 PUSH1 0x40 MSTORE POP DUP2 ADD SWAP1 PUSH2 0x237 SWAP2 SWAP1 PUSH2 0x7C7 JUMP JUMPDEST POP DUP4 PUSH20 0xFFFFFFFFFFFFFFFFFFFFFFFFFFFFFFFFFFFFFFFF AND PUSH4 0x2F22E215 DUP5 DUP4 PUSH1 0x40 MLOAD DUP4 PUSH4 0xFFFFFFFF AND PUSH1 0xE0 SHL DUP2 MSTORE PUSH1 0x4 ADD PUSH2 0x273 SWAP3 SWAP2 SWAP1 PUSH2 0x7F2 JUMP JUMPDEST PUSH1 0x20 PUSH1 0x40 MLOAD DUP1 DUP4 SUB DUP2 PUSH0 DUP8 GAS CALL ISZERO DUP1 ISZERO PUSH2 0x28F JUMPI RETURNDATASIZE PUSH0 PUSH0 RETURNDATACOPY RETURNDATASIZE PUSH0 REVERT JUMPDEST POP POP POP POP PUSH1 0x40 MLOAD RETURNDATASIZE PUSH1 0x1F NOT PUSH1 0x1F DUP3 ADD AND DUP3 ADD DUP1 PUSH1 0x40 MSTORE POP DUP2 ADD SWAP1 PUSH2 0x2B3 SWAP2 SWAP1 PUSH2 0x7C7 JUMP JUMPDEST PUSH2 0x2F2 JUMPI PUSH1 0x40 MLOAD PUSH32 0x8C379A000000000000000000000000000000000000000000000000000000000 DUP2 MSTORE PUSH1 0x4 ADD PUSH2 0x2E9 SWAP1 PUSH2 0x889 JUMP JUMPDEST PUSH1 0x40 MLOAD DUP1 SWAP2 SUB SWAP1 REVERT JUMPDEST PUSH0 PUSH0 PUSH0 SWAP1 SLOAD SWAP1 PUSH2 0x100 EXP SWAP1 DIV PUSH20 0xFFFFFFFFFFFFFFFFFFFFFFFFFFFFFFFFFFFFFFFF AND PUSH20 0xFFFFFFFFFFFFFFFFFFFFFFFFFFFFFFFFFFFFFFFF AND PUSH4 0x70A08231 ADDRESS PUSH1 0x40 MLOAD DUP3 PUSH4 0xFFFFFFFF AND PUSH1 0xE0 SHL DUP2 MSTORE PUSH1 0x4 ADD PUSH2 0x34C SWAP2 SWAP1 PUSH2 0x5D0 JUMP JUMPDEST PUSH1 0x20 PUSH1 0x40 MLOAD DUP1 DUP4 SUB DUP2 DUP7 GAS STATICCALL ISZERO DUP1 ISZERO PUSH2 0x367 JUMPI RETURNDATASIZE PUSH0 PUSH0 RETURNDATACOPY RETURNDATASIZE PUSH0 REVERT JUMPDEST POP POP POP POP PUSH1 0x40 MLOAD RETURNDATASIZE PUSH1 0x1F NOT PUSH1 0x1F DUP3 ADD AND DUP3 ADD DUP1 PUSH1 0x40 MSTORE POP DUP2 ADD SWAP1 PUSH2 0x38B SWAP2 SWAP1 PUSH2 0x5FD JUMP JUMPDEST SWAP1 POP DUP2 DUP4 PUSH2 0x399 SWAP2 SWAP1 PUSH2 0x8A7 JUMP JUMPDEST DUP2 LT ISZERO PUSH2 0x3DB JUMPI PUSH1 0x40 MLOAD PUSH32 0x8C379A000000000000000000000000000000000000000000000000000000000 DUP2 MSTORE PUSH1 0x4 ADD PUSH2 0x3D2 SWAP1 PUSH2 0x94A JUMP JUMPDEST PUSH1 0x40 MLOAD DUP1 SWAP2 SUB SWAP1 REVERT JUMPDEST DUP5 PUSH20 0xFFFFFFFFFFFFFFFFFFFFFFFFFFFFFFFFFFFFFFFF AND PUSH32 0x1B4678BE01875999E214FB4F1FB5AD36F4F9CF364F53DDE4E55DF77F7CC7F762 DUP6 DUP5 PUSH1 0x40 MLOAD PUSH2 0x423 SWAP3 SWAP2 SWAP1 PUSH2 0x7F2 JUMP JUMPDEST PUSH1 0x40 MLOAD DUP1 SWAP2 SUB SWAP1 LOG2 POP POP POP POP POP JUMP JUMPDEST PUSH0 PUSH0 SWAP1 SLOAD SWAP1 PUSH2 0x100 EXP SWAP1 DIV PUSH20 0xFFFFFFFFFFFFFFFFFFFFFFFFFFFFFFFFFFFFFFFF AND DUP2 JUMP JUMPDEST PUSH0 DUP2 SWAP1 POP SWAP2 SWAP1 POP JUMP JUMPDEST PUSH2 0x468 DUP2 PUSH2 0x456 JUMP JUMPDEST DUP3 MSTORE POP POP JUMP JUMPDEST PUSH0 PUSH1 0x20 DUP3 ADD SWAP1 POP PUSH2 0x481 PUSH0 DUP4 ADD DUP5 PUSH2 0x45F JUMP JUMPDEST SWAP3 SWAP2 POP POP JUMP JUMPDEST PUSH0 PUSH0 REVERT JUMPDEST PUSH0 PUSH20 0xFFFFFFFFFFFFFFFFFFFFFFFFFFFFFFFFFFFFFFFF DUP3 AND SWAP1 POP SWAP2 SWAP1 POP JUMP JUMPDEST PUSH0 PUSH2 0x4B4 DUP3 PUSH2 0x48B JUMP JUMPDEST SWAP1 POP SWAP2 SWAP1 POP JUMP JUMPDEST PUSH2 0x4C4 DUP2 PUSH2 0x4AA JUMP JUMPDEST DUP2 EQ PUSH2 0x4CE JUMPI PUSH0 PUSH0 REVERT JUMPDEST POP JUMP JUMPDEST PUSH0 DUP2 CALLDATALOAD SWAP1 POP PUSH2 0x4DF DUP2 PUSH2 0x4BB JUMP JUMPDEST SWAP3 SWAP2 POP POP JUMP JUMPDEST PUSH2 0x4EE DUP2 PUSH2 0x456 JUMP JUMPDEST DUP2 EQ PUSH2 0x4F8 JUMPI PUSH0 PUSH0 REVERT JUMPDEST POP JUMP JUMPDEST PUSH0 DUP2 CALLDATALOAD SWAP1 POP PUSH2 0x509 DUP2 PUSH2 0x4E5 JUMP JUMPDEST SWAP3 SWAP2 POP POP JUMP JUMPDEST PUSH0 PUSH0 PUSH1 0x40 DUP4 DUP6 SUB SLT ISZERO PUSH2 0x525 JUMPI PUSH2 0x524 PUSH2 0x487 JUMP JUMPDEST JUMPDEST PUSH0 PUSH2 0x532 DUP6 DUP3 DUP7 ADD PUSH2 0x4D1 JUMP JUMPDEST SWAP3 POP POP PUSH1 0x20 PUSH2 0x543 DUP6 DUP3 DUP7 ADD PUSH2 0x4FB JUMP JUMPDEST SWAP2 POP POP SWAP3 POP SWAP3 SWAP1 POP JUMP JUMPDEST PUSH0 DUP2 SWAP1 POP SWAP2 SWAP1 POP JUMP JUMPDEST PUSH0 PUSH2 0x570 PUSH2 0x56B PUSH2 0x566 DUP5 PUSH2 0x48B JUMP JUMPDEST PUSH2 0x54D JUMP JUMPDEST PUSH2 0x48B JUMP JUMPDEST SWAP1 POP SWAP2 SWAP1 POP JUMP JUMPDEST PUSH0 PUSH2 0x581 DUP3 PUSH2 0x556 JUMP JUMPDEST SWAP1 POP SWAP2 SWAP1 POP JUMP JUMPDEST PUSH0 PUSH2 0x592 DUP3 PUSH2 0x577 JUMP JUMPDEST SWAP1 POP SWAP2 SWAP1 POP JUMP JUMPDEST PUSH2 0x5A2 DUP2 PUSH2 0x588 JUMP JUMPDEST DUP3 MSTORE POP POP JUMP JUMPDEST PUSH0 PUSH1 0x20 DUP3 ADD SWAP1 POP PUSH2 0x5BB PUSH0 DUP4 ADD DUP5 PUSH2 0x599 JUMP JUMPDEST SWAP3 SWAP2 POP POP JUMP JUMPDEST PUSH2 0x5CA DUP2 PUSH2 0x4AA JUMP JUMPDEST DUP3 MSTORE POP POP JUMP JUMPDEST PUSH0 PUSH1 0x20 DUP3 ADD SWAP1 POP PUSH2 0x5E3 PUSH0 DUP4 ADD DUP5 PUSH2 0x5C1 JUMP JUMPDEST SWAP3 SWAP2 POP POP JUMP JUMPDEST PUSH0 DUP2 MLOAD SWAP1 POP PUSH2 0x5F7 DUP2 PUSH2 0x4E5 JUMP JUMPDEST SWAP3 SWAP2 POP POP JUMP JUMPDEST PUSH0 PUSH1 0x20 DUP3 DUP5 SUB SLT ISZERO PUSH2 0x612 JUMPI PUSH2 0x611 PUSH2 0x487 JUMP JUMPDEST JUMPDEST PUSH0 PUSH2 0x61F DUP5 DUP3 DUP6 ADD PUSH2 0x5E9 JUMP JUMPDEST SWAP2 POP POP SWAP3 SWAP2 POP POP JUMP JUMPDEST PUSH0 DUP3 DUP3 MSTORE PUSH1 0x20 DUP3 ADD SWAP1 POP SWAP3 SWAP2 POP POP JUMP JUMPDEST PUSH32 0x5A61206D616C6F2073726F646B6F7720772070756C6900000000000000000000 PUSH0 DUP3 ADD MSTORE POP JUMP JUMPDEST PUSH0 PUSH2 0x66C PUSH1 0x16 DUP4 PUSH2 0x628 JUMP JUMPDEST SWAP2 POP PUSH2 0x677 DUP3 PUSH2 0x638 JUMP JUMPDEST PUSH1 0x20 DUP3 ADD SWAP1 POP SWAP2 SWAP1 POP JUMP JUMPDEST PUSH0 PUSH1 0x20 DUP3 ADD SWAP1 POP DUP2 DUP2 SUB PUSH0 DUP4 ADD MSTORE PUSH2 0x699 DUP2 PUSH2 0x660 JUMP JUMPDEST SWAP1 POP SWAP2 SWAP1 POP JUMP JUMPDEST PUSH32 0x4E487B7100000000000000000000000000000000000000000000000000000000 PUSH0 MSTORE PUSH1 0x11 PUSH1 0x4 MSTORE PUSH1 0x24 PUSH0 REVERT JUMPDEST PUSH0 PUSH2 0x6D7 DUP3 PUSH2 0x456 JUMP JUMPDEST SWAP2 POP PUSH2 0x6E2 DUP4 PUSH2 0x456 JUMP JUMPDEST SWAP3 POP DUP3 DUP3 MUL PUSH2 0x6F0 DUP2 PUSH2 0x456 JUMP JUMPDEST SWAP2 POP DUP3 DUP3 DIV DUP5 EQ DUP4 ISZERO OR PUSH2 0x707 JUMPI PUSH2 0x706 PUSH2 0x6A0 JUMP JUMPDEST JUMPDEST POP SWAP3 SWAP2 POP POP JUMP JUMPDEST PUSH32 0x4E487B7100000000000000000000000000000000000000000000000000000000 PUSH0 MSTORE PUSH1 0x12 PUSH1 0x4 MSTORE PUSH1 0x24 PUSH0 REVERT JUMPDEST PUSH0 PUSH2 0x745 DUP3 PUSH2 0x456 JUMP JUMPDEST SWAP2 POP PUSH2 0x750 DUP4 PUSH2 0x456 JUMP JUMPDEST SWAP3 POP DUP3 PUSH2 0x760 JUMPI PUSH2 0x75F PUSH2 0x70E JUMP JUMPDEST JUMPDEST DUP3 DUP3 DIV SWAP1 POP SWAP3 SWAP2 POP POP JUMP JUMPDEST PUSH0 PUSH1 0x40 DUP3 ADD SWAP1 POP PUSH2 0x77E PUSH0 DUP4 ADD DUP6 PUSH2 0x5C1 JUMP JUMPDEST PUSH2 0x78B PUSH1 0x20 DUP4 ADD DUP5 PUSH2 0x45F JUMP JUMPDEST SWAP4 SWAP3 POP POP POP JUMP JUMPDEST PUSH0 DUP2 ISZERO ISZERO SWAP1 POP SWAP2 SWAP1 POP JUMP JUMPDEST PUSH2 0x7A6 DUP2 PUSH2 0x792 JUMP JUMPDEST DUP2 EQ PUSH2 0x7B0 JUMPI PUSH0 PUSH0 REVERT JUMPDEST POP JUMP JUMPDEST PUSH0 DUP2 MLOAD SWAP1 POP PUSH2 0x7C1 DUP2 PUSH2 0x79D JUMP JUMPDEST SWAP3 SWAP2 POP POP JUMP JUMPDEST PUSH0 PUSH1 0x20 DUP3 DUP5 SUB SLT ISZERO PUSH2 0x7DC JUMPI PUSH2 0x7DB PUSH2 0x487 JUMP JUMPDEST JUMPDEST PUSH0 PUSH2 0x7E9 DUP5 DUP3 DUP6 ADD PUSH2 0x7B3 JUMP JUMPDEST SWAP2 POP POP SWAP3 SWAP2 POP POP JUMP JUMPDEST PUSH0 PUSH1 0x40 DUP3 ADD SWAP1 POP PUSH2 0x805 PUSH0 DUP4 ADD DUP6 PUSH2 0x45F JUMP JUMPDEST PUSH2 0x812 PUSH1 0x20 DUP4 ADD DUP5 PUSH2 0x45F JUMP JUMPDEST SWAP4 SWAP3 POP POP POP JUMP JUMPDEST PUSH32 0x4F70657261636A6120706F7A79637A6B6F62696F726379206E696520706F7769 PUSH0 DUP3 ADD MSTORE PUSH32 0x6F646C6120736965000000000000000000000000000000000000000000000000 PUSH1 0x20 DUP3 ADD MSTORE POP JUMP JUMPDEST PUSH0 PUSH2 0x873 PUSH1 0x28 DUP4 PUSH2 0x628 JUMP JUMPDEST SWAP2 POP PUSH2 0x87E DUP3 PUSH2 0x819 JUMP JUMPDEST PUSH1 0x40 DUP3 ADD SWAP1 POP SWAP2 SWAP1 POP JUMP JUMPDEST PUSH0 PUSH1 0x20 DUP3 ADD SWAP1 POP DUP2 DUP2 SUB PUSH0 DUP4 ADD MSTORE PUSH2 0x8A0 DUP2 PUSH2 0x867 JUMP JUMPDEST SWAP1 POP SWAP2 SWAP1 POP JUMP JUMPDEST PUSH0 PUSH2 0x8B1 DUP3 PUSH2 0x456 JUMP JUMPDEST SWAP2 POP PUSH2 0x8BC DUP4 PUSH2 0x456 JUMP JUMPDEST SWAP3 POP DUP3 DUP3 ADD SWAP1 POP DUP1 DUP3 GT ISZERO PUSH2 0x8D4 JUMPI PUSH2 0x8D3 PUSH2 0x6A0 JUMP JUMPDEST JUMPDEST SWAP3 SWAP2 POP POP JUMP JUMPDEST PUSH32 0x506F7A79637A6B61206E6965207A6F7374616C61206F6464616E61207A207072 PUSH0 DUP3 ADD MSTORE PUSH32 0x6F77697A6A610000000000000000000000000000000000000000000000000000 PUSH1 0x20 DUP3 ADD MSTORE POP JUMP JUMPDEST PUSH0 PUSH2 0x934 PUSH1 0x26 DUP4 PUSH2 0x628 JUMP JUMPDEST SWAP2 POP PUSH2 0x93F DUP3 PUSH2 0x8DA JUMP JUMPDEST PUSH1 0x40 DUP3 ADD SWAP1 POP SWAP2 SWAP1 POP JUMP JUMPDEST PUSH0 PUSH1 0x20 DUP3 ADD SWAP1 POP DUP2 DUP2 SUB PUSH0 DUP4 ADD MSTORE PUSH2 0x961 DUP2 PUSH2 0x928 JUMP JUMPDEST SWAP1 POP SWAP2 SWAP1 POP JUMP INVALID LOG2 PUSH5 0x6970667358 0x22 SLT KECCAK256 0x29 SDIV LOG4 PUSH31 0x785A2A0320837652ADF3661AABC8E491C0E7156DCFC0FF884B13038764736F PUSH13 0x63430008220033000000000000 "
				},
				"gasEstimates": {
					"creation": {
						"codeDepositCost": "492400",
						"executionCost": "infinite",
						"totalCost": "infinite"
					},
					"external": {
						"feePercent()": "2403",
						"flashLoan(address,uint256)": "infinite",
						"token()": "infinite"
					}
				},
				"methodIdentifiers": {
					"feePercent()": "7fd6f15c",
					"flashLoan(address,uint256)": "9d9e465c",
					"token()": "fc0c546a"
				}
			},
			"storageLayout": {
				"storage": [
					{
						"astId": 93,
						"contract": "contracts/flashloan/FlashLender.sol:FlashLender",
						"label": "token",
						"offset": 0,
						"slot": "0",
						"type": "t_contract(IERC20)77"
					},
					{
						"astId": 96,
						"contract": "contracts/flashloan/FlashLender.sol:FlashLender",
						"label": "feePercent",
						"offset": 0,
						"slot": "1",
						"type": "t_uint256"
					}
				],
				"types": {
					"t_contract(IERC20)77": {
						"encoding": "inplace",
						"label": "contract IERC20",
						"numberOfBytes": "20"
					},
					"t_uint256": {
						"encoding": "inplace",
						"label": "uint256",
						"numberOfBytes": "32"
					}
				}
			},
			"userdoc": {
				"kind": "user",
				"methods": {},
				"version": 1
			}
		}
	}
}