{
	"contracts/Staking/EthStakingPool.sol": {
		"EthStakingPool": {
			"abi": [
				{
					"inputs": [
						{
							"internalType": "address",
							"name": "_rewardToken",
							"type": "address"
						}
					],
					"stateMutability": "nonpayable",
					"type": "constructor"
				},
				{
					"inputs": [],
					"name": "ReentrancyGuardReentrantCall",
					"type": "error"
				},
				{
					"anonymous": false,
					"inputs": [
						{
							"indexed": true,
							"internalType": "address",
							"name": "user",
							"type": "address"
						},
						{
							"indexed": false,
							"internalType": "uint256",
							"name": "reward",
							"type": "uint256"
						}
					],
					"name": "RewardPaid",
					"type": "event"
				},
				{
					"anonymous": false,
					"inputs": [
						{
							"indexed": true,
							"internalType": "address",
							"name": "user",
							"type": "address"
						},
						{
							"indexed": false,
							"internalType": "uint256",
							"name": "amount",
							"type": "uint256"
						}
					],
					"name": "Staked",
					"type": "event"
				},
				{
					"anonymous": false,
					"inputs": [
						{
							"indexed": true,
							"internalType": "address",
							"name": "user",
							"type": "address"
						},
						{
							"indexed": false,
							"internalType": "uint256",
							"name": "amount",
							"type": "uint256"
						}
					],
					"name": "Withdrawn",
					"type": "event"
				},
				{
					"inputs": [],
					"name": "claimReward",
					"outputs": [],
					"stateMutability": "nonpayable",
					"type": "function"
				},
				{
					"inputs": [
						{
							"internalType": "address",
							"name": "account",
							"type": "address"
						}
					],
					"name": "earned",
					"outputs": [
						{
							"internalType": "uint256",
							"name": "",
							"type": "uint256"
						}
					],
					"stateMutability": "view",
					"type": "function"
				},
				{
					"inputs": [
						{
							"internalType": "address",
							"name": "",
							"type": "address"
						}
					],
					"name": "lastUpdateTime",
					"outputs": [
						{
							"internalType": "uint256",
							"name": "",
							"type": "uint256"
						}
					],
					"stateMutability": "view",
					"type": "function"
				},
				{
					"inputs": [],
					"name": "rewardRate",
					"outputs": [
						{
							"internalType": "uint256",
							"name": "",
							"type": "uint256"
						}
					],
					"stateMutability": "view",
					"type": "function"
				},
				{
					"inputs": [],
					"name": "rewardToken",
					"outputs": [
						{
							"internalType": "contract IERC20",
							"name": "",
							"type": "address"
						}
					],
					"stateMutability": "view",
					"type": "function"
				},
				{
					"inputs": [
						{
							"internalType": "address",
							"name": "",
							"type": "address"
						}
					],
					"name": "rewards",
					"outputs": [
						{
							"internalType": "uint256",
							"name": "",
							"type": "uint256"
						}
					],
					"stateMutability": "view",
					"type": "function"
				},
				{
					"inputs": [],
					"name": "stake",
					"outputs": [],
					"stateMutability": "payable",
					"type": "function"
				},
				{
					"inputs": [
						{
							"internalType": "address",
							"name": "",
							"type": "address"
						}
					],
					"name": "stakingBalance",
					"outputs": [
						{
							"internalType": "uint256",
							"name": "",
							"type": "uint256"
						}
					],
					"stateMutability": "view",
					"type": "function"
				},
				{
					"inputs": [],
					"name": "totalStaked",
					"outputs": [
						{
							"internalType": "uint256",
							"name": "",
							"type": "uint256"
						}
					],
					"stateMutability": "view",
					"type": "function"
				},
				{
					"inputs": [
						{
							"internalType": "uint256",
							"name": "amount",
							"type": "uint256"
						}
					],
					"name": "withdraw",
					"outputs": [],
					"stateMutability": "nonpayable",
					"type": "function"
				}
			],
			"devdoc": {
				"errors": {
					"ReentrancyGuardReentrantCall()": [
						{
							"details": "Unauthorized reentrant call."
						}
					]
				},
				"kind": "dev",
				"methods": {},
				"version": 1
			},
			"evm": {
				"assembly": "    /* \"contracts/Staking/EthStakingPool.sol\":182:3331  contract EthStakingPool is ReentrancyGuard {... */\n  mstore(0x40, 0x80)\n    /* \"contracts/Staking/EthStakingPool.sol\":421:425  1e13 */\n  0x09184e72a000\n    /* \"contracts/Staking/EthStakingPool.sol\":393:425  uint256 public rewardRate = 1e13 */\n  0x01\n  sstore\n    /* \"contracts/Staking/EthStakingPool.sol\":998:1085  constructor(address _rewardToken) {... */\n  callvalue\n  dup1\n  iszero\n  tag_1\n  jumpi\n  revert(0x00, 0x00)\ntag_1:\n  pop\n  mload(0x40)\n  sub(codesize, bytecodeSize)\n  dup1\n  bytecodeSize\n  dup4\n  codecopy\n  dup2\n  dup2\n  add\n  0x40\n  mstore\n  dup2\n  add\n  swap1\n  tag_2\n  swap2\n  swap1\n  tag_3\n  jump\t// in\ntag_2:\n    /* \"@openzeppelin/contracts/utils/ReentrancyGuard.sol\":2365:2366  1 */\n  0x01\n    /* \"@openzeppelin/contracts/utils/ReentrancyGuard.sol\":2539:2585  _reentrancyGuardStorageSlot().getUint256Slot() */\n  tag_7\n    /* \"@openzeppelin/contracts/utils/ReentrancyGuard.sol\":2539:2568  _reentrancyGuardStorageSlot() */\n  tag_8\n    /* \"@openzeppelin/contracts/utils/ReentrancyGuard.sol\":2539:2566  _reentrancyGuardStorageSlot */\n  shl(0x20, tag_9)\n    /* \"@openzeppelin/contracts/utils/ReentrancyGuard.sol\":2539:2568  _reentrancyGuardStorageSlot() */\n  0x20\n  shr\n  jump\t// in\ntag_8:\n    /* \"@openzeppelin/contracts/utils/ReentrancyGuard.sol\":2539:2583  _reentrancyGuardStorageSlot().getUint256Slot */\n  shl(0x20, tag_10)\n    /* \"@openzeppelin/contracts/utils/ReentrancyGuard.sol\":2539:2585  _reentrancyGuardStorageSlot().getUint256Slot() */\n  0x20\n  shr\n  jump\t// in\ntag_7:\n    /* \"@openzeppelin/contracts/utils/ReentrancyGuard.sol\":2539:2591  _reentrancyGuardStorageSlot().getUint256Slot().value */\n  0x00\n  add\n    /* \"@openzeppelin/contracts/utils/ReentrancyGuard.sol\":2539:2605  _reentrancyGuardStorageSlot().getUint256Slot().value = NOT_ENTERED */\n  dup2\n  swap1\n  sstore\n  pop\n    /* \"contracts/Staking/EthStakingPool.sol\":1064:1076  _rewardToken */\n  dup1\n    /* \"contracts/Staking/EthStakingPool.sol\":1043:1054  rewardToken */\n  0x00\n  0x00\n    /* \"contracts/Staking/EthStakingPool.sol\":1043:1077  rewardToken = IERC20(_rewardToken) */\n  0x0100\n  exp\n  dup2\n  sload\n  dup2\n  0xffffffffffffffffffffffffffffffffffffffff\n  mul\n  not\n  and\n  swap1\n  dup4\n  0xffffffffffffffffffffffffffffffffffffffff\n  and\n  mul\n  or\n  swap1\n  sstore\n  pop\n    /* \"contracts/Staking/EthStakingPool.sol\":998:1085  constructor(address _rewardToken) {... */\n  pop\n    /* \"contracts/Staking/EthStakingPool.sol\":182:3331  contract EthStakingPool is ReentrancyGuard {... */\n  jump(tag_12)\n    /* \"@openzeppelin/contracts/utils/ReentrancyGuard.sol\":4636:4763  function _reentrancyGuardStorageSlot() internal pure virtual returns (bytes32) {... */\ntag_9:\n    /* \"@openzeppelin/contracts/utils/ReentrancyGuard.sol\":4706:4713  bytes32 */\n  0x00\n    /* \"@openzeppelin/contracts/utils/ReentrancyGuard.sol\":1505:1571  0x9b779b17422d0df92223018b32b4d1fa46e071723d6817e2486d003becc55f00 */\n  0x9b779b17422d0df92223018b32b4d1fa46e071723d6817e2486d003becc55f00\n    /* \"@openzeppelin/contracts/utils/ReentrancyGuard.sol\":4732:4756  REENTRANCY_GUARD_STORAGE */\n  0x00\n  shl\n    /* \"@openzeppelin/contracts/utils/ReentrancyGuard.sol\":4725:4756  return REENTRANCY_GUARD_STORAGE */\n  swap1\n  pop\n    /* \"@openzeppelin/contracts/utils/ReentrancyGuard.sol\":4636:4763  function _reentrancyGuardStorageSlot() internal pure virtual returns (bytes32) {... */\n  swap1\n  jump\t// out\n    /* \"@openzeppelin/contracts/utils/StorageSlot.sol\":2679:2842  function getUint256Slot(bytes32 slot) internal pure returns (Uint256Slot storage r) {... */\ntag_10:\n    /* \"@openzeppelin/contracts/utils/StorageSlot.sol\":2740:2761  Uint256Slot storage r */\n  0x00\n    /* \"@openzeppelin/contracts/utils/StorageSlot.sol\":2822:2826  slot */\n  dup2\n    /* \"@openzeppelin/contracts/utils/StorageSlot.sol\":2812:2826  r.slot := slot */\n  swap1\n  pop\n    /* \"@openzeppelin/contracts/utils/StorageSlot.sol\":2679:2842  function getUint256Slot(bytes32 slot) internal pure returns (Uint256Slot storage r) {... */\n  swap2\n  swap1\n  pop\n  jump\t// out\n    /* \"#utility.yul\":88:205   */\ntag_16:\n    /* \"#utility.yul\":197:198   */\n  0x00\n    /* \"#utility.yul\":194:195   */\n  0x00\n    /* \"#utility.yul\":187:199   */\n  revert\n    /* \"#utility.yul\":334:460   */\ntag_18:\n    /* \"#utility.yul\":371:378   */\n  0x00\n    /* \"#utility.yul\":411:453   */\n  0xffffffffffffffffffffffffffffffffffffffff\n    /* \"#utility.yul\":404:409   */\n  dup3\n    /* \"#utility.yul\":400:454   */\n  and\n    /* \"#utility.yul\":389:454   */\n  swap1\n  pop\n    /* \"#utility.yul\":334:460   */\n  swap2\n  swap1\n  pop\n  jump\t// out\n    /* \"#utility.yul\":466:562   */\ntag_19:\n    /* \"#utility.yul\":503:510   */\n  0x00\n    /* \"#utility.yul\":532:556   */\n  tag_28\n    /* \"#utility.yul\":550:555   */\n  dup3\n    /* \"#utility.yul\":532:556   */\n  tag_18\n  jump\t// in\ntag_28:\n    /* \"#utility.yul\":521:556   */\n  swap1\n  pop\n    /* \"#utility.yul\":466:562   */\n  swap2\n  swap1\n  pop\n  jump\t// out\n    /* \"#utility.yul\":568:690   */\ntag_20:\n    /* \"#utility.yul\":641:665   */\n  tag_30\n    /* \"#utility.yul\":659:664   */\n  dup2\n    /* \"#utility.yul\":641:665   */\n  tag_19\n  jump\t// in\ntag_30:\n    /* \"#utility.yul\":634:639   */\n  dup2\n    /* \"#utility.yul\":631:666   */\n  eq\n    /* \"#utility.yul\":621:684   */\n  tag_31\n  jumpi\n    /* \"#utility.yul\":680:681   */\n  0x00\n    /* \"#utility.yul\":677:678   */\n  0x00\n    /* \"#utility.yul\":670:682   */\n  revert\n    /* \"#utility.yul\":621:684   */\ntag_31:\n    /* \"#utility.yul\":568:690   */\n  pop\n  jump\t// out\n    /* \"#utility.yul\":696:839   */\ntag_21:\n    /* \"#utility.yul\":753:758   */\n  0x00\n    /* \"#utility.yul\":784:790   */\n  dup2\n    /* \"#utility.yul\":778:791   */\n  mload\n    /* \"#utility.yul\":769:791   */\n  swap1\n  pop\n    /* \"#utility.yul\":800:833   */\n  tag_33\n    /* \"#utility.yul\":827:832   */\n  dup2\n    /* \"#utility.yul\":800:833   */\n  tag_20\n  jump\t// in\ntag_33:\n    /* \"#utility.yul\":696:839   */\n  swap3\n  swap2\n  pop\n  pop\n  jump\t// out\n    /* \"#utility.yul\":845:1196   */\ntag_3:\n    /* \"#utility.yul\":915:921   */\n  0x00\n    /* \"#utility.yul\":964:966   */\n  0x20\n    /* \"#utility.yul\":952:961   */\n  dup3\n    /* \"#utility.yul\":943:950   */\n  dup5\n    /* \"#utility.yul\":939:962   */\n  sub\n    /* \"#utility.yul\":935:967   */\n  slt\n    /* \"#utility.yul\":932:1051   */\n  iszero\n  tag_35\n  jumpi\n    /* \"#utility.yul\":970:1049   */\n  tag_36\n  tag_16\n  jump\t// in\ntag_36:\n    /* \"#utility.yul\":932:1051   */\ntag_35:\n    /* \"#utility.yul\":1090:1091   */\n  0x00\n    /* \"#utility.yul\":1115:1179   */\n  tag_37\n    /* \"#utility.yul\":1171:1178   */\n  dup5\n    /* \"#utility.yul\":1162:1168   */\n  dup3\n    /* \"#utility.yul\":1151:1160   */\n  dup6\n    /* \"#utility.yul\":1147:1169   */\n  add\n    /* \"#utility.yul\":1115:1179   */\n  tag_21\n  jump\t// in\ntag_37:\n    /* \"#utility.yul\":1105:1179   */\n  swap2\n  pop\n    /* \"#utility.yul\":1061:1189   */\n  pop\n    /* \"#utility.yul\":845:1196   */\n  swap3\n  swap2\n  pop\n  pop\n  jump\t// out\n    /* \"contracts/Staking/EthStakingPool.sol\":182:3331  contract EthStakingPool is ReentrancyGuard {... */\ntag_12:\n  dataSize(sub_0)\n  dup1\n  dataOffset(sub_0)\n  0x00\n  codecopy\n  0x00\n  return\nstop\n\nsub_0: assembly {\n        /* \"contracts/Staking/EthStakingPool.sol\":182:3331  contract EthStakingPool is ReentrancyGuard {... */\n      mstore(0x40, 0x80)\n      jumpi(tag_1, lt(calldatasize, 0x04))\n      shr(0xe0, calldataload(0x00))\n      dup1\n      0x45bc78ab\n      gt\n      tag_12\n      jumpi\n      dup1\n      0x45bc78ab\n      eq\n      tag_7\n      jumpi\n      dup1\n      0x7b0a47ee\n      eq\n      tag_8\n      jumpi\n      dup1\n      0x817b1cd2\n      eq\n      tag_9\n      jumpi\n      dup1\n      0xb88a802f\n      eq\n      tag_10\n      jumpi\n      dup1\n      0xf7c618c1\n      eq\n      tag_11\n      jumpi\n      jump(tag_1)\n    tag_12:\n      dup1\n      0x8cc262\n      eq\n      tag_2\n      jumpi\n      dup1\n      0x0700037d\n      eq\n      tag_3\n      jumpi\n      dup1\n      0x2ce9aead\n      eq\n      tag_4\n      jumpi\n      dup1\n      0x2e1a7d4d\n      eq\n      tag_5\n      jumpi\n      dup1\n      0x3a4b66f1\n      eq\n      tag_6\n      jumpi\n    tag_1:\n      revert(0x00, 0x00)\n        /* \"contracts/Staking/EthStakingPool.sol\":1341:1802  function earned(address account) public view returns (uint256) {... */\n    tag_2:\n      callvalue\n      dup1\n      iszero\n      tag_13\n      jumpi\n      revert(0x00, 0x00)\n    tag_13:\n      pop\n      tag_14\n      0x04\n      dup1\n      calldatasize\n      sub\n      dup2\n      add\n      swap1\n      tag_15\n      swap2\n      swap1\n      tag_16\n      jump\t// in\n    tag_15:\n      tag_17\n      jump\t// in\n    tag_14:\n      mload(0x40)\n      tag_18\n      swap2\n      swap1\n      tag_19\n      jump\t// in\n    tag_18:\n      mload(0x40)\n      dup1\n      swap2\n      sub\n      swap1\n      return\n        /* \"contracts/Staking/EthStakingPool.sol\":629:671  mapping(address => uint256) public rewards */\n    tag_3:\n      callvalue\n      dup1\n      iszero\n      tag_20\n      jumpi\n      revert(0x00, 0x00)\n    tag_20:\n      pop\n      tag_21\n      0x04\n      dup1\n      calldatasize\n      sub\n      dup2\n      add\n      swap1\n      tag_22\n      swap2\n      swap1\n      tag_16\n      jump\t// in\n    tag_22:\n      tag_23\n      jump\t// in\n    tag_21:\n      mload(0x40)\n      tag_24\n      swap2\n      swap1\n      tag_19\n      jump\t// in\n    tag_24:\n      mload(0x40)\n      dup1\n      swap2\n      sub\n      swap1\n      return\n        /* \"contracts/Staking/EthStakingPool.sol\":525:574  mapping(address => uint256) public lastUpdateTime */\n    tag_4:\n      callvalue\n      dup1\n      iszero\n      tag_25\n      jumpi\n      revert(0x00, 0x00)\n    tag_25:\n      pop\n      tag_26\n      0x04\n      dup1\n      calldatasize\n      sub\n      dup2\n      add\n      swap1\n      tag_27\n      swap2\n      swap1\n      tag_16\n      jump\t// in\n    tag_27:\n      tag_28\n      jump\t// in\n    tag_26:\n      mload(0x40)\n      tag_29\n      swap2\n      swap1\n      tag_19\n      jump\t// in\n    tag_29:\n      mload(0x40)\n      dup1\n      swap2\n      sub\n      swap1\n      return\n        /* \"contracts/Staking/EthStakingPool.sol\":2224:2820  function withdraw(uint256 amount) external nonReentrant updateReward(msg.sender) {... */\n    tag_5:\n      callvalue\n      dup1\n      iszero\n      tag_30\n      jumpi\n      revert(0x00, 0x00)\n    tag_30:\n      pop\n      tag_31\n      0x04\n      dup1\n      calldatasize\n      sub\n      dup2\n      add\n      swap1\n      tag_32\n      swap2\n      swap1\n      tag_33\n      jump\t// in\n    tag_32:\n      tag_34\n      jump\t// in\n    tag_31:\n      stop\n        /* \"contracts/Staking/EthStakingPool.sol\":1874:2173  function stake() external payable nonReentrant updateReward(msg.sender) {... */\n    tag_6:\n      tag_35\n      tag_36\n      jump\t// in\n    tag_35:\n      stop\n        /* \"contracts/Staking/EthStakingPool.sol\":435:484  mapping(address => uint256) public stakingBalance */\n    tag_7:\n      callvalue\n      dup1\n      iszero\n      tag_37\n      jumpi\n      revert(0x00, 0x00)\n    tag_37:\n      pop\n      tag_38\n      0x04\n      dup1\n      calldatasize\n      sub\n      dup2\n      add\n      swap1\n      tag_39\n      swap2\n      swap1\n      tag_16\n      jump\t// in\n    tag_39:\n      tag_40\n      jump\t// in\n    tag_38:\n      mload(0x40)\n      tag_41\n      swap2\n      swap1\n      tag_19\n      jump\t// in\n    tag_41:\n      mload(0x40)\n      dup1\n      swap2\n      sub\n      swap1\n      return\n        /* \"contracts/Staking/EthStakingPool.sol\":393:425  uint256 public rewardRate = 1e13 */\n    tag_8:\n      callvalue\n      dup1\n      iszero\n      tag_42\n      jumpi\n      revert(0x00, 0x00)\n    tag_42:\n      pop\n      tag_43\n      tag_44\n      jump\t// in\n    tag_43:\n      mload(0x40)\n      tag_45\n      swap2\n      swap1\n      tag_19\n      jump\t// in\n    tag_45:\n      mload(0x40)\n      dup1\n      swap2\n      sub\n      swap1\n      return\n        /* \"contracts/Staking/EthStakingPool.sol\":726:752  uint256 public totalStaked */\n    tag_9:\n      callvalue\n      dup1\n      iszero\n      tag_46\n      jumpi\n      revert(0x00, 0x00)\n    tag_46:\n      pop\n      tag_47\n      tag_48\n      jump\t// in\n    tag_47:\n      mload(0x40)\n      tag_49\n      swap2\n      swap1\n      tag_19\n      jump\t// in\n    tag_49:\n      mload(0x40)\n      dup1\n      swap2\n      sub\n      swap1\n      return\n        /* \"contracts/Staking/EthStakingPool.sol\":2882:3328  function claimReward() external nonReentrant updateReward(msg.sender) {... */\n    tag_10:\n      callvalue\n      dup1\n      iszero\n      tag_50\n      jumpi\n      revert(0x00, 0x00)\n    tag_50:\n      pop\n      tag_51\n      tag_52\n      jump\t// in\n    tag_51:\n      stop\n        /* \"contracts/Staking/EthStakingPool.sol\":232:257  IERC20 public rewardToken */\n    tag_11:\n      callvalue\n      dup1\n      iszero\n      tag_53\n      jumpi\n      revert(0x00, 0x00)\n    tag_53:\n      pop\n      tag_54\n      tag_55\n      jump\t// in\n    tag_54:\n      mload(0x40)\n      tag_56\n      swap2\n      swap1\n      tag_57\n      jump\t// in\n    tag_56:\n      mload(0x40)\n      dup1\n      swap2\n      sub\n      swap1\n      return\n        /* \"contracts/Staking/EthStakingPool.sol\":1341:1802  function earned(address account) public view returns (uint256) {... */\n    tag_17:\n        /* \"contracts/Staking/EthStakingPool.sol\":1395:1402  uint256 */\n      0x00\n        /* \"contracts/Staking/EthStakingPool.sol\":1446:1447  0 */\n      0x00\n        /* \"contracts/Staking/EthStakingPool.sol\":1419:1433  stakingBalance */\n      0x02\n        /* \"contracts/Staking/EthStakingPool.sol\":1419:1442  stakingBalance[account] */\n      0x00\n        /* \"contracts/Staking/EthStakingPool.sol\":1434:1441  account */\n      dup5\n        /* \"contracts/Staking/EthStakingPool.sol\":1419:1442  stakingBalance[account] */\n      0xffffffffffffffffffffffffffffffffffffffff\n      and\n      0xffffffffffffffffffffffffffffffffffffffff\n      and\n      dup2\n      mstore\n      0x20\n      add\n      swap1\n      dup2\n      mstore\n      0x20\n      add\n      0x00\n      keccak256\n      sload\n        /* \"contracts/Staking/EthStakingPool.sol\":1419:1447  stakingBalance[account] == 0 */\n      sub\n        /* \"contracts/Staking/EthStakingPool.sol\":1415:1499  if (stakingBalance[account] == 0) {... */\n      tag_59\n      jumpi\n        /* \"contracts/Staking/EthStakingPool.sol\":1471:1478  rewards */\n      0x04\n        /* \"contracts/Staking/EthStakingPool.sol\":1471:1487  rewards[account] */\n      0x00\n        /* \"contracts/Staking/EthStakingPool.sol\":1479:1486  account */\n      dup4\n        /* \"contracts/Staking/EthStakingPool.sol\":1471:1487  rewards[account] */\n      0xffffffffffffffffffffffffffffffffffffffff\n      and\n      0xffffffffffffffffffffffffffffffffffffffff\n      and\n      dup2\n      mstore\n      0x20\n      add\n      swap1\n      dup2\n      mstore\n      0x20\n      add\n      0x00\n      keccak256\n      sload\n        /* \"contracts/Staking/EthStakingPool.sol\":1464:1487  return rewards[account] */\n      swap1\n      pop\n      jump(tag_58)\n        /* \"contracts/Staking/EthStakingPool.sol\":1415:1499  if (stakingBalance[account] == 0) {... */\n    tag_59:\n        /* \"contracts/Staking/EthStakingPool.sol\":1519:1538  uint256 timeElapsed */\n      0x00\n        /* \"contracts/Staking/EthStakingPool.sol\":1559:1573  lastUpdateTime */\n      0x03\n        /* \"contracts/Staking/EthStakingPool.sol\":1559:1582  lastUpdateTime[account] */\n      0x00\n        /* \"contracts/Staking/EthStakingPool.sol\":1574:1581  account */\n      dup5\n        /* \"contracts/Staking/EthStakingPool.sol\":1559:1582  lastUpdateTime[account] */\n      0xffffffffffffffffffffffffffffffffffffffff\n      and\n      0xffffffffffffffffffffffffffffffffffffffff\n      and\n      dup2\n      mstore\n      0x20\n      add\n      swap1\n      dup2\n      mstore\n      0x20\n      add\n      0x00\n      keccak256\n      sload\n        /* \"contracts/Staking/EthStakingPool.sol\":1541:1556  block.timestamp */\n      timestamp\n        /* \"contracts/Staking/EthStakingPool.sol\":1541:1582  block.timestamp - lastUpdateTime[account] */\n      tag_60\n      swap2\n      swap1\n      tag_61\n      jump\t// in\n    tag_60:\n        /* \"contracts/Staking/EthStakingPool.sol\":1519:1582  uint256 timeElapsed = block.timestamp - lastUpdateTime[account] */\n      swap1\n      pop\n        /* \"contracts/Staking/EthStakingPool.sol\":1661:1682  uint256 pendingReward */\n      0x00\n        /* \"contracts/Staking/EthStakingPool.sol\":1740:1744  1e18 */\n      0x0de0b6b3a7640000\n        /* \"contracts/Staking/EthStakingPool.sol\":1726:1736  rewardRate */\n      sload(0x01)\n        /* \"contracts/Staking/EthStakingPool.sol\":1712:1723  timeElapsed */\n      dup4\n        /* \"contracts/Staking/EthStakingPool.sol\":1686:1700  stakingBalance */\n      0x02\n        /* \"contracts/Staking/EthStakingPool.sol\":1686:1709  stakingBalance[account] */\n      0x00\n        /* \"contracts/Staking/EthStakingPool.sol\":1701:1708  account */\n      dup9\n        /* \"contracts/Staking/EthStakingPool.sol\":1686:1709  stakingBalance[account] */\n      0xffffffffffffffffffffffffffffffffffffffff\n      and\n      0xffffffffffffffffffffffffffffffffffffffff\n      and\n      dup2\n      mstore\n      0x20\n      add\n      swap1\n      dup2\n      mstore\n      0x20\n      add\n      0x00\n      keccak256\n      sload\n        /* \"contracts/Staking/EthStakingPool.sol\":1686:1723  stakingBalance[account] * timeElapsed */\n      tag_62\n      swap2\n      swap1\n      tag_63\n      jump\t// in\n    tag_62:\n        /* \"contracts/Staking/EthStakingPool.sol\":1686:1736  stakingBalance[account] * timeElapsed * rewardRate */\n      tag_64\n      swap2\n      swap1\n      tag_63\n      jump\t// in\n    tag_64:\n        /* \"contracts/Staking/EthStakingPool.sol\":1685:1744  (stakingBalance[account] * timeElapsed * rewardRate) / 1e18 */\n      tag_65\n      swap2\n      swap1\n      tag_66\n      jump\t// in\n    tag_65:\n        /* \"contracts/Staking/EthStakingPool.sol\":1661:1744  uint256 pendingReward = (stakingBalance[account] * timeElapsed * rewardRate) / 1e18 */\n      swap1\n      pop\n        /* \"contracts/Staking/EthStakingPool.sol\":1781:1794  pendingReward */\n      dup1\n        /* \"contracts/Staking/EthStakingPool.sol\":1762:1769  rewards */\n      0x04\n        /* \"contracts/Staking/EthStakingPool.sol\":1762:1778  rewards[account] */\n      0x00\n        /* \"contracts/Staking/EthStakingPool.sol\":1770:1777  account */\n      dup7\n        /* \"contracts/Staking/EthStakingPool.sol\":1762:1778  rewards[account] */\n      0xffffffffffffffffffffffffffffffffffffffff\n      and\n      0xffffffffffffffffffffffffffffffffffffffff\n      and\n      dup2\n      mstore\n      0x20\n      add\n      swap1\n      dup2\n      mstore\n      0x20\n      add\n      0x00\n      keccak256\n      sload\n        /* \"contracts/Staking/EthStakingPool.sol\":1762:1794  rewards[account] + pendingReward */\n      tag_67\n      swap2\n      swap1\n      tag_68\n      jump\t// in\n    tag_67:\n        /* \"contracts/Staking/EthStakingPool.sol\":1755:1794  return rewards[account] + pendingReward */\n      swap3\n      pop\n      pop\n      pop\n        /* \"contracts/Staking/EthStakingPool.sol\":1341:1802  function earned(address account) public view returns (uint256) {... */\n    tag_58:\n      swap2\n      swap1\n      pop\n      jump\t// out\n        /* \"contracts/Staking/EthStakingPool.sol\":629:671  mapping(address => uint256) public rewards */\n    tag_23:\n      mstore(0x20, 0x04)\n      dup1\n      0x00\n      mstore\n      keccak256(0x00, 0x40)\n      0x00\n      swap2\n      pop\n      swap1\n      pop\n      sload\n      dup2\n      jump\t// out\n        /* \"contracts/Staking/EthStakingPool.sol\":525:574  mapping(address => uint256) public lastUpdateTime */\n    tag_28:\n      mstore(0x20, 0x03)\n      dup1\n      0x00\n      mstore\n      keccak256(0x00, 0x40)\n      0x00\n      swap2\n      pop\n      swap1\n      pop\n      sload\n      dup2\n      jump\t// out\n        /* \"contracts/Staking/EthStakingPool.sol\":2224:2820  function withdraw(uint256 amount) external nonReentrant updateReward(msg.sender) {... */\n    tag_34:\n        /* \"@openzeppelin/contracts/utils/ReentrancyGuard.sol\":3023:3044  _nonReentrantBefore() */\n      tag_70\n        /* \"@openzeppelin/contracts/utils/ReentrancyGuard.sol\":3023:3042  _nonReentrantBefore */\n      tag_71\n        /* \"@openzeppelin/contracts/utils/ReentrancyGuard.sol\":3023:3044  _nonReentrantBefore() */\n      jump\t// in\n    tag_70:\n        /* \"contracts/Staking/EthStakingPool.sol\":2293:2303  msg.sender */\n      caller\n        /* \"contracts/Staking/EthStakingPool.sol\":1162:1177  earned(account) */\n      tag_73\n        /* \"contracts/Staking/EthStakingPool.sol\":1169:1176  account */\n      dup2\n        /* \"contracts/Staking/EthStakingPool.sol\":1162:1168  earned */\n      tag_17\n        /* \"contracts/Staking/EthStakingPool.sol\":1162:1177  earned(account) */\n      jump\t// in\n    tag_73:\n        /* \"contracts/Staking/EthStakingPool.sol\":1143:1150  rewards */\n      0x04\n        /* \"contracts/Staking/EthStakingPool.sol\":1143:1159  rewards[account] */\n      0x00\n        /* \"contracts/Staking/EthStakingPool.sol\":1151:1158  account */\n      dup4\n        /* \"contracts/Staking/EthStakingPool.sol\":1143:1159  rewards[account] */\n      0xffffffffffffffffffffffffffffffffffffffff\n      and\n      0xffffffffffffffffffffffffffffffffffffffff\n      and\n      dup2\n      mstore\n      0x20\n      add\n      swap1\n      dup2\n      mstore\n      0x20\n      add\n      0x00\n      keccak256\n        /* \"contracts/Staking/EthStakingPool.sol\":1143:1177  rewards[account] = earned(account) */\n      dup2\n      swap1\n      sstore\n      pop\n        /* \"contracts/Staking/EthStakingPool.sol\":1214:1229  block.timestamp */\n      timestamp\n        /* \"contracts/Staking/EthStakingPool.sol\":1188:1202  lastUpdateTime */\n      0x03\n        /* \"contracts/Staking/EthStakingPool.sol\":1188:1211  lastUpdateTime[account] */\n      0x00\n        /* \"contracts/Staking/EthStakingPool.sol\":1203:1210  account */\n      dup4\n        /* \"contracts/Staking/EthStakingPool.sol\":1188:1211  lastUpdateTime[account] */\n      0xffffffffffffffffffffffffffffffffffffffff\n      and\n      0xffffffffffffffffffffffffffffffffffffffff\n      and\n      dup2\n      mstore\n      0x20\n      add\n      swap1\n      dup2\n      mstore\n      0x20\n      add\n      0x00\n      keccak256\n        /* \"contracts/Staking/EthStakingPool.sol\":1188:1229  lastUpdateTime[account] = block.timestamp */\n      dup2\n      swap1\n      sstore\n      pop\n        /* \"contracts/Staking/EthStakingPool.sol\":2333:2334  0 */\n      0x00\n        /* \"contracts/Staking/EthStakingPool.sol\":2324:2330  amount */\n      dup3\n        /* \"contracts/Staking/EthStakingPool.sol\":2324:2334  amount > 0 */\n      gt\n        /* \"contracts/Staking/EthStakingPool.sol\":2316:2367  require(amount > 0, \"Kwota musi byc wieksza niz 0\") */\n      tag_75\n      jumpi\n      mload(0x40)\n      0x08c379a000000000000000000000000000000000000000000000000000000000\n      dup2\n      mstore\n      0x04\n      add\n      tag_76\n      swap1\n      tag_77\n      jump\t// in\n    tag_76:\n      mload(0x40)\n      dup1\n      swap2\n      sub\n      swap1\n      revert\n    tag_75:\n        /* \"contracts/Staking/EthStakingPool.sol\":2416:2422  amount */\n      dup2\n        /* \"contracts/Staking/EthStakingPool.sol\":2386:2400  stakingBalance */\n      0x02\n        /* \"contracts/Staking/EthStakingPool.sol\":2386:2412  stakingBalance[msg.sender] */\n      0x00\n        /* \"contracts/Staking/EthStakingPool.sol\":2401:2411  msg.sender */\n      caller\n        /* \"contracts/Staking/EthStakingPool.sol\":2386:2412  stakingBalance[msg.sender] */\n      0xffffffffffffffffffffffffffffffffffffffff\n      and\n      0xffffffffffffffffffffffffffffffffffffffff\n      and\n      dup2\n      mstore\n      0x20\n      add\n      swap1\n      dup2\n      mstore\n      0x20\n      add\n      0x00\n      keccak256\n      sload\n        /* \"contracts/Staking/EthStakingPool.sol\":2386:2422  stakingBalance[msg.sender] >= amount */\n      lt\n      iszero\n        /* \"contracts/Staking/EthStakingPool.sol\":2378:2456  require(stakingBalance[msg.sender] >= amount, \"Za malo zablokowanych srodkow\") */\n      tag_78\n      jumpi\n      mload(0x40)\n      0x08c379a000000000000000000000000000000000000000000000000000000000\n      dup2\n      mstore\n      0x04\n      add\n      tag_79\n      swap1\n      tag_80\n      jump\t// in\n    tag_79:\n      mload(0x40)\n      dup1\n      swap2\n      sub\n      swap1\n      revert\n    tag_78:\n        /* \"contracts/Staking/EthStakingPool.sol\":2499:2505  amount */\n      dup2\n        /* \"contracts/Staking/EthStakingPool.sol\":2469:2483  stakingBalance */\n      0x02\n        /* \"contracts/Staking/EthStakingPool.sol\":2469:2495  stakingBalance[msg.sender] */\n      0x00\n        /* \"contracts/Staking/EthStakingPool.sol\":2484:2494  msg.sender */\n      caller\n        /* \"contracts/Staking/EthStakingPool.sol\":2469:2495  stakingBalance[msg.sender] */\n      0xffffffffffffffffffffffffffffffffffffffff\n      and\n      0xffffffffffffffffffffffffffffffffffffffff\n      and\n      dup2\n      mstore\n      0x20\n      add\n      swap1\n      dup2\n      mstore\n      0x20\n      add\n      0x00\n      keccak256\n      0x00\n        /* \"contracts/Staking/EthStakingPool.sol\":2469:2505  stakingBalance[msg.sender] -= amount */\n      dup3\n      dup3\n      sload\n      tag_81\n      swap2\n      swap1\n      tag_61\n      jump\t// in\n    tag_81:\n      swap3\n      pop\n      pop\n      dup2\n      swap1\n      sstore\n      pop\n        /* \"contracts/Staking/EthStakingPool.sol\":2531:2537  amount */\n      dup2\n        /* \"contracts/Staking/EthStakingPool.sol\":2516:2527  totalStaked */\n      0x05\n      0x00\n        /* \"contracts/Staking/EthStakingPool.sol\":2516:2537  totalStaked -= amount */\n      dup3\n      dup3\n      sload\n      tag_82\n      swap2\n      swap1\n      tag_61\n      jump\t// in\n    tag_82:\n      swap3\n      pop\n      pop\n      dup2\n      swap1\n      sstore\n      pop\n        /* \"contracts/Staking/EthStakingPool.sol\":2645:2657  bool success */\n      0x00\n        /* \"contracts/Staking/EthStakingPool.sol\":2663:2673  msg.sender */\n      caller\n        /* \"contracts/Staking/EthStakingPool.sol\":2663:2678  msg.sender.call */\n      0xffffffffffffffffffffffffffffffffffffffff\n      and\n        /* \"contracts/Staking/EthStakingPool.sol\":2686:2692  amount */\n      dup4\n        /* \"contracts/Staking/EthStakingPool.sol\":2663:2697  msg.sender.call{value: amount}(\"\") */\n      mload(0x40)\n      tag_83\n      swap1\n      tag_84\n      jump\t// in\n    tag_83:\n      0x00\n      mload(0x40)\n      dup1\n      dup4\n      sub\n      dup2\n      dup6\n      dup8\n      gas\n      call\n      swap3\n      pop\n      pop\n      pop\n      returndatasize\n      dup1\n      0x00\n      dup2\n      eq\n      tag_87\n      jumpi\n      mload(0x40)\n      swap2\n      pop\n      and(add(returndatasize, 0x3f), not(0x1f))\n      dup3\n      add\n      0x40\n      mstore\n      returndatasize\n      dup3\n      mstore\n      returndatasize\n      0x00\n      0x20\n      dup5\n      add\n      returndatacopy\n      jump(tag_86)\n    tag_87:\n      0x60\n      swap2\n      pop\n    tag_86:\n      pop\n        /* \"contracts/Staking/EthStakingPool.sol\":2644:2697  (bool success, ) = msg.sender.call{value: amount}(\"\") */\n      pop\n      swap1\n      pop\n        /* \"contracts/Staking/EthStakingPool.sol\":2716:2723  success */\n      dup1\n        /* \"contracts/Staking/EthStakingPool.sol\":2708:2757  require(success, \"Transfer zwrotny ETH nieudany\") */\n      tag_88\n      jumpi\n      mload(0x40)\n      0x08c379a000000000000000000000000000000000000000000000000000000000\n      dup2\n      mstore\n      0x04\n      add\n      tag_89\n      swap1\n      tag_90\n      jump\t// in\n    tag_89:\n      mload(0x40)\n      dup1\n      swap2\n      sub\n      swap1\n      revert\n    tag_88:\n        /* \"contracts/Staking/EthStakingPool.sol\":2793:2803  msg.sender */\n      caller\n        /* \"contracts/Staking/EthStakingPool.sol\":2783:2812  Withdrawn(msg.sender, amount) */\n      0xffffffffffffffffffffffffffffffffffffffff\n      and\n      0x7084f5476618d8e60b11ef0d7d3f06914655adb8793e28ff7f018d4c76d505d5\n        /* \"contracts/Staking/EthStakingPool.sol\":2805:2811  amount */\n      dup5\n        /* \"contracts/Staking/EthStakingPool.sol\":2783:2812  Withdrawn(msg.sender, amount) */\n      mload(0x40)\n      tag_91\n      swap2\n      swap1\n      tag_19\n      jump\t// in\n    tag_91:\n      mload(0x40)\n      dup1\n      swap2\n      sub\n      swap1\n      log2\n        /* \"contracts/Staking/EthStakingPool.sol\":2305:2820  {... */\n      pop\n        /* \"@openzeppelin/contracts/utils/ReentrancyGuard.sol\":3054:3055  _ */\n      pop\n        /* \"@openzeppelin/contracts/utils/ReentrancyGuard.sol\":3065:3085  _nonReentrantAfter() */\n      tag_92\n        /* \"@openzeppelin/contracts/utils/ReentrancyGuard.sol\":3065:3083  _nonReentrantAfter */\n      tag_93\n        /* \"@openzeppelin/contracts/utils/ReentrancyGuard.sol\":3065:3085  _nonReentrantAfter() */\n      jump\t// in\n    tag_92:\n        /* \"contracts/Staking/EthStakingPool.sol\":2224:2820  function withdraw(uint256 amount) external nonReentrant updateReward(msg.sender) {... */\n      pop\n      jump\t// out\n        /* \"contracts/Staking/EthStakingPool.sol\":1874:2173  function stake() external payable nonReentrant updateReward(msg.sender) {... */\n    tag_36:\n        /* \"@openzeppelin/contracts/utils/ReentrancyGuard.sol\":3023:3044  _nonReentrantBefore() */\n      tag_95\n        /* \"@openzeppelin/contracts/utils/ReentrancyGuard.sol\":3023:3042  _nonReentrantBefore */\n      tag_71\n        /* \"@openzeppelin/contracts/utils/ReentrancyGuard.sol\":3023:3044  _nonReentrantBefore() */\n      jump\t// in\n    tag_95:\n        /* \"contracts/Staking/EthStakingPool.sol\":1934:1944  msg.sender */\n      caller\n        /* \"contracts/Staking/EthStakingPool.sol\":1162:1177  earned(account) */\n      tag_97\n        /* \"contracts/Staking/EthStakingPool.sol\":1169:1176  account */\n      dup2\n        /* \"contracts/Staking/EthStakingPool.sol\":1162:1168  earned */\n      tag_17\n        /* \"contracts/Staking/EthStakingPool.sol\":1162:1177  earned(account) */\n      jump\t// in\n    tag_97:\n        /* \"contracts/Staking/EthStakingPool.sol\":1143:1150  rewards */\n      0x04\n        /* \"contracts/Staking/EthStakingPool.sol\":1143:1159  rewards[account] */\n      0x00\n        /* \"contracts/Staking/EthStakingPool.sol\":1151:1158  account */\n      dup4\n        /* \"contracts/Staking/EthStakingPool.sol\":1143:1159  rewards[account] */\n      0xffffffffffffffffffffffffffffffffffffffff\n      and\n      0xffffffffffffffffffffffffffffffffffffffff\n      and\n      dup2\n      mstore\n      0x20\n      add\n      swap1\n      dup2\n      mstore\n      0x20\n      add\n      0x00\n      keccak256\n        /* \"contracts/Staking/EthStakingPool.sol\":1143:1177  rewards[account] = earned(account) */\n      dup2\n      swap1\n      sstore\n      pop\n        /* \"contracts/Staking/EthStakingPool.sol\":1214:1229  block.timestamp */\n      timestamp\n        /* \"contracts/Staking/EthStakingPool.sol\":1188:1202  lastUpdateTime */\n      0x03\n        /* \"contracts/Staking/EthStakingPool.sol\":1188:1211  lastUpdateTime[account] */\n      0x00\n        /* \"contracts/Staking/EthStakingPool.sol\":1203:1210  account */\n      dup4\n        /* \"contracts/Staking/EthStakingPool.sol\":1188:1211  lastUpdateTime[account] */\n      0xffffffffffffffffffffffffffffffffffffffff\n      and\n      0xffffffffffffffffffffffffffffffffffffffff\n      and\n      dup2\n      mstore\n      0x20\n      add\n      swap1\n      dup2\n      mstore\n      0x20\n      add\n      0x00\n      keccak256\n        /* \"contracts/Staking/EthStakingPool.sol\":1188:1229  lastUpdateTime[account] = block.timestamp */\n      dup2\n      swap1\n      sstore\n      pop\n        /* \"contracts/Staking/EthStakingPool.sol\":1977:1978  0 */\n      0x00\n        /* \"contracts/Staking/EthStakingPool.sol\":1965:1974  msg.value */\n      callvalue\n        /* \"contracts/Staking/EthStakingPool.sol\":1965:1978  msg.value > 0 */\n      gt\n        /* \"contracts/Staking/EthStakingPool.sol\":1957:2015  require(msg.value > 0, \"Kwota musi byc wieksza niz 0 ETH\") */\n      tag_99\n      jumpi\n      mload(0x40)\n      0x08c379a000000000000000000000000000000000000000000000000000000000\n      dup2\n      mstore\n      0x04\n      add\n      tag_100\n      swap1\n      tag_101\n      jump\t// in\n    tag_100:\n      mload(0x40)\n      dup1\n      swap2\n      sub\n      swap1\n      revert\n    tag_99:\n        /* \"contracts/Staking/EthStakingPool.sol\":2066:2075  msg.value */\n      callvalue\n        /* \"contracts/Staking/EthStakingPool.sol\":2036:2050  stakingBalance */\n      0x02\n        /* \"contracts/Staking/EthStakingPool.sol\":2036:2062  stakingBalance[msg.sender] */\n      0x00\n        /* \"contracts/Staking/EthStakingPool.sol\":2051:2061  msg.sender */\n      caller\n        /* \"contracts/Staking/EthStakingPool.sol\":2036:2062  stakingBalance[msg.sender] */\n      0xffffffffffffffffffffffffffffffffffffffff\n      and\n      0xffffffffffffffffffffffffffffffffffffffff\n      and\n      dup2\n      mstore\n      0x20\n      add\n      swap1\n      dup2\n      mstore\n      0x20\n      add\n      0x00\n      keccak256\n      0x00\n        /* \"contracts/Staking/EthStakingPool.sol\":2036:2075  stakingBalance[msg.sender] += msg.value */\n      dup3\n      dup3\n      sload\n      tag_102\n      swap2\n      swap1\n      tag_68\n      jump\t// in\n    tag_102:\n      swap3\n      pop\n      pop\n      dup2\n      swap1\n      sstore\n      pop\n        /* \"contracts/Staking/EthStakingPool.sol\":2101:2110  msg.value */\n      callvalue\n        /* \"contracts/Staking/EthStakingPool.sol\":2086:2097  totalStaked */\n      0x05\n      0x00\n        /* \"contracts/Staking/EthStakingPool.sol\":2086:2110  totalStaked += msg.value */\n      dup3\n      dup3\n      sload\n      tag_103\n      swap2\n      swap1\n      tag_68\n      jump\t// in\n    tag_103:\n      swap3\n      pop\n      pop\n      dup2\n      swap1\n      sstore\n      pop\n        /* \"contracts/Staking/EthStakingPool.sol\":2143:2153  msg.sender */\n      caller\n        /* \"contracts/Staking/EthStakingPool.sol\":2136:2165  Staked(msg.sender, msg.value) */\n      0xffffffffffffffffffffffffffffffffffffffff\n      and\n      0x9e71bc8eea02a63969f509818f2dafb9254532904319f9dbda79b67bd34a5f3d\n        /* \"contracts/Staking/EthStakingPool.sol\":2155:2164  msg.value */\n      callvalue\n        /* \"contracts/Staking/EthStakingPool.sol\":2136:2165  Staked(msg.sender, msg.value) */\n      mload(0x40)\n      tag_104\n      swap2\n      swap1\n      tag_19\n      jump\t// in\n    tag_104:\n      mload(0x40)\n      dup1\n      swap2\n      sub\n      swap1\n      log2\n        /* \"@openzeppelin/contracts/utils/ReentrancyGuard.sol\":3054:3055  _ */\n      pop\n        /* \"@openzeppelin/contracts/utils/ReentrancyGuard.sol\":3065:3085  _nonReentrantAfter() */\n      tag_105\n        /* \"@openzeppelin/contracts/utils/ReentrancyGuard.sol\":3065:3083  _nonReentrantAfter */\n      tag_93\n        /* \"@openzeppelin/contracts/utils/ReentrancyGuard.sol\":3065:3085  _nonReentrantAfter() */\n      jump\t// in\n    tag_105:\n        /* \"contracts/Staking/EthStakingPool.sol\":1874:2173  function stake() external payable nonReentrant updateReward(msg.sender) {... */\n      jump\t// out\n        /* \"contracts/Staking/EthStakingPool.sol\":435:484  mapping(address => uint256) public stakingBalance */\n    tag_40:\n      mstore(0x20, 0x02)\n      dup1\n      0x00\n      mstore\n      keccak256(0x00, 0x40)\n      0x00\n      swap2\n      pop\n      swap1\n      pop\n      sload\n      dup2\n      jump\t// out\n        /* \"contracts/Staking/EthStakingPool.sol\":393:425  uint256 public rewardRate = 1e13 */\n    tag_44:\n      sload(0x01)\n      dup2\n      jump\t// out\n        /* \"contracts/Staking/EthStakingPool.sol\":726:752  uint256 public totalStaked */\n    tag_48:\n      sload(0x05)\n      dup2\n      jump\t// out\n        /* \"contracts/Staking/EthStakingPool.sol\":2882:3328  function claimReward() external nonReentrant updateReward(msg.sender) {... */\n    tag_52:\n        /* \"@openzeppelin/contracts/utils/ReentrancyGuard.sol\":3023:3044  _nonReentrantBefore() */\n      tag_107\n        /* \"@openzeppelin/contracts/utils/ReentrancyGuard.sol\":3023:3042  _nonReentrantBefore */\n      tag_71\n        /* \"@openzeppelin/contracts/utils/ReentrancyGuard.sol\":3023:3044  _nonReentrantBefore() */\n      jump\t// in\n    tag_107:\n        /* \"contracts/Staking/EthStakingPool.sol\":2940:2950  msg.sender */\n      caller\n        /* \"contracts/Staking/EthStakingPool.sol\":1162:1177  earned(account) */\n      tag_109\n        /* \"contracts/Staking/EthStakingPool.sol\":1169:1176  account */\n      dup2\n        /* \"contracts/Staking/EthStakingPool.sol\":1162:1168  earned */\n      tag_17\n        /* \"contracts/Staking/EthStakingPool.sol\":1162:1177  earned(account) */\n      jump\t// in\n    tag_109:\n        /* \"contracts/Staking/EthStakingPool.sol\":1143:1150  rewards */\n      0x04\n        /* \"contracts/Staking/EthStakingPool.sol\":1143:1159  rewards[account] */\n      0x00\n        /* \"contracts/Staking/EthStakingPool.sol\":1151:1158  account */\n      dup4\n        /* \"contracts/Staking/EthStakingPool.sol\":1143:1159  rewards[account] */\n      0xffffffffffffffffffffffffffffffffffffffff\n      and\n      0xffffffffffffffffffffffffffffffffffffffff\n      and\n      dup2\n      mstore\n      0x20\n      add\n      swap1\n      dup2\n      mstore\n      0x20\n      add\n      0x00\n      keccak256\n        /* \"contracts/Staking/EthStakingPool.sol\":1143:1177  rewards[account] = earned(account) */\n      dup2\n      swap1\n      sstore\n      pop\n        /* \"contracts/Staking/EthStakingPool.sol\":1214:1229  block.timestamp */\n      timestamp\n        /* \"contracts/Staking/EthStakingPool.sol\":1188:1202  lastUpdateTime */\n      0x03\n        /* \"contracts/Staking/EthStakingPool.sol\":1188:1211  lastUpdateTime[account] */\n      0x00\n        /* \"contracts/Staking/EthStakingPool.sol\":1203:1210  account */\n      dup4\n        /* \"contracts/Staking/EthStakingPool.sol\":1188:1211  lastUpdateTime[account] */\n      0xffffffffffffffffffffffffffffffffffffffff\n      and\n      0xffffffffffffffffffffffffffffffffffffffff\n      and\n      dup2\n      mstore\n      0x20\n      add\n      swap1\n      dup2\n      mstore\n      0x20\n      add\n      0x00\n      keccak256\n        /* \"contracts/Staking/EthStakingPool.sol\":1188:1229  lastUpdateTime[account] = block.timestamp */\n      dup2\n      swap1\n      sstore\n      pop\n        /* \"contracts/Staking/EthStakingPool.sol\":2963:2977  uint256 reward */\n      0x00\n        /* \"contracts/Staking/EthStakingPool.sol\":2980:2987  rewards */\n      0x04\n        /* \"contracts/Staking/EthStakingPool.sol\":2980:2999  rewards[msg.sender] */\n      0x00\n        /* \"contracts/Staking/EthStakingPool.sol\":2988:2998  msg.sender */\n      caller\n        /* \"contracts/Staking/EthStakingPool.sol\":2980:2999  rewards[msg.sender] */\n      0xffffffffffffffffffffffffffffffffffffffff\n      and\n      0xffffffffffffffffffffffffffffffffffffffff\n      and\n      dup2\n      mstore\n      0x20\n      add\n      swap1\n      dup2\n      mstore\n      0x20\n      add\n      0x00\n      keccak256\n      sload\n        /* \"contracts/Staking/EthStakingPool.sol\":2963:2999  uint256 reward = rewards[msg.sender] */\n      swap1\n      pop\n        /* \"contracts/Staking/EthStakingPool.sol\":3023:3024  0 */\n      0x00\n        /* \"contracts/Staking/EthStakingPool.sol\":3014:3020  reward */\n      dup2\n        /* \"contracts/Staking/EthStakingPool.sol\":3014:3024  reward > 0 */\n      gt\n        /* \"contracts/Staking/EthStakingPool.sol\":3010:3321  if (reward > 0) {... */\n      iszero\n      tag_111\n      jumpi\n        /* \"contracts/Staking/EthStakingPool.sol\":3063:3064  0 */\n      0x00\n        /* \"contracts/Staking/EthStakingPool.sol\":3041:3048  rewards */\n      0x04\n        /* \"contracts/Staking/EthStakingPool.sol\":3041:3060  rewards[msg.sender] */\n      0x00\n        /* \"contracts/Staking/EthStakingPool.sol\":3049:3059  msg.sender */\n      caller\n        /* \"contracts/Staking/EthStakingPool.sol\":3041:3060  rewards[msg.sender] */\n      0xffffffffffffffffffffffffffffffffffffffff\n      and\n      0xffffffffffffffffffffffffffffffffffffffff\n      and\n      dup2\n      mstore\n      0x20\n      add\n      swap1\n      dup2\n      mstore\n      0x20\n      add\n      0x00\n      keccak256\n        /* \"contracts/Staking/EthStakingPool.sol\":3041:3064  rewards[msg.sender] = 0 */\n      dup2\n      swap1\n      sstore\n      pop\n        /* \"contracts/Staking/EthStakingPool.sol\":3176:3187  rewardToken */\n      0x00\n      0x00\n      swap1\n      sload\n      swap1\n      0x0100\n      exp\n      swap1\n      div\n      0xffffffffffffffffffffffffffffffffffffffff\n      and\n        /* \"contracts/Staking/EthStakingPool.sol\":3176:3196  rewardToken.transfer */\n      0xffffffffffffffffffffffffffffffffffffffff\n      and\n      0xa9059cbb\n        /* \"contracts/Staking/EthStakingPool.sol\":3197:3207  msg.sender */\n      caller\n        /* \"contracts/Staking/EthStakingPool.sol\":3209:3215  reward */\n      dup4\n        /* \"contracts/Staking/EthStakingPool.sol\":3176:3216  rewardToken.transfer(msg.sender, reward) */\n      mload(0x40)\n      dup4\n      0xffffffff\n      and\n      0xe0\n      shl\n      dup2\n      mstore\n      0x04\n      add\n      tag_112\n      swap3\n      swap2\n      swap1\n      tag_113\n      jump\t// in\n    tag_112:\n      0x20\n      mload(0x40)\n      dup1\n      dup4\n      sub\n      dup2\n      0x00\n      dup8\n      gas\n      call\n      iszero\n      dup1\n      iszero\n      tag_115\n      jumpi\n      returndatacopy(0x00, 0x00, returndatasize)\n      revert(0x00, returndatasize)\n    tag_115:\n      pop\n      pop\n      pop\n      pop\n      mload(0x40)\n      returndatasize\n      not(0x1f)\n      0x1f\n      dup3\n      add\n      and\n      dup3\n      add\n      dup1\n      0x40\n      mstore\n      pop\n      dup2\n      add\n      swap1\n      tag_116\n      swap2\n      swap1\n      tag_117\n      jump\t// in\n    tag_116:\n        /* \"contracts/Staking/EthStakingPool.sol\":3168:3245  require(rewardToken.transfer(msg.sender, reward), \"Wyplata nagrody nieudana\") */\n      tag_118\n      jumpi\n      mload(0x40)\n      0x08c379a000000000000000000000000000000000000000000000000000000000\n      dup2\n      mstore\n      0x04\n      add\n      tag_119\n      swap1\n      tag_120\n      jump\t// in\n    tag_119:\n      mload(0x40)\n      dup1\n      swap2\n      sub\n      swap1\n      revert\n    tag_118:\n        /* \"contracts/Staking/EthStakingPool.sol\":3290:3300  msg.sender */\n      caller\n        /* \"contracts/Staking/EthStakingPool.sol\":3279:3309  RewardPaid(msg.sender, reward) */\n      0xffffffffffffffffffffffffffffffffffffffff\n      and\n      0xe2403640ba68fed3a2f88b7557551d1993f84b99bb10ff833f0cf8db0c5e0486\n        /* \"contracts/Staking/EthStakingPool.sol\":3302:3308  reward */\n      dup3\n        /* \"contracts/Staking/EthStakingPool.sol\":3279:3309  RewardPaid(msg.sender, reward) */\n      mload(0x40)\n      tag_121\n      swap2\n      swap1\n      tag_19\n      jump\t// in\n    tag_121:\n      mload(0x40)\n      dup1\n      swap2\n      sub\n      swap1\n      log2\n        /* \"contracts/Staking/EthStakingPool.sol\":3010:3321  if (reward > 0) {... */\n    tag_111:\n        /* \"contracts/Staking/EthStakingPool.sol\":2952:3328  {... */\n      pop\n        /* \"@openzeppelin/contracts/utils/ReentrancyGuard.sol\":3054:3055  _ */\n      pop\n        /* \"@openzeppelin/contracts/utils/ReentrancyGuard.sol\":3065:3085  _nonReentrantAfter() */\n      tag_122\n        /* \"@openzeppelin/contracts/utils/ReentrancyGuard.sol\":3065:3083  _nonReentrantAfter */\n      tag_93\n        /* \"@openzeppelin/contracts/utils/ReentrancyGuard.sol\":3065:3085  _nonReentrantAfter() */\n      jump\t// in\n    tag_122:\n        /* \"contracts/Staking/EthStakingPool.sol\":2882:3328  function claimReward() external nonReentrant updateReward(msg.sender) {... */\n      jump\t// out\n        /* \"contracts/Staking/EthStakingPool.sol\":232:257  IERC20 public rewardToken */\n    tag_55:\n      0x00\n      0x00\n      swap1\n      sload\n      swap1\n      0x0100\n      exp\n      swap1\n      div\n      0xffffffffffffffffffffffffffffffffffffffff\n      and\n      dup2\n      jump\t// out\n        /* \"@openzeppelin/contracts/utils/ReentrancyGuard.sol\":3749:4041  function _nonReentrantBefore() private {... */\n    tag_71:\n        /* \"@openzeppelin/contracts/utils/ReentrancyGuard.sol\":3872:3897  _nonReentrantBeforeView() */\n      tag_124\n        /* \"@openzeppelin/contracts/utils/ReentrancyGuard.sol\":3872:3895  _nonReentrantBeforeView */\n      tag_125\n        /* \"@openzeppelin/contracts/utils/ReentrancyGuard.sol\":3872:3897  _nonReentrantBeforeView() */\n      jump\t// in\n    tag_124:\n        /* \"@openzeppelin/contracts/utils/ReentrancyGuard.sol\":2407:2408  2 */\n      0x02\n        /* \"@openzeppelin/contracts/utils/ReentrancyGuard.sol\":3972:4018  _reentrancyGuardStorageSlot().getUint256Slot() */\n      tag_126\n        /* \"@openzeppelin/contracts/utils/ReentrancyGuard.sol\":3972:4001  _reentrancyGuardStorageSlot() */\n      tag_127\n        /* \"@openzeppelin/contracts/utils/ReentrancyGuard.sol\":3972:3999  _reentrancyGuardStorageSlot */\n      tag_128\n        /* \"@openzeppelin/contracts/utils/ReentrancyGuard.sol\":3972:4001  _reentrancyGuardStorageSlot() */\n      jump\t// in\n    tag_127:\n        /* \"@openzeppelin/contracts/utils/ReentrancyGuard.sol\":3972:4016  _reentrancyGuardStorageSlot().getUint256Slot */\n      tag_129\n        /* \"@openzeppelin/contracts/utils/ReentrancyGuard.sol\":3972:4018  _reentrancyGuardStorageSlot().getUint256Slot() */\n      jump\t// in\n    tag_126:\n        /* \"@openzeppelin/contracts/utils/ReentrancyGuard.sol\":3972:4024  _reentrancyGuardStorageSlot().getUint256Slot().value */\n      0x00\n      add\n        /* \"@openzeppelin/contracts/utils/ReentrancyGuard.sol\":3972:4034  _reentrancyGuardStorageSlot().getUint256Slot().value = ENTERED */\n      dup2\n      swap1\n      sstore\n      pop\n        /* \"@openzeppelin/contracts/utils/ReentrancyGuard.sol\":3749:4041  function _nonReentrantBefore() private {... */\n      jump\t// out\n        /* \"@openzeppelin/contracts/utils/ReentrancyGuard.sol\":4047:4300  function _nonReentrantAfter() private {... */\n    tag_93:\n        /* \"@openzeppelin/contracts/utils/ReentrancyGuard.sol\":2365:2366  1 */\n      0x01\n        /* \"@openzeppelin/contracts/utils/ReentrancyGuard.sol\":4227:4273  _reentrancyGuardStorageSlot().getUint256Slot() */\n      tag_131\n        /* \"@openzeppelin/contracts/utils/ReentrancyGuard.sol\":4227:4256  _reentrancyGuardStorageSlot() */\n      tag_132\n        /* \"@openzeppelin/contracts/utils/ReentrancyGuard.sol\":4227:4254  _reentrancyGuardStorageSlot */\n      tag_128\n        /* \"@openzeppelin/contracts/utils/ReentrancyGuard.sol\":4227:4256  _reentrancyGuardStorageSlot() */\n      jump\t// in\n    tag_132:\n        /* \"@openzeppelin/contracts/utils/ReentrancyGuard.sol\":4227:4271  _reentrancyGuardStorageSlot().getUint256Slot */\n      tag_129\n        /* \"@openzeppelin/contracts/utils/ReentrancyGuard.sol\":4227:4273  _reentrancyGuardStorageSlot().getUint256Slot() */\n      jump\t// in\n    tag_131:\n        /* \"@openzeppelin/contracts/utils/ReentrancyGuard.sol\":4227:4279  _reentrancyGuardStorageSlot().getUint256Slot().value */\n      0x00\n      add\n        /* \"@openzeppelin/contracts/utils/ReentrancyGuard.sol\":4227:4293  _reentrancyGuardStorageSlot().getUint256Slot().value = NOT_ENTERED */\n      dup2\n      swap1\n      sstore\n      pop\n        /* \"@openzeppelin/contracts/utils/ReentrancyGuard.sol\":4047:4300  function _nonReentrantAfter() private {... */\n      jump\t// out\n        /* \"@openzeppelin/contracts/utils/ReentrancyGuard.sol\":3586:3743  function _nonReentrantBeforeView() private view {... */\n    tag_125:\n        /* \"@openzeppelin/contracts/utils/ReentrancyGuard.sol\":3648:3673  _reentrancyGuardEntered() */\n      tag_134\n        /* \"@openzeppelin/contracts/utils/ReentrancyGuard.sol\":3648:3671  _reentrancyGuardEntered */\n      tag_135\n        /* \"@openzeppelin/contracts/utils/ReentrancyGuard.sol\":3648:3673  _reentrancyGuardEntered() */\n      jump\t// in\n    tag_134:\n        /* \"@openzeppelin/contracts/utils/ReentrancyGuard.sol\":3644:3737  if (_reentrancyGuardEntered()) {... */\n      iszero\n      tag_136\n      jumpi\n        /* \"@openzeppelin/contracts/utils/ReentrancyGuard.sol\":3696:3726  ReentrancyGuardReentrantCall() */\n      mload(0x40)\n      0x3ee5aeb500000000000000000000000000000000000000000000000000000000\n      dup2\n      mstore\n      0x04\n      add\n      mload(0x40)\n      dup1\n      swap2\n      sub\n      swap1\n      revert\n        /* \"@openzeppelin/contracts/utils/ReentrancyGuard.sol\":3644:3737  if (_reentrancyGuardEntered()) {... */\n    tag_136:\n        /* \"@openzeppelin/contracts/utils/ReentrancyGuard.sol\":3586:3743  function _nonReentrantBeforeView() private view {... */\n      jump\t// out\n        /* \"@openzeppelin/contracts/utils/ReentrancyGuard.sol\":4636:4763  function _reentrancyGuardStorageSlot() internal pure virtual returns (bytes32) {... */\n    tag_128:\n        /* \"@openzeppelin/contracts/utils/ReentrancyGuard.sol\":4706:4713  bytes32 */\n      0x00\n        /* \"@openzeppelin/contracts/utils/ReentrancyGuard.sol\":1505:1571  0x9b779b17422d0df92223018b32b4d1fa46e071723d6817e2486d003becc55f00 */\n      0x9b779b17422d0df92223018b32b4d1fa46e071723d6817e2486d003becc55f00\n        /* \"@openzeppelin/contracts/utils/ReentrancyGuard.sol\":4732:4756  REENTRANCY_GUARD_STORAGE */\n      0x00\n      shl\n        /* \"@openzeppelin/contracts/utils/ReentrancyGuard.sol\":4725:4756  return REENTRANCY_GUARD_STORAGE */\n      swap1\n      pop\n        /* \"@openzeppelin/contracts/utils/ReentrancyGuard.sol\":4636:4763  function _reentrancyGuardStorageSlot() internal pure virtual returns (bytes32) {... */\n      swap1\n      jump\t// out\n        /* \"@openzeppelin/contracts/utils/StorageSlot.sol\":2679:2842  function getUint256Slot(bytes32 slot) internal pure returns (Uint256Slot storage r) {... */\n    tag_129:\n        /* \"@openzeppelin/contracts/utils/StorageSlot.sol\":2740:2761  Uint256Slot storage r */\n      0x00\n        /* \"@openzeppelin/contracts/utils/StorageSlot.sol\":2822:2826  slot */\n      dup2\n        /* \"@openzeppelin/contracts/utils/StorageSlot.sol\":2812:2826  r.slot := slot */\n      swap1\n      pop\n        /* \"@openzeppelin/contracts/utils/StorageSlot.sol\":2679:2842  function getUint256Slot(bytes32 slot) internal pure returns (Uint256Slot storage r) {... */\n      swap2\n      swap1\n      pop\n      jump\t// out\n        /* \"@openzeppelin/contracts/utils/ReentrancyGuard.sol\":4479:4630  function _reentrancyGuardEntered() internal view returns (bool) {... */\n    tag_135:\n        /* \"@openzeppelin/contracts/utils/ReentrancyGuard.sol\":4537:4541  bool */\n      0x00\n        /* \"@openzeppelin/contracts/utils/ReentrancyGuard.sol\":2407:2408  2 */\n      0x02\n        /* \"@openzeppelin/contracts/utils/ReentrancyGuard.sol\":4560:4606  _reentrancyGuardStorageSlot().getUint256Slot() */\n      tag_140\n        /* \"@openzeppelin/contracts/utils/ReentrancyGuard.sol\":4560:4589  _reentrancyGuardStorageSlot() */\n      tag_141\n        /* \"@openzeppelin/contracts/utils/ReentrancyGuard.sol\":4560:4587  _reentrancyGuardStorageSlot */\n      tag_128\n        /* \"@openzeppelin/contracts/utils/ReentrancyGuard.sol\":4560:4589  _reentrancyGuardStorageSlot() */\n      jump\t// in\n    tag_141:\n        /* \"@openzeppelin/contracts/utils/ReentrancyGuard.sol\":4560:4604  _reentrancyGuardStorageSlot().getUint256Slot */\n      tag_129\n        /* \"@openzeppelin/contracts/utils/ReentrancyGuard.sol\":4560:4606  _reentrancyGuardStorageSlot().getUint256Slot() */\n      jump\t// in\n    tag_140:\n        /* \"@openzeppelin/contracts/utils/ReentrancyGuard.sol\":4560:4612  _reentrancyGuardStorageSlot().getUint256Slot().value */\n      0x00\n      add\n      sload\n        /* \"@openzeppelin/contracts/utils/ReentrancyGuard.sol\":4560:4623  _reentrancyGuardStorageSlot().getUint256Slot().value == ENTERED */\n      eq\n        /* \"@openzeppelin/contracts/utils/ReentrancyGuard.sol\":4553:4623  return _reentrancyGuardStorageSlot().getUint256Slot().value == ENTERED */\n      swap1\n      pop\n        /* \"@openzeppelin/contracts/utils/ReentrancyGuard.sol\":4479:4630  function _reentrancyGuardEntered() internal view returns (bool) {... */\n      swap1\n      jump\t// out\n        /* \"#utility.yul\":88:205   */\n    tag_143:\n        /* \"#utility.yul\":197:198   */\n      0x00\n        /* \"#utility.yul\":194:195   */\n      0x00\n        /* \"#utility.yul\":187:199   */\n      revert\n        /* \"#utility.yul\":334:460   */\n    tag_145:\n        /* \"#utility.yul\":371:378   */\n      0x00\n        /* \"#utility.yul\":411:453   */\n      0xffffffffffffffffffffffffffffffffffffffff\n        /* \"#utility.yul\":404:409   */\n      dup3\n        /* \"#utility.yul\":400:454   */\n      and\n        /* \"#utility.yul\":389:454   */\n      swap1\n      pop\n        /* \"#utility.yul\":334:460   */\n      swap2\n      swap1\n      pop\n      jump\t// out\n        /* \"#utility.yul\":466:562   */\n    tag_146:\n        /* \"#utility.yul\":503:510   */\n      0x00\n        /* \"#utility.yul\":532:556   */\n      tag_184\n        /* \"#utility.yul\":550:555   */\n      dup3\n        /* \"#utility.yul\":532:556   */\n      tag_145\n      jump\t// in\n    tag_184:\n        /* \"#utility.yul\":521:556   */\n      swap1\n      pop\n        /* \"#utility.yul\":466:562   */\n      swap2\n      swap1\n      pop\n      jump\t// out\n        /* \"#utility.yul\":568:690   */\n    tag_147:\n        /* \"#utility.yul\":641:665   */\n      tag_186\n        /* \"#utility.yul\":659:664   */\n      dup2\n        /* \"#utility.yul\":641:665   */\n      tag_146\n      jump\t// in\n    tag_186:\n        /* \"#utility.yul\":634:639   */\n      dup2\n        /* \"#utility.yul\":631:666   */\n      eq\n        /* \"#utility.yul\":621:684   */\n      tag_187\n      jumpi\n        /* \"#utility.yul\":680:681   */\n      0x00\n        /* \"#utility.yul\":677:678   */\n      0x00\n        /* \"#utility.yul\":670:682   */\n      revert\n        /* \"#utility.yul\":621:684   */\n    tag_187:\n        /* \"#utility.yul\":568:690   */\n      pop\n      jump\t// out\n        /* \"#utility.yul\":696:835   */\n    tag_148:\n        /* \"#utility.yul\":742:747   */\n      0x00\n        /* \"#utility.yul\":780:786   */\n      dup2\n        /* \"#utility.yul\":767:787   */\n      calldataload\n        /* \"#utility.yul\":758:787   */\n      swap1\n      pop\n        /* \"#utility.yul\":796:829   */\n      tag_189\n        /* \"#utility.yul\":823:828   */\n      dup2\n        /* \"#utility.yul\":796:829   */\n      tag_147\n      jump\t// in\n    tag_189:\n        /* \"#utility.yul\":696:835   */\n      swap3\n      swap2\n      pop\n      pop\n      jump\t// out\n        /* \"#utility.yul\":841:1170   */\n    tag_16:\n        /* \"#utility.yul\":900:906   */\n      0x00\n        /* \"#utility.yul\":949:951   */\n      0x20\n        /* \"#utility.yul\":937:946   */\n      dup3\n        /* \"#utility.yul\":928:935   */\n      dup5\n        /* \"#utility.yul\":924:947   */\n      sub\n        /* \"#utility.yul\":920:952   */\n      slt\n        /* \"#utility.yul\":917:1036   */\n      iszero\n      tag_191\n      jumpi\n        /* \"#utility.yul\":955:1034   */\n      tag_192\n      tag_143\n      jump\t// in\n    tag_192:\n        /* \"#utility.yul\":917:1036   */\n    tag_191:\n        /* \"#utility.yul\":1075:1076   */\n      0x00\n        /* \"#utility.yul\":1100:1153   */\n      tag_193\n        /* \"#utility.yul\":1145:1152   */\n      dup5\n        /* \"#utility.yul\":1136:1142   */\n      dup3\n        /* \"#utility.yul\":1125:1134   */\n      dup6\n        /* \"#utility.yul\":1121:1143   */\n      add\n        /* \"#utility.yul\":1100:1153   */\n      tag_148\n      jump\t// in\n    tag_193:\n        /* \"#utility.yul\":1090:1153   */\n      swap2\n      pop\n        /* \"#utility.yul\":1046:1163   */\n      pop\n        /* \"#utility.yul\":841:1170   */\n      swap3\n      swap2\n      pop\n      pop\n      jump\t// out\n        /* \"#utility.yul\":1176:1253   */\n    tag_149:\n        /* \"#utility.yul\":1213:1220   */\n      0x00\n        /* \"#utility.yul\":1242:1247   */\n      dup2\n        /* \"#utility.yul\":1231:1247   */\n      swap1\n      pop\n        /* \"#utility.yul\":1176:1253   */\n      swap2\n      swap1\n      pop\n      jump\t// out\n        /* \"#utility.yul\":1259:1377   */\n    tag_150:\n        /* \"#utility.yul\":1346:1370   */\n      tag_196\n        /* \"#utility.yul\":1364:1369   */\n      dup2\n        /* \"#utility.yul\":1346:1370   */\n      tag_149\n      jump\t// in\n    tag_196:\n        /* \"#utility.yul\":1341:1344   */\n      dup3\n        /* \"#utility.yul\":1334:1371   */\n      mstore\n        /* \"#utility.yul\":1259:1377   */\n      pop\n      pop\n      jump\t// out\n        /* \"#utility.yul\":1383:1605   */\n    tag_19:\n        /* \"#utility.yul\":1476:1480   */\n      0x00\n        /* \"#utility.yul\":1514:1516   */\n      0x20\n        /* \"#utility.yul\":1503:1512   */\n      dup3\n        /* \"#utility.yul\":1499:1517   */\n      add\n        /* \"#utility.yul\":1491:1517   */\n      swap1\n      pop\n        /* \"#utility.yul\":1527:1598   */\n      tag_198\n        /* \"#utility.yul\":1595:1596   */\n      0x00\n        /* \"#utility.yul\":1584:1593   */\n      dup4\n        /* \"#utility.yul\":1580:1597   */\n      add\n        /* \"#utility.yul\":1571:1577   */\n      dup5\n        /* \"#utility.yul\":1527:1598   */\n      tag_150\n      jump\t// in\n    tag_198:\n        /* \"#utility.yul\":1383:1605   */\n      swap3\n      swap2\n      pop\n      pop\n      jump\t// out\n        /* \"#utility.yul\":1611:1733   */\n    tag_151:\n        /* \"#utility.yul\":1684:1708   */\n      tag_200\n        /* \"#utility.yul\":1702:1707   */\n      dup2\n        /* \"#utility.yul\":1684:1708   */\n      tag_149\n      jump\t// in\n    tag_200:\n        /* \"#utility.yul\":1677:1682   */\n      dup2\n        /* \"#utility.yul\":1674:1709   */\n      eq\n        /* \"#utility.yul\":1664:1727   */\n      tag_201\n      jumpi\n        /* \"#utility.yul\":1723:1724   */\n      0x00\n        /* \"#utility.yul\":1720:1721   */\n      0x00\n        /* \"#utility.yul\":1713:1725   */\n      revert\n        /* \"#utility.yul\":1664:1727   */\n    tag_201:\n        /* \"#utility.yul\":1611:1733   */\n      pop\n      jump\t// out\n        /* \"#utility.yul\":1739:1878   */\n    tag_152:\n        /* \"#utility.yul\":1785:1790   */\n      0x00\n        /* \"#utility.yul\":1823:1829   */\n      dup2\n        /* \"#utility.yul\":1810:1830   */\n      calldataload\n        /* \"#utility.yul\":1801:1830   */\n      swap1\n      pop\n        /* \"#utility.yul\":1839:1872   */\n      tag_203\n        /* \"#utility.yul\":1866:1871   */\n      dup2\n        /* \"#utility.yul\":1839:1872   */\n      tag_151\n      jump\t// in\n    tag_203:\n        /* \"#utility.yul\":1739:1878   */\n      swap3\n      swap2\n      pop\n      pop\n      jump\t// out\n        /* \"#utility.yul\":1884:2213   */\n    tag_33:\n        /* \"#utility.yul\":1943:1949   */\n      0x00\n        /* \"#utility.yul\":1992:1994   */\n      0x20\n        /* \"#utility.yul\":1980:1989   */\n      dup3\n        /* \"#utility.yul\":1971:1978   */\n      dup5\n        /* \"#utility.yul\":1967:1990   */\n      sub\n        /* \"#utility.yul\":1963:1995   */\n      slt\n        /* \"#utility.yul\":1960:2079   */\n      iszero\n      tag_205\n      jumpi\n        /* \"#utility.yul\":1998:2077   */\n      tag_206\n      tag_143\n      jump\t// in\n    tag_206:\n        /* \"#utility.yul\":1960:2079   */\n    tag_205:\n        /* \"#utility.yul\":2118:2119   */\n      0x00\n        /* \"#utility.yul\":2143:2196   */\n      tag_207\n        /* \"#utility.yul\":2188:2195   */\n      dup5\n        /* \"#utility.yul\":2179:2185   */\n      dup3\n        /* \"#utility.yul\":2168:2177   */\n      dup6\n        /* \"#utility.yul\":2164:2186   */\n      add\n        /* \"#utility.yul\":2143:2196   */\n      tag_152\n      jump\t// in\n    tag_207:\n        /* \"#utility.yul\":2133:2196   */\n      swap2\n      pop\n        /* \"#utility.yul\":2089:2206   */\n      pop\n        /* \"#utility.yul\":1884:2213   */\n      swap3\n      swap2\n      pop\n      pop\n      jump\t// out\n        /* \"#utility.yul\":2219:2279   */\n    tag_153:\n        /* \"#utility.yul\":2247:2250   */\n      0x00\n        /* \"#utility.yul\":2268:2273   */\n      dup2\n        /* \"#utility.yul\":2261:2273   */\n      swap1\n      pop\n        /* \"#utility.yul\":2219:2279   */\n      swap2\n      swap1\n      pop\n      jump\t// out\n        /* \"#utility.yul\":2285:2427   */\n    tag_154:\n        /* \"#utility.yul\":2335:2344   */\n      0x00\n        /* \"#utility.yul\":2368:2421   */\n      tag_210\n        /* \"#utility.yul\":2386:2420   */\n      tag_211\n        /* \"#utility.yul\":2395:2419   */\n      tag_212\n        /* \"#utility.yul\":2413:2418   */\n      dup5\n        /* \"#utility.yul\":2395:2419   */\n      tag_145\n      jump\t// in\n    tag_212:\n        /* \"#utility.yul\":2386:2420   */\n      tag_153\n      jump\t// in\n    tag_211:\n        /* \"#utility.yul\":2368:2421   */\n      tag_145\n      jump\t// in\n    tag_210:\n        /* \"#utility.yul\":2355:2421   */\n      swap1\n      pop\n        /* \"#utility.yul\":2285:2427   */\n      swap2\n      swap1\n      pop\n      jump\t// out\n        /* \"#utility.yul\":2433:2559   */\n    tag_155:\n        /* \"#utility.yul\":2483:2492   */\n      0x00\n        /* \"#utility.yul\":2516:2553   */\n      tag_214\n        /* \"#utility.yul\":2547:2552   */\n      dup3\n        /* \"#utility.yul\":2516:2553   */\n      tag_154\n      jump\t// in\n    tag_214:\n        /* \"#utility.yul\":2503:2553   */\n      swap1\n      pop\n        /* \"#utility.yul\":2433:2559   */\n      swap2\n      swap1\n      pop\n      jump\t// out\n        /* \"#utility.yul\":2565:2704   */\n    tag_156:\n        /* \"#utility.yul\":2628:2637   */\n      0x00\n        /* \"#utility.yul\":2661:2698   */\n      tag_216\n        /* \"#utility.yul\":2692:2697   */\n      dup3\n        /* \"#utility.yul\":2661:2698   */\n      tag_155\n      jump\t// in\n    tag_216:\n        /* \"#utility.yul\":2648:2698   */\n      swap1\n      pop\n        /* \"#utility.yul\":2565:2704   */\n      swap2\n      swap1\n      pop\n      jump\t// out\n        /* \"#utility.yul\":2710:2867   */\n    tag_157:\n        /* \"#utility.yul\":2810:2860   */\n      tag_218\n        /* \"#utility.yul\":2854:2859   */\n      dup2\n        /* \"#utility.yul\":2810:2860   */\n      tag_156\n      jump\t// in\n    tag_218:\n        /* \"#utility.yul\":2805:2808   */\n      dup3\n        /* \"#utility.yul\":2798:2861   */\n      mstore\n        /* \"#utility.yul\":2710:2867   */\n      pop\n      pop\n      jump\t// out\n        /* \"#utility.yul\":2873:3121   */\n    tag_57:\n        /* \"#utility.yul\":2979:2983   */\n      0x00\n        /* \"#utility.yul\":3017:3019   */\n      0x20\n        /* \"#utility.yul\":3006:3015   */\n      dup3\n        /* \"#utility.yul\":3002:3020   */\n      add\n        /* \"#utility.yul\":2994:3020   */\n      swap1\n      pop\n        /* \"#utility.yul\":3030:3114   */\n      tag_220\n        /* \"#utility.yul\":3111:3112   */\n      0x00\n        /* \"#utility.yul\":3100:3109   */\n      dup4\n        /* \"#utility.yul\":3096:3113   */\n      add\n        /* \"#utility.yul\":3087:3093   */\n      dup5\n        /* \"#utility.yul\":3030:3114   */\n      tag_157\n      jump\t// in\n    tag_220:\n        /* \"#utility.yul\":2873:3121   */\n      swap3\n      swap2\n      pop\n      pop\n      jump\t// out\n        /* \"#utility.yul\":3127:3307   */\n    tag_158:\n        /* \"#utility.yul\":3175:3252   */\n      0x4e487b7100000000000000000000000000000000000000000000000000000000\n        /* \"#utility.yul\":3172:3173   */\n      0x00\n        /* \"#utility.yul\":3165:3253   */\n      mstore\n        /* \"#utility.yul\":3272:3276   */\n      0x11\n        /* \"#utility.yul\":3269:3270   */\n      0x04\n        /* \"#utility.yul\":3262:3277   */\n      mstore\n        /* \"#utility.yul\":3296:3300   */\n      0x24\n        /* \"#utility.yul\":3293:3294   */\n      0x00\n        /* \"#utility.yul\":3286:3301   */\n      revert\n        /* \"#utility.yul\":3313:3507   */\n    tag_61:\n        /* \"#utility.yul\":3353:3357   */\n      0x00\n        /* \"#utility.yul\":3373:3393   */\n      tag_223\n        /* \"#utility.yul\":3391:3392   */\n      dup3\n        /* \"#utility.yul\":3373:3393   */\n      tag_149\n      jump\t// in\n    tag_223:\n        /* \"#utility.yul\":3368:3393   */\n      swap2\n      pop\n        /* \"#utility.yul\":3407:3427   */\n      tag_224\n        /* \"#utility.yul\":3425:3426   */\n      dup4\n        /* \"#utility.yul\":3407:3427   */\n      tag_149\n      jump\t// in\n    tag_224:\n        /* \"#utility.yul\":3402:3427   */\n      swap3\n      pop\n        /* \"#utility.yul\":3451:3452   */\n      dup3\n        /* \"#utility.yul\":3448:3449   */\n      dup3\n        /* \"#utility.yul\":3444:3453   */\n      sub\n        /* \"#utility.yul\":3436:3453   */\n      swap1\n      pop\n        /* \"#utility.yul\":3475:3476   */\n      dup2\n        /* \"#utility.yul\":3469:3473   */\n      dup2\n        /* \"#utility.yul\":3466:3477   */\n      gt\n        /* \"#utility.yul\":3463:3500   */\n      iszero\n      tag_225\n      jumpi\n        /* \"#utility.yul\":3480:3498   */\n      tag_226\n      tag_158\n      jump\t// in\n    tag_226:\n        /* \"#utility.yul\":3463:3500   */\n    tag_225:\n        /* \"#utility.yul\":3313:3507   */\n      swap3\n      swap2\n      pop\n      pop\n      jump\t// out\n        /* \"#utility.yul\":3513:3923   */\n    tag_63:\n        /* \"#utility.yul\":3553:3560   */\n      0x00\n        /* \"#utility.yul\":3576:3596   */\n      tag_228\n        /* \"#utility.yul\":3594:3595   */\n      dup3\n        /* \"#utility.yul\":3576:3596   */\n      tag_149\n      jump\t// in\n    tag_228:\n        /* \"#utility.yul\":3571:3596   */\n      swap2\n      pop\n        /* \"#utility.yul\":3610:3630   */\n      tag_229\n        /* \"#utility.yul\":3628:3629   */\n      dup4\n        /* \"#utility.yul\":3610:3630   */\n      tag_149\n      jump\t// in\n    tag_229:\n        /* \"#utility.yul\":3605:3630   */\n      swap3\n      pop\n        /* \"#utility.yul\":3665:3666   */\n      dup3\n        /* \"#utility.yul\":3662:3663   */\n      dup3\n        /* \"#utility.yul\":3658:3667   */\n      mul\n        /* \"#utility.yul\":3687:3717   */\n      tag_230\n        /* \"#utility.yul\":3705:3716   */\n      dup2\n        /* \"#utility.yul\":3687:3717   */\n      tag_149\n      jump\t// in\n    tag_230:\n        /* \"#utility.yul\":3676:3717   */\n      swap2\n      pop\n        /* \"#utility.yul\":3866:3867   */\n      dup3\n        /* \"#utility.yul\":3857:3864   */\n      dup3\n        /* \"#utility.yul\":3853:3868   */\n      div\n        /* \"#utility.yul\":3850:3851   */\n      dup5\n        /* \"#utility.yul\":3847:3869   */\n      eq\n        /* \"#utility.yul\":3827:3828   */\n      dup4\n        /* \"#utility.yul\":3820:3829   */\n      iszero\n        /* \"#utility.yul\":3800:3883   */\n      or\n        /* \"#utility.yul\":3777:3916   */\n      tag_231\n      jumpi\n        /* \"#utility.yul\":3896:3914   */\n      tag_232\n      tag_158\n      jump\t// in\n    tag_232:\n        /* \"#utility.yul\":3777:3916   */\n    tag_231:\n        /* \"#utility.yul\":3561:3923   */\n      pop\n        /* \"#utility.yul\":3513:3923   */\n      swap3\n      swap2\n      pop\n      pop\n      jump\t// out\n        /* \"#utility.yul\":3929:4109   */\n    tag_159:\n        /* \"#utility.yul\":3977:4054   */\n      0x4e487b7100000000000000000000000000000000000000000000000000000000\n        /* \"#utility.yul\":3974:3975   */\n      0x00\n        /* \"#utility.yul\":3967:4055   */\n      mstore\n        /* \"#utility.yul\":4074:4078   */\n      0x12\n        /* \"#utility.yul\":4071:4072   */\n      0x04\n        /* \"#utility.yul\":4064:4079   */\n      mstore\n        /* \"#utility.yul\":4098:4102   */\n      0x24\n        /* \"#utility.yul\":4095:4096   */\n      0x00\n        /* \"#utility.yul\":4088:4103   */\n      revert\n        /* \"#utility.yul\":4115:4300   */\n    tag_66:\n        /* \"#utility.yul\":4155:4156   */\n      0x00\n        /* \"#utility.yul\":4172:4192   */\n      tag_235\n        /* \"#utility.yul\":4190:4191   */\n      dup3\n        /* \"#utility.yul\":4172:4192   */\n      tag_149\n      jump\t// in\n    tag_235:\n        /* \"#utility.yul\":4167:4192   */\n      swap2\n      pop\n        /* \"#utility.yul\":4206:4226   */\n      tag_236\n        /* \"#utility.yul\":4224:4225   */\n      dup4\n        /* \"#utility.yul\":4206:4226   */\n      tag_149\n      jump\t// in\n    tag_236:\n        /* \"#utility.yul\":4201:4226   */\n      swap3\n      pop\n        /* \"#utility.yul\":4245:4246   */\n      dup3\n        /* \"#utility.yul\":4235:4270   */\n      tag_237\n      jumpi\n        /* \"#utility.yul\":4250:4268   */\n      tag_238\n      tag_159\n      jump\t// in\n    tag_238:\n        /* \"#utility.yul\":4235:4270   */\n    tag_237:\n        /* \"#utility.yul\":4292:4293   */\n      dup3\n        /* \"#utility.yul\":4289:4290   */\n      dup3\n        /* \"#utility.yul\":4285:4294   */\n      div\n        /* \"#utility.yul\":4280:4294   */\n      swap1\n      pop\n        /* \"#utility.yul\":4115:4300   */\n      swap3\n      swap2\n      pop\n      pop\n      jump\t// out\n        /* \"#utility.yul\":4306:4497   */\n    tag_68:\n        /* \"#utility.yul\":4346:4349   */\n      0x00\n        /* \"#utility.yul\":4365:4385   */\n      tag_240\n        /* \"#utility.yul\":4383:4384   */\n      dup3\n        /* \"#utility.yul\":4365:4385   */\n      tag_149\n      jump\t// in\n    tag_240:\n        /* \"#utility.yul\":4360:4385   */\n      swap2\n      pop\n        /* \"#utility.yul\":4399:4419   */\n      tag_241\n        /* \"#utility.yul\":4417:4418   */\n      dup4\n        /* \"#utility.yul\":4399:4419   */\n      tag_149\n      jump\t// in\n    tag_241:\n        /* \"#utility.yul\":4394:4419   */\n      swap3\n      pop\n        /* \"#utility.yul\":4442:4443   */\n      dup3\n        /* \"#utility.yul\":4439:4440   */\n      dup3\n        /* \"#utility.yul\":4435:4444   */\n      add\n        /* \"#utility.yul\":4428:4444   */\n      swap1\n      pop\n        /* \"#utility.yul\":4463:4466   */\n      dup1\n        /* \"#utility.yul\":4460:4461   */\n      dup3\n        /* \"#utility.yul\":4457:4467   */\n      gt\n        /* \"#utility.yul\":4454:4490   */\n      iszero\n      tag_242\n      jumpi\n        /* \"#utility.yul\":4470:4488   */\n      tag_243\n      tag_158\n      jump\t// in\n    tag_243:\n        /* \"#utility.yul\":4454:4490   */\n    tag_242:\n        /* \"#utility.yul\":4306:4497   */\n      swap3\n      swap2\n      pop\n      pop\n      jump\t// out\n        /* \"#utility.yul\":4503:4672   */\n    tag_160:\n        /* \"#utility.yul\":4587:4598   */\n      0x00\n        /* \"#utility.yul\":4621:4627   */\n      dup3\n        /* \"#utility.yul\":4616:4619   */\n      dup3\n        /* \"#utility.yul\":4609:4628   */\n      mstore\n        /* \"#utility.yul\":4661:4665   */\n      0x20\n        /* \"#utility.yul\":4656:4659   */\n      dup3\n        /* \"#utility.yul\":4652:4666   */\n      add\n        /* \"#utility.yul\":4637:4666   */\n      swap1\n      pop\n        /* \"#utility.yul\":4503:4672   */\n      swap3\n      swap2\n      pop\n      pop\n      jump\t// out\n        /* \"#utility.yul\":4678:4856   */\n    tag_161:\n        /* \"#utility.yul\":4818:4848   */\n      0x4b776f7461206d75736920627963207769656b737a61206e697a203000000000\n        /* \"#utility.yul\":4814:4815   */\n      0x00\n        /* \"#utility.yul\":4806:4812   */\n      dup3\n        /* \"#utility.yul\":4802:4816   */\n      add\n        /* \"#utility.yul\":4795:4849   */\n      mstore\n        /* \"#utility.yul\":4678:4856   */\n      pop\n      jump\t// out\n        /* \"#utility.yul\":4862:5228   */\n    tag_162:\n        /* \"#utility.yul\":5004:5007   */\n      0x00\n        /* \"#utility.yul\":5025:5092   */\n      tag_247\n        /* \"#utility.yul\":5089:5091   */\n      0x1c\n        /* \"#utility.yul\":5084:5087   */\n      dup4\n        /* \"#utility.yul\":5025:5092   */\n      tag_160\n      jump\t// in\n    tag_247:\n        /* \"#utility.yul\":5018:5092   */\n      swap2\n      pop\n        /* \"#utility.yul\":5101:5194   */\n      tag_248\n        /* \"#utility.yul\":5190:5193   */\n      dup3\n        /* \"#utility.yul\":5101:5194   */\n      tag_161\n      jump\t// in\n    tag_248:\n        /* \"#utility.yul\":5219:5221   */\n      0x20\n        /* \"#utility.yul\":5214:5217   */\n      dup3\n        /* \"#utility.yul\":5210:5222   */\n      add\n        /* \"#utility.yul\":5203:5222   */\n      swap1\n      pop\n        /* \"#utility.yul\":4862:5228   */\n      swap2\n      swap1\n      pop\n      jump\t// out\n        /* \"#utility.yul\":5234:5653   */\n    tag_77:\n        /* \"#utility.yul\":5400:5404   */\n      0x00\n        /* \"#utility.yul\":5438:5440   */\n      0x20\n        /* \"#utility.yul\":5427:5436   */\n      dup3\n        /* \"#utility.yul\":5423:5441   */\n      add\n        /* \"#utility.yul\":5415:5441   */\n      swap1\n      pop\n        /* \"#utility.yul\":5487:5496   */\n      dup2\n        /* \"#utility.yul\":5481:5485   */\n      dup2\n        /* \"#utility.yul\":5477:5497   */\n      sub\n        /* \"#utility.yul\":5473:5474   */\n      0x00\n        /* \"#utility.yul\":5462:5471   */\n      dup4\n        /* \"#utility.yul\":5458:5475   */\n      add\n        /* \"#utility.yul\":5451:5498   */\n      mstore\n        /* \"#utility.yul\":5515:5646   */\n      tag_250\n        /* \"#utility.yul\":5641:5645   */\n      dup2\n        /* \"#utility.yul\":5515:5646   */\n      tag_162\n      jump\t// in\n    tag_250:\n        /* \"#utility.yul\":5507:5646   */\n      swap1\n      pop\n        /* \"#utility.yul\":5234:5653   */\n      swap2\n      swap1\n      pop\n      jump\t// out\n        /* \"#utility.yul\":5659:5838   */\n    tag_163:\n        /* \"#utility.yul\":5799:5830   */\n      0x5a61206d616c6f207a61626c6f6b6f77616e7963682073726f646b6f77000000\n        /* \"#utility.yul\":5795:5796   */\n      0x00\n        /* \"#utility.yul\":5787:5793   */\n      dup3\n        /* \"#utility.yul\":5783:5797   */\n      add\n        /* \"#utility.yul\":5776:5831   */\n      mstore\n        /* \"#utility.yul\":5659:5838   */\n      pop\n      jump\t// out\n        /* \"#utility.yul\":5844:6210   */\n    tag_164:\n        /* \"#utility.yul\":5986:5989   */\n      0x00\n        /* \"#utility.yul\":6007:6074   */\n      tag_253\n        /* \"#utility.yul\":6071:6073   */\n      0x1d\n        /* \"#utility.yul\":6066:6069   */\n      dup4\n        /* \"#utility.yul\":6007:6074   */\n      tag_160\n      jump\t// in\n    tag_253:\n        /* \"#utility.yul\":6000:6074   */\n      swap2\n      pop\n        /* \"#utility.yul\":6083:6176   */\n      tag_254\n        /* \"#utility.yul\":6172:6175   */\n      dup3\n        /* \"#utility.yul\":6083:6176   */\n      tag_163\n      jump\t// in\n    tag_254:\n        /* \"#utility.yul\":6201:6203   */\n      0x20\n        /* \"#utility.yul\":6196:6199   */\n      dup3\n        /* \"#utility.yul\":6192:6204   */\n      add\n        /* \"#utility.yul\":6185:6204   */\n      swap1\n      pop\n        /* \"#utility.yul\":5844:6210   */\n      swap2\n      swap1\n      pop\n      jump\t// out\n        /* \"#utility.yul\":6216:6635   */\n    tag_80:\n        /* \"#utility.yul\":6382:6386   */\n      0x00\n        /* \"#utility.yul\":6420:6422   */\n      0x20\n        /* \"#utility.yul\":6409:6418   */\n      dup3\n        /* \"#utility.yul\":6405:6423   */\n      add\n        /* \"#utility.yul\":6397:6423   */\n      swap1\n      pop\n        /* \"#utility.yul\":6469:6478   */\n      dup2\n        /* \"#utility.yul\":6463:6467   */\n      dup2\n        /* \"#utility.yul\":6459:6479   */\n      sub\n        /* \"#utility.yul\":6455:6456   */\n      0x00\n        /* \"#utility.yul\":6444:6453   */\n      dup4\n        /* \"#utility.yul\":6440:6457   */\n      add\n        /* \"#utility.yul\":6433:6480   */\n      mstore\n        /* \"#utility.yul\":6497:6628   */\n      tag_256\n        /* \"#utility.yul\":6623:6627   */\n      dup2\n        /* \"#utility.yul\":6497:6628   */\n      tag_164\n      jump\t// in\n    tag_256:\n        /* \"#utility.yul\":6489:6628   */\n      swap1\n      pop\n        /* \"#utility.yul\":6216:6635   */\n      swap2\n      swap1\n      pop\n      jump\t// out\n        /* \"#utility.yul\":6641:6788   */\n    tag_165:\n        /* \"#utility.yul\":6742:6753   */\n      0x00\n        /* \"#utility.yul\":6779:6782   */\n      dup2\n        /* \"#utility.yul\":6764:6782   */\n      swap1\n      pop\n        /* \"#utility.yul\":6641:6788   */\n      swap3\n      swap2\n      pop\n      pop\n      jump\t// out\n        /* \"#utility.yul\":6794:6908   */\n    tag_166:\n      pop\n      jump\t// out\n        /* \"#utility.yul\":6914:7312   */\n    tag_167:\n        /* \"#utility.yul\":7073:7076   */\n      0x00\n        /* \"#utility.yul\":7094:7177   */\n      tag_260\n        /* \"#utility.yul\":7175:7176   */\n      0x00\n        /* \"#utility.yul\":7170:7173   */\n      dup4\n        /* \"#utility.yul\":7094:7177   */\n      tag_165\n      jump\t// in\n    tag_260:\n        /* \"#utility.yul\":7087:7177   */\n      swap2\n      pop\n        /* \"#utility.yul\":7186:7279   */\n      tag_261\n        /* \"#utility.yul\":7275:7278   */\n      dup3\n        /* \"#utility.yul\":7186:7279   */\n      tag_166\n      jump\t// in\n    tag_261:\n        /* \"#utility.yul\":7304:7305   */\n      0x00\n        /* \"#utility.yul\":7299:7302   */\n      dup3\n        /* \"#utility.yul\":7295:7306   */\n      add\n        /* \"#utility.yul\":7288:7306   */\n      swap1\n      pop\n        /* \"#utility.yul\":6914:7312   */\n      swap2\n      swap1\n      pop\n      jump\t// out\n        /* \"#utility.yul\":7318:7697   */\n    tag_84:\n        /* \"#utility.yul\":7502:7505   */\n      0x00\n        /* \"#utility.yul\":7524:7671   */\n      tag_263\n        /* \"#utility.yul\":7667:7670   */\n      dup3\n        /* \"#utility.yul\":7524:7671   */\n      tag_167\n      jump\t// in\n    tag_263:\n        /* \"#utility.yul\":7517:7671   */\n      swap2\n      pop\n        /* \"#utility.yul\":7688:7691   */\n      dup2\n        /* \"#utility.yul\":7681:7691   */\n      swap1\n      pop\n        /* \"#utility.yul\":7318:7697   */\n      swap2\n      swap1\n      pop\n      jump\t// out\n        /* \"#utility.yul\":7703:7882   */\n    tag_168:\n        /* \"#utility.yul\":7843:7874   */\n      0x5472616e73666572207a77726f746e7920455448206e69657564616e79000000\n        /* \"#utility.yul\":7839:7840   */\n      0x00\n        /* \"#utility.yul\":7831:7837   */\n      dup3\n        /* \"#utility.yul\":7827:7841   */\n      add\n        /* \"#utility.yul\":7820:7875   */\n      mstore\n        /* \"#utility.yul\":7703:7882   */\n      pop\n      jump\t// out\n        /* \"#utility.yul\":7888:8254   */\n    tag_169:\n        /* \"#utility.yul\":8030:8033   */\n      0x00\n        /* \"#utility.yul\":8051:8118   */\n      tag_266\n        /* \"#utility.yul\":8115:8117   */\n      0x1d\n        /* \"#utility.yul\":8110:8113   */\n      dup4\n        /* \"#utility.yul\":8051:8118   */\n      tag_160\n      jump\t// in\n    tag_266:\n        /* \"#utility.yul\":8044:8118   */\n      swap2\n      pop\n        /* \"#utility.yul\":8127:8220   */\n      tag_267\n        /* \"#utility.yul\":8216:8219   */\n      dup3\n        /* \"#utility.yul\":8127:8220   */\n      tag_168\n      jump\t// in\n    tag_267:\n        /* \"#utility.yul\":8245:8247   */\n      0x20\n        /* \"#utility.yul\":8240:8243   */\n      dup3\n        /* \"#utility.yul\":8236:8248   */\n      add\n        /* \"#utility.yul\":8229:8248   */\n      swap1\n      pop\n        /* \"#utility.yul\":7888:8254   */\n      swap2\n      swap1\n      pop\n      jump\t// out\n        /* \"#utility.yul\":8260:8679   */\n    tag_90:\n        /* \"#utility.yul\":8426:8430   */\n      0x00\n        /* \"#utility.yul\":8464:8466   */\n      0x20\n        /* \"#utility.yul\":8453:8462   */\n      dup3\n        /* \"#utility.yul\":8449:8467   */\n      add\n        /* \"#utility.yul\":8441:8467   */\n      swap1\n      pop\n        /* \"#utility.yul\":8513:8522   */\n      dup2\n        /* \"#utility.yul\":8507:8511   */\n      dup2\n        /* \"#utility.yul\":8503:8523   */\n      sub\n        /* \"#utility.yul\":8499:8500   */\n      0x00\n        /* \"#utility.yul\":8488:8497   */\n      dup4\n        /* \"#utility.yul\":8484:8501   */\n      add\n        /* \"#utility.yul\":8477:8524   */\n      mstore\n        /* \"#utility.yul\":8541:8672   */\n      tag_269\n        /* \"#utility.yul\":8667:8671   */\n      dup2\n        /* \"#utility.yul\":8541:8672   */\n      tag_169\n      jump\t// in\n    tag_269:\n        /* \"#utility.yul\":8533:8672   */\n      swap1\n      pop\n        /* \"#utility.yul\":8260:8679   */\n      swap2\n      swap1\n      pop\n      jump\t// out\n        /* \"#utility.yul\":8685:8867   */\n    tag_170:\n        /* \"#utility.yul\":8825:8859   */\n      0x4b776f7461206d75736920627963207769656b737a61206e697a203020455448\n        /* \"#utility.yul\":8821:8822   */\n      0x00\n        /* \"#utility.yul\":8813:8819   */\n      dup3\n        /* \"#utility.yul\":8809:8823   */\n      add\n        /* \"#utility.yul\":8802:8860   */\n      mstore\n        /* \"#utility.yul\":8685:8867   */\n      pop\n      jump\t// out\n        /* \"#utility.yul\":8873:9239   */\n    tag_171:\n        /* \"#utility.yul\":9015:9018   */\n      0x00\n        /* \"#utility.yul\":9036:9103   */\n      tag_272\n        /* \"#utility.yul\":9100:9102   */\n      0x20\n        /* \"#utility.yul\":9095:9098   */\n      dup4\n        /* \"#utility.yul\":9036:9103   */\n      tag_160\n      jump\t// in\n    tag_272:\n        /* \"#utility.yul\":9029:9103   */\n      swap2\n      pop\n        /* \"#utility.yul\":9112:9205   */\n      tag_273\n        /* \"#utility.yul\":9201:9204   */\n      dup3\n        /* \"#utility.yul\":9112:9205   */\n      tag_170\n      jump\t// in\n    tag_273:\n        /* \"#utility.yul\":9230:9232   */\n      0x20\n        /* \"#utility.yul\":9225:9228   */\n      dup3\n        /* \"#utility.yul\":9221:9233   */\n      add\n        /* \"#utility.yul\":9214:9233   */\n      swap1\n      pop\n        /* \"#utility.yul\":8873:9239   */\n      swap2\n      swap1\n      pop\n      jump\t// out\n        /* \"#utility.yul\":9245:9664   */\n    tag_101:\n        /* \"#utility.yul\":9411:9415   */\n      0x00\n        /* \"#utility.yul\":9449:9451   */\n      0x20\n        /* \"#utility.yul\":9438:9447   */\n      dup3\n        /* \"#utility.yul\":9434:9452   */\n      add\n        /* \"#utility.yul\":9426:9452   */\n      swap1\n      pop\n        /* \"#utility.yul\":9498:9507   */\n      dup2\n        /* \"#utility.yul\":9492:9496   */\n      dup2\n        /* \"#utility.yul\":9488:9508   */\n      sub\n        /* \"#utility.yul\":9484:9485   */\n      0x00\n        /* \"#utility.yul\":9473:9482   */\n      dup4\n        /* \"#utility.yul\":9469:9486   */\n      add\n        /* \"#utility.yul\":9462:9509   */\n      mstore\n        /* \"#utility.yul\":9526:9657   */\n      tag_275\n        /* \"#utility.yul\":9652:9656   */\n      dup2\n        /* \"#utility.yul\":9526:9657   */\n      tag_171\n      jump\t// in\n    tag_275:\n        /* \"#utility.yul\":9518:9657   */\n      swap1\n      pop\n        /* \"#utility.yul\":9245:9664   */\n      swap2\n      swap1\n      pop\n      jump\t// out\n        /* \"#utility.yul\":9670:9788   */\n    tag_172:\n        /* \"#utility.yul\":9757:9781   */\n      tag_277\n        /* \"#utility.yul\":9775:9780   */\n      dup2\n        /* \"#utility.yul\":9757:9781   */\n      tag_146\n      jump\t// in\n    tag_277:\n        /* \"#utility.yul\":9752:9755   */\n      dup3\n        /* \"#utility.yul\":9745:9782   */\n      mstore\n        /* \"#utility.yul\":9670:9788   */\n      pop\n      pop\n      jump\t// out\n        /* \"#utility.yul\":9794:10126   */\n    tag_113:\n        /* \"#utility.yul\":9915:9919   */\n      0x00\n        /* \"#utility.yul\":9953:9955   */\n      0x40\n        /* \"#utility.yul\":9942:9951   */\n      dup3\n        /* \"#utility.yul\":9938:9956   */\n      add\n        /* \"#utility.yul\":9930:9956   */\n      swap1\n      pop\n        /* \"#utility.yul\":9966:10037   */\n      tag_279\n        /* \"#utility.yul\":10034:10035   */\n      0x00\n        /* \"#utility.yul\":10023:10032   */\n      dup4\n        /* \"#utility.yul\":10019:10036   */\n      add\n        /* \"#utility.yul\":10010:10016   */\n      dup6\n        /* \"#utility.yul\":9966:10037   */\n      tag_172\n      jump\t// in\n    tag_279:\n        /* \"#utility.yul\":10047:10119   */\n      tag_280\n        /* \"#utility.yul\":10115:10117   */\n      0x20\n        /* \"#utility.yul\":10104:10113   */\n      dup4\n        /* \"#utility.yul\":10100:10118   */\n      add\n        /* \"#utility.yul\":10091:10097   */\n      dup5\n        /* \"#utility.yul\":10047:10119   */\n      tag_150\n      jump\t// in\n    tag_280:\n        /* \"#utility.yul\":9794:10126   */\n      swap4\n      swap3\n      pop\n      pop\n      pop\n      jump\t// out\n        /* \"#utility.yul\":10132:10222   */\n    tag_173:\n        /* \"#utility.yul\":10166:10173   */\n      0x00\n        /* \"#utility.yul\":10209:10214   */\n      dup2\n        /* \"#utility.yul\":10202:10215   */\n      iszero\n        /* \"#utility.yul\":10195:10216   */\n      iszero\n        /* \"#utility.yul\":10184:10216   */\n      swap1\n      pop\n        /* \"#utility.yul\":10132:10222   */\n      swap2\n      swap1\n      pop\n      jump\t// out\n        /* \"#utility.yul\":10228:10344   */\n    tag_174:\n        /* \"#utility.yul\":10298:10319   */\n      tag_283\n        /* \"#utility.yul\":10313:10318   */\n      dup2\n        /* \"#utility.yul\":10298:10319   */\n      tag_173\n      jump\t// in\n    tag_283:\n        /* \"#utility.yul\":10291:10296   */\n      dup2\n        /* \"#utility.yul\":10288:10320   */\n      eq\n        /* \"#utility.yul\":10278:10338   */\n      tag_284\n      jumpi\n        /* \"#utility.yul\":10334:10335   */\n      0x00\n        /* \"#utility.yul\":10331:10332   */\n      0x00\n        /* \"#utility.yul\":10324:10336   */\n      revert\n        /* \"#utility.yul\":10278:10338   */\n    tag_284:\n        /* \"#utility.yul\":10228:10344   */\n      pop\n      jump\t// out\n        /* \"#utility.yul\":10350:10487   */\n    tag_175:\n        /* \"#utility.yul\":10404:10409   */\n      0x00\n        /* \"#utility.yul\":10435:10441   */\n      dup2\n        /* \"#utility.yul\":10429:10442   */\n      mload\n        /* \"#utility.yul\":10420:10442   */\n      swap1\n      pop\n        /* \"#utility.yul\":10451:10481   */\n      tag_286\n        /* \"#utility.yul\":10475:10480   */\n      dup2\n        /* \"#utility.yul\":10451:10481   */\n      tag_174\n      jump\t// in\n    tag_286:\n        /* \"#utility.yul\":10350:10487   */\n      swap3\n      swap2\n      pop\n      pop\n      jump\t// out\n        /* \"#utility.yul\":10493:10838   */\n    tag_117:\n        /* \"#utility.yul\":10560:10566   */\n      0x00\n        /* \"#utility.yul\":10609:10611   */\n      0x20\n        /* \"#utility.yul\":10597:10606   */\n      dup3\n        /* \"#utility.yul\":10588:10595   */\n      dup5\n        /* \"#utility.yul\":10584:10607   */\n      sub\n        /* \"#utility.yul\":10580:10612   */\n      slt\n        /* \"#utility.yul\":10577:10696   */\n      iszero\n      tag_288\n      jumpi\n        /* \"#utility.yul\":10615:10694   */\n      tag_289\n      tag_143\n      jump\t// in\n    tag_289:\n        /* \"#utility.yul\":10577:10696   */\n    tag_288:\n        /* \"#utility.yul\":10735:10736   */\n      0x00\n        /* \"#utility.yul\":10760:10821   */\n      tag_290\n        /* \"#utility.yul\":10813:10820   */\n      dup5\n        /* \"#utility.yul\":10804:10810   */\n      dup3\n        /* \"#utility.yul\":10793:10802   */\n      dup6\n        /* \"#utility.yul\":10789:10811   */\n      add\n        /* \"#utility.yul\":10760:10821   */\n      tag_175\n      jump\t// in\n    tag_290:\n        /* \"#utility.yul\":10750:10821   */\n      swap2\n      pop\n        /* \"#utility.yul\":10706:10831   */\n      pop\n        /* \"#utility.yul\":10493:10838   */\n      swap3\n      swap2\n      pop\n      pop\n      jump\t// out\n        /* \"#utility.yul\":10844:11018   */\n    tag_176:\n        /* \"#utility.yul\":10984:11010   */\n      0x5779706c617461206e6167726f6479206e69657564616e610000000000000000\n        /* \"#utility.yul\":10980:10981   */\n      0x00\n        /* \"#utility.yul\":10972:10978   */\n      dup3\n        /* \"#utility.yul\":10968:10982   */\n      add\n        /* \"#utility.yul\":10961:11011   */\n      mstore\n        /* \"#utility.yul\":10844:11018   */\n      pop\n      jump\t// out\n        /* \"#utility.yul\":11024:11390   */\n    tag_177:\n        /* \"#utility.yul\":11166:11169   */\n      0x00\n        /* \"#utility.yul\":11187:11254   */\n      tag_293\n        /* \"#utility.yul\":11251:11253   */\n      0x18\n        /* \"#utility.yul\":11246:11249   */\n      dup4\n        /* \"#utility.yul\":11187:11254   */\n      tag_160\n      jump\t// in\n    tag_293:\n        /* \"#utility.yul\":11180:11254   */\n      swap2\n      pop\n        /* \"#utility.yul\":11263:11356   */\n      tag_294\n        /* \"#utility.yul\":11352:11355   */\n      dup3\n        /* \"#utility.yul\":11263:11356   */\n      tag_176\n      jump\t// in\n    tag_294:\n        /* \"#utility.yul\":11381:11383   */\n      0x20\n        /* \"#utility.yul\":11376:11379   */\n      dup3\n        /* \"#utility.yul\":11372:11384   */\n      add\n        /* \"#utility.yul\":11365:11384   */\n      swap1\n      pop\n        /* \"#utility.yul\":11024:11390   */\n      swap2\n      swap1\n      pop\n      jump\t// out\n        /* \"#utility.yul\":11396:11815   */\n    tag_120:\n        /* \"#utility.yul\":11562:11566   */\n      0x00\n        /* \"#utility.yul\":11600:11602   */\n      0x20\n        /* \"#utility.yul\":11589:11598   */\n      dup3\n        /* \"#utility.yul\":11585:11603   */\n      add\n        /* \"#utility.yul\":11577:11603   */\n      swap1\n      pop\n        /* \"#utility.yul\":11649:11658   */\n      dup2\n        /* \"#utility.yul\":11643:11647   */\n      dup2\n        /* \"#utility.yul\":11639:11659   */\n      sub\n        /* \"#utility.yul\":11635:11636   */\n      0x00\n        /* \"#utility.yul\":11624:11633   */\n      dup4\n        /* \"#utility.yul\":11620:11637   */\n      add\n        /* \"#utility.yul\":11613:11660   */\n      mstore\n        /* \"#utility.yul\":11677:11808   */\n      tag_296\n        /* \"#utility.yul\":11803:11807   */\n      dup2\n        /* \"#utility.yul\":11677:11808   */\n      tag_177\n      jump\t// in\n    tag_296:\n        /* \"#utility.yul\":11669:11808   */\n      swap1\n      pop\n        /* \"#utility.yul\":11396:11815   */\n      swap2\n      swap1\n      pop\n      jump\t// out\n\n    auxdata: 0xa2646970667358221220e9248937d0dbfc512095ae51f7d8bea6eb1fde8253612002358b37dc39d7b86564736f6c63430008220033\n}\n",
				"bytecode": {
					"linkReferences": {},
					"object": "60806040526509184e72a000600155348015610019575f5ffd5b50604051611312380380611312833981810160405281019061003b9190610134565b600161005961004e6100a460201b60201c565b6100cd60201b60201c565b5f0181905550805f5f6101000a81548173ffffffffffffffffffffffffffffffffffffffff021916908373ffffffffffffffffffffffffffffffffffffffff1602179055505061015f565b5f7f9b779b17422d0df92223018b32b4d1fa46e071723d6817e2486d003becc55f005f1b905090565b5f819050919050565b5f5ffd5b5f73ffffffffffffffffffffffffffffffffffffffff82169050919050565b5f610103826100da565b9050919050565b610113816100f9565b811461011d575f5ffd5b50565b5f8151905061012e8161010a565b92915050565b5f60208284031215610149576101486100d6565b5b5f61015684828501610120565b91505092915050565b6111a68061016c5f395ff3fe60806040526004361061008f575f3560e01c806345bc78ab1161005857806345bc78ab146101795780637b0a47ee146101b5578063817b1cd2146101df578063b88a802f14610209578063f7c618c11461021f5761008f565b80628cc262146100935780630700037d146100cf5780632ce9aead1461010b5780632e1a7d4d146101475780633a4b66f11461016f575b5f5ffd5b34801561009e575f5ffd5b506100b960048036038101906100b49190610c2b565b610249565b6040516100c69190610c6e565b60405180910390f35b3480156100da575f5ffd5b506100f560048036038101906100f09190610c2b565b6103de565b6040516101029190610c6e565b60405180910390f35b348015610116575f5ffd5b50610131600480360381019061012c9190610c2b565b6103f3565b60405161013e9190610c6e565b60405180910390f35b348015610152575f5ffd5b5061016d60048036038101906101689190610cb1565b610408565b005b6101776106cd565b005b348015610184575f5ffd5b5061019f600480360381019061019a9190610c2b565b610868565b6040516101ac9190610c6e565b60405180910390f35b3480156101c0575f5ffd5b506101c961087d565b6040516101d69190610c6e565b60405180910390f35b3480156101ea575f5ffd5b506101f3610883565b6040516102009190610c6e565b60405180910390f35b348015610214575f5ffd5b5061021d610889565b005b34801561022a575f5ffd5b50610233610ade565b6040516102409190610d37565b60405180910390f35b5f5f60025f8473ffffffffffffffffffffffffffffffffffffffff1673ffffffffffffffffffffffffffffffffffffffff1681526020019081526020015f2054036102d35760045f8373ffffffffffffffffffffffffffffffffffffffff1673ffffffffffffffffffffffffffffffffffffffff1681526020019081526020015f205490506103d9565b5f60035f8473ffffffffffffffffffffffffffffffffffffffff1673ffffffffffffffffffffffffffffffffffffffff1681526020019081526020015f20544261031d9190610d7d565b90505f670de0b6b3a76400006001548360025f8873ffffffffffffffffffffffffffffffffffffffff1673ffffffffffffffffffffffffffffffffffffffff1681526020019081526020015f20546103759190610db0565b61037f9190610db0565b6103899190610e1e565b90508060045f8673ffffffffffffffffffffffffffffffffffffffff1673ffffffffffffffffffffffffffffffffffffffff1681526020019081526020015f20546103d49190610e4e565b925050505b919050565b6004602052805f5260405f205f915090505481565b6003602052805f5260405f205f915090505481565b610410610b02565b3361041a81610249565b60045f8373ffffffffffffffffffffffffffffffffffffffff1673ffffffffffffffffffffffffffffffffffffffff1681526020019081526020015f20819055504260035f8373ffffffffffffffffffffffffffffffffffffffff1673ffffffffffffffffffffffffffffffffffffffff1681526020019081526020015f20819055505f82116104df576040517f08c379a00000000000000000000000000000000000000000000000000000000081526004016104d690610edb565b60405180910390fd5b8160025f3373ffffffffffffffffffffffffffffffffffffffff1673ffffffffffffffffffffffffffffffffffffffff1681526020019081526020015f2054101561055f576040517f08c379a000000000000000000000000000000000000000000000000000000000815260040161055690610f43565b60405180910390fd5b8160025f3373ffffffffffffffffffffffffffffffffffffffff1673ffffffffffffffffffffffffffffffffffffffff1681526020019081526020015f205f8282546105ab9190610d7d565b925050819055508160055f8282546105c39190610d7d565b925050819055505f3373ffffffffffffffffffffffffffffffffffffffff16836040516105ef90610f8e565b5f6040518083038185875af1925050503d805f8114610629576040519150601f19603f3d011682016040523d82523d5f602084013e61062e565b606091505b5050905080610672576040517f08c379a000000000000000000000000000000000000000000000000000000000815260040161066990610fec565b60405180910390fd5b3373ffffffffffffffffffffffffffffffffffffffff167f7084f5476618d8e60b11ef0d7d3f06914655adb8793e28ff7f018d4c76d505d5846040516106b89190610c6e565b60405180910390a250506106ca610b24565b50565b6106d5610b02565b336106df81610249565b60045f8373ffffffffffffffffffffffffffffffffffffffff1673ffffffffffffffffffffffffffffffffffffffff1681526020019081526020015f20819055504260035f8373ffffffffffffffffffffffffffffffffffffffff1673ffffffffffffffffffffffffffffffffffffffff1681526020019081526020015f20819055505f34116107a4576040517f08c379a000000000000000000000000000000000000000000000000000000000815260040161079b90611054565b60405180910390fd5b3460025f3373ffffffffffffffffffffffffffffffffffffffff1673ffffffffffffffffffffffffffffffffffffffff1681526020019081526020015f205f8282546107f09190610e4e565b925050819055503460055f8282546108089190610e4e565b925050819055503373ffffffffffffffffffffffffffffffffffffffff167f9e71bc8eea02a63969f509818f2dafb9254532904319f9dbda79b67bd34a5f3d346040516108559190610c6e565b60405180910390a250610866610b24565b565b6002602052805f5260405f205f915090505481565b60015481565b60055481565b610891610b02565b3361089b81610249565b60045f8373ffffffffffffffffffffffffffffffffffffffff1673ffffffffffffffffffffffffffffffffffffffff1681526020019081526020015f20819055504260035f8373ffffffffffffffffffffffffffffffffffffffff1673ffffffffffffffffffffffffffffffffffffffff1681526020019081526020015f20819055505f60045f3373ffffffffffffffffffffffffffffffffffffffff1673ffffffffffffffffffffffffffffffffffffffff1681526020019081526020015f205490505f811115610ad2575f60045f3373ffffffffffffffffffffffffffffffffffffffff1673ffffffffffffffffffffffffffffffffffffffff1681526020019081526020015f20819055505f5f9054906101000a900473ffffffffffffffffffffffffffffffffffffffff1673ffffffffffffffffffffffffffffffffffffffff1663a9059cbb33836040518363ffffffff1660e01b8152600401610a04929190611081565b6020604051808303815f875af1158015610a20573d5f5f3e3d5ffd5b505050506040513d601f19601f82011682018060405250810190610a4491906110dd565b610a83576040517f08c379a0000000000000000000000000000000000000000000000000000000008152600401610a7a90611152565b60405180910390fd5b3373ffffffffffffffffffffffffffffffffffffffff167fe2403640ba68fed3a2f88b7557551d1993f84b99bb10ff833f0cf8db0c5e048682604051610ac99190610c6e565b60405180910390a25b5050610adc610b24565b565b5f5f9054906101000a900473ffffffffffffffffffffffffffffffffffffffff1681565b610b0a610b3e565b6002610b1c610b17610b7f565b610ba8565b5f0181905550565b6001610b36610b31610b7f565b610ba8565b5f0181905550565b610b46610bb1565b15610b7d576040517f3ee5aeb500000000000000000000000000000000000000000000000000000000815260040160405180910390fd5b565b5f7f9b779b17422d0df92223018b32b4d1fa46e071723d6817e2486d003becc55f005f1b905090565b5f819050919050565b5f6002610bc4610bbf610b7f565b610ba8565b5f015414905090565b5f5ffd5b5f73ffffffffffffffffffffffffffffffffffffffff82169050919050565b5f610bfa82610bd1565b9050919050565b610c0a81610bf0565b8114610c14575f5ffd5b50565b5f81359050610c2581610c01565b92915050565b5f60208284031215610c4057610c3f610bcd565b5b5f610c4d84828501610c17565b91505092915050565b5f819050919050565b610c6881610c56565b82525050565b5f602082019050610c815f830184610c5f565b92915050565b610c9081610c56565b8114610c9a575f5ffd5b50565b5f81359050610cab81610c87565b92915050565b5f60208284031215610cc657610cc5610bcd565b5b5f610cd384828501610c9d565b91505092915050565b5f819050919050565b5f610cff610cfa610cf584610bd1565b610cdc565b610bd1565b9050919050565b5f610d1082610ce5565b9050919050565b5f610d2182610d06565b9050919050565b610d3181610d17565b82525050565b5f602082019050610d4a5f830184610d28565b92915050565b7f4e487b71000000000000000000000000000000000000000000000000000000005f52601160045260245ffd5b5f610d8782610c56565b9150610d9283610c56565b9250828203905081811115610daa57610da9610d50565b5b92915050565b5f610dba82610c56565b9150610dc583610c56565b9250828202610dd381610c56565b91508282048414831517610dea57610de9610d50565b5b5092915050565b7f4e487b71000000000000000000000000000000000000000000000000000000005f52601260045260245ffd5b5f610e2882610c56565b9150610e3383610c56565b925082610e4357610e42610df1565b5b828204905092915050565b5f610e5882610c56565b9150610e6383610c56565b9250828201905080821115610e7b57610e7a610d50565b5b92915050565b5f82825260208201905092915050565b7f4b776f7461206d75736920627963207769656b737a61206e697a2030000000005f82015250565b5f610ec5601c83610e81565b9150610ed082610e91565b602082019050919050565b5f6020820190508181035f830152610ef281610eb9565b9050919050565b7f5a61206d616c6f207a61626c6f6b6f77616e7963682073726f646b6f770000005f82015250565b5f610f2d601d83610e81565b9150610f3882610ef9565b602082019050919050565b5f6020820190508181035f830152610f5a81610f21565b9050919050565b5f81905092915050565b50565b5f610f795f83610f61565b9150610f8482610f6b565b5f82019050919050565b5f610f9882610f6e565b9150819050919050565b7f5472616e73666572207a77726f746e7920455448206e69657564616e790000005f82015250565b5f610fd6601d83610e81565b9150610fe182610fa2565b602082019050919050565b5f6020820190508181035f83015261100381610fca565b9050919050565b7f4b776f7461206d75736920627963207769656b737a61206e697a2030204554485f82015250565b5f61103e602083610e81565b91506110498261100a565b602082019050919050565b5f6020820190508181035f83015261106b81611032565b9050919050565b61107b81610bf0565b82525050565b5f6040820190506110945f830185611072565b6110a16020830184610c5f565b9392505050565b5f8115159050919050565b6110bc816110a8565b81146110c6575f5ffd5b50565b5f815190506110d7816110b3565b92915050565b5f602082840312156110f2576110f1610bcd565b5b5f6110ff848285016110c9565b91505092915050565b7f5779706c617461206e6167726f6479206e69657564616e6100000000000000005f82015250565b5f61113c601883610e81565b915061114782611108565b602082019050919050565b5f6020820190508181035f83015261116981611130565b905091905056fea2646970667358221220e9248937d0dbfc512095ae51f7d8bea6eb1fde8253612002358b37dc39d7b86564736f6c63430008220033",
					"opcodes": "PUSH1 0x80 PUSH1 0x40 MSTORE PUSH6 0x9184E72A000 PUSH1 0x1 SSTORE CALLVALUE DUP1 ISZERO PUSH2 0x19 JUMPI PUSH0 PUSH0 REVERT JUMPDEST POP PUSH1 0x40 MLOAD PUSH2 0x1312 CODESIZE SUB DUP1 PUSH2 0x1312 DUP4 CODECOPY DUP2 DUP2 ADD PUSH1 0x40 MSTORE DUP2 ADD SWAP1 PUSH2 0x3B SWAP2 SWAP1 PUSH2 0x134 JUMP JUMPDEST PUSH1 0x1 PUSH2 0x59 PUSH2 0x4E PUSH2 0xA4 PUSH1 0x20 SHL PUSH1 0x20 SHR JUMP JUMPDEST PUSH2 0xCD PUSH1 0x20 SHL PUSH1 0x20 SHR JUMP JUMPDEST PUSH0 ADD DUP2 SWAP1 SSTORE POP DUP1 PUSH0 PUSH0 PUSH2 0x100 EXP DUP2 SLOAD DUP2 PUSH20 0xFFFFFFFFFFFFFFFFFFFFFFFFFFFFFFFFFFFFFFFF MUL NOT AND SWAP1 DUP4 PUSH20 0xFFFFFFFFFFFFFFFFFFFFFFFFFFFFFFFFFFFFFFFF AND MUL OR SWAP1 SSTORE POP POP PUSH2 0x15F JUMP JUMPDEST PUSH0 PUSH32 0x9B779B17422D0DF92223018B32B4D1FA46E071723D6817E2486D003BECC55F00 PUSH0 SHL SWAP1 POP SWAP1 JUMP JUMPDEST PUSH0 DUP2 SWAP1 POP SWAP2 SWAP1 POP JUMP JUMPDEST PUSH0 PUSH0 REVERT JUMPDEST PUSH0 PUSH20 0xFFFFFFFFFFFFFFFFFFFFFFFFFFFFFFFFFFFFFFFF DUP3 AND SWAP1 POP SWAP2 SWAP1 POP JUMP JUMPDEST PUSH0 PUSH2 0x103 DUP3 PUSH2 0xDA JUMP JUMPDEST SWAP1 POP SWAP2 SWAP1 POP JUMP JUMPDEST PUSH2 0x113 DUP2 PUSH2 0xF9 JUMP JUMPDEST DUP2 EQ PUSH2 0x11D JUMPI PUSH0 PUSH0 REVERT JUMPDEST POP JUMP JUMPDEST PUSH0 DUP2 MLOAD SWAP1 POP PUSH2 0x12E DUP2 PUSH2 0x10A JUMP JUMPDEST SWAP3 SWAP2 POP POP JUMP JUMPDEST PUSH0 PUSH1 0x20 DUP3 DUP5 SUB SLT ISZERO PUSH2 0x149 JUMPI PUSH2 0x148 PUSH2 0xD6 JUMP JUMPDEST JUMPDEST PUSH0 PUSH2 0x156 DUP5 DUP3 DUP6 ADD PUSH2 0x120 JUMP JUMPDEST SWAP2 POP POP SWAP3 SWAP2 POP POP JUMP JUMPDEST PUSH2 0x11A6 DUP1 PUSH2 0x16C PUSH0 CODECOPY PUSH0 RETURN INVALID PUSH1 0x80 PUSH1 0x40 MSTORE PUSH1 0x4 CALLDATASIZE LT PUSH2 0x8F JUMPI PUSH0 CALLDATALOAD PUSH1 0xE0 SHR DUP1 PUSH4 0x45BC78AB GT PUSH2 0x58 JUMPI DUP1 PUSH4 0x45BC78AB EQ PUSH2 0x179 JUMPI DUP1 PUSH4 0x7B0A47EE EQ PUSH2 0x1B5 JUMPI DUP1 PUSH4 0x817B1CD2 EQ PUSH2 0x1DF JUMPI DUP1 PUSH4 0xB88A802F EQ PUSH2 0x209 JUMPI DUP1 PUSH4 0xF7C618C1 EQ PUSH2 0x21F JUMPI PUSH2 0x8F JUMP JUMPDEST DUP1 PUSH3 0x8CC262 EQ PUSH2 0x93 JUMPI DUP1 PUSH4 0x700037D EQ PUSH2 0xCF JUMPI DUP1 PUSH4 0x2CE9AEAD EQ PUSH2 0x10B JUMPI DUP1 PUSH4 0x2E1A7D4D EQ PUSH2 0x147 JUMPI DUP1 PUSH4 0x3A4B66F1 EQ PUSH2 0x16F JUMPI JUMPDEST PUSH0 PUSH0 REVERT JUMPDEST CALLVALUE DUP1 ISZERO PUSH2 0x9E JUMPI PUSH0 PUSH0 REVERT JUMPDEST POP PUSH2 0xB9 PUSH1 0x4 DUP1 CALLDATASIZE SUB DUP2 ADD SWAP1 PUSH2 0xB4 SWAP2 SWAP1 PUSH2 0xC2B JUMP JUMPDEST PUSH2 0x249 JUMP JUMPDEST PUSH1 0x40 MLOAD PUSH2 0xC6 SWAP2 SWAP1 PUSH2 0xC6E JUMP JUMPDEST PUSH1 0x40 MLOAD DUP1 SWAP2 SUB SWAP1 RETURN JUMPDEST CALLVALUE DUP1 ISZERO PUSH2 0xDA JUMPI PUSH0 PUSH0 REVERT JUMPDEST POP PUSH2 0xF5 PUSH1 0x4 DUP1 CALLDATASIZE SUB DUP2 ADD SWAP1 PUSH2 0xF0 SWAP2 SWAP1 PUSH2 0xC2B JUMP JUMPDEST PUSH2 0x3DE JUMP JUMPDEST PUSH1 0x40 MLOAD PUSH2 0x102 SWAP2 SWAP1 PUSH2 0xC6E JUMP JUMPDEST PUSH1 0x40 MLOAD DUP1 SWAP2 SUB SWAP1 RETURN JUMPDEST CALLVALUE DUP1 ISZERO PUSH2 0x116 JUMPI PUSH0 PUSH0 REVERT JUMPDEST POP PUSH2 0x131 PUSH1 0x4 DUP1 CALLDATASIZE SUB DUP2 ADD SWAP1 PUSH2 0x12C SWAP2 SWAP1 PUSH2 0xC2B JUMP JUMPDEST PUSH2 0x3F3 JUMP JUMPDEST PUSH1 0x40 MLOAD PUSH2 0x13E SWAP2 SWAP1 PUSH2 0xC6E JUMP JUMPDEST PUSH1 0x40 MLOAD DUP1 SWAP2 SUB SWAP1 RETURN JUMPDEST CALLVALUE DUP1 ISZERO PUSH2 0x152 JUMPI PUSH0 PUSH0 REVERT JUMPDEST POP PUSH2 0x16D PUSH1 0x4 DUP1 CALLDATASIZE SUB DUP2 ADD SWAP1 PUSH2 0x168 SWAP2 SWAP1 PUSH2 0xCB1 JUMP JUMPDEST PUSH2 0x408 JUMP JUMPDEST STOP JUMPDEST PUSH2 0x177 PUSH2 0x6CD JUMP JUMPDEST STOP JUMPDEST CALLVALUE DUP1 ISZERO PUSH2 0x184 JUMPI PUSH0 PUSH0 REVERT JUMPDEST POP PUSH2 0x19F PUSH1 0x4 DUP1 CALLDATASIZE SUB DUP2 ADD SWAP1 PUSH2 0x19A SWAP2 SWAP1 PUSH2 0xC2B JUMP JUMPDEST PUSH2 0x868 JUMP JUMPDEST PUSH1 0x40 MLOAD PUSH2 0x1AC SWAP2 SWAP1 PUSH2 0xC6E JUMP JUMPDEST PUSH1 0x40 MLOAD DUP1 SWAP2 SUB SWAP1 RETURN JUMPDEST CALLVALUE DUP1 ISZERO PUSH2 0x1C0 JUMPI PUSH0 PUSH0 REVERT JUMPDEST POP PUSH2 0x1C9 PUSH2 0x87D JUMP JUMPDEST PUSH1 0x40 MLOAD PUSH2 0x1D6 SWAP2 SWAP1 PUSH2 0xC6E JUMP JUMPDEST PUSH1 0x40 MLOAD DUP1 SWAP2 SUB SWAP1 RETURN JUMPDEST CALLVALUE DUP1 ISZERO PUSH2 0x1EA JUMPI PUSH0 PUSH0 REVERT JUMPDEST POP PUSH2 0x1F3 PUSH2 0x883 JUMP JUMPDEST PUSH1 0x40 MLOAD PUSH2 0x200 SWAP2 SWAP1 PUSH2 0xC6E JUMP JUMPDEST PUSH1 0x40 MLOAD DUP1 SWAP2 SUB SWAP1 RETURN JUMPDEST CALLVALUE DUP1 ISZERO PUSH2 0x214 JUMPI PUSH0 PUSH0 REVERT JUMPDEST POP PUSH2 0x21D PUSH2 0x889 JUMP JUMPDEST STOP JUMPDEST CALLVALUE DUP1 ISZERO PUSH2 0x22A JUMPI PUSH0 PUSH0 REVERT JUMPDEST POP PUSH2 0x233 PUSH2 0xADE JUMP JUMPDEST PUSH1 0x40 MLOAD PUSH2 0x240 SWAP2 SWAP1 PUSH2 0xD37 JUMP JUMPDEST PUSH1 0x40 MLOAD DUP1 SWAP2 SUB SWAP1 RETURN JUMPDEST PUSH0 PUSH0 PUSH1 0x2 PUSH0 DUP5 PUSH20 0xFFFFFFFFFFFFFFFFFFFFFFFFFFFFFFFFFFFFFFFF AND PUSH20 0xFFFFFFFFFFFFFFFFFFFFFFFFFFFFFFFFFFFFFFFF AND DUP2 MSTORE PUSH1 0x20 ADD SWAP1 DUP2 MSTORE PUSH1 0x20 ADD PUSH0 KECCAK256 SLOAD SUB PUSH2 0x2D3 JUMPI PUSH1 0x4 PUSH0 DUP4 PUSH20 0xFFFFFFFFFFFFFFFFFFFFFFFFFFFFFFFFFFFFFFFF AND PUSH20 0xFFFFFFFFFFFFFFFFFFFFFFFFFFFFFFFFFFFFFFFF AND DUP2 MSTORE PUSH1 0x20 ADD SWAP1 DUP2 MSTORE PUSH1 0x20 ADD PUSH0 KECCAK256 SLOAD SWAP1 POP PUSH2 0x3D9 JUMP JUMPDEST PUSH0 PUSH1 0x3 PUSH0 DUP5 PUSH20 0xFFFFFFFFFFFFFFFFFFFFFFFFFFFFFFFFFFFFFFFF AND PUSH20 0xFFFFFFFFFFFFFFFFFFFFFFFFFFFFFFFFFFFFFFFF AND DUP2 MSTORE PUSH1 0x20 ADD SWAP1 DUP2 MSTORE PUSH1 0x20 ADD PUSH0 KECCAK256 SLOAD TIMESTAMP PUSH2 0x31D SWAP2 SWAP1 PUSH2 0xD7D JUMP JUMPDEST SWAP1 POP PUSH0 PUSH8 0xDE0B6B3A7640000 PUSH1 0x1 SLOAD DUP4 PUSH1 0x2 PUSH0 DUP9 PUSH20 0xFFFFFFFFFFFFFFFFFFFFFFFFFFFFFFFFFFFFFFFF AND PUSH20 0xFFFFFFFFFFFFFFFFFFFFFFFFFFFFFFFFFFFFFFFF AND DUP2 MSTORE PUSH1 0x20 ADD SWAP1 DUP2 MSTORE PUSH1 0x20 ADD PUSH0 KECCAK256 SLOAD PUSH2 0x375 SWAP2 SWAP1 PUSH2 0xDB0 JUMP JUMPDEST PUSH2 0x37F SWAP2 SWAP1 PUSH2 0xDB0 JUMP JUMPDEST PUSH2 0x389 SWAP2 SWAP1 PUSH2 0xE1E JUMP JUMPDEST SWAP1 POP DUP1 PUSH1 0x4 PUSH0 DUP7 PUSH20 0xFFFFFFFFFFFFFFFFFFFFFFFFFFFFFFFFFFFFFFFF AND PUSH20 0xFFFFFFFFFFFFFFFFFFFFFFFFFFFFFFFFFFFFFFFF AND DUP2 MSTORE PUSH1 0x20 ADD SWAP1 DUP2 MSTORE PUSH1 0x20 ADD PUSH0 KECCAK256 SLOAD PUSH2 0x3D4 SWAP2 SWAP1 PUSH2 0xE4E JUMP JUMPDEST SWAP3 POP POP POP JUMPDEST SWAP2 SWAP1 POP JUMP JUMPDEST PUSH1 0x4 PUSH1 0x20 MSTORE DUP1 PUSH0 MSTORE PUSH1 0x40 PUSH0 KECCAK256 PUSH0 SWAP2 POP SWAP1 POP SLOAD DUP2 JUMP JUMPDEST PUSH1 0x3 PUSH1 0x20 MSTORE DUP1 PUSH0 MSTORE PUSH1 0x40 PUSH0 KECCAK256 PUSH0 SWAP2 POP SWAP1 POP SLOAD DUP2 JUMP JUMPDEST PUSH2 0x410 PUSH2 0xB02 JUMP JUMPDEST CALLER PUSH2 0x41A DUP2 PUSH2 0x249 JUMP JUMPDEST PUSH1 0x4 PUSH0 DUP4 PUSH20 0xFFFFFFFFFFFFFFFFFFFFFFFFFFFFFFFFFFFFFFFF AND PUSH20 0xFFFFFFFFFFFFFFFFFFFFFFFFFFFFFFFFFFFFFFFF AND DUP2 MSTORE PUSH1 0x20 ADD SWAP1 DUP2 MSTORE PUSH1 0x20 ADD PUSH0 KECCAK256 DUP2 SWAP1 SSTORE POP TIMESTAMP PUSH1 0x3 PUSH0 DUP4 PUSH20 0xFFFFFFFFFFFFFFFFFFFFFFFFFFFFFFFFFFFFFFFF AND PUSH20 0xFFFFFFFFFFFFFFFFFFFFFFFFFFFFFFFFFFFFFFFF AND DUP2 MSTORE PUSH1 0x20 ADD SWAP1 DUP2 MSTORE PUSH1 0x20 ADD PUSH0 KECCAK256 DUP2 SWAP1 SSTORE POP PUSH0 DUP3 GT PUSH2 0x4DF JUMPI PUSH1 0x40 MLOAD PUSH32 0x8C379A000000000000000000000000000000000000000000000000000000000 DUP2 MSTORE PUSH1 0x4 ADD PUSH2 0x4D6 SWAP1 PUSH2 0xEDB JUMP JUMPDEST PUSH1 0x40 MLOAD DUP1 SWAP2 SUB SWAP1 REVERT JUMPDEST DUP2 PUSH1 0x2 PUSH0 CALLER PUSH20 0xFFFFFFFFFFFFFFFFFFFFFFFFFFFFFFFFFFFFFFFF AND PUSH20 0xFFFFFFFFFFFFFFFFFFFFFFFFFFFFFFFFFFFFFFFF AND DUP2 MSTORE PUSH1 0x20 ADD SWAP1 DUP2 MSTORE PUSH1 0x20 ADD PUSH0 KECCAK256 SLOAD LT ISZERO PUSH2 0x55F JUMPI PUSH1 0x40 MLOAD PUSH32 0x8C379A000000000000000000000000000000000000000000000000000000000 DUP2 MSTORE PUSH1 0x4 ADD PUSH2 0x556 SWAP1 PUSH2 0xF43 JUMP JUMPDEST PUSH1 0x40 MLOAD DUP1 SWAP2 SUB SWAP1 REVERT JUMPDEST DUP2 PUSH1 0x2 PUSH0 CALLER PUSH20 0xFFFFFFFFFFFFFFFFFFFFFFFFFFFFFFFFFFFFFFFF AND PUSH20 0xFFFFFFFFFFFFFFFFFFFFFFFFFFFFFFFFFFFFFFFF AND DUP2 MSTORE PUSH1 0x20 ADD SWAP1 DUP2 MSTORE PUSH1 0x20 ADD PUSH0 KECCAK256 PUSH0 DUP3 DUP3 SLOAD PUSH2 0x5AB SWAP2 SWAP1 PUSH2 0xD7D JUMP JUMPDEST SWAP3 POP POP DUP2 SWAP1 SSTORE POP DUP2 PUSH1 0x5 PUSH0 DUP3 DUP3 SLOAD PUSH2 0x5C3 SWAP2 SWAP1 PUSH2 0xD7D JUMP JUMPDEST SWAP3 POP POP DUP2 SWAP1 SSTORE POP PUSH0 CALLER PUSH20 0xFFFFFFFFFFFFFFFFFFFFFFFFFFFFFFFFFFFFFFFF AND DUP4 PUSH1 0x40 MLOAD PUSH2 0x5EF SWAP1 PUSH2 0xF8E JUMP JUMPDEST PUSH0 PUSH1 0x40 MLOAD DUP1 DUP4 SUB DUP2 DUP6 DUP8 GAS CALL SWAP3 POP POP POP RETURNDATASIZE DUP1 PUSH0 DUP2 EQ PUSH2 0x629 JUMPI PUSH1 0x40 MLOAD SWAP2 POP PUSH1 0x1F NOT PUSH1 0x3F RETURNDATASIZE ADD AND DUP3 ADD PUSH1 0x40 MSTORE RETURNDATASIZE DUP3 MSTORE RETURNDATASIZE PUSH0 PUSH1 0x20 DUP5 ADD RETURNDATACOPY PUSH2 0x62E JUMP JUMPDEST PUSH1 0x60 SWAP2 POP JUMPDEST POP POP SWAP1 POP DUP1 PUSH2 0x672 JUMPI PUSH1 0x40 MLOAD PUSH32 0x8C379A000000000000000000000000000000000000000000000000000000000 DUP2 MSTORE PUSH1 0x4 ADD PUSH2 0x669 SWAP1 PUSH2 0xFEC JUMP JUMPDEST PUSH1 0x40 MLOAD DUP1 SWAP2 SUB SWAP1 REVERT JUMPDEST CALLER PUSH20 0xFFFFFFFFFFFFFFFFFFFFFFFFFFFFFFFFFFFFFFFF AND PUSH32 0x7084F5476618D8E60B11EF0D7D3F06914655ADB8793E28FF7F018D4C76D505D5 DUP5 PUSH1 0x40 MLOAD PUSH2 0x6B8 SWAP2 SWAP1 PUSH2 0xC6E JUMP JUMPDEST PUSH1 0x40 MLOAD DUP1 SWAP2 SUB SWAP1 LOG2 POP POP PUSH2 0x6CA PUSH2 0xB24 JUMP JUMPDEST POP JUMP JUMPDEST PUSH2 0x6D5 PUSH2 0xB02 JUMP JUMPDEST CALLER PUSH2 0x6DF DUP2 PUSH2 0x249 JUMP JUMPDEST PUSH1 0x4 PUSH0 DUP4 PUSH20 0xFFFFFFFFFFFFFFFFFFFFFFFFFFFFFFFFFFFFFFFF AND PUSH20 0xFFFFFFFFFFFFFFFFFFFFFFFFFFFFFFFFFFFFFFFF AND DUP2 MSTORE PUSH1 0x20 ADD SWAP1 DUP2 MSTORE PUSH1 0x20 ADD PUSH0 KECCAK256 DUP2 SWAP1 SSTORE POP TIMESTAMP PUSH1 0x3 PUSH0 DUP4 PUSH20 0xFFFFFFFFFFFFFFFFFFFFFFFFFFFFFFFFFFFFFFFF AND PUSH20 0xFFFFFFFFFFFFFFFFFFFFFFFFFFFFFFFFFFFFFFFF AND DUP2 MSTORE PUSH1 0x20 ADD SWAP1 DUP2 MSTORE PUSH1 0x20 ADD PUSH0 KECCAK256 DUP2 SWAP1 SSTORE POP PUSH0 CALLVALUE GT PUSH2 0x7A4 JUMPI PUSH1 0x40 MLOAD PUSH32 0x8C379A000000000000000000000000000000000000000000000000000000000 DUP2 MSTORE PUSH1 0x4 ADD PUSH2 0x79B SWAP1 PUSH2 0x1054 JUMP JUMPDEST PUSH1 0x40 MLOAD DUP1 SWAP2 SUB SWAP1 REVERT JUMPDEST CALLVALUE PUSH1 0x2 PUSH0 CALLER PUSH20 0xFFFFFFFFFFFFFFFFFFFFFFFFFFFFFFFFFFFFFFFF AND PUSH20 0xFFFFFFFFFFFFFFFFFFFFFFFFFFFFFFFFFFFFFFFF AND DUP2 MSTORE PUSH1 0x20 ADD SWAP1 DUP2 MSTORE PUSH1 0x20 ADD PUSH0 KECCAK256 PUSH0 DUP3 DUP3 SLOAD PUSH2 0x7F0 SWAP2 SWAP1 PUSH2 0xE4E JUMP JUMPDEST SWAP3 POP POP DUP2 SWAP1 SSTORE POP CALLVALUE PUSH1 0x5 PUSH0 DUP3 DUP3 SLOAD PUSH2 0x808 SWAP2 SWAP1 PUSH2 0xE4E JUMP JUMPDEST SWAP3 POP POP DUP2 SWAP1 SSTORE POP CALLER PUSH20 0xFFFFFFFFFFFFFFFFFFFFFFFFFFFFFFFFFFFFFFFF AND PUSH32 0x9E71BC8EEA02A63969F509818F2DAFB9254532904319F9DBDA79B67BD34A5F3D CALLVALUE PUSH1 0x40 MLOAD PUSH2 0x855 SWAP2 SWAP1 PUSH2 0xC6E JUMP JUMPDEST PUSH1 0x40 MLOAD DUP1 SWAP2 SUB SWAP1 LOG2 POP PUSH2 0x866 PUSH2 0xB24 JUMP JUMPDEST JUMP JUMPDEST PUSH1 0x2 PUSH1 0x20 MSTORE DUP1 PUSH0 MSTORE PUSH1 0x40 PUSH0 KECCAK256 PUSH0 SWAP2 POP SWAP1 POP SLOAD DUP2 JUMP JUMPDEST PUSH1 0x1 SLOAD DUP2 JUMP JUMPDEST PUSH1 0x5 SLOAD DUP2 JUMP JUMPDEST PUSH2 0x891 PUSH2 0xB02 JUMP JUMPDEST CALLER PUSH2 0x89B DUP2 PUSH2 0x249 JUMP JUMPDEST PUSH1 0x4 PUSH0 DUP4 PUSH20 0xFFFFFFFFFFFFFFFFFFFFFFFFFFFFFFFFFFFFFFFF AND PUSH20 0xFFFFFFFFFFFFFFFFFFFFFFFFFFFFFFFFFFFFFFFF AND DUP2 MSTORE PUSH1 0x20 ADD SWAP1 DUP2 MSTORE PUSH1 0x20 ADD PUSH0 KECCAK256 DUP2 SWAP1 SSTORE POP TIMESTAMP PUSH1 0x3 PUSH0 DUP4 PUSH20 0xFFFFFFFFFFFFFFFFFFFFFFFFFFFFFFFFFFFFFFFF AND PUSH20 0xFFFFFFFFFFFFFFFFFFFFFFFFFFFFFFFFFFFFFFFF AND DUP2 MSTORE PUSH1 0x20 ADD SWAP1 DUP2 MSTORE PUSH1 0x20 ADD PUSH0 KECCAK256 DUP2 SWAP1 SSTORE POP PUSH0 PUSH1 0x4 PUSH0 CALLER PUSH20 0xFFFFFFFFFFFFFFFFFFFFFFFFFFFFFFFFFFFFFFFF AND PUSH20 0xFFFFFFFFFFFFFFFFFFFFFFFFFFFFFFFFFFFFFFFF AND DUP2 MSTORE PUSH1 0x20 ADD SWAP1 DUP2 MSTORE PUSH1 0x20 ADD PUSH0 KECCAK256 SLOAD SWAP1 POP PUSH0 DUP2 GT ISZERO PUSH2 0xAD2 JUMPI PUSH0 PUSH1 0x4 PUSH0 CALLER PUSH20 0xFFFFFFFFFFFFFFFFFFFFFFFFFFFFFFFFFFFFFFFF AND PUSH20 0xFFFFFFFFFFFFFFFFFFFFFFFFFFFFFFFFFFFFFFFF AND DUP2 MSTORE PUSH1 0x20 ADD SWAP1 DUP2 MSTORE PUSH1 0x20 ADD PUSH0 KECCAK256 DUP2 SWAP1 SSTORE POP PUSH0 PUSH0 SWAP1 SLOAD SWAP1 PUSH2 0x100 EXP SWAP1 DIV PUSH20 0xFFFFFFFFFFFFFFFFFFFFFFFFFFFFFFFFFFFFFFFF AND PUSH20 0xFFFFFFFFFFFFFFFFFFFFFFFFFFFFFFFFFFFFFFFF AND PUSH4 0xA9059CBB CALLER DUP4 PUSH1 0x40 MLOAD DUP4 PUSH4 0xFFFFFFFF AND PUSH1 0xE0 SHL DUP2 MSTORE PUSH1 0x4 ADD PUSH2 0xA04 SWAP3 SWAP2 SWAP1 PUSH2 0x1081 JUMP JUMPDEST PUSH1 0x20 PUSH1 0x40 MLOAD DUP1 DUP4 SUB DUP2 PUSH0 DUP8 GAS CALL ISZERO DUP1 ISZERO PUSH2 0xA20 JUMPI RETURNDATASIZE PUSH0 PUSH0 RETURNDATACOPY RETURNDATASIZE PUSH0 REVERT JUMPDEST POP POP POP POP PUSH1 0x40 MLOAD RETURNDATASIZE PUSH1 0x1F NOT PUSH1 0x1F DUP3 ADD AND DUP3 ADD DUP1 PUSH1 0x40 MSTORE POP DUP2 ADD SWAP1 PUSH2 0xA44 SWAP2 SWAP1 PUSH2 0x10DD JUMP JUMPDEST PUSH2 0xA83 JUMPI PUSH1 0x40 MLOAD PUSH32 0x8C379A000000000000000000000000000000000000000000000000000000000 DUP2 MSTORE PUSH1 0x4 ADD PUSH2 0xA7A SWAP1 PUSH2 0x1152 JUMP JUMPDEST PUSH1 0x40 MLOAD DUP1 SWAP2 SUB SWAP1 REVERT JUMPDEST CALLER PUSH20 0xFFFFFFFFFFFFFFFFFFFFFFFFFFFFFFFFFFFFFFFF AND PUSH32 0xE2403640BA68FED3A2F88B7557551D1993F84B99BB10FF833F0CF8DB0C5E0486 DUP3 PUSH1 0x40 MLOAD PUSH2 0xAC9 SWAP2 SWAP1 PUSH2 0xC6E JUMP JUMPDEST PUSH1 0x40 MLOAD DUP1 SWAP2 SUB SWAP1 LOG2 JUMPDEST POP POP PUSH2 0xADC PUSH2 0xB24 JUMP JUMPDEST JUMP JUMPDEST PUSH0 PUSH0 SWAP1 SLOAD SWAP1 PUSH2 0x100 EXP SWAP1 DIV PUSH20 0xFFFFFFFFFFFFFFFFFFFFFFFFFFFFFFFFFFFFFFFF AND DUP2 JUMP JUMPDEST PUSH2 0xB0A PUSH2 0xB3E JUMP JUMPDEST PUSH1 0x2 PUSH2 0xB1C PUSH2 0xB17 PUSH2 0xB7F JUMP JUMPDEST PUSH2 0xBA8 JUMP JUMPDEST PUSH0 ADD DUP2 SWAP1 SSTORE POP JUMP JUMPDEST PUSH1 0x1 PUSH2 0xB36 PUSH2 0xB31 PUSH2 0xB7F JUMP JUMPDEST PUSH2 0xBA8 JUMP JUMPDEST PUSH0 ADD DUP2 SWAP1 SSTORE POP JUMP JUMPDEST PUSH2 0xB46 PUSH2 0xBB1 JUMP JUMPDEST ISZERO PUSH2 0xB7D JUMPI PUSH1 0x40 MLOAD PUSH32 0x3EE5AEB500000000000000000000000000000000000000000000000000000000 DUP2 MSTORE PUSH1 0x4 ADD PUSH1 0x40 MLOAD DUP1 SWAP2 SUB SWAP1 REVERT JUMPDEST JUMP JUMPDEST PUSH0 PUSH32 0x9B779B17422D0DF92223018B32B4D1FA46E071723D6817E2486D003BECC55F00 PUSH0 SHL SWAP1 POP SWAP1 JUMP JUMPDEST PUSH0 DUP2 SWAP1 POP SWAP2 SWAP1 POP JUMP JUMPDEST PUSH0 PUSH1 0x2 PUSH2 0xBC4 PUSH2 0xBBF PUSH2 0xB7F JUMP JUMPDEST PUSH2 0xBA8 JUMP JUMPDEST PUSH0 ADD SLOAD EQ SWAP1 POP SWAP1 JUMP JUMPDEST PUSH0 PUSH0 REVERT JUMPDEST PUSH0 PUSH20 0xFFFFFFFFFFFFFFFFFFFFFFFFFFFFFFFFFFFFFFFF DUP3 AND SWAP1 POP SWAP2 SWAP1 POP JUMP JUMPDEST PUSH0 PUSH2 0xBFA DUP3 PUSH2 0xBD1 JUMP JUMPDEST SWAP1 POP SWAP2 SWAP1 POP JUMP JUMPDEST PUSH2 0xC0A DUP2 PUSH2 0xBF0 JUMP JUMPDEST DUP2 EQ PUSH2 0xC14 JUMPI PUSH0 PUSH0 REVERT JUMPDEST POP JUMP JUMPDEST PUSH0 DUP2 CALLDATALOAD SWAP1 POP PUSH2 0xC25 DUP2 PUSH2 0xC01 JUMP JUMPDEST SWAP3 SWAP2 POP POP JUMP JUMPDEST PUSH0 PUSH1 0x20 DUP3 DUP5 SUB SLT ISZERO PUSH2 0xC40 JUMPI PUSH2 0xC3F PUSH2 0xBCD JUMP JUMPDEST JUMPDEST PUSH0 PUSH2 0xC4D DUP5 DUP3 DUP6 ADD PUSH2 0xC17 JUMP JUMPDEST SWAP2 POP POP SWAP3 SWAP2 POP POP JUMP JUMPDEST PUSH0 DUP2 SWAP1 POP SWAP2 SWAP1 POP JUMP JUMPDEST PUSH2 0xC68 DUP2 PUSH2 0xC56 JUMP JUMPDEST DUP3 MSTORE POP POP JUMP JUMPDEST PUSH0 PUSH1 0x20 DUP3 ADD SWAP1 POP PUSH2 0xC81 PUSH0 DUP4 ADD DUP5 PUSH2 0xC5F JUMP JUMPDEST SWAP3 SWAP2 POP POP JUMP JUMPDEST PUSH2 0xC90 DUP2 PUSH2 0xC56 JUMP JUMPDEST DUP2 EQ PUSH2 0xC9A JUMPI PUSH0 PUSH0 REVERT JUMPDEST POP JUMP JUMPDEST PUSH0 DUP2 CALLDATALOAD SWAP1 POP PUSH2 0xCAB DUP2 PUSH2 0xC87 JUMP JUMPDEST SWAP3 SWAP2 POP POP JUMP JUMPDEST PUSH0 PUSH1 0x20 DUP3 DUP5 SUB SLT ISZERO PUSH2 0xCC6 JUMPI PUSH2 0xCC5 PUSH2 0xBCD JUMP JUMPDEST JUMPDEST PUSH0 PUSH2 0xCD3 DUP5 DUP3 DUP6 ADD PUSH2 0xC9D JUMP JUMPDEST SWAP2 POP POP SWAP3 SWAP2 POP POP JUMP JUMPDEST PUSH0 DUP2 SWAP1 POP SWAP2 SWAP1 POP JUMP JUMPDEST PUSH0 PUSH2 0xCFF PUSH2 0xCFA PUSH2 0xCF5 DUP5 PUSH2 0xBD1 JUMP JUMPDEST PUSH2 0xCDC JUMP JUMPDEST PUSH2 0xBD1 JUMP JUMPDEST SWAP1 POP SWAP2 SWAP1 POP JUMP JUMPDEST PUSH0 PUSH2 0xD10 DUP3 PUSH2 0xCE5 JUMP JUMPDEST SWAP1 POP SWAP2 SWAP1 POP JUMP JUMPDEST PUSH0 PUSH2 0xD21 DUP3 PUSH2 0xD06 JUMP JUMPDEST SWAP1 POP SWAP2 SWAP1 POP JUMP JUMPDEST PUSH2 0xD31 DUP2 PUSH2 0xD17 JUMP JUMPDEST DUP3 MSTORE POP POP JUMP JUMPDEST PUSH0 PUSH1 0x20 DUP3 ADD SWAP1 POP PUSH2 0xD4A PUSH0 DUP4 ADD DUP5 PUSH2 0xD28 JUMP JUMPDEST SWAP3 SWAP2 POP POP JUMP JUMPDEST PUSH32 0x4E487B7100000000000000000000000000000000000000000000000000000000 PUSH0 MSTORE PUSH1 0x11 PUSH1 0x4 MSTORE PUSH1 0x24 PUSH0 REVERT JUMPDEST PUSH0 PUSH2 0xD87 DUP3 PUSH2 0xC56 JUMP JUMPDEST SWAP2 POP PUSH2 0xD92 DUP4 PUSH2 0xC56 JUMP JUMPDEST SWAP3 POP DUP3 DUP3 SUB SWAP1 POP DUP2 DUP2 GT ISZERO PUSH2 0xDAA JUMPI PUSH2 0xDA9 PUSH2 0xD50 JUMP JUMPDEST JUMPDEST SWAP3 SWAP2 POP POP JUMP JUMPDEST PUSH0 PUSH2 0xDBA DUP3 PUSH2 0xC56 JUMP JUMPDEST SWAP2 POP PUSH2 0xDC5 DUP4 PUSH2 0xC56 JUMP JUMPDEST SWAP3 POP DUP3 DUP3 MUL PUSH2 0xDD3 DUP2 PUSH2 0xC56 JUMP JUMPDEST SWAP2 POP DUP3 DUP3 DIV DUP5 EQ DUP4 ISZERO OR PUSH2 0xDEA JUMPI PUSH2 0xDE9 PUSH2 0xD50 JUMP JUMPDEST JUMPDEST POP SWAP3 SWAP2 POP POP JUMP JUMPDEST PUSH32 0x4E487B7100000000000000000000000000000000000000000000000000000000 PUSH0 MSTORE PUSH1 0x12 PUSH1 0x4 MSTORE PUSH1 0x24 PUSH0 REVERT JUMPDEST PUSH0 PUSH2 0xE28 DUP3 PUSH2 0xC56 JUMP JUMPDEST SWAP2 POP PUSH2 0xE33 DUP4 PUSH2 0xC56 JUMP JUMPDEST SWAP3 POP DUP3 PUSH2 0xE43 JUMPI PUSH2 0xE42 PUSH2 0xDF1 JUMP JUMPDEST JUMPDEST DUP3 DUP3 DIV SWAP1 POP SWAP3 SWAP2 POP POP JUMP JUMPDEST PUSH0 PUSH2 0xE58 DUP3 PUSH2 0xC56 JUMP JUMPDEST SWAP2 POP PUSH2 0xE63 DUP4 PUSH2 0xC56 JUMP JUMPDEST SWAP3 POP DUP3 DUP3 ADD SWAP1 POP DUP1 DUP3 GT ISZERO PUSH2 0xE7B JUMPI PUSH2 0xE7A PUSH2 0xD50 JUMP JUMPDEST JUMPDEST SWAP3 SWAP2 POP POP JUMP JUMPDEST PUSH0 DUP3 DUP3 MSTORE PUSH1 0x20 DUP3 ADD SWAP1 POP SWAP3 SWAP2 POP POP JUMP JUMPDEST PUSH32 0x4B776F7461206D75736920627963207769656B737A61206E697A203000000000 PUSH0 DUP3 ADD MSTORE POP JUMP JUMPDEST PUSH0 PUSH2 0xEC5 PUSH1 0x1C DUP4 PUSH2 0xE81 JUMP JUMPDEST SWAP2 POP PUSH2 0xED0 DUP3 PUSH2 0xE91 JUMP JUMPDEST PUSH1 0x20 DUP3 ADD SWAP1 POP SWAP2 SWAP1 POP JUMP JUMPDEST PUSH0 PUSH1 0x20 DUP3 ADD SWAP1 POP DUP2 DUP2 SUB PUSH0 DUP4 ADD MSTORE PUSH2 0xEF2 DUP2 PUSH2 0xEB9 JUMP JUMPDEST SWAP1 POP SWAP2 SWAP1 POP JUMP JUMPDEST PUSH32 0x5A61206D616C6F207A61626C6F6B6F77616E7963682073726F646B6F77000000 PUSH0 DUP3 ADD MSTORE POP JUMP JUMPDEST PUSH0 PUSH2 0xF2D PUSH1 0x1D DUP4 PUSH2 0xE81 JUMP JUMPDEST SWAP2 POP PUSH2 0xF38 DUP3 PUSH2 0xEF9 JUMP JUMPDEST PUSH1 0x20 DUP3 ADD SWAP1 POP SWAP2 SWAP1 POP JUMP JUMPDEST PUSH0 PUSH1 0x20 DUP3 ADD SWAP1 POP DUP2 DUP2 SUB PUSH0 DUP4 ADD MSTORE PUSH2 0xF5A DUP2 PUSH2 0xF21 JUMP JUMPDEST SWAP1 POP SWAP2 SWAP1 POP JUMP JUMPDEST PUSH0 DUP2 SWAP1 POP SWAP3 SWAP2 POP POP JUMP JUMPDEST POP JUMP JUMPDEST PUSH0 PUSH2 0xF79 PUSH0 DUP4 PUSH2 0xF61 JUMP JUMPDEST SWAP2 POP PUSH2 0xF84 DUP3 PUSH2 0xF6B JUMP JUMPDEST PUSH0 DUP3 ADD SWAP1 POP SWAP2 SWAP1 POP JUMP JUMPDEST PUSH0 PUSH2 0xF98 DUP3 PUSH2 0xF6E JUMP JUMPDEST SWAP2 POP DUP2 SWAP1 POP SWAP2 SWAP1 POP JUMP JUMPDEST PUSH32 0x5472616E73666572207A77726F746E7920455448206E69657564616E79000000 PUSH0 DUP3 ADD MSTORE POP JUMP JUMPDEST PUSH0 PUSH2 0xFD6 PUSH1 0x1D DUP4 PUSH2 0xE81 JUMP JUMPDEST SWAP2 POP PUSH2 0xFE1 DUP3 PUSH2 0xFA2 JUMP JUMPDEST PUSH1 0x20 DUP3 ADD SWAP1 POP SWAP2 SWAP1 POP JUMP JUMPDEST PUSH0 PUSH1 0x20 DUP3 ADD SWAP1 POP DUP2 DUP2 SUB PUSH0 DUP4 ADD MSTORE PUSH2 0x1003 DUP2 PUSH2 0xFCA JUMP JUMPDEST SWAP1 POP SWAP2 SWAP1 POP JUMP JUMPDEST PUSH32 0x4B776F7461206D75736920627963207769656B737A61206E697A203020455448 PUSH0 DUP3 ADD MSTORE POP JUMP JUMPDEST PUSH0 PUSH2 0x103E PUSH1 0x20 DUP4 PUSH2 0xE81 JUMP JUMPDEST SWAP2 POP PUSH2 0x1049 DUP3 PUSH2 0x100A JUMP JUMPDEST PUSH1 0x20 DUP3 ADD SWAP1 POP SWAP2 SWAP1 POP JUMP JUMPDEST PUSH0 PUSH1 0x20 DUP3 ADD SWAP1 POP DUP2 DUP2 SUB PUSH0 DUP4 ADD MSTORE PUSH2 0x106B DUP2 PUSH2 0x1032 JUMP JUMPDEST SWAP1 POP SWAP2 SWAP1 POP JUMP JUMPDEST PUSH2 0x107B DUP2 PUSH2 0xBF0 JUMP JUMPDEST DUP3 MSTORE POP POP JUMP JUMPDEST PUSH0 PUSH1 0x40 DUP3 ADD SWAP1 POP PUSH2 0x1094 PUSH0 DUP4 ADD DUP6 PUSH2 0x1072 JUMP JUMPDEST PUSH2 0x10A1 PUSH1 0x20 DUP4 ADD DUP5 PUSH2 0xC5F JUMP JUMPDEST SWAP4 SWAP3 POP POP POP JUMP JUMPDEST PUSH0 DUP2 ISZERO ISZERO SWAP1 POP SWAP2 SWAP1 POP JUMP JUMPDEST PUSH2 0x10BC DUP2 PUSH2 0x10A8 JUMP JUMPDEST DUP2 EQ PUSH2 0x10C6 JUMPI PUSH0 PUSH0 REVERT JUMPDEST POP JUMP JUMPDEST PUSH0 DUP2 MLOAD SWAP1 POP PUSH2 0x10D7 DUP2 PUSH2 0x10B3 JUMP JUMPDEST SWAP3 SWAP2 POP POP JUMP JUMPDEST PUSH0 PUSH1 0x20 DUP3 DUP5 SUB SLT ISZERO PUSH2 0x10F2 JUMPI PUSH2 0x10F1 PUSH2 0xBCD JUMP JUMPDEST JUMPDEST PUSH0 PUSH2 0x10FF DUP5 DUP3 DUP6 ADD PUSH2 0x10C9 JUMP JUMPDEST SWAP2 POP POP SWAP3 SWAP2 POP POP JUMP JUMPDEST PUSH32 0x5779706C617461206E6167726F6479206E69657564616E610000000000000000 PUSH0 DUP3 ADD MSTORE POP JUMP JUMPDEST PUSH0 PUSH2 0x113C PUSH1 0x18 DUP4 PUSH2 0xE81 JUMP JUMPDEST SWAP2 POP PUSH2 0x1147 DUP3 PUSH2 0x1108 JUMP JUMPDEST PUSH1 0x20 DUP3 ADD SWAP1 POP SWAP2 SWAP1 POP JUMP JUMPDEST PUSH0 PUSH1 0x20 DUP3 ADD SWAP1 POP DUP2 DUP2 SUB PUSH0 DUP4 ADD MSTORE PUSH2 0x1169 DUP2 PUSH2 0x1130 JUMP JUMPDEST SWAP1 POP SWAP2 SWAP1 POP JUMP INVALID LOG2 PUSH5 0x6970667358 0x22 SLT KECCAK256 0xE9 0x24 DUP10 CALLDATACOPY 0xD0 0xDB 0xFC MLOAD KECCAK256 SWAP6 0xAE MLOAD 0xF7 0xD8 0xBE 0xA6 0xEB 0x1F 0xDE DUP3 MSTORE8 PUSH2 0x2002 CALLDATALOAD DUP12 CALLDATACOPY 0xDC CODECOPY 0xD7 0xB8 PUSH6 0x64736F6C6343 STOP ADDMOD 0x22 STOP CALLER "
				},
				"gasEstimates": {
					"creation": {
						"codeDepositCost": "903600",
						"executionCost": "infinite",
						"totalCost": "infinite"
					},
					"external": {
						"claimReward()": "infinite",
						"earned(address)": "infinite",
						"lastUpdateTime(address)": "2847",
						"rewardRate()": "2447",
						"rewardToken()": "infinite",
						"rewards(address)": "2825",
						"stake()": "infinite",
						"stakingBalance(address)": "2802",
						"totalStaked()": "2469",
						"withdraw(uint256)": "infinite"
					}
				},
				"methodIdentifiers": {
					"claimReward()": "b88a802f",
					"earned(address)": "008cc262",
					"lastUpdateTime(address)": "2ce9aead",
					"rewardRate()": "7b0a47ee",
					"rewardToken()": "f7c618c1",
					"rewards(address)": "0700037d",
					"stake()": "3a4b66f1",
					"stakingBalance(address)": "45bc78ab",
					"totalStaked()": "817b1cd2",
					"withdraw(uint256)": "2e1a7d4d"
				}
			},
			"storageLayout": {
				"storage": [
					{
						"astId": 323,
						"contract": "contracts/Staking/EthStakingPool.sol:EthStakingPool",
						"label": "rewardToken",
						"offset": 0,
						"slot": "0",
						"type": "t_contract(IERC20)77"
					},
					{
						"astId": 326,
						"contract": "contracts/Staking/EthStakingPool.sol:EthStakingPool",
						"label": "rewardRate",
						"offset": 0,
						"slot": "1",
						"type": "t_uint256"
					},
					{
						"astId": 330,
						"contract": "contracts/Staking/EthStakingPool.sol:EthStakingPool",
						"label": "stakingBalance",
						"offset": 0,
						"slot": "2",
						"type": "t_mapping(t_address,t_uint256)"
					},
					{
						"astId": 334,
						"contract": "contracts/Staking/EthStakingPool.sol:EthStakingPool",
						"label": "lastUpdateTime",
						"offset": 0,
						"slot": "3",
						"type": "t_mapping(t_address,t_uint256)"
					},
					{
						"astId": 338,
						"contract": "contracts/Staking/EthStakingPool.sol:EthStakingPool",
						"label": "rewards",
						"offset": 0,
						"slot": "4",
						"type": "t_mapping(t_address,t_uint256)"
					},
					{
						"astId": 340,
						"contract": "contracts/Staking/EthStakingPool.sol:EthStakingPool",
						"label": "totalStaked",
						"offset": 0,
						"slot": "5",
						"type": "t_uint256"
					}
				],
				"types": {
					"t_address": {
						"encoding": "inplace",
						"label": "address",
						"numberOfBytes": "20"
					},
					"t_contract(IERC20)77": {
						"encoding": "inplace",
						"label": "contract IERC20",
						"numberOfBytes": "20"
					},
					"t_mapping(t_address,t_uint256)": {
						"encoding": "mapping",
						"key": "t_address",
						"label": "mapping(address => uint256)",
						"numberOfBytes": "32",
						"value": "t_uint256"
					},
					"t_uint256": {
						"encoding": "inplace",
						"label": "uint256",
						"numberOfBytes": "32"
					}
				}
			},
			"userdoc": {
				"kind": "user",
				"methods": {},
				"version": 1
			}
		}
	}
}