{
	"contracts/GasTest.sol": {
		"GasTest": {
			"abi": [
				{
					"inputs": [],
					"name": "dysk_twardy",
					"outputs": [
						{
							"internalType": "uint256",
							"name": "",
							"type": "uint256"
						}
					],
					"stateMutability": "view",
					"type": "function"
				},
				{
					"inputs": [],
					"name": "zapiszNaDysku",
					"outputs": [],
					"stateMutability": "nonpayable",
					"type": "function"
				},
				{
					"inputs": [],
					"name": "zapiszWRAMie",
					"outputs": [
						{
							"internalType": "uint256",
							"name": "",
							"type": "uint256"
						}
					],
					"stateMutability": "pure",
					"type": "function"
				}
			],
			"devdoc": {
				"kind": "dev",
				"methods": {},
				"version": 1
			},
			"evm": {
				"assembly": "    /* \"contracts/GasTest.sol\":60:431  contract GasTest {... */\n  mstore(0x40, 0x80)\n  callvalue\n  dup1\n  iszero\n  tag_1\n  jumpi\n  revert(0x00, 0x00)\ntag_1:\n  pop\n  dataSize(sub_0)\n  dup1\n  dataOffset(sub_0)\n  0x00\n  codecopy\n  0x00\n  return\nstop\n\nsub_0: assembly {\n        /* \"contracts/GasTest.sol\":60:431  contract GasTest {... */\n      mstore(0x40, 0x80)\n      callvalue\n      dup1\n      iszero\n      tag_1\n      jumpi\n      revert(0x00, 0x00)\n    tag_1:\n      pop\n      jumpi(tag_2, lt(calldatasize, 0x04))\n      shr(0xe0, calldataload(0x00))\n      dup1\n      0xc49f5c45\n      eq\n      tag_3\n      jumpi\n      dup1\n      0xe1fcb884\n      eq\n      tag_4\n      jumpi\n      dup1\n      0xe7947fad\n      eq\n      tag_5\n      jumpi\n    tag_2:\n      revert(0x00, 0x00)\n        /* \"contracts/GasTest.sol\":203:269  function zapiszNaDysku() public {... */\n    tag_3:\n      tag_6\n      tag_7\n      jump\t// in\n    tag_6:\n      stop\n        /* \"contracts/GasTest.sol\":319:428  function zapiszWRAMie() public pure returns (uint256) {... */\n    tag_4:\n      tag_8\n      tag_9\n      jump\t// in\n    tag_8:\n      mload(0x40)\n      tag_10\n      swap2\n      swap1\n      tag_11\n      jump\t// in\n    tag_10:\n      mload(0x40)\n      dup1\n      swap2\n      sub\n      swap1\n      return\n        /* \"contracts/GasTest.sol\":135:161  uint256 public dysk_twardy */\n    tag_5:\n      tag_12\n      tag_13\n      jump\t// in\n    tag_12:\n      mload(0x40)\n      tag_14\n      swap2\n      swap1\n      tag_11\n      jump\t// in\n    tag_14:\n      mload(0x40)\n      dup1\n      swap2\n      sub\n      swap1\n      return\n        /* \"contracts/GasTest.sol\":203:269  function zapiszNaDysku() public {... */\n    tag_7:\n        /* \"contracts/GasTest.sol\":260:261  5 */\n      0x05\n        /* \"contracts/GasTest.sol\":246:257  dysk_twardy */\n      0x00\n        /* \"contracts/GasTest.sol\":246:261  dysk_twardy = 5 */\n      dup2\n      swap1\n      sstore\n      pop\n        /* \"contracts/GasTest.sol\":203:269  function zapiszNaDysku() public {... */\n      jump\t// out\n        /* \"contracts/GasTest.sol\":319:428  function zapiszWRAMie() public pure returns (uint256) {... */\n    tag_9:\n        /* \"contracts/GasTest.sol\":364:371  uint256 */\n      0x00\n        /* \"contracts/GasTest.sol\":384:395  uint256 ram */\n      0x00\n        /* \"contracts/GasTest.sol\":398:399  5 */\n      0x05\n        /* \"contracts/GasTest.sol\":384:399  uint256 ram = 5 */\n      swap1\n      pop\n        /* \"contracts/GasTest.sol\":417:420  ram */\n      dup1\n        /* \"contracts/GasTest.sol\":410:420  return ram */\n      swap2\n      pop\n      pop\n        /* \"contracts/GasTest.sol\":319:428  function zapiszWRAMie() public pure returns (uint256) {... */\n      swap1\n      jump\t// out\n        /* \"contracts/GasTest.sol\":135:161  uint256 public dysk_twardy */\n    tag_13:\n      sload(0x00)\n      dup2\n      jump\t// out\n        /* \"#utility.yul\":7:84   */\n    tag_17:\n        /* \"#utility.yul\":44:51   */\n      0x00\n        /* \"#utility.yul\":73:78   */\n      dup2\n        /* \"#utility.yul\":62:78   */\n      swap1\n      pop\n        /* \"#utility.yul\":7:84   */\n      swap2\n      swap1\n      pop\n      jump\t// out\n        /* \"#utility.yul\":90:208   */\n    tag_18:\n        /* \"#utility.yul\":177:201   */\n      tag_22\n        /* \"#utility.yul\":195:200   */\n      dup2\n        /* \"#utility.yul\":177:201   */\n      tag_17\n      jump\t// in\n    tag_22:\n        /* \"#utility.yul\":172:175   */\n      dup3\n        /* \"#utility.yul\":165:202   */\n      mstore\n        /* \"#utility.yul\":90:208   */\n      pop\n      pop\n      jump\t// out\n        /* \"#utility.yul\":214:436   */\n    tag_11:\n        /* \"#utility.yul\":307:311   */\n      0x00\n        /* \"#utility.yul\":345:347   */\n      0x20\n        /* \"#utility.yul\":334:343   */\n      dup3\n        /* \"#utility.yul\":330:348   */\n      add\n        /* \"#utility.yul\":322:348   */\n      swap1\n      pop\n        /* \"#utility.yul\":358:429   */\n      tag_24\n        /* \"#utility.yul\":426:427   */\n      0x00\n        /* \"#utility.yul\":415:424   */\n      dup4\n        /* \"#utility.yul\":411:428   */\n      add\n        /* \"#utility.yul\":402:408   */\n      dup5\n        /* \"#utility.yul\":358:429   */\n      tag_18\n      jump\t// in\n    tag_24:\n        /* \"#utility.yul\":214:436   */\n      swap3\n      swap2\n      pop\n      pop\n      jump\t// out\n\n    auxdata: 0xa2646970667358221220df69ed626b89bd8f7ef39e72c7cf3ad5c11fbbdcac0cb18f6a1bc8fa4fb5927364736f6c63430008220033\n}\n",
				"bytecode": {
					"linkReferences": {},
					"object": "6080604052348015600e575f5ffd5b5060f88061001b5f395ff3fe6080604052348015600e575f5ffd5b5060043610603a575f3560e01c8063c49f5c4514603e578063e1fcb884146046578063e7947fad146060575b5f5ffd5b6044607a565b005b604c6083565b6040516057919060ab565b60405180910390f35b60666090565b6040516071919060ab565b60405180910390f35b60055f81905550565b5f5f600590508091505090565b5f5481565b5f819050919050565b60a5816095565b82525050565b5f60208201905060bc5f830184609e565b9291505056fea2646970667358221220df69ed626b89bd8f7ef39e72c7cf3ad5c11fbbdcac0cb18f6a1bc8fa4fb5927364736f6c63430008220033",
					"opcodes": "PUSH1 0x80 PUSH1 0x40 MSTORE CALLVALUE DUP1 ISZERO PUSH1 0xE JUMPI PUSH0 PUSH0 REVERT JUMPDEST POP PUSH1 0xF8 DUP1 PUSH2 0x1B PUSH0 CODECOPY PUSH0 RETURN INVALID PUSH1 0x80 PUSH1 0x40 MSTORE CALLVALUE DUP1 ISZERO PUSH1 0xE JUMPI PUSH0 PUSH0 REVERT JUMPDEST POP PUSH1 0x4 CALLDATASIZE LT PUSH1 0x3A JUMPI PUSH0 CALLDATALOAD PUSH1 0xE0 SHR DUP1 PUSH4 0xC49F5C45 EQ PUSH1 0x3E JUMPI DUP1 PUSH4 0xE1FCB884 EQ PUSH1 0x46 JUMPI DUP1 PUSH4 0xE7947FAD EQ PUSH1 0x60 JUMPI JUMPDEST PUSH0 PUSH0 REVERT JUMPDEST PUSH1 0x44 PUSH1 0x7A JUMP JUMPDEST STOP JUMPDEST PUSH1 0x4C PUSH1 0x83 JUMP JUMPDEST PUSH1 0x40 MLOAD PUSH1 0x57 SWAP2 SWAP1 PUSH1 0xAB JUMP JUMPDEST PUSH1 0x40 MLOAD DUP1 SWAP2 SUB SWAP1 RETURN JUMPDEST PUSH1 0x66 PUSH1 0x90 JUMP JUMPDEST PUSH1 0x40 MLOAD PUSH1 0x71 SWAP2 SWAP1 PUSH1 0xAB JUMP JUMPDEST PUSH1 0x40 MLOAD DUP1 SWAP2 SUB SWAP1 RETURN JUMPDEST PUSH1 0x5 PUSH0 DUP2 SWAP1 SSTORE POP JUMP JUMPDEST PUSH0 PUSH0 PUSH1 0x5 SWAP1 POP DUP1 SWAP2 POP POP SWAP1 JUMP JUMPDEST PUSH0 SLOAD DUP2 JUMP JUMPDEST PUSH0 DUP2 SWAP1 POP SWAP2 SWAP1 POP JUMP JUMPDEST PUSH1 0xA5 DUP2 PUSH1 0x95 JUMP JUMPDEST DUP3 MSTORE POP POP JUMP JUMPDEST PUSH0 PUSH1 0x20 DUP3 ADD SWAP1 POP PUSH1 0xBC PUSH0 DUP4 ADD DUP5 PUSH1 0x9E JUMP JUMPDEST SWAP3 SWAP2 POP POP JUMP INVALID LOG2 PUSH5 0x6970667358 0x22 SLT KECCAK256 0xDF PUSH10 0xED626B89BD8F7EF39E72 0xC7 0xCF GASPRICE 0xD5 0xC1 0x1F 0xBB 0xDC 0xAC 0xC 0xB1 DUP16 PUSH11 0x1BC8FA4FB5927364736F6C PUSH4 0x43000822 STOP CALLER "
				},
				"gasEstimates": {
					"creation": {
						"codeDepositCost": "49600",
						"executionCost": "97",
						"totalCost": "49697"
					},
					"external": {
						"dysk_twardy()": "2446",
						"zapiszNaDysku()": "22234",
						"zapiszWRAMie()": "344"
					}
				},
				"methodIdentifiers": {
					"dysk_twardy()": "e7947fad",
					"zapiszNaDysku()": "c49f5c45",
					"zapiszWRAMie()": "e1fcb884"
				}
			},
			"storageLayout": {
				"storage": [
					{
						"astId": 3,
						"contract": "contracts/GasTest.sol:GasTest",
						"label": "dysk_twardy",
						"offset": 0,
						"slot": "0",
						"type": "t_uint256"
					}
				],
				"types": {
					"t_uint256": {
						"encoding": "inplace",
						"label": "uint256",
						"numberOfBytes": "32"
					}
				}
			},
			"userdoc": {
				"kind": "user",
				"methods": {},
				"version": 1
			}
		}
	}
}