{
	"contracts/flashloan/EthFlashLender.sol": {
		"EthFlashLender": {
			"abi": [
				{
					"anonymous": false,
					"inputs": [
						{
							"indexed": true,
							"internalType": "address",
							"name": "borrower",
							"type": "address"
						},
						{
							"indexed": false,
							"internalType": "uint256",
							"name": "amount",
							"type": "uint256"
						},
						{
							"indexed": false,
							"internalType": "uint256",
							"name": "fee",
							"type": "uint256"
						}
					],
					"name": "FlashLoanSuccessful",
					"type": "event"
				},
				{
					"inputs": [],
					"name": "feePercent",
					"outputs": [
						{
							"internalType": "uint256",
							"name": "",
							"type": "uint256"
						}
					],
					"stateMutability": "view",
					"type": "function"
				},
				{
					"inputs": [
						{
							"internalType": "address",
							"name": "borrower",
							"type": "address"
						},
						{
							"internalType": "uint256",
							"name": "amount",
							"type": "uint256"
						}
					],
					"name": "flashLoan",
					"outputs": [],
					"stateMutability": "nonpayable",
					"type": "function"
				},
				{
					"stateMutability": "payable",
					"type": "receive"
				}
			],
			"devdoc": {
				"kind": "dev",
				"methods": {},
				"version": 1
			},
			"evm": {
				"assembly": "    /* \"contracts/flashloan/EthFlashLender.sol\":174:1221  contract EthFlashLender {... */\n  mstore(0x40, 0x80)\n    /* \"contracts/flashloan/EthFlashLender.sol\":233:234  1 */\n  0x01\n    /* \"contracts/flashloan/EthFlashLender.sol\":205:234  uint256 public feePercent = 1 */\n  0x00\n  sstore\n    /* \"contracts/flashloan/EthFlashLender.sol\":174:1221  contract EthFlashLender {... */\n  callvalue\n  dup1\n  iszero\n  tag_1\n  jumpi\n  revert(0x00, 0x00)\ntag_1:\n  pop\n  dataSize(sub_0)\n  dup1\n  dataOffset(sub_0)\n  0x00\n  codecopy\n  0x00\n  return\nstop\n\nsub_0: assembly {\n        /* \"contracts/flashloan/EthFlashLender.sol\":174:1221  contract EthFlashLender {... */\n      mstore(0x40, 0x80)\n      jumpi(tag_1, lt(calldatasize, 0x04))\n      shr(0xe0, calldataload(0x00))\n      dup1\n      0x7fd6f15c\n      eq\n      tag_3\n      jumpi\n      dup1\n      0x9d9e465c\n      eq\n      tag_4\n      jumpi\n      jump(tag_2)\n    tag_1:\n      jumpi(tag_2, calldatasize)\n      stop\n    tag_2:\n      revert(0x00, 0x00)\n        /* \"contracts/flashloan/EthFlashLender.sol\":205:234  uint256 public feePercent = 1 */\n    tag_3:\n      callvalue\n      dup1\n      iszero\n      tag_7\n      jumpi\n      revert(0x00, 0x00)\n    tag_7:\n      pop\n      tag_8\n      tag_9\n      jump\t// in\n    tag_8:\n      mload(0x40)\n      tag_10\n      swap2\n      swap1\n      tag_11\n      jump\t// in\n    tag_10:\n      mload(0x40)\n      dup1\n      swap2\n      sub\n      swap1\n      return\n        /* \"contracts/flashloan/EthFlashLender.sol\":454:1218  function flashLoan(address borrower, uint256 amount) external {... */\n    tag_4:\n      callvalue\n      dup1\n      iszero\n      tag_12\n      jumpi\n      revert(0x00, 0x00)\n    tag_12:\n      pop\n      tag_13\n      0x04\n      dup1\n      calldatasize\n      sub\n      dup2\n      add\n      swap1\n      tag_14\n      swap2\n      swap1\n      tag_15\n      jump\t// in\n    tag_14:\n      tag_16\n      jump\t// in\n    tag_13:\n      stop\n        /* \"contracts/flashloan/EthFlashLender.sol\":205:234  uint256 public feePercent = 1 */\n    tag_9:\n      sload(0x00)\n      dup2\n      jump\t// out\n        /* \"contracts/flashloan/EthFlashLender.sol\":454:1218  function flashLoan(address borrower, uint256 amount) external {... */\n    tag_16:\n        /* \"contracts/flashloan/EthFlashLender.sol\":527:548  uint256 balanceBefore */\n      0x00\n        /* \"contracts/flashloan/EthFlashLender.sol\":551:572  address(this).balance */\n      selfbalance\n        /* \"contracts/flashloan/EthFlashLender.sol\":527:572  uint256 balanceBefore = address(this).balance */\n      swap1\n      pop\n        /* \"contracts/flashloan/EthFlashLender.sol\":608:614  amount */\n      dup2\n        /* \"contracts/flashloan/EthFlashLender.sol\":591:604  balanceBefore */\n      dup2\n        /* \"contracts/flashloan/EthFlashLender.sol\":591:614  balanceBefore >= amount */\n      lt\n      iszero\n        /* \"contracts/flashloan/EthFlashLender.sol\":583:637  require(balanceBefore >= amount, \"Za malo ETH w puli\") */\n      tag_18\n      jumpi\n      mload(0x40)\n      0x08c379a000000000000000000000000000000000000000000000000000000000\n      dup2\n      mstore\n      0x04\n      add\n      tag_19\n      swap1\n      tag_20\n      jump\t// in\n    tag_19:\n      mload(0x40)\n      dup1\n      swap2\n      sub\n      swap1\n      revert\n    tag_18:\n        /* \"contracts/flashloan/EthFlashLender.sol\":650:661  uint256 fee */\n      0x00\n        /* \"contracts/flashloan/EthFlashLender.sol\":688:691  100 */\n      0x64\n        /* \"contracts/flashloan/EthFlashLender.sol\":674:684  feePercent */\n      sload(0x00)\n        /* \"contracts/flashloan/EthFlashLender.sol\":665:671  amount */\n      dup5\n        /* \"contracts/flashloan/EthFlashLender.sol\":665:684  amount * feePercent */\n      tag_21\n      swap2\n      swap1\n      tag_22\n      jump\t// in\n    tag_21:\n        /* \"contracts/flashloan/EthFlashLender.sol\":664:691  (amount * feePercent) / 100 */\n      tag_23\n      swap2\n      swap1\n      tag_24\n      jump\t// in\n    tag_23:\n        /* \"contracts/flashloan/EthFlashLender.sol\":650:691  uint256 fee = (amount * feePercent) / 100 */\n      swap1\n      pop\n        /* \"contracts/flashloan/EthFlashLender.sol\":841:849  borrower */\n      dup4\n        /* \"contracts/flashloan/EthFlashLender.sol\":823:867  IEthFlashBorrower(borrower).executeOperation */\n      0xffffffffffffffffffffffffffffffffffffffff\n      and\n      0x0e70306d\n        /* \"contracts/flashloan/EthFlashLender.sol\":875:881  amount */\n      dup5\n        /* \"contracts/flashloan/EthFlashLender.sol\":883:886  fee */\n      dup4\n        /* \"contracts/flashloan/EthFlashLender.sol\":823:887  IEthFlashBorrower(borrower).executeOperation{value: amount}(fee) */\n      mload(0x40)\n      dup4\n      0xffffffff\n      and\n      0xe0\n      shl\n      dup2\n      mstore\n      0x04\n      add\n      tag_25\n      swap2\n      swap1\n      tag_11\n      jump\t// in\n    tag_25:\n      0x20\n      mload(0x40)\n      dup1\n      dup4\n      sub\n      dup2\n      dup6\n      dup9\n      gas\n      call\n      iszero\n      dup1\n      iszero\n      tag_27\n      jumpi\n      returndatacopy(0x00, 0x00, returndatasize)\n      revert(0x00, returndatasize)\n    tag_27:\n      pop\n      pop\n      pop\n      pop\n      pop\n      mload(0x40)\n      returndatasize\n      not(0x1f)\n      0x1f\n      dup3\n      add\n      and\n      dup3\n      add\n      dup1\n      0x40\n      mstore\n      pop\n      dup2\n      add\n      swap1\n      tag_28\n      swap2\n      swap1\n      tag_29\n      jump\t// in\n    tag_28:\n        /* \"contracts/flashloan/EthFlashLender.sol\":801:932  require(... */\n      tag_30\n      jumpi\n      mload(0x40)\n      0x08c379a000000000000000000000000000000000000000000000000000000000\n      dup2\n      mstore\n      0x04\n      add\n      tag_31\n      swap1\n      tag_32\n      jump\t// in\n    tag_31:\n      mload(0x40)\n      dup1\n      swap2\n      sub\n      swap1\n      revert\n    tag_30:\n        /* \"contracts/flashloan/EthFlashLender.sol\":1007:1027  uint256 balanceAfter */\n      0x00\n        /* \"contracts/flashloan/EthFlashLender.sol\":1030:1051  address(this).balance */\n      selfbalance\n        /* \"contracts/flashloan/EthFlashLender.sol\":1007:1051  uint256 balanceAfter = address(this).balance */\n      swap1\n      pop\n        /* \"contracts/flashloan/EthFlashLender.sol\":1102:1105  fee */\n      dup2\n        /* \"contracts/flashloan/EthFlashLender.sol\":1086:1099  balanceBefore */\n      dup4\n        /* \"contracts/flashloan/EthFlashLender.sol\":1086:1105  balanceBefore + fee */\n      tag_33\n      swap2\n      swap1\n      tag_34\n      jump\t// in\n    tag_33:\n        /* \"contracts/flashloan/EthFlashLender.sol\":1070:1082  balanceAfter */\n      dup2\n        /* \"contracts/flashloan/EthFlashLender.sol\":1070:1105  balanceAfter >= balanceBefore + fee */\n      lt\n      iszero\n        /* \"contracts/flashloan/EthFlashLender.sol\":1062:1150  require(balanceAfter >= balanceBefore + fee, \"Pozyczka nie zostala splacona z prowizja\") */\n      tag_35\n      jumpi\n      mload(0x40)\n      0x08c379a000000000000000000000000000000000000000000000000000000000\n      dup2\n      mstore\n      0x04\n      add\n      tag_36\n      swap1\n      tag_37\n      jump\t// in\n    tag_36:\n      mload(0x40)\n      dup1\n      swap2\n      sub\n      swap1\n      revert\n    tag_35:\n        /* \"contracts/flashloan/EthFlashLender.sol\":1188:1196  borrower */\n      dup5\n        /* \"contracts/flashloan/EthFlashLender.sol\":1168:1210  FlashLoanSuccessful(borrower, amount, fee) */\n      0xffffffffffffffffffffffffffffffffffffffff\n      and\n      0x1b4678be01875999e214fb4f1fb5ad36f4f9cf364f53dde4e55df77f7cc7f762\n        /* \"contracts/flashloan/EthFlashLender.sol\":1198:1204  amount */\n      dup6\n        /* \"contracts/flashloan/EthFlashLender.sol\":1206:1209  fee */\n      dup5\n        /* \"contracts/flashloan/EthFlashLender.sol\":1168:1210  FlashLoanSuccessful(borrower, amount, fee) */\n      mload(0x40)\n      tag_38\n      swap3\n      swap2\n      swap1\n      tag_39\n      jump\t// in\n    tag_38:\n      mload(0x40)\n      dup1\n      swap2\n      sub\n      swap1\n      log2\n        /* \"contracts/flashloan/EthFlashLender.sol\":516:1218  {... */\n      pop\n      pop\n      pop\n        /* \"contracts/flashloan/EthFlashLender.sol\":454:1218  function flashLoan(address borrower, uint256 amount) external {... */\n      pop\n      pop\n      jump\t// out\n        /* \"#utility.yul\":7:84   */\n    tag_40:\n        /* \"#utility.yul\":44:51   */\n      0x00\n        /* \"#utility.yul\":73:78   */\n      dup2\n        /* \"#utility.yul\":62:78   */\n      swap1\n      pop\n        /* \"#utility.yul\":7:84   */\n      swap2\n      swap1\n      pop\n      jump\t// out\n        /* \"#utility.yul\":90:208   */\n    tag_41:\n        /* \"#utility.yul\":177:201   */\n      tag_66\n        /* \"#utility.yul\":195:200   */\n      dup2\n        /* \"#utility.yul\":177:201   */\n      tag_40\n      jump\t// in\n    tag_66:\n        /* \"#utility.yul\":172:175   */\n      dup3\n        /* \"#utility.yul\":165:202   */\n      mstore\n        /* \"#utility.yul\":90:208   */\n      pop\n      pop\n      jump\t// out\n        /* \"#utility.yul\":214:436   */\n    tag_11:\n        /* \"#utility.yul\":307:311   */\n      0x00\n        /* \"#utility.yul\":345:347   */\n      0x20\n        /* \"#utility.yul\":334:343   */\n      dup3\n        /* \"#utility.yul\":330:348   */\n      add\n        /* \"#utility.yul\":322:348   */\n      swap1\n      pop\n        /* \"#utility.yul\":358:429   */\n      tag_68\n        /* \"#utility.yul\":426:427   */\n      0x00\n        /* \"#utility.yul\":415:424   */\n      dup4\n        /* \"#utility.yul\":411:428   */\n      add\n        /* \"#utility.yul\":402:408   */\n      dup5\n        /* \"#utility.yul\":358:429   */\n      tag_41\n      jump\t// in\n    tag_68:\n        /* \"#utility.yul\":214:436   */\n      swap3\n      swap2\n      pop\n      pop\n      jump\t// out\n        /* \"#utility.yul\":523:640   */\n    tag_43:\n        /* \"#utility.yul\":632:633   */\n      0x00\n        /* \"#utility.yul\":629:630   */\n      0x00\n        /* \"#utility.yul\":622:634   */\n      revert\n        /* \"#utility.yul\":769:895   */\n    tag_45:\n        /* \"#utility.yul\":806:813   */\n      0x00\n        /* \"#utility.yul\":846:888   */\n      0xffffffffffffffffffffffffffffffffffffffff\n        /* \"#utility.yul\":839:844   */\n      dup3\n        /* \"#utility.yul\":835:889   */\n      and\n        /* \"#utility.yul\":824:889   */\n      swap1\n      pop\n        /* \"#utility.yul\":769:895   */\n      swap2\n      swap1\n      pop\n      jump\t// out\n        /* \"#utility.yul\":901:997   */\n    tag_46:\n        /* \"#utility.yul\":938:945   */\n      0x00\n        /* \"#utility.yul\":967:991   */\n      tag_74\n        /* \"#utility.yul\":985:990   */\n      dup3\n        /* \"#utility.yul\":967:991   */\n      tag_45\n      jump\t// in\n    tag_74:\n        /* \"#utility.yul\":956:991   */\n      swap1\n      pop\n        /* \"#utility.yul\":901:997   */\n      swap2\n      swap1\n      pop\n      jump\t// out\n        /* \"#utility.yul\":1003:1125   */\n    tag_47:\n        /* \"#utility.yul\":1076:1100   */\n      tag_76\n        /* \"#utility.yul\":1094:1099   */\n      dup2\n        /* \"#utility.yul\":1076:1100   */\n      tag_46\n      jump\t// in\n    tag_76:\n        /* \"#utility.yul\":1069:1074   */\n      dup2\n        /* \"#utility.yul\":1066:1101   */\n      eq\n        /* \"#utility.yul\":1056:1119   */\n      tag_77\n      jumpi\n        /* \"#utility.yul\":1115:1116   */\n      0x00\n        /* \"#utility.yul\":1112:1113   */\n      0x00\n        /* \"#utility.yul\":1105:1117   */\n      revert\n        /* \"#utility.yul\":1056:1119   */\n    tag_77:\n        /* \"#utility.yul\":1003:1125   */\n      pop\n      jump\t// out\n        /* \"#utility.yul\":1131:1270   */\n    tag_48:\n        /* \"#utility.yul\":1177:1182   */\n      0x00\n        /* \"#utility.yul\":1215:1221   */\n      dup2\n        /* \"#utility.yul\":1202:1222   */\n      calldataload\n        /* \"#utility.yul\":1193:1222   */\n      swap1\n      pop\n        /* \"#utility.yul\":1231:1264   */\n      tag_79\n        /* \"#utility.yul\":1258:1263   */\n      dup2\n        /* \"#utility.yul\":1231:1264   */\n      tag_47\n      jump\t// in\n    tag_79:\n        /* \"#utility.yul\":1131:1270   */\n      swap3\n      swap2\n      pop\n      pop\n      jump\t// out\n        /* \"#utility.yul\":1276:1398   */\n    tag_49:\n        /* \"#utility.yul\":1349:1373   */\n      tag_81\n        /* \"#utility.yul\":1367:1372   */\n      dup2\n        /* \"#utility.yul\":1349:1373   */\n      tag_40\n      jump\t// in\n    tag_81:\n        /* \"#utility.yul\":1342:1347   */\n      dup2\n        /* \"#utility.yul\":1339:1374   */\n      eq\n        /* \"#utility.yul\":1329:1392   */\n      tag_82\n      jumpi\n        /* \"#utility.yul\":1388:1389   */\n      0x00\n        /* \"#utility.yul\":1385:1386   */\n      0x00\n        /* \"#utility.yul\":1378:1390   */\n      revert\n        /* \"#utility.yul\":1329:1392   */\n    tag_82:\n        /* \"#utility.yul\":1276:1398   */\n      pop\n      jump\t// out\n        /* \"#utility.yul\":1404:1543   */\n    tag_50:\n        /* \"#utility.yul\":1450:1455   */\n      0x00\n        /* \"#utility.yul\":1488:1494   */\n      dup2\n        /* \"#utility.yul\":1475:1495   */\n      calldataload\n        /* \"#utility.yul\":1466:1495   */\n      swap1\n      pop\n        /* \"#utility.yul\":1504:1537   */\n      tag_84\n        /* \"#utility.yul\":1531:1536   */\n      dup2\n        /* \"#utility.yul\":1504:1537   */\n      tag_49\n      jump\t// in\n    tag_84:\n        /* \"#utility.yul\":1404:1543   */\n      swap3\n      swap2\n      pop\n      pop\n      jump\t// out\n        /* \"#utility.yul\":1549:2023   */\n    tag_15:\n        /* \"#utility.yul\":1617:1623   */\n      0x00\n        /* \"#utility.yul\":1625:1631   */\n      0x00\n        /* \"#utility.yul\":1674:1676   */\n      0x40\n        /* \"#utility.yul\":1662:1671   */\n      dup4\n        /* \"#utility.yul\":1653:1660   */\n      dup6\n        /* \"#utility.yul\":1649:1672   */\n      sub\n        /* \"#utility.yul\":1645:1677   */\n      slt\n        /* \"#utility.yul\":1642:1761   */\n      iszero\n      tag_86\n      jumpi\n        /* \"#utility.yul\":1680:1759   */\n      tag_87\n      tag_43\n      jump\t// in\n    tag_87:\n        /* \"#utility.yul\":1642:1761   */\n    tag_86:\n        /* \"#utility.yul\":1800:1801   */\n      0x00\n        /* \"#utility.yul\":1825:1878   */\n      tag_88\n        /* \"#utility.yul\":1870:1877   */\n      dup6\n        /* \"#utility.yul\":1861:1867   */\n      dup3\n        /* \"#utility.yul\":1850:1859   */\n      dup7\n        /* \"#utility.yul\":1846:1868   */\n      add\n        /* \"#utility.yul\":1825:1878   */\n      tag_48\n      jump\t// in\n    tag_88:\n        /* \"#utility.yul\":1815:1878   */\n      swap3\n      pop\n        /* \"#utility.yul\":1771:1888   */\n      pop\n        /* \"#utility.yul\":1927:1929   */\n      0x20\n        /* \"#utility.yul\":1953:2006   */\n      tag_89\n        /* \"#utility.yul\":1998:2005   */\n      dup6\n        /* \"#utility.yul\":1989:1995   */\n      dup3\n        /* \"#utility.yul\":1978:1987   */\n      dup7\n        /* \"#utility.yul\":1974:1996   */\n      add\n        /* \"#utility.yul\":1953:2006   */\n      tag_50\n      jump\t// in\n    tag_89:\n        /* \"#utility.yul\":1943:2006   */\n      swap2\n      pop\n        /* \"#utility.yul\":1898:2016   */\n      pop\n        /* \"#utility.yul\":1549:2023   */\n      swap3\n      pop\n      swap3\n      swap1\n      pop\n      jump\t// out\n        /* \"#utility.yul\":2029:2198   */\n    tag_51:\n        /* \"#utility.yul\":2113:2124   */\n      0x00\n        /* \"#utility.yul\":2147:2153   */\n      dup3\n        /* \"#utility.yul\":2142:2145   */\n      dup3\n        /* \"#utility.yul\":2135:2154   */\n      mstore\n        /* \"#utility.yul\":2187:2191   */\n      0x20\n        /* \"#utility.yul\":2182:2185   */\n      dup3\n        /* \"#utility.yul\":2178:2192   */\n      add\n        /* \"#utility.yul\":2163:2192   */\n      swap1\n      pop\n        /* \"#utility.yul\":2029:2198   */\n      swap3\n      swap2\n      pop\n      pop\n      jump\t// out\n        /* \"#utility.yul\":2204:2372   */\n    tag_52:\n        /* \"#utility.yul\":2344:2364   */\n      0x5a61206d616c6f2045544820772070756c690000000000000000000000000000\n        /* \"#utility.yul\":2340:2341   */\n      0x00\n        /* \"#utility.yul\":2332:2338   */\n      dup3\n        /* \"#utility.yul\":2328:2342   */\n      add\n        /* \"#utility.yul\":2321:2365   */\n      mstore\n        /* \"#utility.yul\":2204:2372   */\n      pop\n      jump\t// out\n        /* \"#utility.yul\":2378:2744   */\n    tag_53:\n        /* \"#utility.yul\":2520:2523   */\n      0x00\n        /* \"#utility.yul\":2541:2608   */\n      tag_93\n        /* \"#utility.yul\":2605:2607   */\n      0x12\n        /* \"#utility.yul\":2600:2603   */\n      dup4\n        /* \"#utility.yul\":2541:2608   */\n      tag_51\n      jump\t// in\n    tag_93:\n        /* \"#utility.yul\":2534:2608   */\n      swap2\n      pop\n        /* \"#utility.yul\":2617:2710   */\n      tag_94\n        /* \"#utility.yul\":2706:2709   */\n      dup3\n        /* \"#utility.yul\":2617:2710   */\n      tag_52\n      jump\t// in\n    tag_94:\n        /* \"#utility.yul\":2735:2737   */\n      0x20\n        /* \"#utility.yul\":2730:2733   */\n      dup3\n        /* \"#utility.yul\":2726:2738   */\n      add\n        /* \"#utility.yul\":2719:2738   */\n      swap1\n      pop\n        /* \"#utility.yul\":2378:2744   */\n      swap2\n      swap1\n      pop\n      jump\t// out\n        /* \"#utility.yul\":2750:3169   */\n    tag_20:\n        /* \"#utility.yul\":2916:2920   */\n      0x00\n        /* \"#utility.yul\":2954:2956   */\n      0x20\n        /* \"#utility.yul\":2943:2952   */\n      dup3\n        /* \"#utility.yul\":2939:2957   */\n      add\n        /* \"#utility.yul\":2931:2957   */\n      swap1\n      pop\n        /* \"#utility.yul\":3003:3012   */\n      dup2\n        /* \"#utility.yul\":2997:3001   */\n      dup2\n        /* \"#utility.yul\":2993:3013   */\n      sub\n        /* \"#utility.yul\":2989:2990   */\n      0x00\n        /* \"#utility.yul\":2978:2987   */\n      dup4\n        /* \"#utility.yul\":2974:2991   */\n      add\n        /* \"#utility.yul\":2967:3014   */\n      mstore\n        /* \"#utility.yul\":3031:3162   */\n      tag_96\n        /* \"#utility.yul\":3157:3161   */\n      dup2\n        /* \"#utility.yul\":3031:3162   */\n      tag_53\n      jump\t// in\n    tag_96:\n        /* \"#utility.yul\":3023:3162   */\n      swap1\n      pop\n        /* \"#utility.yul\":2750:3169   */\n      swap2\n      swap1\n      pop\n      jump\t// out\n        /* \"#utility.yul\":3175:3355   */\n    tag_54:\n        /* \"#utility.yul\":3223:3300   */\n      0x4e487b7100000000000000000000000000000000000000000000000000000000\n        /* \"#utility.yul\":3220:3221   */\n      0x00\n        /* \"#utility.yul\":3213:3301   */\n      mstore\n        /* \"#utility.yul\":3320:3324   */\n      0x11\n        /* \"#utility.yul\":3317:3318   */\n      0x04\n        /* \"#utility.yul\":3310:3325   */\n      mstore\n        /* \"#utility.yul\":3344:3348   */\n      0x24\n        /* \"#utility.yul\":3341:3342   */\n      0x00\n        /* \"#utility.yul\":3334:3349   */\n      revert\n        /* \"#utility.yul\":3361:3771   */\n    tag_22:\n        /* \"#utility.yul\":3401:3408   */\n      0x00\n        /* \"#utility.yul\":3424:3444   */\n      tag_99\n        /* \"#utility.yul\":3442:3443   */\n      dup3\n        /* \"#utility.yul\":3424:3444   */\n      tag_40\n      jump\t// in\n    tag_99:\n        /* \"#utility.yul\":3419:3444   */\n      swap2\n      pop\n        /* \"#utility.yul\":3458:3478   */\n      tag_100\n        /* \"#utility.yul\":3476:3477   */\n      dup4\n        /* \"#utility.yul\":3458:3478   */\n      tag_40\n      jump\t// in\n    tag_100:\n        /* \"#utility.yul\":3453:3478   */\n      swap3\n      pop\n        /* \"#utility.yul\":3513:3514   */\n      dup3\n        /* \"#utility.yul\":3510:3511   */\n      dup3\n        /* \"#utility.yul\":3506:3515   */\n      mul\n        /* \"#utility.yul\":3535:3565   */\n      tag_101\n        /* \"#utility.yul\":3553:3564   */\n      dup2\n        /* \"#utility.yul\":3535:3565   */\n      tag_40\n      jump\t// in\n    tag_101:\n        /* \"#utility.yul\":3524:3565   */\n      swap2\n      pop\n        /* \"#utility.yul\":3714:3715   */\n      dup3\n        /* \"#utility.yul\":3705:3712   */\n      dup3\n        /* \"#utility.yul\":3701:3716   */\n      div\n        /* \"#utility.yul\":3698:3699   */\n      dup5\n        /* \"#utility.yul\":3695:3717   */\n      eq\n        /* \"#utility.yul\":3675:3676   */\n      dup4\n        /* \"#utility.yul\":3668:3677   */\n      iszero\n        /* \"#utility.yul\":3648:3731   */\n      or\n        /* \"#utility.yul\":3625:3764   */\n      tag_102\n      jumpi\n        /* \"#utility.yul\":3744:3762   */\n      tag_103\n      tag_54\n      jump\t// in\n    tag_103:\n        /* \"#utility.yul\":3625:3764   */\n    tag_102:\n        /* \"#utility.yul\":3409:3771   */\n      pop\n        /* \"#utility.yul\":3361:3771   */\n      swap3\n      swap2\n      pop\n      pop\n      jump\t// out\n        /* \"#utility.yul\":3777:3957   */\n    tag_55:\n        /* \"#utility.yul\":3825:3902   */\n      0x4e487b7100000000000000000000000000000000000000000000000000000000\n        /* \"#utility.yul\":3822:3823   */\n      0x00\n        /* \"#utility.yul\":3815:3903   */\n      mstore\n        /* \"#utility.yul\":3922:3926   */\n      0x12\n        /* \"#utility.yul\":3919:3920   */\n      0x04\n        /* \"#utility.yul\":3912:3927   */\n      mstore\n        /* \"#utility.yul\":3946:3950   */\n      0x24\n        /* \"#utility.yul\":3943:3944   */\n      0x00\n        /* \"#utility.yul\":3936:3951   */\n      revert\n        /* \"#utility.yul\":3963:4148   */\n    tag_24:\n        /* \"#utility.yul\":4003:4004   */\n      0x00\n        /* \"#utility.yul\":4020:4040   */\n      tag_106\n        /* \"#utility.yul\":4038:4039   */\n      dup3\n        /* \"#utility.yul\":4020:4040   */\n      tag_40\n      jump\t// in\n    tag_106:\n        /* \"#utility.yul\":4015:4040   */\n      swap2\n      pop\n        /* \"#utility.yul\":4054:4074   */\n      tag_107\n        /* \"#utility.yul\":4072:4073   */\n      dup4\n        /* \"#utility.yul\":4054:4074   */\n      tag_40\n      jump\t// in\n    tag_107:\n        /* \"#utility.yul\":4049:4074   */\n      swap3\n      pop\n        /* \"#utility.yul\":4093:4094   */\n      dup3\n        /* \"#utility.yul\":4083:4118   */\n      tag_108\n      jumpi\n        /* \"#utility.yul\":4098:4116   */\n      tag_109\n      tag_55\n      jump\t// in\n    tag_109:\n        /* \"#utility.yul\":4083:4118   */\n    tag_108:\n        /* \"#utility.yul\":4140:4141   */\n      dup3\n        /* \"#utility.yul\":4137:4138   */\n      dup3\n        /* \"#utility.yul\":4133:4142   */\n      div\n        /* \"#utility.yul\":4128:4142   */\n      swap1\n      pop\n        /* \"#utility.yul\":3963:4148   */\n      swap3\n      swap2\n      pop\n      pop\n      jump\t// out\n        /* \"#utility.yul\":4154:4244   */\n    tag_56:\n        /* \"#utility.yul\":4188:4195   */\n      0x00\n        /* \"#utility.yul\":4231:4236   */\n      dup2\n        /* \"#utility.yul\":4224:4237   */\n      iszero\n        /* \"#utility.yul\":4217:4238   */\n      iszero\n        /* \"#utility.yul\":4206:4238   */\n      swap1\n      pop\n        /* \"#utility.yul\":4154:4244   */\n      swap2\n      swap1\n      pop\n      jump\t// out\n        /* \"#utility.yul\":4250:4366   */\n    tag_57:\n        /* \"#utility.yul\":4320:4341   */\n      tag_112\n        /* \"#utility.yul\":4335:4340   */\n      dup2\n        /* \"#utility.yul\":4320:4341   */\n      tag_56\n      jump\t// in\n    tag_112:\n        /* \"#utility.yul\":4313:4318   */\n      dup2\n        /* \"#utility.yul\":4310:4342   */\n      eq\n        /* \"#utility.yul\":4300:4360   */\n      tag_113\n      jumpi\n        /* \"#utility.yul\":4356:4357   */\n      0x00\n        /* \"#utility.yul\":4353:4354   */\n      0x00\n        /* \"#utility.yul\":4346:4358   */\n      revert\n        /* \"#utility.yul\":4300:4360   */\n    tag_113:\n        /* \"#utility.yul\":4250:4366   */\n      pop\n      jump\t// out\n        /* \"#utility.yul\":4372:4509   */\n    tag_58:\n        /* \"#utility.yul\":4426:4431   */\n      0x00\n        /* \"#utility.yul\":4457:4463   */\n      dup2\n        /* \"#utility.yul\":4451:4464   */\n      mload\n        /* \"#utility.yul\":4442:4464   */\n      swap1\n      pop\n        /* \"#utility.yul\":4473:4503   */\n      tag_115\n        /* \"#utility.yul\":4497:4502   */\n      dup2\n        /* \"#utility.yul\":4473:4503   */\n      tag_57\n      jump\t// in\n    tag_115:\n        /* \"#utility.yul\":4372:4509   */\n      swap3\n      swap2\n      pop\n      pop\n      jump\t// out\n        /* \"#utility.yul\":4515:4860   */\n    tag_29:\n        /* \"#utility.yul\":4582:4588   */\n      0x00\n        /* \"#utility.yul\":4631:4633   */\n      0x20\n        /* \"#utility.yul\":4619:4628   */\n      dup3\n        /* \"#utility.yul\":4610:4617   */\n      dup5\n        /* \"#utility.yul\":4606:4629   */\n      sub\n        /* \"#utility.yul\":4602:4634   */\n      slt\n        /* \"#utility.yul\":4599:4718   */\n      iszero\n      tag_117\n      jumpi\n        /* \"#utility.yul\":4637:4716   */\n      tag_118\n      tag_43\n      jump\t// in\n    tag_118:\n        /* \"#utility.yul\":4599:4718   */\n    tag_117:\n        /* \"#utility.yul\":4757:4758   */\n      0x00\n        /* \"#utility.yul\":4782:4843   */\n      tag_119\n        /* \"#utility.yul\":4835:4842   */\n      dup5\n        /* \"#utility.yul\":4826:4832   */\n      dup3\n        /* \"#utility.yul\":4815:4824   */\n      dup6\n        /* \"#utility.yul\":4811:4833   */\n      add\n        /* \"#utility.yul\":4782:4843   */\n      tag_58\n      jump\t// in\n    tag_119:\n        /* \"#utility.yul\":4772:4843   */\n      swap2\n      pop\n        /* \"#utility.yul\":4728:4853   */\n      pop\n        /* \"#utility.yul\":4515:4860   */\n      swap3\n      swap2\n      pop\n      pop\n      jump\t// out\n        /* \"#utility.yul\":4866:5033   */\n    tag_59:\n        /* \"#utility.yul\":5006:5025   */\n      0x4f70657261636a61206e69657564616e61000000000000000000000000000000\n        /* \"#utility.yul\":5002:5003   */\n      0x00\n        /* \"#utility.yul\":4994:5000   */\n      dup3\n        /* \"#utility.yul\":4990:5004   */\n      add\n        /* \"#utility.yul\":4983:5026   */\n      mstore\n        /* \"#utility.yul\":4866:5033   */\n      pop\n      jump\t// out\n        /* \"#utility.yul\":5039:5405   */\n    tag_60:\n        /* \"#utility.yul\":5181:5184   */\n      0x00\n        /* \"#utility.yul\":5202:5269   */\n      tag_122\n        /* \"#utility.yul\":5266:5268   */\n      0x11\n        /* \"#utility.yul\":5261:5264   */\n      dup4\n        /* \"#utility.yul\":5202:5269   */\n      tag_51\n      jump\t// in\n    tag_122:\n        /* \"#utility.yul\":5195:5269   */\n      swap2\n      pop\n        /* \"#utility.yul\":5278:5371   */\n      tag_123\n        /* \"#utility.yul\":5367:5370   */\n      dup3\n        /* \"#utility.yul\":5278:5371   */\n      tag_59\n      jump\t// in\n    tag_123:\n        /* \"#utility.yul\":5396:5398   */\n      0x20\n        /* \"#utility.yul\":5391:5394   */\n      dup3\n        /* \"#utility.yul\":5387:5399   */\n      add\n        /* \"#utility.yul\":5380:5399   */\n      swap1\n      pop\n        /* \"#utility.yul\":5039:5405   */\n      swap2\n      swap1\n      pop\n      jump\t// out\n        /* \"#utility.yul\":5411:5830   */\n    tag_32:\n        /* \"#utility.yul\":5577:5581   */\n      0x00\n        /* \"#utility.yul\":5615:5617   */\n      0x20\n        /* \"#utility.yul\":5604:5613   */\n      dup3\n        /* \"#utility.yul\":5600:5618   */\n      add\n        /* \"#utility.yul\":5592:5618   */\n      swap1\n      pop\n        /* \"#utility.yul\":5664:5673   */\n      dup2\n        /* \"#utility.yul\":5658:5662   */\n      dup2\n        /* \"#utility.yul\":5654:5674   */\n      sub\n        /* \"#utility.yul\":5650:5651   */\n      0x00\n        /* \"#utility.yul\":5639:5648   */\n      dup4\n        /* \"#utility.yul\":5635:5652   */\n      add\n        /* \"#utility.yul\":5628:5675   */\n      mstore\n        /* \"#utility.yul\":5692:5823   */\n      tag_125\n        /* \"#utility.yul\":5818:5822   */\n      dup2\n        /* \"#utility.yul\":5692:5823   */\n      tag_60\n      jump\t// in\n    tag_125:\n        /* \"#utility.yul\":5684:5823   */\n      swap1\n      pop\n        /* \"#utility.yul\":5411:5830   */\n      swap2\n      swap1\n      pop\n      jump\t// out\n        /* \"#utility.yul\":5836:6027   */\n    tag_34:\n        /* \"#utility.yul\":5876:5879   */\n      0x00\n        /* \"#utility.yul\":5895:5915   */\n      tag_127\n        /* \"#utility.yul\":5913:5914   */\n      dup3\n        /* \"#utility.yul\":5895:5915   */\n      tag_40\n      jump\t// in\n    tag_127:\n        /* \"#utility.yul\":5890:5915   */\n      swap2\n      pop\n        /* \"#utility.yul\":5929:5949   */\n      tag_128\n        /* \"#utility.yul\":5947:5948   */\n      dup4\n        /* \"#utility.yul\":5929:5949   */\n      tag_40\n      jump\t// in\n    tag_128:\n        /* \"#utility.yul\":5924:5949   */\n      swap3\n      pop\n        /* \"#utility.yul\":5972:5973   */\n      dup3\n        /* \"#utility.yul\":5969:5970   */\n      dup3\n        /* \"#utility.yul\":5965:5974   */\n      add\n        /* \"#utility.yul\":5958:5974   */\n      swap1\n      pop\n        /* \"#utility.yul\":5993:5996   */\n      dup1\n        /* \"#utility.yul\":5990:5991   */\n      dup3\n        /* \"#utility.yul\":5987:5997   */\n      gt\n        /* \"#utility.yul\":5984:6020   */\n      iszero\n      tag_129\n      jumpi\n        /* \"#utility.yul\":6000:6018   */\n      tag_130\n      tag_54\n      jump\t// in\n    tag_130:\n        /* \"#utility.yul\":5984:6020   */\n    tag_129:\n        /* \"#utility.yul\":5836:6027   */\n      swap3\n      swap2\n      pop\n      pop\n      jump\t// out\n        /* \"#utility.yul\":6033:6260   */\n    tag_61:\n        /* \"#utility.yul\":6173:6207   */\n      0x506f7a79637a6b61206e6965207a6f7374616c612073706c61636f6e61207a20\n        /* \"#utility.yul\":6169:6170   */\n      0x00\n        /* \"#utility.yul\":6161:6167   */\n      dup3\n        /* \"#utility.yul\":6157:6171   */\n      add\n        /* \"#utility.yul\":6150:6208   */\n      mstore\n        /* \"#utility.yul\":6242:6252   */\n      0x70726f77697a6a61000000000000000000000000000000000000000000000000\n        /* \"#utility.yul\":6237:6239   */\n      0x20\n        /* \"#utility.yul\":6229:6235   */\n      dup3\n        /* \"#utility.yul\":6225:6240   */\n      add\n        /* \"#utility.yul\":6218:6253   */\n      mstore\n        /* \"#utility.yul\":6033:6260   */\n      pop\n      jump\t// out\n        /* \"#utility.yul\":6266:6632   */\n    tag_62:\n        /* \"#utility.yul\":6408:6411   */\n      0x00\n        /* \"#utility.yul\":6429:6496   */\n      tag_133\n        /* \"#utility.yul\":6493:6495   */\n      0x28\n        /* \"#utility.yul\":6488:6491   */\n      dup4\n        /* \"#utility.yul\":6429:6496   */\n      tag_51\n      jump\t// in\n    tag_133:\n        /* \"#utility.yul\":6422:6496   */\n      swap2\n      pop\n        /* \"#utility.yul\":6505:6598   */\n      tag_134\n        /* \"#utility.yul\":6594:6597   */\n      dup3\n        /* \"#utility.yul\":6505:6598   */\n      tag_61\n      jump\t// in\n    tag_134:\n        /* \"#utility.yul\":6623:6625   */\n      0x40\n        /* \"#utility.yul\":6618:6621   */\n      dup3\n        /* \"#utility.yul\":6614:6626   */\n      add\n        /* \"#utility.yul\":6607:6626   */\n      swap1\n      pop\n        /* \"#utility.yul\":6266:6632   */\n      swap2\n      swap1\n      pop\n      jump\t// out\n        /* \"#utility.yul\":6638:7057   */\n    tag_37:\n        /* \"#utility.yul\":6804:6808   */\n      0x00\n        /* \"#utility.yul\":6842:6844   */\n      0x20\n        /* \"#utility.yul\":6831:6840   */\n      dup3\n        /* \"#utility.yul\":6827:6845   */\n      add\n        /* \"#utility.yul\":6819:6845   */\n      swap1\n      pop\n        /* \"#utility.yul\":6891:6900   */\n      dup2\n        /* \"#utility.yul\":6885:6889   */\n      dup2\n        /* \"#utility.yul\":6881:6901   */\n      sub\n        /* \"#utility.yul\":6877:6878   */\n      0x00\n        /* \"#utility.yul\":6866:6875   */\n      dup4\n        /* \"#utility.yul\":6862:6879   */\n      add\n        /* \"#utility.yul\":6855:6902   */\n      mstore\n        /* \"#utility.yul\":6919:7050   */\n      tag_136\n        /* \"#utility.yul\":7045:7049   */\n      dup2\n        /* \"#utility.yul\":6919:7050   */\n      tag_62\n      jump\t// in\n    tag_136:\n        /* \"#utility.yul\":6911:7050   */\n      swap1\n      pop\n        /* \"#utility.yul\":6638:7057   */\n      swap2\n      swap1\n      pop\n      jump\t// out\n        /* \"#utility.yul\":7063:7395   */\n    tag_39:\n        /* \"#utility.yul\":7184:7188   */\n      0x00\n        /* \"#utility.yul\":7222:7224   */\n      0x40\n        /* \"#utility.yul\":7211:7220   */\n      dup3\n        /* \"#utility.yul\":7207:7225   */\n      add\n        /* \"#utility.yul\":7199:7225   */\n      swap1\n      pop\n        /* \"#utility.yul\":7235:7306   */\n      tag_138\n        /* \"#utility.yul\":7303:7304   */\n      0x00\n        /* \"#utility.yul\":7292:7301   */\n      dup4\n        /* \"#utility.yul\":7288:7305   */\n      add\n        /* \"#utility.yul\":7279:7285   */\n      dup6\n        /* \"#utility.yul\":7235:7306   */\n      tag_41\n      jump\t// in\n    tag_138:\n        /* \"#utility.yul\":7316:7388   */\n      tag_139\n        /* \"#utility.yul\":7384:7386   */\n      0x20\n        /* \"#utility.yul\":7373:7382   */\n      dup4\n        /* \"#utility.yul\":7369:7387   */\n      add\n        /* \"#utility.yul\":7360:7366   */\n      dup5\n        /* \"#utility.yul\":7316:7388   */\n      tag_41\n      jump\t// in\n    tag_139:\n        /* \"#utility.yul\":7063:7395   */\n      swap4\n      swap3\n      pop\n      pop\n      pop\n      jump\t// out\n\n    auxdata: 0xa2646970667358221220a4c9d985ad372187b768d9396b5ce433acb17d91d0a8715afdfdfd28e2424d3c64736f6c63430008220033\n}\n",
				"bytecode": {
					"linkReferences": {},
					"object": "608060405260015f553480156012575f5ffd5b50610674806100205f395ff3fe60806040526004361061002c575f3560e01c80637fd6f15c146100375780639d9e465c1461006157610033565b3661003357005b5f5ffd5b348015610042575f5ffd5b5061004b610089565b604051610058919061026c565b60405180910390f35b34801561006c575f5ffd5b506100876004803603810190610082919061030d565b61008e565b005b5f5481565b5f479050818110156100d5576040517f08c379a00000000000000000000000000000000000000000000000000000000081526004016100cc906103a5565b60405180910390fd5b5f60645f54846100e591906103f0565b6100ef919061045e565b90508373ffffffffffffffffffffffffffffffffffffffff16630e70306d84836040518363ffffffff1660e01b815260040161012b919061026c565b60206040518083038185885af1158015610147573d5f5f3e3d5ffd5b50505050506040513d601f19601f8201168201806040525081019061016c91906104c3565b6101ab576040517f08c379a00000000000000000000000000000000000000000000000000000000081526004016101a290610538565b60405180910390fd5b5f47905081836101bb9190610556565b8110156101fd576040517f08c379a00000000000000000000000000000000000000000000000000000000081526004016101f4906105f9565b60405180910390fd5b8473ffffffffffffffffffffffffffffffffffffffff167f1b4678be01875999e214fb4f1fb5ad36f4f9cf364f53dde4e55df77f7cc7f7628584604051610245929190610617565b60405180910390a25050505050565b5f819050919050565b61026681610254565b82525050565b5f60208201905061027f5f83018461025d565b92915050565b5f5ffd5b5f73ffffffffffffffffffffffffffffffffffffffff82169050919050565b5f6102b282610289565b9050919050565b6102c2816102a8565b81146102cc575f5ffd5b50565b5f813590506102dd816102b9565b92915050565b6102ec81610254565b81146102f6575f5ffd5b50565b5f81359050610307816102e3565b92915050565b5f5f6040838503121561032357610322610285565b5b5f610330858286016102cf565b9250506020610341858286016102f9565b9150509250929050565b5f82825260208201905092915050565b7f5a61206d616c6f2045544820772070756c6900000000000000000000000000005f82015250565b5f61038f60128361034b565b915061039a8261035b565b602082019050919050565b5f6020820190508181035f8301526103bc81610383565b9050919050565b7f4e487b71000000000000000000000000000000000000000000000000000000005f52601160045260245ffd5b5f6103fa82610254565b915061040583610254565b925082820261041381610254565b9150828204841483151761042a576104296103c3565b5b5092915050565b7f4e487b71000000000000000000000000000000000000000000000000000000005f52601260045260245ffd5b5f61046882610254565b915061047383610254565b92508261048357610482610431565b5b828204905092915050565b5f8115159050919050565b6104a28161048e565b81146104ac575f5ffd5b50565b5f815190506104bd81610499565b92915050565b5f602082840312156104d8576104d7610285565b5b5f6104e5848285016104af565b91505092915050565b7f4f70657261636a61206e69657564616e610000000000000000000000000000005f82015250565b5f61052260118361034b565b915061052d826104ee565b602082019050919050565b5f6020820190508181035f83015261054f81610516565b9050919050565b5f61056082610254565b915061056b83610254565b9250828201905080821115610583576105826103c3565b5b92915050565b7f506f7a79637a6b61206e6965207a6f7374616c612073706c61636f6e61207a205f8201527f70726f77697a6a61000000000000000000000000000000000000000000000000602082015250565b5f6105e360288361034b565b91506105ee82610589565b604082019050919050565b5f6020820190508181035f830152610610816105d7565b9050919050565b5f60408201905061062a5f83018561025d565b610637602083018461025d565b939250505056fea2646970667358221220a4c9d985ad372187b768d9396b5ce433acb17d91d0a8715afdfdfd28e2424d3c64736f6c63430008220033",
					"opcodes": "PUSH1 0x80 PUSH1 0x40 MSTORE PUSH1 0x1 PUSH0 SSTORE CALLVALUE DUP1 ISZERO PUSH1 0x12 JUMPI PUSH0 PUSH0 REVERT JUMPDEST POP PUSH2 0x674 DUP1 PUSH2 0x20 PUSH0 CODECOPY PUSH0 RETURN INVALID PUSH1 0x80 PUSH1 0x40 MSTORE PUSH1 0x4 CALLDATASIZE LT PUSH2 0x2C JUMPI PUSH0 CALLDATALOAD PUSH1 0xE0 SHR DUP1 PUSH4 0x7FD6F15C EQ PUSH2 0x37 JUMPI DUP1 PUSH4 0x9D9E465C EQ PUSH2 0x61 JUMPI PUSH2 0x33 JUMP JUMPDEST CALLDATASIZE PUSH2 0x33 JUMPI STOP JUMPDEST PUSH0 PUSH0 REVERT JUMPDEST CALLVALUE DUP1 ISZERO PUSH2 0x42 JUMPI PUSH0 PUSH0 REVERT JUMPDEST POP PUSH2 0x4B PUSH2 0x89 JUMP JUMPDEST PUSH1 0x40 MLOAD PUSH2 0x58 SWAP2 SWAP1 PUSH2 0x26C JUMP JUMPDEST PUSH1 0x40 MLOAD DUP1 SWAP2 SUB SWAP1 RETURN JUMPDEST CALLVALUE DUP1 ISZERO PUSH2 0x6C JUMPI PUSH0 PUSH0 REVERT JUMPDEST POP PUSH2 0x87 PUSH1 0x4 DUP1 CALLDATASIZE SUB DUP2 ADD SWAP1 PUSH2 0x82 SWAP2 SWAP1 PUSH2 0x30D JUMP JUMPDEST PUSH2 0x8E JUMP JUMPDEST STOP JUMPDEST PUSH0 SLOAD DUP2 JUMP JUMPDEST PUSH0 SELFBALANCE SWAP1 POP DUP2 DUP2 LT ISZERO PUSH2 0xD5 JUMPI PUSH1 0x40 MLOAD PUSH32 0x8C379A000000000000000000000000000000000000000000000000000000000 DUP2 MSTORE PUSH1 0x4 ADD PUSH2 0xCC SWAP1 PUSH2 0x3A5 JUMP JUMPDEST PUSH1 0x40 MLOAD DUP1 SWAP2 SUB SWAP1 REVERT JUMPDEST PUSH0 PUSH1 0x64 PUSH0 SLOAD DUP5 PUSH2 0xE5 SWAP2 SWAP1 PUSH2 0x3F0 JUMP JUMPDEST PUSH2 0xEF SWAP2 SWAP1 PUSH2 0x45E JUMP JUMPDEST SWAP1 POP DUP4 PUSH20 0xFFFFFFFFFFFFFFFFFFFFFFFFFFFFFFFFFFFFFFFF AND PUSH4 0xE70306D DUP5 DUP4 PUSH1 0x40 MLOAD DUP4 PUSH4 0xFFFFFFFF AND PUSH1 0xE0 SHL DUP2 MSTORE PUSH1 0x4 ADD PUSH2 0x12B SWAP2 SWAP1 PUSH2 0x26C JUMP JUMPDEST PUSH1 0x20 PUSH1 0x40 MLOAD DUP1 DUP4 SUB DUP2 DUP6 DUP9 GAS CALL ISZERO DUP1 ISZERO PUSH2 0x147 JUMPI RETURNDATASIZE PUSH0 PUSH0 RETURNDATACOPY RETURNDATASIZE PUSH0 REVERT JUMPDEST POP POP POP POP POP PUSH1 0x40 MLOAD RETURNDATASIZE PUSH1 0x1F NOT PUSH1 0x1F DUP3 ADD AND DUP3 ADD DUP1 PUSH1 0x40 MSTORE POP DUP2 ADD SWAP1 PUSH2 0x16C SWAP2 SWAP1 PUSH2 0x4C3 JUMP JUMPDEST PUSH2 0x1AB JUMPI PUSH1 0x40 MLOAD PUSH32 0x8C379A000000000000000000000000000000000000000000000000000000000 DUP2 MSTORE PUSH1 0x4 ADD PUSH2 0x1A2 SWAP1 PUSH2 0x538 JUMP JUMPDEST PUSH1 0x40 MLOAD DUP1 SWAP2 SUB SWAP1 REVERT JUMPDEST PUSH0 SELFBALANCE SWAP1 POP DUP2 DUP4 PUSH2 0x1BB SWAP2 SWAP1 PUSH2 0x556 JUMP JUMPDEST DUP2 LT ISZERO PUSH2 0x1FD JUMPI PUSH1 0x40 MLOAD PUSH32 0x8C379A000000000000000000000000000000000000000000000000000000000 DUP2 MSTORE PUSH1 0x4 ADD PUSH2 0x1F4 SWAP1 PUSH2 0x5F9 JUMP JUMPDEST PUSH1 0x40 MLOAD DUP1 SWAP2 SUB SWAP1 REVERT JUMPDEST DUP5 PUSH20 0xFFFFFFFFFFFFFFFFFFFFFFFFFFFFFFFFFFFFFFFF AND PUSH32 0x1B4678BE01875999E214FB4F1FB5AD36F4F9CF364F53DDE4E55DF77F7CC7F762 DUP6 DUP5 PUSH1 0x40 MLOAD PUSH2 0x245 SWAP3 SWAP2 SWAP1 PUSH2 0x617 JUMP JUMPDEST PUSH1 0x40 MLOAD DUP1 SWAP2 SUB SWAP1 LOG2 POP POP POP POP POP JUMP JUMPDEST PUSH0 DUP2 SWAP1 POP SWAP2 SWAP1 POP JUMP JUMPDEST PUSH2 0x266 DUP2 PUSH2 0x254 JUMP JUMPDEST DUP3 MSTORE POP POP JUMP JUMPDEST PUSH0 PUSH1 0x20 DUP3 ADD SWAP1 POP PUSH2 0x27F PUSH0 DUP4 ADD DUP5 PUSH2 0x25D JUMP JUMPDEST SWAP3 SWAP2 POP POP JUMP JUMPDEST PUSH0 PUSH0 REVERT JUMPDEST PUSH0 PUSH20 0xFFFFFFFFFFFFFFFFFFFFFFFFFFFFFFFFFFFFFFFF DUP3 AND SWAP1 POP SWAP2 SWAP1 POP JUMP JUMPDEST PUSH0 PUSH2 0x2B2 DUP3 PUSH2 0x289 JUMP JUMPDEST SWAP1 POP SWAP2 SWAP1 POP JUMP JUMPDEST PUSH2 0x2C2 DUP2 PUSH2 0x2A8 JUMP JUMPDEST DUP2 EQ PUSH2 0x2CC JUMPI PUSH0 PUSH0 REVERT JUMPDEST POP JUMP JUMPDEST PUSH0 DUP2 CALLDATALOAD SWAP1 POP PUSH2 0x2DD DUP2 PUSH2 0x2B9 JUMP JUMPDEST SWAP3 SWAP2 POP POP JUMP JUMPDEST PUSH2 0x2EC DUP2 PUSH2 0x254 JUMP JUMPDEST DUP2 EQ PUSH2 0x2F6 JUMPI PUSH0 PUSH0 REVERT JUMPDEST POP JUMP JUMPDEST PUSH0 DUP2 CALLDATALOAD SWAP1 POP PUSH2 0x307 DUP2 PUSH2 0x2E3 JUMP JUMPDEST SWAP3 SWAP2 POP POP JUMP JUMPDEST PUSH0 PUSH0 PUSH1 0x40 DUP4 DUP6 SUB SLT ISZERO PUSH2 0x323 JUMPI PUSH2 0x322 PUSH2 0x285 JUMP JUMPDEST JUMPDEST PUSH0 PUSH2 0x330 DUP6 DUP3 DUP7 ADD PUSH2 0x2CF JUMP JUMPDEST SWAP3 POP POP PUSH1 0x20 PUSH2 0x341 DUP6 DUP3 DUP7 ADD PUSH2 0x2F9 JUMP JUMPDEST SWAP2 POP POP SWAP3 POP SWAP3 SWAP1 POP JUMP JUMPDEST PUSH0 DUP3 DUP3 MSTORE PUSH1 0x20 DUP3 ADD SWAP1 POP SWAP3 SWAP2 POP POP JUMP JUMPDEST PUSH32 0x5A61206D616C6F2045544820772070756C690000000000000000000000000000 PUSH0 DUP3 ADD MSTORE POP JUMP JUMPDEST PUSH0 PUSH2 0x38F PUSH1 0x12 DUP4 PUSH2 0x34B JUMP JUMPDEST SWAP2 POP PUSH2 0x39A DUP3 PUSH2 0x35B JUMP JUMPDEST PUSH1 0x20 DUP3 ADD SWAP1 POP SWAP2 SWAP1 POP JUMP JUMPDEST PUSH0 PUSH1 0x20 DUP3 ADD SWAP1 POP DUP2 DUP2 SUB PUSH0 DUP4 ADD MSTORE PUSH2 0x3BC DUP2 PUSH2 0x383 JUMP JUMPDEST SWAP1 POP SWAP2 SWAP1 POP JUMP JUMPDEST PUSH32 0x4E487B7100000000000000000000000000000000000000000000000000000000 PUSH0 MSTORE PUSH1 0x11 PUSH1 0x4 MSTORE PUSH1 0x24 PUSH0 REVERT JUMPDEST PUSH0 PUSH2 0x3FA DUP3 PUSH2 0x254 JUMP JUMPDEST SWAP2 POP PUSH2 0x405 DUP4 PUSH2 0x254 JUMP JUMPDEST SWAP3 POP DUP3 DUP3 MUL PUSH2 0x413 DUP2 PUSH2 0x254 JUMP JUMPDEST SWAP2 POP DUP3 DUP3 DIV DUP5 EQ DUP4 ISZERO OR PUSH2 0x42A JUMPI PUSH2 0x429 PUSH2 0x3C3 JUMP JUMPDEST JUMPDEST POP SWAP3 SWAP2 POP POP JUMP JUMPDEST PUSH32 0x4E487B7100000000000000000000000000000000000000000000000000000000 PUSH0 MSTORE PUSH1 0x12 PUSH1 0x4 MSTORE PUSH1 0x24 PUSH0 REVERT JUMPDEST PUSH0 PUSH2 0x468 DUP3 PUSH2 0x254 JUMP JUMPDEST SWAP2 POP PUSH2 0x473 DUP4 PUSH2 0x254 JUMP JUMPDEST SWAP3 POP DUP3 PUSH2 0x483 JUMPI PUSH2 0x482 PUSH2 0x431 JUMP JUMPDEST JUMPDEST DUP3 DUP3 DIV SWAP1 POP SWAP3 SWAP2 POP POP JUMP JUMPDEST PUSH0 DUP2 ISZERO ISZERO SWAP1 POP SWAP2 SWAP1 POP JUMP JUMPDEST PUSH2 0x4A2 DUP2 PUSH2 0x48E JUMP JUMPDEST DUP2 EQ PUSH2 0x4AC JUMPI PUSH0 PUSH0 REVERT JUMPDEST POP JUMP JUMPDEST PUSH0 DUP2 MLOAD SWAP1 POP PUSH2 0x4BD DUP2 PUSH2 0x499 JUMP JUMPDEST SWAP3 SWAP2 POP POP JUMP JUMPDEST PUSH0 PUSH1 0x20 DUP3 DUP5 SUB SLT ISZERO PUSH2 0x4D8 JUMPI PUSH2 0x4D7 PUSH2 0x285 JUMP JUMPDEST JUMPDEST PUSH0 PUSH2 0x4E5 DUP5 DUP3 DUP6 ADD PUSH2 0x4AF JUMP JUMPDEST SWAP2 POP POP SWAP3 SWAP2 POP POP JUMP JUMPDEST PUSH32 0x4F70657261636A61206E69657564616E61000000000000000000000000000000 PUSH0 DUP3 ADD MSTORE POP JUMP JUMPDEST PUSH0 PUSH2 0x522 PUSH1 0x11 DUP4 PUSH2 0x34B JUMP JUMPDEST SWAP2 POP PUSH2 0x52D DUP3 PUSH2 0x4EE JUMP JUMPDEST PUSH1 0x20 DUP3 ADD SWAP1 POP SWAP2 SWAP1 POP JUMP JUMPDEST PUSH0 PUSH1 0x20 DUP3 ADD SWAP1 POP DUP2 DUP2 SUB PUSH0 DUP4 ADD MSTORE PUSH2 0x54F DUP2 PUSH2 0x516 JUMP JUMPDEST SWAP1 POP SWAP2 SWAP1 POP JUMP JUMPDEST PUSH0 PUSH2 0x560 DUP3 PUSH2 0x254 JUMP JUMPDEST SWAP2 POP PUSH2 0x56B DUP4 PUSH2 0x254 JUMP JUMPDEST SWAP3 POP DUP3 DUP3 ADD SWAP1 POP DUP1 DUP3 GT ISZERO PUSH2 0x583 JUMPI PUSH2 0x582 PUSH2 0x3C3 JUMP JUMPDEST JUMPDEST SWAP3 SWAP2 POP POP JUMP JUMPDEST PUSH32 0x506F7A79637A6B61206E6965207A6F7374616C612073706C61636F6E61207A20 PUSH0 DUP3 ADD MSTORE PUSH32 0x70726F77697A6A61000000000000000000000000000000000000000000000000 PUSH1 0x20 DUP3 ADD MSTORE POP JUMP JUMPDEST PUSH0 PUSH2 0x5E3 PUSH1 0x28 DUP4 PUSH2 0x34B JUMP JUMPDEST SWAP2 POP PUSH2 0x5EE DUP3 PUSH2 0x589 JUMP JUMPDEST PUSH1 0x40 DUP3 ADD SWAP1 POP SWAP2 SWAP1 POP JUMP JUMPDEST PUSH0 PUSH1 0x20 DUP3 ADD SWAP1 POP DUP2 DUP2 SUB PUSH0 DUP4 ADD MSTORE PUSH2 0x610 DUP2 PUSH2 0x5D7 JUMP JUMPDEST SWAP1 POP SWAP2 SWAP1 POP JUMP JUMPDEST PUSH0 PUSH1 0x40 DUP3 ADD SWAP1 POP PUSH2 0x62A PUSH0 DUP4 ADD DUP6 PUSH2 0x25D JUMP JUMPDEST PUSH2 0x637 PUSH1 0x20 DUP4 ADD DUP5 PUSH2 0x25D JUMP JUMPDEST SWAP4 SWAP3 POP POP POP JUMP INVALID LOG2 PUSH5 0x6970667358 0x22 SLT KECCAK256 LOG4 0xC9 0xD9 DUP6 0xAD CALLDATACOPY 0x21 DUP8 0xB7 PUSH9 0xD9396B5CE433ACB17D SWAP2 0xD0 0xA8 PUSH18 0x5AFDFDFD28E2424D3C64736F6C6343000822 STOP CALLER "
				},
				"gasEstimates": {
					"creation": {
						"codeDepositCost": "330400",
						"executionCost": "22471",
						"totalCost": "352871"
					},
					"external": {
						"feePercent()": "2402",
						"flashLoan(address,uint256)": "infinite"
					}
				},
				"methodIdentifiers": {
					"feePercent()": "7fd6f15c",
					"flashLoan(address,uint256)": "9d9e465c"
				}
			},
			"storageLayout": {
				"storage": [
					{
						"astId": 12,
						"contract": "contracts/flashloan/EthFlashLender.sol:EthFlashLender",
						"label": "feePercent",
						"offset": 0,
						"slot": "0",
						"type": "t_uint256"
					}
				],
				"types": {
					"t_uint256": {
						"encoding": "inplace",
						"label": "uint256",
						"numberOfBytes": "32"
					}
				}
			},
			"userdoc": {
				"kind": "user",
				"methods": {},
				"version": 1
			}
		}
	}
}