{
	"contracts/DAOattack/VictimDAOsafe1.sol": {
		"VictimDAOsafe": {
			"abi": [
				{
					"inputs": [],
					"name": "ReentrancyGuardReentrantCall",
					"type": "error"
				},
				{
					"anonymous": false,
					"inputs": [
						{
							"indexed": true,
							"internalType": "address",
							"name": "user",
							"type": "address"
						},
						{
							"indexed": false,
							"internalType": "uint256",
							"name": "amount",
							"type": "uint256"
						}
					],
					"name": "Deposit",
					"type": "event"
				},
				{
					"anonymous": false,
					"inputs": [
						{
							"indexed": true,
							"internalType": "address",
							"name": "user",
							"type": "address"
						},
						{
							"indexed": false,
							"internalType": "uint256",
							"name": "daoBalanceAfter",
							"type": "uint256"
						}
					],
					"name": "WithdrawalFinished",
					"type": "event"
				},
				{
					"anonymous": false,
					"inputs": [
						{
							"indexed": true,
							"internalType": "address",
							"name": "user",
							"type": "address"
						},
						{
							"indexed": false,
							"internalType": "uint256",
							"name": "amount",
							"type": "uint256"
						},
						{
							"indexed": false,
							"internalType": "uint256",
							"name": "daoBalanceBefore",
							"type": "uint256"
						}
					],
					"name": "WithdrawalStarted",
					"type": "event"
				},
				{
					"inputs": [
						{
							"internalType": "address",
							"name": "",
							"type": "address"
						}
					],
					"name": "balances",
					"outputs": [
						{
							"internalType": "uint256",
							"name": "",
							"type": "uint256"
						}
					],
					"stateMutability": "view",
					"type": "function"
				},
				{
					"inputs": [],
					"name": "deposit",
					"outputs": [],
					"stateMutability": "payable",
					"type": "function"
				},
				{
					"inputs": [],
					"name": "getContractBalance",
					"outputs": [
						{
							"internalType": "uint256",
							"name": "",
							"type": "uint256"
						}
					],
					"stateMutability": "view",
					"type": "function"
				},
				{
					"inputs": [],
					"name": "withdraw",
					"outputs": [],
					"stateMutability": "nonpayable",
					"type": "function"
				}
			],
			"devdoc": {
				"errors": {
					"ReentrancyGuardReentrantCall()": [
						{
							"details": "Unauthorized reentrant call."
						}
					]
				},
				"kind": "dev",
				"methods": {},
				"version": 1
			},
			"evm": {
				"assembly": "    /* \"contracts/DAOattack/VictimDAOsafe1.sol\":124:1165  contract VictimDAOsafe  is ReentrancyGuard {... */\n  mstore(0x40, 0x80)\n  callvalue\n  dup1\n  iszero\n  tag_1\n  jumpi\n  revert(0x00, 0x00)\ntag_1:\n  pop\n    /* \"@openzeppelin/contracts/utils/ReentrancyGuard.sol\":2365:2366  1 */\n  0x01\n    /* \"@openzeppelin/contracts/utils/ReentrancyGuard.sol\":2539:2585  _reentrancyGuardStorageSlot().getUint256Slot() */\n  tag_4\n    /* \"@openzeppelin/contracts/utils/ReentrancyGuard.sol\":2539:2568  _reentrancyGuardStorageSlot() */\n  tag_5\n    /* \"@openzeppelin/contracts/utils/ReentrancyGuard.sol\":2539:2566  _reentrancyGuardStorageSlot */\n  shl(0x20, tag_6)\n    /* \"@openzeppelin/contracts/utils/ReentrancyGuard.sol\":2539:2568  _reentrancyGuardStorageSlot() */\n  0x20\n  shr\n  jump\t// in\ntag_5:\n    /* \"@openzeppelin/contracts/utils/ReentrancyGuard.sol\":2539:2583  _reentrancyGuardStorageSlot().getUint256Slot */\n  shl(0x20, tag_7)\n    /* \"@openzeppelin/contracts/utils/ReentrancyGuard.sol\":2539:2585  _reentrancyGuardStorageSlot().getUint256Slot() */\n  0x20\n  shr\n  jump\t// in\ntag_4:\n    /* \"@openzeppelin/contracts/utils/ReentrancyGuard.sol\":2539:2591  _reentrancyGuardStorageSlot().getUint256Slot().value */\n  0x00\n  add\n    /* \"@openzeppelin/contracts/utils/ReentrancyGuard.sol\":2539:2605  _reentrancyGuardStorageSlot().getUint256Slot().value = NOT_ENTERED */\n  dup2\n  swap1\n  sstore\n  pop\n    /* \"contracts/DAOattack/VictimDAOsafe1.sol\":124:1165  contract VictimDAOsafe  is ReentrancyGuard {... */\n  jump(tag_8)\n    /* \"@openzeppelin/contracts/utils/ReentrancyGuard.sol\":4636:4763  function _reentrancyGuardStorageSlot() internal pure virtual returns (bytes32) {... */\ntag_6:\n    /* \"@openzeppelin/contracts/utils/ReentrancyGuard.sol\":4706:4713  bytes32 */\n  0x00\n    /* \"@openzeppelin/contracts/utils/ReentrancyGuard.sol\":1505:1571  0x9b779b17422d0df92223018b32b4d1fa46e071723d6817e2486d003becc55f00 */\n  0x9b779b17422d0df92223018b32b4d1fa46e071723d6817e2486d003becc55f00\n    /* \"@openzeppelin/contracts/utils/ReentrancyGuard.sol\":4732:4756  REENTRANCY_GUARD_STORAGE */\n  0x00\n  shl\n    /* \"@openzeppelin/contracts/utils/ReentrancyGuard.sol\":4725:4756  return REENTRANCY_GUARD_STORAGE */\n  swap1\n  pop\n    /* \"@openzeppelin/contracts/utils/ReentrancyGuard.sol\":4636:4763  function _reentrancyGuardStorageSlot() internal pure virtual returns (bytes32) {... */\n  swap1\n  jump\t// out\n    /* \"@openzeppelin/contracts/utils/StorageSlot.sol\":2679:2842  function getUint256Slot(bytes32 slot) internal pure returns (Uint256Slot storage r) {... */\ntag_7:\n    /* \"@openzeppelin/contracts/utils/StorageSlot.sol\":2740:2761  Uint256Slot storage r */\n  0x00\n    /* \"@openzeppelin/contracts/utils/StorageSlot.sol\":2822:2826  slot */\n  dup2\n    /* \"@openzeppelin/contracts/utils/StorageSlot.sol\":2812:2826  r.slot := slot */\n  swap1\n  pop\n    /* \"@openzeppelin/contracts/utils/StorageSlot.sol\":2679:2842  function getUint256Slot(bytes32 slot) internal pure returns (Uint256Slot storage r) {... */\n  swap2\n  swap1\n  pop\n  jump\t// out\n    /* \"contracts/DAOattack/VictimDAOsafe1.sol\":124:1165  contract VictimDAOsafe  is ReentrancyGuard {... */\ntag_8:\n  dataSize(sub_0)\n  dup1\n  dataOffset(sub_0)\n  0x00\n  codecopy\n  0x00\n  return\nstop\n\nsub_0: assembly {\n        /* \"contracts/DAOattack/VictimDAOsafe1.sol\":124:1165  contract VictimDAOsafe  is ReentrancyGuard {... */\n      mstore(0x40, 0x80)\n      jumpi(tag_1, lt(calldatasize, 0x04))\n      shr(0xe0, calldataload(0x00))\n      dup1\n      0x27e235e3\n      eq\n      tag_2\n      jumpi\n      dup1\n      0x3ccfd60b\n      eq\n      tag_3\n      jumpi\n      dup1\n      0x6f9fb98a\n      eq\n      tag_4\n      jumpi\n      dup1\n      0xd0e30db0\n      eq\n      tag_5\n      jumpi\n    tag_1:\n      revert(0x00, 0x00)\n        /* \"contracts/DAOattack/VictimDAOsafe1.sol\":174:217  mapping(address => uint256) public balances */\n    tag_2:\n      callvalue\n      dup1\n      iszero\n      tag_6\n      jumpi\n      revert(0x00, 0x00)\n    tag_6:\n      pop\n      tag_7\n      0x04\n      dup1\n      calldatasize\n      sub\n      dup2\n      add\n      swap1\n      tag_8\n      swap2\n      swap1\n      tag_9\n      jump\t// in\n    tag_8:\n      tag_10\n      jump\t// in\n    tag_7:\n      mload(0x40)\n      tag_11\n      swap2\n      swap1\n      tag_12\n      jump\t// in\n    tag_11:\n      mload(0x40)\n      dup1\n      swap2\n      sub\n      swap1\n      return\n        /* \"contracts/DAOattack/VictimDAOsafe1.sol\":745:1047  function withdraw() public nonReentrant {... */\n    tag_3:\n      callvalue\n      dup1\n      iszero\n      tag_13\n      jumpi\n      revert(0x00, 0x00)\n    tag_13:\n      pop\n      tag_14\n      tag_15\n      jump\t// in\n    tag_14:\n      stop\n        /* \"contracts/DAOattack/VictimDAOsafe1.sol\":1055:1162  function getContractBalance() public view returns (uint256) {... */\n    tag_4:\n      callvalue\n      dup1\n      iszero\n      tag_16\n      jumpi\n      revert(0x00, 0x00)\n    tag_16:\n      pop\n      tag_17\n      tag_18\n      jump\t// in\n    tag_17:\n      mload(0x40)\n      tag_19\n      swap2\n      swap1\n      tag_12\n      jump\t// in\n    tag_19:\n      mload(0x40)\n      dup1\n      swap2\n      sub\n      swap1\n      return\n        /* \"contracts/DAOattack/VictimDAOsafe1.sol\":458:654  function deposit() public payable {... */\n    tag_5:\n      tag_20\n      tag_21\n      jump\t// in\n    tag_20:\n      stop\n        /* \"contracts/DAOattack/VictimDAOsafe1.sol\":174:217  mapping(address => uint256) public balances */\n    tag_10:\n      mstore(0x20, 0x00)\n      dup1\n      0x00\n      mstore\n      keccak256(0x00, 0x40)\n      0x00\n      swap2\n      pop\n      swap1\n      pop\n      sload\n      dup2\n      jump\t// out\n        /* \"contracts/DAOattack/VictimDAOsafe1.sol\":745:1047  function withdraw() public nonReentrant {... */\n    tag_15:\n        /* \"@openzeppelin/contracts/utils/ReentrancyGuard.sol\":3023:3044  _nonReentrantBefore() */\n      tag_23\n        /* \"@openzeppelin/contracts/utils/ReentrancyGuard.sol\":3023:3042  _nonReentrantBefore */\n      tag_24\n        /* \"@openzeppelin/contracts/utils/ReentrancyGuard.sol\":3023:3044  _nonReentrantBefore() */\n      jump\t// in\n    tag_23:\n        /* \"contracts/DAOattack/VictimDAOsafe1.sol\":796:811  uint256 balance */\n      0x00\n        /* \"contracts/DAOattack/VictimDAOsafe1.sol\":814:822  balances */\n      0x00\n        /* \"contracts/DAOattack/VictimDAOsafe1.sol\":814:834  balances[msg.sender] */\n      0x00\n        /* \"contracts/DAOattack/VictimDAOsafe1.sol\":823:833  msg.sender */\n      caller\n        /* \"contracts/DAOattack/VictimDAOsafe1.sol\":814:834  balances[msg.sender] */\n      0xffffffffffffffffffffffffffffffffffffffff\n      and\n      0xffffffffffffffffffffffffffffffffffffffff\n      and\n      dup2\n      mstore\n      0x20\n      add\n      swap1\n      dup2\n      mstore\n      0x20\n      add\n      0x00\n      keccak256\n      sload\n        /* \"contracts/DAOattack/VictimDAOsafe1.sol\":796:834  uint256 balance = balances[msg.sender] */\n      swap1\n      pop\n        /* \"contracts/DAOattack/VictimDAOsafe1.sol\":863:864  0 */\n      0x00\n        /* \"contracts/DAOattack/VictimDAOsafe1.sol\":853:860  balance */\n      dup2\n        /* \"contracts/DAOattack/VictimDAOsafe1.sol\":853:864  balance > 0 */\n      gt\n        /* \"contracts/DAOattack/VictimDAOsafe1.sol\":845:887  require(balance > 0, \"Brak srodkow w DAO\") */\n      tag_26\n      jumpi\n      mload(0x40)\n      0x08c379a000000000000000000000000000000000000000000000000000000000\n      dup2\n      mstore\n      0x04\n      add\n      tag_27\n      swap1\n      tag_28\n      jump\t// in\n    tag_27:\n      mload(0x40)\n      dup1\n      swap2\n      sub\n      swap1\n      revert\n    tag_26:\n        /* \"contracts/DAOattack/VictimDAOsafe1.sol\":901:913  bool success */\n      0x00\n        /* \"contracts/DAOattack/VictimDAOsafe1.sol\":919:929  msg.sender */\n      caller\n        /* \"contracts/DAOattack/VictimDAOsafe1.sol\":919:934  msg.sender.call */\n      0xffffffffffffffffffffffffffffffffffffffff\n      and\n        /* \"contracts/DAOattack/VictimDAOsafe1.sol\":942:949  balance */\n      dup3\n        /* \"contracts/DAOattack/VictimDAOsafe1.sol\":919:954  msg.sender.call{value: balance}(\"\") */\n      mload(0x40)\n      tag_29\n      swap1\n      tag_30\n      jump\t// in\n    tag_29:\n      0x00\n      mload(0x40)\n      dup1\n      dup4\n      sub\n      dup2\n      dup6\n      dup8\n      gas\n      call\n      swap3\n      pop\n      pop\n      pop\n      returndatasize\n      dup1\n      0x00\n      dup2\n      eq\n      tag_33\n      jumpi\n      mload(0x40)\n      swap2\n      pop\n      and(add(returndatasize, 0x3f), not(0x1f))\n      dup3\n      add\n      0x40\n      mstore\n      returndatasize\n      dup3\n      mstore\n      returndatasize\n      0x00\n      0x20\n      dup5\n      add\n      returndatacopy\n      jump(tag_32)\n    tag_33:\n      0x60\n      swap2\n      pop\n    tag_32:\n      pop\n        /* \"contracts/DAOattack/VictimDAOsafe1.sol\":900:954  (bool success, ) = msg.sender.call{value: balance}(\"\") */\n      pop\n      swap1\n      pop\n        /* \"contracts/DAOattack/VictimDAOsafe1.sol\":973:980  success */\n      dup1\n        /* \"contracts/DAOattack/VictimDAOsafe1.sol\":965:1002  require(success, \"Transfer nieudany\") */\n      tag_34\n      jumpi\n      mload(0x40)\n      0x08c379a000000000000000000000000000000000000000000000000000000000\n      dup2\n      mstore\n      0x04\n      add\n      tag_35\n      swap1\n      tag_36\n      jump\t// in\n    tag_35:\n      mload(0x40)\n      dup1\n      swap2\n      sub\n      swap1\n      revert\n    tag_34:\n        /* \"contracts/DAOattack/VictimDAOsafe1.sol\":1038:1039  0 */\n      0x00\n        /* \"contracts/DAOattack/VictimDAOsafe1.sol\":1015:1023  balances */\n      0x00\n        /* \"contracts/DAOattack/VictimDAOsafe1.sol\":1015:1035  balances[msg.sender] */\n      0x00\n        /* \"contracts/DAOattack/VictimDAOsafe1.sol\":1024:1034  msg.sender */\n      caller\n        /* \"contracts/DAOattack/VictimDAOsafe1.sol\":1015:1035  balances[msg.sender] */\n      0xffffffffffffffffffffffffffffffffffffffff\n      and\n      0xffffffffffffffffffffffffffffffffffffffff\n      and\n      dup2\n      mstore\n      0x20\n      add\n      swap1\n      dup2\n      mstore\n      0x20\n      add\n      0x00\n      keccak256\n        /* \"contracts/DAOattack/VictimDAOsafe1.sol\":1015:1039  balances[msg.sender] = 0 */\n      dup2\n      swap1\n      sstore\n      pop\n        /* \"contracts/DAOattack/VictimDAOsafe1.sol\":785:1047  {... */\n      pop\n      pop\n        /* \"@openzeppelin/contracts/utils/ReentrancyGuard.sol\":3065:3085  _nonReentrantAfter() */\n      tag_37\n        /* \"@openzeppelin/contracts/utils/ReentrancyGuard.sol\":3065:3083  _nonReentrantAfter */\n      tag_38\n        /* \"@openzeppelin/contracts/utils/ReentrancyGuard.sol\":3065:3085  _nonReentrantAfter() */\n      jump\t// in\n    tag_37:\n        /* \"contracts/DAOattack/VictimDAOsafe1.sol\":745:1047  function withdraw() public nonReentrant {... */\n      jump\t// out\n        /* \"contracts/DAOattack/VictimDAOsafe1.sol\":1055:1162  function getContractBalance() public view returns (uint256) {... */\n    tag_18:\n        /* \"contracts/DAOattack/VictimDAOsafe1.sol\":1106:1113  uint256 */\n      0x00\n        /* \"contracts/DAOattack/VictimDAOsafe1.sol\":1133:1154  address(this).balance */\n      selfbalance\n        /* \"contracts/DAOattack/VictimDAOsafe1.sol\":1126:1154  return address(this).balance */\n      swap1\n      pop\n        /* \"contracts/DAOattack/VictimDAOsafe1.sol\":1055:1162  function getContractBalance() public view returns (uint256) {... */\n      swap1\n      jump\t// out\n        /* \"contracts/DAOattack/VictimDAOsafe1.sol\":458:654  function deposit() public payable {... */\n    tag_21:\n        /* \"contracts/DAOattack/VictimDAOsafe1.sol\":523:524  0 */\n      0x00\n        /* \"contracts/DAOattack/VictimDAOsafe1.sol\":511:520  msg.value */\n      callvalue\n        /* \"contracts/DAOattack/VictimDAOsafe1.sol\":511:524  msg.value > 0 */\n      gt\n        /* \"contracts/DAOattack/VictimDAOsafe1.sol\":503:556  require(msg.value > 0, \"Musisz wplacic wiecej niz 0\") */\n      tag_41\n      jumpi\n      mload(0x40)\n      0x08c379a000000000000000000000000000000000000000000000000000000000\n      dup2\n      mstore\n      0x04\n      add\n      tag_42\n      swap1\n      tag_43\n      jump\t// in\n    tag_42:\n      mload(0x40)\n      dup1\n      swap2\n      sub\n      swap1\n      revert\n    tag_41:\n        /* \"contracts/DAOattack/VictimDAOsafe1.sol\":591:600  msg.value */\n      callvalue\n        /* \"contracts/DAOattack/VictimDAOsafe1.sol\":567:575  balances */\n      0x00\n        /* \"contracts/DAOattack/VictimDAOsafe1.sol\":567:587  balances[msg.sender] */\n      0x00\n        /* \"contracts/DAOattack/VictimDAOsafe1.sol\":576:586  msg.sender */\n      caller\n        /* \"contracts/DAOattack/VictimDAOsafe1.sol\":567:587  balances[msg.sender] */\n      0xffffffffffffffffffffffffffffffffffffffff\n      and\n      0xffffffffffffffffffffffffffffffffffffffff\n      and\n      dup2\n      mstore\n      0x20\n      add\n      swap1\n      dup2\n      mstore\n      0x20\n      add\n      0x00\n      keccak256\n      0x00\n        /* \"contracts/DAOattack/VictimDAOsafe1.sol\":567:600  balances[msg.sender] += msg.value */\n      dup3\n      dup3\n      sload\n      tag_44\n      swap2\n      swap1\n      tag_45\n      jump\t// in\n    tag_44:\n      swap3\n      pop\n      pop\n      dup2\n      swap1\n      sstore\n      pop\n        /* \"contracts/DAOattack/VictimDAOsafe1.sol\":624:634  msg.sender */\n      caller\n        /* \"contracts/DAOattack/VictimDAOsafe1.sol\":616:646  Deposit(msg.sender, msg.value) */\n      0xffffffffffffffffffffffffffffffffffffffff\n      and\n      0xe1fffcc4923d04b559f4d29a8bfc6cda04eb5b0d3c460751c2402c5c5cc9109c\n        /* \"contracts/DAOattack/VictimDAOsafe1.sol\":636:645  msg.value */\n      callvalue\n        /* \"contracts/DAOattack/VictimDAOsafe1.sol\":616:646  Deposit(msg.sender, msg.value) */\n      mload(0x40)\n      tag_46\n      swap2\n      swap1\n      tag_12\n      jump\t// in\n    tag_46:\n      mload(0x40)\n      dup1\n      swap2\n      sub\n      swap1\n      log2\n        /* \"contracts/DAOattack/VictimDAOsafe1.sol\":458:654  function deposit() public payable {... */\n      jump\t// out\n        /* \"@openzeppelin/contracts/utils/ReentrancyGuard.sol\":3749:4041  function _nonReentrantBefore() private {... */\n    tag_24:\n        /* \"@openzeppelin/contracts/utils/ReentrancyGuard.sol\":3872:3897  _nonReentrantBeforeView() */\n      tag_48\n        /* \"@openzeppelin/contracts/utils/ReentrancyGuard.sol\":3872:3895  _nonReentrantBeforeView */\n      tag_49\n        /* \"@openzeppelin/contracts/utils/ReentrancyGuard.sol\":3872:3897  _nonReentrantBeforeView() */\n      jump\t// in\n    tag_48:\n        /* \"@openzeppelin/contracts/utils/ReentrancyGuard.sol\":2407:2408  2 */\n      0x02\n        /* \"@openzeppelin/contracts/utils/ReentrancyGuard.sol\":3972:4018  _reentrancyGuardStorageSlot().getUint256Slot() */\n      tag_50\n        /* \"@openzeppelin/contracts/utils/ReentrancyGuard.sol\":3972:4001  _reentrancyGuardStorageSlot() */\n      tag_51\n        /* \"@openzeppelin/contracts/utils/ReentrancyGuard.sol\":3972:3999  _reentrancyGuardStorageSlot */\n      tag_52\n        /* \"@openzeppelin/contracts/utils/ReentrancyGuard.sol\":3972:4001  _reentrancyGuardStorageSlot() */\n      jump\t// in\n    tag_51:\n        /* \"@openzeppelin/contracts/utils/ReentrancyGuard.sol\":3972:4016  _reentrancyGuardStorageSlot().getUint256Slot */\n      tag_53\n        /* \"@openzeppelin/contracts/utils/ReentrancyGuard.sol\":3972:4018  _reentrancyGuardStorageSlot().getUint256Slot() */\n      jump\t// in\n    tag_50:\n        /* \"@openzeppelin/contracts/utils/ReentrancyGuard.sol\":3972:4024  _reentrancyGuardStorageSlot().getUint256Slot().value */\n      0x00\n      add\n        /* \"@openzeppelin/contracts/utils/ReentrancyGuard.sol\":3972:4034  _reentrancyGuardStorageSlot().getUint256Slot().value = ENTERED */\n      dup2\n      swap1\n      sstore\n      pop\n        /* \"@openzeppelin/contracts/utils/ReentrancyGuard.sol\":3749:4041  function _nonReentrantBefore() private {... */\n      jump\t// out\n        /* \"@openzeppelin/contracts/utils/ReentrancyGuard.sol\":4047:4300  function _nonReentrantAfter() private {... */\n    tag_38:\n        /* \"@openzeppelin/contracts/utils/ReentrancyGuard.sol\":2365:2366  1 */\n      0x01\n        /* \"@openzeppelin/contracts/utils/ReentrancyGuard.sol\":4227:4273  _reentrancyGuardStorageSlot().getUint256Slot() */\n      tag_55\n        /* \"@openzeppelin/contracts/utils/ReentrancyGuard.sol\":4227:4256  _reentrancyGuardStorageSlot() */\n      tag_56\n        /* \"@openzeppelin/contracts/utils/ReentrancyGuard.sol\":4227:4254  _reentrancyGuardStorageSlot */\n      tag_52\n        /* \"@openzeppelin/contracts/utils/ReentrancyGuard.sol\":4227:4256  _reentrancyGuardStorageSlot() */\n      jump\t// in\n    tag_56:\n        /* \"@openzeppelin/contracts/utils/ReentrancyGuard.sol\":4227:4271  _reentrancyGuardStorageSlot().getUint256Slot */\n      tag_53\n        /* \"@openzeppelin/contracts/utils/ReentrancyGuard.sol\":4227:4273  _reentrancyGuardStorageSlot().getUint256Slot() */\n      jump\t// in\n    tag_55:\n        /* \"@openzeppelin/contracts/utils/ReentrancyGuard.sol\":4227:4279  _reentrancyGuardStorageSlot().getUint256Slot().value */\n      0x00\n      add\n        /* \"@openzeppelin/contracts/utils/ReentrancyGuard.sol\":4227:4293  _reentrancyGuardStorageSlot().getUint256Slot().value = NOT_ENTERED */\n      dup2\n      swap1\n      sstore\n      pop\n        /* \"@openzeppelin/contracts/utils/ReentrancyGuard.sol\":4047:4300  function _nonReentrantAfter() private {... */\n      jump\t// out\n        /* \"@openzeppelin/contracts/utils/ReentrancyGuard.sol\":3586:3743  function _nonReentrantBeforeView() private view {... */\n    tag_49:\n        /* \"@openzeppelin/contracts/utils/ReentrancyGuard.sol\":3648:3673  _reentrancyGuardEntered() */\n      tag_58\n        /* \"@openzeppelin/contracts/utils/ReentrancyGuard.sol\":3648:3671  _reentrancyGuardEntered */\n      tag_59\n        /* \"@openzeppelin/contracts/utils/ReentrancyGuard.sol\":3648:3673  _reentrancyGuardEntered() */\n      jump\t// in\n    tag_58:\n        /* \"@openzeppelin/contracts/utils/ReentrancyGuard.sol\":3644:3737  if (_reentrancyGuardEntered()) {... */\n      iszero\n      tag_60\n      jumpi\n        /* \"@openzeppelin/contracts/utils/ReentrancyGuard.sol\":3696:3726  ReentrancyGuardReentrantCall() */\n      mload(0x40)\n      0x3ee5aeb500000000000000000000000000000000000000000000000000000000\n      dup2\n      mstore\n      0x04\n      add\n      mload(0x40)\n      dup1\n      swap2\n      sub\n      swap1\n      revert\n        /* \"@openzeppelin/contracts/utils/ReentrancyGuard.sol\":3644:3737  if (_reentrancyGuardEntered()) {... */\n    tag_60:\n        /* \"@openzeppelin/contracts/utils/ReentrancyGuard.sol\":3586:3743  function _nonReentrantBeforeView() private view {... */\n      jump\t// out\n        /* \"@openzeppelin/contracts/utils/ReentrancyGuard.sol\":4636:4763  function _reentrancyGuardStorageSlot() internal pure virtual returns (bytes32) {... */\n    tag_52:\n        /* \"@openzeppelin/contracts/utils/ReentrancyGuard.sol\":4706:4713  bytes32 */\n      0x00\n        /* \"@openzeppelin/contracts/utils/ReentrancyGuard.sol\":1505:1571  0x9b779b17422d0df92223018b32b4d1fa46e071723d6817e2486d003becc55f00 */\n      0x9b779b17422d0df92223018b32b4d1fa46e071723d6817e2486d003becc55f00\n        /* \"@openzeppelin/contracts/utils/ReentrancyGuard.sol\":4732:4756  REENTRANCY_GUARD_STORAGE */\n      0x00\n      shl\n        /* \"@openzeppelin/contracts/utils/ReentrancyGuard.sol\":4725:4756  return REENTRANCY_GUARD_STORAGE */\n      swap1\n      pop\n        /* \"@openzeppelin/contracts/utils/ReentrancyGuard.sol\":4636:4763  function _reentrancyGuardStorageSlot() internal pure virtual returns (bytes32) {... */\n      swap1\n      jump\t// out\n        /* \"@openzeppelin/contracts/utils/StorageSlot.sol\":2679:2842  function getUint256Slot(bytes32 slot) internal pure returns (Uint256Slot storage r) {... */\n    tag_53:\n        /* \"@openzeppelin/contracts/utils/StorageSlot.sol\":2740:2761  Uint256Slot storage r */\n      0x00\n        /* \"@openzeppelin/contracts/utils/StorageSlot.sol\":2822:2826  slot */\n      dup2\n        /* \"@openzeppelin/contracts/utils/StorageSlot.sol\":2812:2826  r.slot := slot */\n      swap1\n      pop\n        /* \"@openzeppelin/contracts/utils/StorageSlot.sol\":2679:2842  function getUint256Slot(bytes32 slot) internal pure returns (Uint256Slot storage r) {... */\n      swap2\n      swap1\n      pop\n      jump\t// out\n        /* \"@openzeppelin/contracts/utils/ReentrancyGuard.sol\":4479:4630  function _reentrancyGuardEntered() internal view returns (bool) {... */\n    tag_59:\n        /* \"@openzeppelin/contracts/utils/ReentrancyGuard.sol\":4537:4541  bool */\n      0x00\n        /* \"@openzeppelin/contracts/utils/ReentrancyGuard.sol\":2407:2408  2 */\n      0x02\n        /* \"@openzeppelin/contracts/utils/ReentrancyGuard.sol\":4560:4606  _reentrancyGuardStorageSlot().getUint256Slot() */\n      tag_64\n        /* \"@openzeppelin/contracts/utils/ReentrancyGuard.sol\":4560:4589  _reentrancyGuardStorageSlot() */\n      tag_65\n        /* \"@openzeppelin/contracts/utils/ReentrancyGuard.sol\":4560:4587  _reentrancyGuardStorageSlot */\n      tag_52\n        /* \"@openzeppelin/contracts/utils/ReentrancyGuard.sol\":4560:4589  _reentrancyGuardStorageSlot() */\n      jump\t// in\n    tag_65:\n        /* \"@openzeppelin/contracts/utils/ReentrancyGuard.sol\":4560:4604  _reentrancyGuardStorageSlot().getUint256Slot */\n      tag_53\n        /* \"@openzeppelin/contracts/utils/ReentrancyGuard.sol\":4560:4606  _reentrancyGuardStorageSlot().getUint256Slot() */\n      jump\t// in\n    tag_64:\n        /* \"@openzeppelin/contracts/utils/ReentrancyGuard.sol\":4560:4612  _reentrancyGuardStorageSlot().getUint256Slot().value */\n      0x00\n      add\n      sload\n        /* \"@openzeppelin/contracts/utils/ReentrancyGuard.sol\":4560:4623  _reentrancyGuardStorageSlot().getUint256Slot().value == ENTERED */\n      eq\n        /* \"@openzeppelin/contracts/utils/ReentrancyGuard.sol\":4553:4623  return _reentrancyGuardStorageSlot().getUint256Slot().value == ENTERED */\n      swap1\n      pop\n        /* \"@openzeppelin/contracts/utils/ReentrancyGuard.sol\":4479:4630  function _reentrancyGuardEntered() internal view returns (bool) {... */\n      swap1\n      jump\t// out\n        /* \"#utility.yul\":88:205   */\n    tag_67:\n        /* \"#utility.yul\":197:198   */\n      0x00\n        /* \"#utility.yul\":194:195   */\n      0x00\n        /* \"#utility.yul\":187:199   */\n      revert\n        /* \"#utility.yul\":334:460   */\n    tag_69:\n        /* \"#utility.yul\":371:378   */\n      0x00\n        /* \"#utility.yul\":411:453   */\n      0xffffffffffffffffffffffffffffffffffffffff\n        /* \"#utility.yul\":404:409   */\n      dup3\n        /* \"#utility.yul\":400:454   */\n      and\n        /* \"#utility.yul\":389:454   */\n      swap1\n      pop\n        /* \"#utility.yul\":334:460   */\n      swap2\n      swap1\n      pop\n      jump\t// out\n        /* \"#utility.yul\":466:562   */\n    tag_70:\n        /* \"#utility.yul\":503:510   */\n      0x00\n        /* \"#utility.yul\":532:556   */\n      tag_92\n        /* \"#utility.yul\":550:555   */\n      dup3\n        /* \"#utility.yul\":532:556   */\n      tag_69\n      jump\t// in\n    tag_92:\n        /* \"#utility.yul\":521:556   */\n      swap1\n      pop\n        /* \"#utility.yul\":466:562   */\n      swap2\n      swap1\n      pop\n      jump\t// out\n        /* \"#utility.yul\":568:690   */\n    tag_71:\n        /* \"#utility.yul\":641:665   */\n      tag_94\n        /* \"#utility.yul\":659:664   */\n      dup2\n        /* \"#utility.yul\":641:665   */\n      tag_70\n      jump\t// in\n    tag_94:\n        /* \"#utility.yul\":634:639   */\n      dup2\n        /* \"#utility.yul\":631:666   */\n      eq\n        /* \"#utility.yul\":621:684   */\n      tag_95\n      jumpi\n        /* \"#utility.yul\":680:681   */\n      0x00\n        /* \"#utility.yul\":677:678   */\n      0x00\n        /* \"#utility.yul\":670:682   */\n      revert\n        /* \"#utility.yul\":621:684   */\n    tag_95:\n        /* \"#utility.yul\":568:690   */\n      pop\n      jump\t// out\n        /* \"#utility.yul\":696:835   */\n    tag_72:\n        /* \"#utility.yul\":742:747   */\n      0x00\n        /* \"#utility.yul\":780:786   */\n      dup2\n        /* \"#utility.yul\":767:787   */\n      calldataload\n        /* \"#utility.yul\":758:787   */\n      swap1\n      pop\n        /* \"#utility.yul\":796:829   */\n      tag_97\n        /* \"#utility.yul\":823:828   */\n      dup2\n        /* \"#utility.yul\":796:829   */\n      tag_71\n      jump\t// in\n    tag_97:\n        /* \"#utility.yul\":696:835   */\n      swap3\n      swap2\n      pop\n      pop\n      jump\t// out\n        /* \"#utility.yul\":841:1170   */\n    tag_9:\n        /* \"#utility.yul\":900:906   */\n      0x00\n        /* \"#utility.yul\":949:951   */\n      0x20\n        /* \"#utility.yul\":937:946   */\n      dup3\n        /* \"#utility.yul\":928:935   */\n      dup5\n        /* \"#utility.yul\":924:947   */\n      sub\n        /* \"#utility.yul\":920:952   */\n      slt\n        /* \"#utility.yul\":917:1036   */\n      iszero\n      tag_99\n      jumpi\n        /* \"#utility.yul\":955:1034   */\n      tag_100\n      tag_67\n      jump\t// in\n    tag_100:\n        /* \"#utility.yul\":917:1036   */\n    tag_99:\n        /* \"#utility.yul\":1075:1076   */\n      0x00\n        /* \"#utility.yul\":1100:1153   */\n      tag_101\n        /* \"#utility.yul\":1145:1152   */\n      dup5\n        /* \"#utility.yul\":1136:1142   */\n      dup3\n        /* \"#utility.yul\":1125:1134   */\n      dup6\n        /* \"#utility.yul\":1121:1143   */\n      add\n        /* \"#utility.yul\":1100:1153   */\n      tag_72\n      jump\t// in\n    tag_101:\n        /* \"#utility.yul\":1090:1153   */\n      swap2\n      pop\n        /* \"#utility.yul\":1046:1163   */\n      pop\n        /* \"#utility.yul\":841:1170   */\n      swap3\n      swap2\n      pop\n      pop\n      jump\t// out\n        /* \"#utility.yul\":1176:1253   */\n    tag_73:\n        /* \"#utility.yul\":1213:1220   */\n      0x00\n        /* \"#utility.yul\":1242:1247   */\n      dup2\n        /* \"#utility.yul\":1231:1247   */\n      swap1\n      pop\n        /* \"#utility.yul\":1176:1253   */\n      swap2\n      swap1\n      pop\n      jump\t// out\n        /* \"#utility.yul\":1259:1377   */\n    tag_74:\n        /* \"#utility.yul\":1346:1370   */\n      tag_104\n        /* \"#utility.yul\":1364:1369   */\n      dup2\n        /* \"#utility.yul\":1346:1370   */\n      tag_73\n      jump\t// in\n    tag_104:\n        /* \"#utility.yul\":1341:1344   */\n      dup3\n        /* \"#utility.yul\":1334:1371   */\n      mstore\n        /* \"#utility.yul\":1259:1377   */\n      pop\n      pop\n      jump\t// out\n        /* \"#utility.yul\":1383:1605   */\n    tag_12:\n        /* \"#utility.yul\":1476:1480   */\n      0x00\n        /* \"#utility.yul\":1514:1516   */\n      0x20\n        /* \"#utility.yul\":1503:1512   */\n      dup3\n        /* \"#utility.yul\":1499:1517   */\n      add\n        /* \"#utility.yul\":1491:1517   */\n      swap1\n      pop\n        /* \"#utility.yul\":1527:1598   */\n      tag_106\n        /* \"#utility.yul\":1595:1596   */\n      0x00\n        /* \"#utility.yul\":1584:1593   */\n      dup4\n        /* \"#utility.yul\":1580:1597   */\n      add\n        /* \"#utility.yul\":1571:1577   */\n      dup5\n        /* \"#utility.yul\":1527:1598   */\n      tag_74\n      jump\t// in\n    tag_106:\n        /* \"#utility.yul\":1383:1605   */\n      swap3\n      swap2\n      pop\n      pop\n      jump\t// out\n        /* \"#utility.yul\":1611:1780   */\n    tag_75:\n        /* \"#utility.yul\":1695:1706   */\n      0x00\n        /* \"#utility.yul\":1729:1735   */\n      dup3\n        /* \"#utility.yul\":1724:1727   */\n      dup3\n        /* \"#utility.yul\":1717:1736   */\n      mstore\n        /* \"#utility.yul\":1769:1773   */\n      0x20\n        /* \"#utility.yul\":1764:1767   */\n      dup3\n        /* \"#utility.yul\":1760:1774   */\n      add\n        /* \"#utility.yul\":1745:1774   */\n      swap1\n      pop\n        /* \"#utility.yul\":1611:1780   */\n      swap3\n      swap2\n      pop\n      pop\n      jump\t// out\n        /* \"#utility.yul\":1786:1954   */\n    tag_76:\n        /* \"#utility.yul\":1926:1946   */\n      0x4272616b2073726f646b6f7720772044414f0000000000000000000000000000\n        /* \"#utility.yul\":1922:1923   */\n      0x00\n        /* \"#utility.yul\":1914:1920   */\n      dup3\n        /* \"#utility.yul\":1910:1924   */\n      add\n        /* \"#utility.yul\":1903:1947   */\n      mstore\n        /* \"#utility.yul\":1786:1954   */\n      pop\n      jump\t// out\n        /* \"#utility.yul\":1960:2326   */\n    tag_77:\n        /* \"#utility.yul\":2102:2105   */\n      0x00\n        /* \"#utility.yul\":2123:2190   */\n      tag_110\n        /* \"#utility.yul\":2187:2189   */\n      0x12\n        /* \"#utility.yul\":2182:2185   */\n      dup4\n        /* \"#utility.yul\":2123:2190   */\n      tag_75\n      jump\t// in\n    tag_110:\n        /* \"#utility.yul\":2116:2190   */\n      swap2\n      pop\n        /* \"#utility.yul\":2199:2292   */\n      tag_111\n        /* \"#utility.yul\":2288:2291   */\n      dup3\n        /* \"#utility.yul\":2199:2292   */\n      tag_76\n      jump\t// in\n    tag_111:\n        /* \"#utility.yul\":2317:2319   */\n      0x20\n        /* \"#utility.yul\":2312:2315   */\n      dup3\n        /* \"#utility.yul\":2308:2320   */\n      add\n        /* \"#utility.yul\":2301:2320   */\n      swap1\n      pop\n        /* \"#utility.yul\":1960:2326   */\n      swap2\n      swap1\n      pop\n      jump\t// out\n        /* \"#utility.yul\":2332:2751   */\n    tag_28:\n        /* \"#utility.yul\":2498:2502   */\n      0x00\n        /* \"#utility.yul\":2536:2538   */\n      0x20\n        /* \"#utility.yul\":2525:2534   */\n      dup3\n        /* \"#utility.yul\":2521:2539   */\n      add\n        /* \"#utility.yul\":2513:2539   */\n      swap1\n      pop\n        /* \"#utility.yul\":2585:2594   */\n      dup2\n        /* \"#utility.yul\":2579:2583   */\n      dup2\n        /* \"#utility.yul\":2575:2595   */\n      sub\n        /* \"#utility.yul\":2571:2572   */\n      0x00\n        /* \"#utility.yul\":2560:2569   */\n      dup4\n        /* \"#utility.yul\":2556:2573   */\n      add\n        /* \"#utility.yul\":2549:2596   */\n      mstore\n        /* \"#utility.yul\":2613:2744   */\n      tag_113\n        /* \"#utility.yul\":2739:2743   */\n      dup2\n        /* \"#utility.yul\":2613:2744   */\n      tag_77\n      jump\t// in\n    tag_113:\n        /* \"#utility.yul\":2605:2744   */\n      swap1\n      pop\n        /* \"#utility.yul\":2332:2751   */\n      swap2\n      swap1\n      pop\n      jump\t// out\n        /* \"#utility.yul\":2757:2904   */\n    tag_78:\n        /* \"#utility.yul\":2858:2869   */\n      0x00\n        /* \"#utility.yul\":2895:2898   */\n      dup2\n        /* \"#utility.yul\":2880:2898   */\n      swap1\n      pop\n        /* \"#utility.yul\":2757:2904   */\n      swap3\n      swap2\n      pop\n      pop\n      jump\t// out\n        /* \"#utility.yul\":2910:3024   */\n    tag_79:\n      pop\n      jump\t// out\n        /* \"#utility.yul\":3030:3428   */\n    tag_80:\n        /* \"#utility.yul\":3189:3192   */\n      0x00\n        /* \"#utility.yul\":3210:3293   */\n      tag_117\n        /* \"#utility.yul\":3291:3292   */\n      0x00\n        /* \"#utility.yul\":3286:3289   */\n      dup4\n        /* \"#utility.yul\":3210:3293   */\n      tag_78\n      jump\t// in\n    tag_117:\n        /* \"#utility.yul\":3203:3293   */\n      swap2\n      pop\n        /* \"#utility.yul\":3302:3395   */\n      tag_118\n        /* \"#utility.yul\":3391:3394   */\n      dup3\n        /* \"#utility.yul\":3302:3395   */\n      tag_79\n      jump\t// in\n    tag_118:\n        /* \"#utility.yul\":3420:3421   */\n      0x00\n        /* \"#utility.yul\":3415:3418   */\n      dup3\n        /* \"#utility.yul\":3411:3422   */\n      add\n        /* \"#utility.yul\":3404:3422   */\n      swap1\n      pop\n        /* \"#utility.yul\":3030:3428   */\n      swap2\n      swap1\n      pop\n      jump\t// out\n        /* \"#utility.yul\":3434:3813   */\n    tag_30:\n        /* \"#utility.yul\":3618:3621   */\n      0x00\n        /* \"#utility.yul\":3640:3787   */\n      tag_120\n        /* \"#utility.yul\":3783:3786   */\n      dup3\n        /* \"#utility.yul\":3640:3787   */\n      tag_80\n      jump\t// in\n    tag_120:\n        /* \"#utility.yul\":3633:3787   */\n      swap2\n      pop\n        /* \"#utility.yul\":3804:3807   */\n      dup2\n        /* \"#utility.yul\":3797:3807   */\n      swap1\n      pop\n        /* \"#utility.yul\":3434:3813   */\n      swap2\n      swap1\n      pop\n      jump\t// out\n        /* \"#utility.yul\":3819:3986   */\n    tag_81:\n        /* \"#utility.yul\":3959:3978   */\n      0x5472616e73666572206e69657564616e79000000000000000000000000000000\n        /* \"#utility.yul\":3955:3956   */\n      0x00\n        /* \"#utility.yul\":3947:3953   */\n      dup3\n        /* \"#utility.yul\":3943:3957   */\n      add\n        /* \"#utility.yul\":3936:3979   */\n      mstore\n        /* \"#utility.yul\":3819:3986   */\n      pop\n      jump\t// out\n        /* \"#utility.yul\":3992:4358   */\n    tag_82:\n        /* \"#utility.yul\":4134:4137   */\n      0x00\n        /* \"#utility.yul\":4155:4222   */\n      tag_123\n        /* \"#utility.yul\":4219:4221   */\n      0x11\n        /* \"#utility.yul\":4214:4217   */\n      dup4\n        /* \"#utility.yul\":4155:4222   */\n      tag_75\n      jump\t// in\n    tag_123:\n        /* \"#utility.yul\":4148:4222   */\n      swap2\n      pop\n        /* \"#utility.yul\":4231:4324   */\n      tag_124\n        /* \"#utility.yul\":4320:4323   */\n      dup3\n        /* \"#utility.yul\":4231:4324   */\n      tag_81\n      jump\t// in\n    tag_124:\n        /* \"#utility.yul\":4349:4351   */\n      0x20\n        /* \"#utility.yul\":4344:4347   */\n      dup3\n        /* \"#utility.yul\":4340:4352   */\n      add\n        /* \"#utility.yul\":4333:4352   */\n      swap1\n      pop\n        /* \"#utility.yul\":3992:4358   */\n      swap2\n      swap1\n      pop\n      jump\t// out\n        /* \"#utility.yul\":4364:4783   */\n    tag_36:\n        /* \"#utility.yul\":4530:4534   */\n      0x00\n        /* \"#utility.yul\":4568:4570   */\n      0x20\n        /* \"#utility.yul\":4557:4566   */\n      dup3\n        /* \"#utility.yul\":4553:4571   */\n      add\n        /* \"#utility.yul\":4545:4571   */\n      swap1\n      pop\n        /* \"#utility.yul\":4617:4626   */\n      dup2\n        /* \"#utility.yul\":4611:4615   */\n      dup2\n        /* \"#utility.yul\":4607:4627   */\n      sub\n        /* \"#utility.yul\":4603:4604   */\n      0x00\n        /* \"#utility.yul\":4592:4601   */\n      dup4\n        /* \"#utility.yul\":4588:4605   */\n      add\n        /* \"#utility.yul\":4581:4628   */\n      mstore\n        /* \"#utility.yul\":4645:4776   */\n      tag_126\n        /* \"#utility.yul\":4771:4775   */\n      dup2\n        /* \"#utility.yul\":4645:4776   */\n      tag_82\n      jump\t// in\n    tag_126:\n        /* \"#utility.yul\":4637:4776   */\n      swap1\n      pop\n        /* \"#utility.yul\":4364:4783   */\n      swap2\n      swap1\n      pop\n      jump\t// out\n        /* \"#utility.yul\":4789:4966   */\n    tag_83:\n        /* \"#utility.yul\":4929:4958   */\n      0x4d757369737a2077706c616369632077696563656a206e697a20300000000000\n        /* \"#utility.yul\":4925:4926   */\n      0x00\n        /* \"#utility.yul\":4917:4923   */\n      dup3\n        /* \"#utility.yul\":4913:4927   */\n      add\n        /* \"#utility.yul\":4906:4959   */\n      mstore\n        /* \"#utility.yul\":4789:4966   */\n      pop\n      jump\t// out\n        /* \"#utility.yul\":4972:5338   */\n    tag_84:\n        /* \"#utility.yul\":5114:5117   */\n      0x00\n        /* \"#utility.yul\":5135:5202   */\n      tag_129\n        /* \"#utility.yul\":5199:5201   */\n      0x1b\n        /* \"#utility.yul\":5194:5197   */\n      dup4\n        /* \"#utility.yul\":5135:5202   */\n      tag_75\n      jump\t// in\n    tag_129:\n        /* \"#utility.yul\":5128:5202   */\n      swap2\n      pop\n        /* \"#utility.yul\":5211:5304   */\n      tag_130\n        /* \"#utility.yul\":5300:5303   */\n      dup3\n        /* \"#utility.yul\":5211:5304   */\n      tag_83\n      jump\t// in\n    tag_130:\n        /* \"#utility.yul\":5329:5331   */\n      0x20\n        /* \"#utility.yul\":5324:5327   */\n      dup3\n        /* \"#utility.yul\":5320:5332   */\n      add\n        /* \"#utility.yul\":5313:5332   */\n      swap1\n      pop\n        /* \"#utility.yul\":4972:5338   */\n      swap2\n      swap1\n      pop\n      jump\t// out\n        /* \"#utility.yul\":5344:5763   */\n    tag_43:\n        /* \"#utility.yul\":5510:5514   */\n      0x00\n        /* \"#utility.yul\":5548:5550   */\n      0x20\n        /* \"#utility.yul\":5537:5546   */\n      dup3\n        /* \"#utility.yul\":5533:5551   */\n      add\n        /* \"#utility.yul\":5525:5551   */\n      swap1\n      pop\n        /* \"#utility.yul\":5597:5606   */\n      dup2\n        /* \"#utility.yul\":5591:5595   */\n      dup2\n        /* \"#utility.yul\":5587:5607   */\n      sub\n        /* \"#utility.yul\":5583:5584   */\n      0x00\n        /* \"#utility.yul\":5572:5581   */\n      dup4\n        /* \"#utility.yul\":5568:5585   */\n      add\n        /* \"#utility.yul\":5561:5608   */\n      mstore\n        /* \"#utility.yul\":5625:5756   */\n      tag_132\n        /* \"#utility.yul\":5751:5755   */\n      dup2\n        /* \"#utility.yul\":5625:5756   */\n      tag_84\n      jump\t// in\n    tag_132:\n        /* \"#utility.yul\":5617:5756   */\n      swap1\n      pop\n        /* \"#utility.yul\":5344:5763   */\n      swap2\n      swap1\n      pop\n      jump\t// out\n        /* \"#utility.yul\":5769:5949   */\n    tag_85:\n        /* \"#utility.yul\":5817:5894   */\n      0x4e487b7100000000000000000000000000000000000000000000000000000000\n        /* \"#utility.yul\":5814:5815   */\n      0x00\n        /* \"#utility.yul\":5807:5895   */\n      mstore\n        /* \"#utility.yul\":5914:5918   */\n      0x11\n        /* \"#utility.yul\":5911:5912   */\n      0x04\n        /* \"#utility.yul\":5904:5919   */\n      mstore\n        /* \"#utility.yul\":5938:5942   */\n      0x24\n        /* \"#utility.yul\":5935:5936   */\n      0x00\n        /* \"#utility.yul\":5928:5943   */\n      revert\n        /* \"#utility.yul\":5955:6146   */\n    tag_45:\n        /* \"#utility.yul\":5995:5998   */\n      0x00\n        /* \"#utility.yul\":6014:6034   */\n      tag_135\n        /* \"#utility.yul\":6032:6033   */\n      dup3\n        /* \"#utility.yul\":6014:6034   */\n      tag_73\n      jump\t// in\n    tag_135:\n        /* \"#utility.yul\":6009:6034   */\n      swap2\n      pop\n        /* \"#utility.yul\":6048:6068   */\n      tag_136\n        /* \"#utility.yul\":6066:6067   */\n      dup4\n        /* \"#utility.yul\":6048:6068   */\n      tag_73\n      jump\t// in\n    tag_136:\n        /* \"#utility.yul\":6043:6068   */\n      swap3\n      pop\n        /* \"#utility.yul\":6091:6092   */\n      dup3\n        /* \"#utility.yul\":6088:6089   */\n      dup3\n        /* \"#utility.yul\":6084:6093   */\n      add\n        /* \"#utility.yul\":6077:6093   */\n      swap1\n      pop\n        /* \"#utility.yul\":6112:6115   */\n      dup1\n        /* \"#utility.yul\":6109:6110   */\n      dup3\n        /* \"#utility.yul\":6106:6116   */\n      gt\n        /* \"#utility.yul\":6103:6139   */\n      iszero\n      tag_137\n      jumpi\n        /* \"#utility.yul\":6119:6137   */\n      tag_138\n      tag_85\n      jump\t// in\n    tag_138:\n        /* \"#utility.yul\":6103:6139   */\n    tag_137:\n        /* \"#utility.yul\":5955:6146   */\n      swap3\n      swap2\n      pop\n      pop\n      jump\t// out\n\n    auxdata: 0xa2646970667358221220267c6f320afc1eda3ce577fe5ad5e8b3f81aa7e64457aa9808d29f763185a9bf64736f6c63430008220033\n}\n",
				"bytecode": {
					"linkReferences": {},
					"object": "6080604052348015600e575f5ffd5b5060016029601f603360201b60201c565b605c60201b60201c565b5f01819055506065565b5f7f9b779b17422d0df92223018b32b4d1fa46e071723d6817e2486d003becc55f005f1b905090565b5f819050919050565b6106ea806100725f395ff3fe60806040526004361061003e575f3560e01c806327e235e3146100425780633ccfd60b1461007e5780636f9fb98a14610094578063d0e30db0146100be575b5f5ffd5b34801561004d575f5ffd5b506100686004803603810190610063919061046f565b6100c8565b60405161007591906104b2565b60405180910390f35b348015610089575f5ffd5b506100926100dc565b005b34801561009f575f5ffd5b506100a861025b565b6040516100b591906104b2565b60405180910390f35b6100c6610262565b005b5f602052805f5260405f205f915090505481565b6100e4610346565b5f5f5f3373ffffffffffffffffffffffffffffffffffffffff1673ffffffffffffffffffffffffffffffffffffffff1681526020019081526020015f205490505f8111610166576040517f08c379a000000000000000000000000000000000000000000000000000000000815260040161015d90610525565b60405180910390fd5b5f3373ffffffffffffffffffffffffffffffffffffffff168260405161018b90610570565b5f6040518083038185875af1925050503d805f81146101c5576040519150601f19603f3d011682016040523d82523d5f602084013e6101ca565b606091505b505090508061020e576040517f08c379a0000000000000000000000000000000000000000000000000000000008152600401610205906105ce565b60405180910390fd5b5f5f5f3373ffffffffffffffffffffffffffffffffffffffff1673ffffffffffffffffffffffffffffffffffffffff1681526020019081526020015f20819055505050610259610368565b565b5f47905090565b5f34116102a4576040517f08c379a000000000000000000000000000000000000000000000000000000000815260040161029b90610636565b60405180910390fd5b345f5f3373ffffffffffffffffffffffffffffffffffffffff1673ffffffffffffffffffffffffffffffffffffffff1681526020019081526020015f205f8282546102ef9190610681565b925050819055503373ffffffffffffffffffffffffffffffffffffffff167fe1fffcc4923d04b559f4d29a8bfc6cda04eb5b0d3c460751c2402c5c5cc9109c3460405161033c91906104b2565b60405180910390a2565b61034e610382565b600261036061035b6103c3565b6103ec565b5f0181905550565b600161037a6103756103c3565b6103ec565b5f0181905550565b61038a6103f5565b156103c1576040517f3ee5aeb500000000000000000000000000000000000000000000000000000000815260040160405180910390fd5b565b5f7f9b779b17422d0df92223018b32b4d1fa46e071723d6817e2486d003becc55f005f1b905090565b5f819050919050565b5f60026104086104036103c3565b6103ec565b5f015414905090565b5f5ffd5b5f73ffffffffffffffffffffffffffffffffffffffff82169050919050565b5f61043e82610415565b9050919050565b61044e81610434565b8114610458575f5ffd5b50565b5f8135905061046981610445565b92915050565b5f6020828403121561048457610483610411565b5b5f6104918482850161045b565b91505092915050565b5f819050919050565b6104ac8161049a565b82525050565b5f6020820190506104c55f8301846104a3565b92915050565b5f82825260208201905092915050565b7f4272616b2073726f646b6f7720772044414f00000000000000000000000000005f82015250565b5f61050f6012836104cb565b915061051a826104db565b602082019050919050565b5f6020820190508181035f83015261053c81610503565b9050919050565b5f81905092915050565b50565b5f61055b5f83610543565b91506105668261054d565b5f82019050919050565b5f61057a82610550565b9150819050919050565b7f5472616e73666572206e69657564616e790000000000000000000000000000005f82015250565b5f6105b86011836104cb565b91506105c382610584565b602082019050919050565b5f6020820190508181035f8301526105e5816105ac565b9050919050565b7f4d757369737a2077706c616369632077696563656a206e697a203000000000005f82015250565b5f610620601b836104cb565b915061062b826105ec565b602082019050919050565b5f6020820190508181035f83015261064d81610614565b9050919050565b7f4e487b71000000000000000000000000000000000000000000000000000000005f52601160045260245ffd5b5f61068b8261049a565b91506106968361049a565b92508282019050808211156106ae576106ad610654565b5b9291505056fea2646970667358221220267c6f320afc1eda3ce577fe5ad5e8b3f81aa7e64457aa9808d29f763185a9bf64736f6c63430008220033",
					"opcodes": "PUSH1 0x80 PUSH1 0x40 MSTORE CALLVALUE DUP1 ISZERO PUSH1 0xE JUMPI PUSH0 PUSH0 REVERT JUMPDEST POP PUSH1 0x1 PUSH1 0x29 PUSH1 0x1F PUSH1 0x33 PUSH1 0x20 SHL PUSH1 0x20 SHR JUMP JUMPDEST PUSH1 0x5C PUSH1 0x20 SHL PUSH1 0x20 SHR JUMP JUMPDEST PUSH0 ADD DUP2 SWAP1 SSTORE POP PUSH1 0x65 JUMP JUMPDEST PUSH0 PUSH32 0x9B779B17422D0DF92223018B32B4D1FA46E071723D6817E2486D003BECC55F00 PUSH0 SHL SWAP1 POP SWAP1 JUMP JUMPDEST PUSH0 DUP2 SWAP1 POP SWAP2 SWAP1 POP JUMP JUMPDEST PUSH2 0x6EA DUP1 PUSH2 0x72 PUSH0 CODECOPY PUSH0 RETURN INVALID PUSH1 0x80 PUSH1 0x40 MSTORE PUSH1 0x4 CALLDATASIZE LT PUSH2 0x3E JUMPI PUSH0 CALLDATALOAD PUSH1 0xE0 SHR DUP1 PUSH4 0x27E235E3 EQ PUSH2 0x42 JUMPI DUP1 PUSH4 0x3CCFD60B EQ PUSH2 0x7E JUMPI DUP1 PUSH4 0x6F9FB98A EQ PUSH2 0x94 JUMPI DUP1 PUSH4 0xD0E30DB0 EQ PUSH2 0xBE JUMPI JUMPDEST PUSH0 PUSH0 REVERT JUMPDEST CALLVALUE DUP1 ISZERO PUSH2 0x4D JUMPI PUSH0 PUSH0 REVERT JUMPDEST POP PUSH2 0x68 PUSH1 0x4 DUP1 CALLDATASIZE SUB DUP2 ADD SWAP1 PUSH2 0x63 SWAP2 SWAP1 PUSH2 0x46F JUMP JUMPDEST PUSH2 0xC8 JUMP JUMPDEST PUSH1 0x40 MLOAD PUSH2 0x75 SWAP2 SWAP1 PUSH2 0x4B2 JUMP JUMPDEST PUSH1 0x40 MLOAD DUP1 SWAP2 SUB SWAP1 RETURN JUMPDEST CALLVALUE DUP1 ISZERO PUSH2 0x89 JUMPI PUSH0 PUSH0 REVERT JUMPDEST POP PUSH2 0x92 PUSH2 0xDC JUMP JUMPDEST STOP JUMPDEST CALLVALUE DUP1 ISZERO PUSH2 0x9F JUMPI PUSH0 PUSH0 REVERT JUMPDEST POP PUSH2 0xA8 PUSH2 0x25B JUMP JUMPDEST PUSH1 0x40 MLOAD PUSH2 0xB5 SWAP2 SWAP1 PUSH2 0x4B2 JUMP JUMPDEST PUSH1 0x40 MLOAD DUP1 SWAP2 SUB SWAP1 RETURN JUMPDEST PUSH2 0xC6 PUSH2 0x262 JUMP JUMPDEST STOP JUMPDEST PUSH0 PUSH1 0x20 MSTORE DUP1 PUSH0 MSTORE PUSH1 0x40 PUSH0 KECCAK256 PUSH0 SWAP2 POP SWAP1 POP SLOAD DUP2 JUMP JUMPDEST PUSH2 0xE4 PUSH2 0x346 JUMP JUMPDEST PUSH0 PUSH0 PUSH0 CALLER PUSH20 0xFFFFFFFFFFFFFFFFFFFFFFFFFFFFFFFFFFFFFFFF AND PUSH20 0xFFFFFFFFFFFFFFFFFFFFFFFFFFFFFFFFFFFFFFFF AND DUP2 MSTORE PUSH1 0x20 ADD SWAP1 DUP2 MSTORE PUSH1 0x20 ADD PUSH0 KECCAK256 SLOAD SWAP1 POP PUSH0 DUP2 GT PUSH2 0x166 JUMPI PUSH1 0x40 MLOAD PUSH32 0x8C379A000000000000000000000000000000000000000000000000000000000 DUP2 MSTORE PUSH1 0x4 ADD PUSH2 0x15D SWAP1 PUSH2 0x525 JUMP JUMPDEST PUSH1 0x40 MLOAD DUP1 SWAP2 SUB SWAP1 REVERT JUMPDEST PUSH0 CALLER PUSH20 0xFFFFFFFFFFFFFFFFFFFFFFFFFFFFFFFFFFFFFFFF AND DUP3 PUSH1 0x40 MLOAD PUSH2 0x18B SWAP1 PUSH2 0x570 JUMP JUMPDEST PUSH0 PUSH1 0x40 MLOAD DUP1 DUP4 SUB DUP2 DUP6 DUP8 GAS CALL SWAP3 POP POP POP RETURNDATASIZE DUP1 PUSH0 DUP2 EQ PUSH2 0x1C5 JUMPI PUSH1 0x40 MLOAD SWAP2 POP PUSH1 0x1F NOT PUSH1 0x3F RETURNDATASIZE ADD AND DUP3 ADD PUSH1 0x40 MSTORE RETURNDATASIZE DUP3 MSTORE RETURNDATASIZE PUSH0 PUSH1 0x20 DUP5 ADD RETURNDATACOPY PUSH2 0x1CA JUMP JUMPDEST PUSH1 0x60 SWAP2 POP JUMPDEST POP POP SWAP1 POP DUP1 PUSH2 0x20E JUMPI PUSH1 0x40 MLOAD PUSH32 0x8C379A000000000000000000000000000000000000000000000000000000000 DUP2 MSTORE PUSH1 0x4 ADD PUSH2 0x205 SWAP1 PUSH2 0x5CE JUMP JUMPDEST PUSH1 0x40 MLOAD DUP1 SWAP2 SUB SWAP1 REVERT JUMPDEST PUSH0 PUSH0 PUSH0 CALLER PUSH20 0xFFFFFFFFFFFFFFFFFFFFFFFFFFFFFFFFFFFFFFFF AND PUSH20 0xFFFFFFFFFFFFFFFFFFFFFFFFFFFFFFFFFFFFFFFF AND DUP2 MSTORE PUSH1 0x20 ADD SWAP1 DUP2 MSTORE PUSH1 0x20 ADD PUSH0 KECCAK256 DUP2 SWAP1 SSTORE POP POP POP PUSH2 0x259 PUSH2 0x368 JUMP JUMPDEST JUMP JUMPDEST PUSH0 SELFBALANCE SWAP1 POP SWAP1 JUMP JUMPDEST PUSH0 CALLVALUE GT PUSH2 0x2A4 JUMPI PUSH1 0x40 MLOAD PUSH32 0x8C379A000000000000000000000000000000000000000000000000000000000 DUP2 MSTORE PUSH1 0x4 ADD PUSH2 0x29B SWAP1 PUSH2 0x636 JUMP JUMPDEST PUSH1 0x40 MLOAD DUP1 SWAP2 SUB SWAP1 REVERT JUMPDEST CALLVALUE PUSH0 PUSH0 CALLER PUSH20 0xFFFFFFFFFFFFFFFFFFFFFFFFFFFFFFFFFFFFFFFF AND PUSH20 0xFFFFFFFFFFFFFFFFFFFFFFFFFFFFFFFFFFFFFFFF AND DUP2 MSTORE PUSH1 0x20 ADD SWAP1 DUP2 MSTORE PUSH1 0x20 ADD PUSH0 KECCAK256 PUSH0 DUP3 DUP3 SLOAD PUSH2 0x2EF SWAP2 SWAP1 PUSH2 0x681 JUMP JUMPDEST SWAP3 POP POP DUP2 SWAP1 SSTORE POP CALLER PUSH20 0xFFFFFFFFFFFFFFFFFFFFFFFFFFFFFFFFFFFFFFFF AND PUSH32 0xE1FFFCC4923D04B559F4D29A8BFC6CDA04EB5B0D3C460751C2402C5C5CC9109C CALLVALUE PUSH1 0x40 MLOAD PUSH2 0x33C SWAP2 SWAP1 PUSH2 0x4B2 JUMP JUMPDEST PUSH1 0x40 MLOAD DUP1 SWAP2 SUB SWAP1 LOG2 JUMP JUMPDEST PUSH2 0x34E PUSH2 0x382 JUMP JUMPDEST PUSH1 0x2 PUSH2 0x360 PUSH2 0x35B PUSH2 0x3C3 JUMP JUMPDEST PUSH2 0x3EC JUMP JUMPDEST PUSH0 ADD DUP2 SWAP1 SSTORE POP JUMP JUMPDEST PUSH1 0x1 PUSH2 0x37A PUSH2 0x375 PUSH2 0x3C3 JUMP JUMPDEST PUSH2 0x3EC JUMP JUMPDEST PUSH0 ADD DUP2 SWAP1 SSTORE POP JUMP JUMPDEST PUSH2 0x38A PUSH2 0x3F5 JUMP JUMPDEST ISZERO PUSH2 0x3C1 JUMPI PUSH1 0x40 MLOAD PUSH32 0x3EE5AEB500000000000000000000000000000000000000000000000000000000 DUP2 MSTORE PUSH1 0x4 ADD PUSH1 0x40 MLOAD DUP1 SWAP2 SUB SWAP1 REVERT JUMPDEST JUMP JUMPDEST PUSH0 PUSH32 0x9B779B17422D0DF92223018B32B4D1FA46E071723D6817E2486D003BECC55F00 PUSH0 SHL SWAP1 POP SWAP1 JUMP JUMPDEST PUSH0 DUP2 SWAP1 POP SWAP2 SWAP1 POP JUMP JUMPDEST PUSH0 PUSH1 0x2 PUSH2 0x408 PUSH2 0x403 PUSH2 0x3C3 JUMP JUMPDEST PUSH2 0x3EC JUMP JUMPDEST PUSH0 ADD SLOAD EQ SWAP1 POP SWAP1 JUMP JUMPDEST PUSH0 PUSH0 REVERT JUMPDEST PUSH0 PUSH20 0xFFFFFFFFFFFFFFFFFFFFFFFFFFFFFFFFFFFFFFFF DUP3 AND SWAP1 POP SWAP2 SWAP1 POP JUMP JUMPDEST PUSH0 PUSH2 0x43E DUP3 PUSH2 0x415 JUMP JUMPDEST SWAP1 POP SWAP2 SWAP1 POP JUMP JUMPDEST PUSH2 0x44E DUP2 PUSH2 0x434 JUMP JUMPDEST DUP2 EQ PUSH2 0x458 JUMPI PUSH0 PUSH0 REVERT JUMPDEST POP JUMP JUMPDEST PUSH0 DUP2 CALLDATALOAD SWAP1 POP PUSH2 0x469 DUP2 PUSH2 0x445 JUMP JUMPDEST SWAP3 SWAP2 POP POP JUMP JUMPDEST PUSH0 PUSH1 0x20 DUP3 DUP5 SUB SLT ISZERO PUSH2 0x484 JUMPI PUSH2 0x483 PUSH2 0x411 JUMP JUMPDEST JUMPDEST PUSH0 PUSH2 0x491 DUP5 DUP3 DUP6 ADD PUSH2 0x45B JUMP JUMPDEST SWAP2 POP POP SWAP3 SWAP2 POP POP JUMP JUMPDEST PUSH0 DUP2 SWAP1 POP SWAP2 SWAP1 POP JUMP JUMPDEST PUSH2 0x4AC DUP2 PUSH2 0x49A JUMP JUMPDEST DUP3 MSTORE POP POP JUMP JUMPDEST PUSH0 PUSH1 0x20 DUP3 ADD SWAP1 POP PUSH2 0x4C5 PUSH0 DUP4 ADD DUP5 PUSH2 0x4A3 JUMP JUMPDEST SWAP3 SWAP2 POP POP JUMP JUMPDEST PUSH0 DUP3 DUP3 MSTORE PUSH1 0x20 DUP3 ADD SWAP1 POP SWAP3 SWAP2 POP POP JUMP JUMPDEST PUSH32 0x4272616B2073726F646B6F7720772044414F0000000000000000000000000000 PUSH0 DUP3 ADD MSTORE POP JUMP JUMPDEST PUSH0 PUSH2 0x50F PUSH1 0x12 DUP4 PUSH2 0x4CB JUMP JUMPDEST SWAP2 POP PUSH2 0x51A DUP3 PUSH2 0x4DB JUMP JUMPDEST PUSH1 0x20 DUP3 ADD SWAP1 POP SWAP2 SWAP1 POP JUMP JUMPDEST PUSH0 PUSH1 0x20 DUP3 ADD SWAP1 POP DUP2 DUP2 SUB PUSH0 DUP4 ADD MSTORE PUSH2 0x53C DUP2 PUSH2 0x503 JUMP JUMPDEST SWAP1 POP SWAP2 SWAP1 POP JUMP JUMPDEST PUSH0 DUP2 SWAP1 POP SWAP3 SWAP2 POP POP JUMP JUMPDEST POP JUMP JUMPDEST PUSH0 PUSH2 0x55B PUSH0 DUP4 PUSH2 0x543 JUMP JUMPDEST SWAP2 POP PUSH2 0x566 DUP3 PUSH2 0x54D JUMP JUMPDEST PUSH0 DUP3 ADD SWAP1 POP SWAP2 SWAP1 POP JUMP JUMPDEST PUSH0 PUSH2 0x57A DUP3 PUSH2 0x550 JUMP JUMPDEST SWAP2 POP DUP2 SWAP1 POP SWAP2 SWAP1 POP JUMP JUMPDEST PUSH32 0x5472616E73666572206E69657564616E79000000000000000000000000000000 PUSH0 DUP3 ADD MSTORE POP JUMP JUMPDEST PUSH0 PUSH2 0x5B8 PUSH1 0x11 DUP4 PUSH2 0x4CB JUMP JUMPDEST SWAP2 POP PUSH2 0x5C3 DUP3 PUSH2 0x584 JUMP JUMPDEST PUSH1 0x20 DUP3 ADD SWAP1 POP SWAP2 SWAP1 POP JUMP JUMPDEST PUSH0 PUSH1 0x20 DUP3 ADD SWAP1 POP DUP2 DUP2 SUB PUSH0 DUP4 ADD MSTORE PUSH2 0x5E5 DUP2 PUSH2 0x5AC JUMP JUMPDEST SWAP1 POP SWAP2 SWAP1 POP JUMP JUMPDEST PUSH32 0x4D757369737A2077706C616369632077696563656A206E697A20300000000000 PUSH0 DUP3 ADD MSTORE POP JUMP JUMPDEST PUSH0 PUSH2 0x620 PUSH1 0x1B DUP4 PUSH2 0x4CB JUMP JUMPDEST SWAP2 POP PUSH2 0x62B DUP3 PUSH2 0x5EC JUMP JUMPDEST PUSH1 0x20 DUP3 ADD SWAP1 POP SWAP2 SWAP1 POP JUMP JUMPDEST PUSH0 PUSH1 0x20 DUP3 ADD SWAP1 POP DUP2 DUP2 SUB PUSH0 DUP4 ADD MSTORE PUSH2 0x64D DUP2 PUSH2 0x614 JUMP JUMPDEST SWAP1 POP SWAP2 SWAP1 POP JUMP JUMPDEST PUSH32 0x4E487B7100000000000000000000000000000000000000000000000000000000 PUSH0 MSTORE PUSH1 0x11 PUSH1 0x4 MSTORE PUSH1 0x24 PUSH0 REVERT JUMPDEST PUSH0 PUSH2 0x68B DUP3 PUSH2 0x49A JUMP JUMPDEST SWAP2 POP PUSH2 0x696 DUP4 PUSH2 0x49A JUMP JUMPDEST SWAP3 POP DUP3 DUP3 ADD SWAP1 POP DUP1 DUP3 GT ISZERO PUSH2 0x6AE JUMPI PUSH2 0x6AD PUSH2 0x654 JUMP JUMPDEST JUMPDEST SWAP3 SWAP2 POP POP JUMP INVALID LOG2 PUSH5 0x6970667358 0x22 SLT KECCAK256 0x26 PUSH29 0x6F320AFC1EDA3CE577FE5AD5E8B3F81AA7E64457AA9808D29F763185A9 0xBF PUSH5 0x736F6C6343 STOP ADDMOD 0x22 STOP CALLER "
				},
				"gasEstimates": {
					"creation": {
						"codeDepositCost": "354000",
						"executionCost": "infinite",
						"totalCost": "infinite"
					},
					"external": {
						"balances(address)": "2779",
						"deposit()": "infinite",
						"getContractBalance()": "356",
						"withdraw()": "infinite"
					}
				},
				"methodIdentifiers": {
					"balances(address)": "27e235e3",
					"deposit()": "d0e30db0",
					"getContractBalance()": "6f9fb98a",
					"withdraw()": "3ccfd60b"
				}
			},
			"storageLayout": {
				"storage": [
					{
						"astId": 245,
						"contract": "contracts/DAOattack/VictimDAOsafe1.sol:VictimDAOsafe",
						"label": "balances",
						"offset": 0,
						"slot": "0",
						"type": "t_mapping(t_address,t_uint256)"
					}
				],
				"types": {
					"t_address": {
						"encoding": "inplace",
						"label": "address",
						"numberOfBytes": "20"
					},
					"t_mapping(t_address,t_uint256)": {
						"encoding": "mapping",
						"key": "t_address",
						"label": "mapping(address => uint256)",
						"numberOfBytes": "32",
						"value": "t_uint256"
					},
					"t_uint256": {
						"encoding": "inplace",
						"label": "uint256",
						"numberOfBytes": "32"
					}
				}
			},
			"userdoc": {
				"kind": "user",
				"methods": {},
				"version": 1
			}
		}
	}
}