{
	"contracts/flashloan/MockArbitrageDEX.sol": {
		"MockArbitrageDEX": {
			"abi": [
				{
					"inputs": [
						{
							"internalType": "address",
							"name": "_token",
							"type": "address"
						}
					],
					"stateMutability": "nonpayable",
					"type": "constructor"
				},
				{
					"inputs": [
						{
							"internalType": "uint256",
							"name": "amountIn",
							"type": "uint256"
						}
					],
					"name": "swapAtInefficientRate",
					"outputs": [],
					"stateMutability": "nonpayable",
					"type": "function"
				},
				{
					"inputs": [],
					"name": "token",
					"outputs": [
						{
							"internalType": "contract IERC20",
							"name": "",
							"type": "address"
						}
					],
					"stateMutability": "view",
					"type": "function"
				}
			],
			"devdoc": {
				"kind": "dev",
				"methods": {},
				"version": 1
			},
			"evm": {
				"assembly": "    /* \"contracts/flashloan/MockArbitrageDEX.sol\":121:821  contract MockArbitrageDEX {... */\n  mstore(0x40, 0x80)\n    /* \"contracts/flashloan/MockArbitrageDEX.sol\":182:251  constructor(address _token) {... */\n  callvalue\n  dup1\n  iszero\n  tag_1\n  jumpi\n  revert(0x00, 0x00)\ntag_1:\n  pop\n  mload(0x40)\n  sub(codesize, bytecodeSize)\n  dup1\n  bytecodeSize\n  dup4\n  codecopy\n  dup2\n  dup2\n  add\n  0x40\n  mstore\n  dup2\n  add\n  swap1\n  tag_2\n  swap2\n  swap1\n  tag_3\n  jump\t// in\ntag_2:\n    /* \"contracts/flashloan/MockArbitrageDEX.sol\":236:242  _token */\n  dup1\n    /* \"contracts/flashloan/MockArbitrageDEX.sol\":221:226  token */\n  0x00\n  0x00\n    /* \"contracts/flashloan/MockArbitrageDEX.sol\":221:243  token = IERC20(_token) */\n  0x0100\n  exp\n  dup2\n  sload\n  dup2\n  0xffffffffffffffffffffffffffffffffffffffff\n  mul\n  not\n  and\n  swap1\n  dup4\n  0xffffffffffffffffffffffffffffffffffffffff\n  and\n  mul\n  or\n  swap1\n  sstore\n  pop\n    /* \"contracts/flashloan/MockArbitrageDEX.sol\":182:251  constructor(address _token) {... */\n  pop\n    /* \"contracts/flashloan/MockArbitrageDEX.sol\":121:821  contract MockArbitrageDEX {... */\n  jump(tag_6)\n    /* \"#utility.yul\":88:205   */\ntag_8:\n    /* \"#utility.yul\":197:198   */\n  0x00\n    /* \"#utility.yul\":194:195   */\n  0x00\n    /* \"#utility.yul\":187:199   */\n  revert\n    /* \"#utility.yul\":334:460   */\ntag_10:\n    /* \"#utility.yul\":371:378   */\n  0x00\n    /* \"#utility.yul\":411:453   */\n  0xffffffffffffffffffffffffffffffffffffffff\n    /* \"#utility.yul\":404:409   */\n  dup3\n    /* \"#utility.yul\":400:454   */\n  and\n    /* \"#utility.yul\":389:454   */\n  swap1\n  pop\n    /* \"#utility.yul\":334:460   */\n  swap2\n  swap1\n  pop\n  jump\t// out\n    /* \"#utility.yul\":466:562   */\ntag_11:\n    /* \"#utility.yul\":503:510   */\n  0x00\n    /* \"#utility.yul\":532:556   */\n  tag_20\n    /* \"#utility.yul\":550:555   */\n  dup3\n    /* \"#utility.yul\":532:556   */\n  tag_10\n  jump\t// in\ntag_20:\n    /* \"#utility.yul\":521:556   */\n  swap1\n  pop\n    /* \"#utility.yul\":466:562   */\n  swap2\n  swap1\n  pop\n  jump\t// out\n    /* \"#utility.yul\":568:690   */\ntag_12:\n    /* \"#utility.yul\":641:665   */\n  tag_22\n    /* \"#utility.yul\":659:664   */\n  dup2\n    /* \"#utility.yul\":641:665   */\n  tag_11\n  jump\t// in\ntag_22:\n    /* \"#utility.yul\":634:639   */\n  dup2\n    /* \"#utility.yul\":631:666   */\n  eq\n    /* \"#utility.yul\":621:684   */\n  tag_23\n  jumpi\n    /* \"#utility.yul\":680:681   */\n  0x00\n    /* \"#utility.yul\":677:678   */\n  0x00\n    /* \"#utility.yul\":670:682   */\n  revert\n    /* \"#utility.yul\":621:684   */\ntag_23:\n    /* \"#utility.yul\":568:690   */\n  pop\n  jump\t// out\n    /* \"#utility.yul\":696:839   */\ntag_13:\n    /* \"#utility.yul\":753:758   */\n  0x00\n    /* \"#utility.yul\":784:790   */\n  dup2\n    /* \"#utility.yul\":778:791   */\n  mload\n    /* \"#utility.yul\":769:791   */\n  swap1\n  pop\n    /* \"#utility.yul\":800:833   */\n  tag_25\n    /* \"#utility.yul\":827:832   */\n  dup2\n    /* \"#utility.yul\":800:833   */\n  tag_12\n  jump\t// in\ntag_25:\n    /* \"#utility.yul\":696:839   */\n  swap3\n  swap2\n  pop\n  pop\n  jump\t// out\n    /* \"#utility.yul\":845:1196   */\ntag_3:\n    /* \"#utility.yul\":915:921   */\n  0x00\n    /* \"#utility.yul\":964:966   */\n  0x20\n    /* \"#utility.yul\":952:961   */\n  dup3\n    /* \"#utility.yul\":943:950   */\n  dup5\n    /* \"#utility.yul\":939:962   */\n  sub\n    /* \"#utility.yul\":935:967   */\n  slt\n    /* \"#utility.yul\":932:1051   */\n  iszero\n  tag_27\n  jumpi\n    /* \"#utility.yul\":970:1049   */\n  tag_28\n  tag_8\n  jump\t// in\ntag_28:\n    /* \"#utility.yul\":932:1051   */\ntag_27:\n    /* \"#utility.yul\":1090:1091   */\n  0x00\n    /* \"#utility.yul\":1115:1179   */\n  tag_29\n    /* \"#utility.yul\":1171:1178   */\n  dup5\n    /* \"#utility.yul\":1162:1168   */\n  dup3\n    /* \"#utility.yul\":1151:1160   */\n  dup6\n    /* \"#utility.yul\":1147:1169   */\n  add\n    /* \"#utility.yul\":1115:1179   */\n  tag_13\n  jump\t// in\ntag_29:\n    /* \"#utility.yul\":1105:1179   */\n  swap2\n  pop\n    /* \"#utility.yul\":1061:1189   */\n  pop\n    /* \"#utility.yul\":845:1196   */\n  swap3\n  swap2\n  pop\n  pop\n  jump\t// out\n    /* \"contracts/flashloan/MockArbitrageDEX.sol\":121:821  contract MockArbitrageDEX {... */\ntag_6:\n  dataSize(sub_0)\n  dup1\n  dataOffset(sub_0)\n  0x00\n  codecopy\n  0x00\n  return\nstop\n\nsub_0: assembly {\n        /* \"contracts/flashloan/MockArbitrageDEX.sol\":121:821  contract MockArbitrageDEX {... */\n      mstore(0x40, 0x80)\n      callvalue\n      dup1\n      iszero\n      tag_1\n      jumpi\n      revert(0x00, 0x00)\n    tag_1:\n      pop\n      jumpi(tag_2, lt(calldatasize, 0x04))\n      shr(0xe0, calldataload(0x00))\n      dup1\n      0xa2788f65\n      eq\n      tag_3\n      jumpi\n      dup1\n      0xfc0c546a\n      eq\n      tag_4\n      jumpi\n    tag_2:\n      revert(0x00, 0x00)\n        /* \"contracts/flashloan/MockArbitrageDEX.sol\":335:818  function swapAtInefficientRate(uint256 amountIn) external {... */\n    tag_3:\n      tag_5\n      0x04\n      dup1\n      calldatasize\n      sub\n      dup2\n      add\n      swap1\n      tag_6\n      swap2\n      swap1\n      tag_7\n      jump\t// in\n    tag_6:\n      tag_8\n      jump\t// in\n    tag_5:\n      stop\n        /* \"contracts/flashloan/MockArbitrageDEX.sol\":154:173  IERC20 public token */\n    tag_4:\n      tag_9\n      tag_10\n      jump\t// in\n    tag_9:\n      mload(0x40)\n      tag_11\n      swap2\n      swap1\n      tag_12\n      jump\t// in\n    tag_11:\n      mload(0x40)\n      dup1\n      swap2\n      sub\n      swap1\n      return\n        /* \"contracts/flashloan/MockArbitrageDEX.sol\":335:818  function swapAtInefficientRate(uint256 amountIn) external {... */\n    tag_8:\n        /* \"contracts/flashloan/MockArbitrageDEX.sol\":499:504  token */\n      0x00\n      0x00\n      swap1\n      sload\n      swap1\n      0x0100\n      exp\n      swap1\n      div\n      0xffffffffffffffffffffffffffffffffffffffff\n      and\n        /* \"contracts/flashloan/MockArbitrageDEX.sol\":499:517  token.transferFrom */\n      0xffffffffffffffffffffffffffffffffffffffff\n      and\n      0x23b872dd\n        /* \"contracts/flashloan/MockArbitrageDEX.sol\":518:528  msg.sender */\n      caller\n        /* \"contracts/flashloan/MockArbitrageDEX.sol\":538:542  this */\n      address\n        /* \"contracts/flashloan/MockArbitrageDEX.sol\":545:553  amountIn */\n      dup5\n        /* \"contracts/flashloan/MockArbitrageDEX.sol\":499:554  token.transferFrom(msg.sender, address(this), amountIn) */\n      mload(0x40)\n      dup5\n      0xffffffff\n      and\n      0xe0\n      shl\n      dup2\n      mstore\n      0x04\n      add\n      tag_14\n      swap4\n      swap3\n      swap2\n      swap1\n      tag_15\n      jump\t// in\n    tag_14:\n      0x20\n      mload(0x40)\n      dup1\n      dup4\n      sub\n      dup2\n      0x00\n      dup8\n      gas\n      call\n      iszero\n      dup1\n      iszero\n      tag_17\n      jumpi\n      returndatacopy(0x00, 0x00, returndatasize)\n      revert(0x00, returndatasize)\n    tag_17:\n      pop\n      pop\n      pop\n      pop\n      mload(0x40)\n      returndatasize\n      not(0x1f)\n      0x1f\n      dup3\n      add\n      and\n      dup3\n      add\n      dup1\n      0x40\n      mstore\n      pop\n      dup2\n      add\n      swap1\n      tag_18\n      swap2\n      swap1\n      tag_19\n      jump\t// in\n    tag_18:\n        /* \"contracts/flashloan/MockArbitrageDEX.sol\":491:583  require(token.transferFrom(msg.sender, address(this), amountIn), \"Transfer do DEX nieudany\") */\n      tag_20\n      jumpi\n      mload(0x40)\n      0x08c379a000000000000000000000000000000000000000000000000000000000\n      dup2\n      mstore\n      0x04\n      add\n      tag_21\n      swap1\n      tag_22\n      jump\t// in\n    tag_21:\n      mload(0x40)\n      dup1\n      swap2\n      sub\n      swap1\n      revert\n    tag_20:\n        /* \"contracts/flashloan/MockArbitrageDEX.sol\":630:647  uint256 amountOut */\n      0x00\n        /* \"contracts/flashloan/MockArbitrageDEX.sol\":669:672  100 */\n      0x64\n        /* \"contracts/flashloan/MockArbitrageDEX.sol\":662:665  120 */\n      0x78\n        /* \"contracts/flashloan/MockArbitrageDEX.sol\":651:659  amountIn */\n      dup4\n        /* \"contracts/flashloan/MockArbitrageDEX.sol\":651:665  amountIn * 120 */\n      tag_23\n      swap2\n      swap1\n      tag_24\n      jump\t// in\n    tag_23:\n        /* \"contracts/flashloan/MockArbitrageDEX.sol\":650:672  (amountIn * 120) / 100 */\n      tag_25\n      swap2\n      swap1\n      tag_26\n      jump\t// in\n    tag_25:\n        /* \"contracts/flashloan/MockArbitrageDEX.sol\":630:672  uint256 amountOut = (amountIn * 120) / 100 */\n      swap1\n      pop\n        /* \"contracts/flashloan/MockArbitrageDEX.sol\":727:736  amountOut */\n      dup1\n        /* \"contracts/flashloan/MockArbitrageDEX.sol\":693:698  token */\n      0x00\n      0x00\n      swap1\n      sload\n      swap1\n      0x0100\n      exp\n      swap1\n      div\n      0xffffffffffffffffffffffffffffffffffffffff\n      and\n        /* \"contracts/flashloan/MockArbitrageDEX.sol\":693:708  token.balanceOf */\n      0xffffffffffffffffffffffffffffffffffffffff\n      and\n      0x70a08231\n        /* \"contracts/flashloan/MockArbitrageDEX.sol\":717:721  this */\n      address\n        /* \"contracts/flashloan/MockArbitrageDEX.sol\":693:723  token.balanceOf(address(this)) */\n      mload(0x40)\n      dup3\n      0xffffffff\n      and\n      0xe0\n      shl\n      dup2\n      mstore\n      0x04\n      add\n      tag_27\n      swap2\n      swap1\n      tag_28\n      jump\t// in\n    tag_27:\n      0x20\n      mload(0x40)\n      dup1\n      dup4\n      sub\n      dup2\n      dup7\n      gas\n      staticcall\n      iszero\n      dup1\n      iszero\n      tag_30\n      jumpi\n      returndatacopy(0x00, 0x00, returndatasize)\n      revert(0x00, returndatasize)\n    tag_30:\n      pop\n      pop\n      pop\n      pop\n      mload(0x40)\n      returndatasize\n      not(0x1f)\n      0x1f\n      dup3\n      add\n      and\n      dup3\n      add\n      dup1\n      0x40\n      mstore\n      pop\n      dup2\n      add\n      swap1\n      tag_31\n      swap2\n      swap1\n      tag_32\n      jump\t// in\n    tag_31:\n        /* \"contracts/flashloan/MockArbitrageDEX.sol\":693:736  token.balanceOf(address(this)) >= amountOut */\n      lt\n      iszero\n        /* \"contracts/flashloan/MockArbitrageDEX.sol\":685:762  require(token.balanceOf(address(this)) >= amountOut, \"Brak plynnosci na DEX\") */\n      tag_33\n      jumpi\n      mload(0x40)\n      0x08c379a000000000000000000000000000000000000000000000000000000000\n      dup2\n      mstore\n      0x04\n      add\n      tag_34\n      swap1\n      tag_35\n      jump\t// in\n    tag_34:\n      mload(0x40)\n      dup1\n      swap2\n      sub\n      swap1\n      revert\n    tag_33:\n        /* \"contracts/flashloan/MockArbitrageDEX.sol\":773:778  token */\n      0x00\n      0x00\n      swap1\n      sload\n      swap1\n      0x0100\n      exp\n      swap1\n      div\n      0xffffffffffffffffffffffffffffffffffffffff\n      and\n        /* \"contracts/flashloan/MockArbitrageDEX.sol\":773:787  token.transfer */\n      0xffffffffffffffffffffffffffffffffffffffff\n      and\n      0xa9059cbb\n        /* \"contracts/flashloan/MockArbitrageDEX.sol\":788:798  msg.sender */\n      caller\n        /* \"contracts/flashloan/MockArbitrageDEX.sol\":800:809  amountOut */\n      dup4\n        /* \"contracts/flashloan/MockArbitrageDEX.sol\":773:810  token.transfer(msg.sender, amountOut) */\n      mload(0x40)\n      dup4\n      0xffffffff\n      and\n      0xe0\n      shl\n      dup2\n      mstore\n      0x04\n      add\n      tag_36\n      swap3\n      swap2\n      swap1\n      tag_37\n      jump\t// in\n    tag_36:\n      0x20\n      mload(0x40)\n      dup1\n      dup4\n      sub\n      dup2\n      0x00\n      dup8\n      gas\n      call\n      iszero\n      dup1\n      iszero\n      tag_39\n      jumpi\n      returndatacopy(0x00, 0x00, returndatasize)\n      revert(0x00, returndatasize)\n    tag_39:\n      pop\n      pop\n      pop\n      pop\n      mload(0x40)\n      returndatasize\n      not(0x1f)\n      0x1f\n      dup3\n      add\n      and\n      dup3\n      add\n      dup1\n      0x40\n      mstore\n      pop\n      dup2\n      add\n      swap1\n      tag_40\n      swap2\n      swap1\n      tag_19\n      jump\t// in\n    tag_40:\n      pop\n        /* \"contracts/flashloan/MockArbitrageDEX.sol\":393:818  {... */\n      pop\n        /* \"contracts/flashloan/MockArbitrageDEX.sol\":335:818  function swapAtInefficientRate(uint256 amountIn) external {... */\n      pop\n      jump\t// out\n        /* \"contracts/flashloan/MockArbitrageDEX.sol\":154:173  IERC20 public token */\n    tag_10:\n      0x00\n      0x00\n      swap1\n      sload\n      swap1\n      0x0100\n      exp\n      swap1\n      div\n      0xffffffffffffffffffffffffffffffffffffffff\n      and\n      dup2\n      jump\t// out\n        /* \"#utility.yul\":88:205   */\n    tag_42:\n        /* \"#utility.yul\":197:198   */\n      0x00\n        /* \"#utility.yul\":194:195   */\n      0x00\n        /* \"#utility.yul\":187:199   */\n      revert\n        /* \"#utility.yul\":334:411   */\n    tag_44:\n        /* \"#utility.yul\":371:378   */\n      0x00\n        /* \"#utility.yul\":400:405   */\n      dup2\n        /* \"#utility.yul\":389:405   */\n      swap1\n      pop\n        /* \"#utility.yul\":334:411   */\n      swap2\n      swap1\n      pop\n      jump\t// out\n        /* \"#utility.yul\":417:539   */\n    tag_45:\n        /* \"#utility.yul\":490:514   */\n      tag_73\n        /* \"#utility.yul\":508:513   */\n      dup2\n        /* \"#utility.yul\":490:514   */\n      tag_44\n      jump\t// in\n    tag_73:\n        /* \"#utility.yul\":483:488   */\n      dup2\n        /* \"#utility.yul\":480:515   */\n      eq\n        /* \"#utility.yul\":470:533   */\n      tag_74\n      jumpi\n        /* \"#utility.yul\":529:530   */\n      0x00\n        /* \"#utility.yul\":526:527   */\n      0x00\n        /* \"#utility.yul\":519:531   */\n      revert\n        /* \"#utility.yul\":470:533   */\n    tag_74:\n        /* \"#utility.yul\":417:539   */\n      pop\n      jump\t// out\n        /* \"#utility.yul\":545:684   */\n    tag_46:\n        /* \"#utility.yul\":591:596   */\n      0x00\n        /* \"#utility.yul\":629:635   */\n      dup2\n        /* \"#utility.yul\":616:636   */\n      calldataload\n        /* \"#utility.yul\":607:636   */\n      swap1\n      pop\n        /* \"#utility.yul\":645:678   */\n      tag_76\n        /* \"#utility.yul\":672:677   */\n      dup2\n        /* \"#utility.yul\":645:678   */\n      tag_45\n      jump\t// in\n    tag_76:\n        /* \"#utility.yul\":545:684   */\n      swap3\n      swap2\n      pop\n      pop\n      jump\t// out\n        /* \"#utility.yul\":690:1019   */\n    tag_7:\n        /* \"#utility.yul\":749:755   */\n      0x00\n        /* \"#utility.yul\":798:800   */\n      0x20\n        /* \"#utility.yul\":786:795   */\n      dup3\n        /* \"#utility.yul\":777:784   */\n      dup5\n        /* \"#utility.yul\":773:796   */\n      sub\n        /* \"#utility.yul\":769:801   */\n      slt\n        /* \"#utility.yul\":766:885   */\n      iszero\n      tag_78\n      jumpi\n        /* \"#utility.yul\":804:883   */\n      tag_79\n      tag_42\n      jump\t// in\n    tag_79:\n        /* \"#utility.yul\":766:885   */\n    tag_78:\n        /* \"#utility.yul\":924:925   */\n      0x00\n        /* \"#utility.yul\":949:1002   */\n      tag_80\n        /* \"#utility.yul\":994:1001   */\n      dup5\n        /* \"#utility.yul\":985:991   */\n      dup3\n        /* \"#utility.yul\":974:983   */\n      dup6\n        /* \"#utility.yul\":970:992   */\n      add\n        /* \"#utility.yul\":949:1002   */\n      tag_46\n      jump\t// in\n    tag_80:\n        /* \"#utility.yul\":939:1002   */\n      swap2\n      pop\n        /* \"#utility.yul\":895:1012   */\n      pop\n        /* \"#utility.yul\":690:1019   */\n      swap3\n      swap2\n      pop\n      pop\n      jump\t// out\n        /* \"#utility.yul\":1025:1151   */\n    tag_47:\n        /* \"#utility.yul\":1062:1069   */\n      0x00\n        /* \"#utility.yul\":1102:1144   */\n      0xffffffffffffffffffffffffffffffffffffffff\n        /* \"#utility.yul\":1095:1100   */\n      dup3\n        /* \"#utility.yul\":1091:1145   */\n      and\n        /* \"#utility.yul\":1080:1145   */\n      swap1\n      pop\n        /* \"#utility.yul\":1025:1151   */\n      swap2\n      swap1\n      pop\n      jump\t// out\n        /* \"#utility.yul\":1157:1217   */\n    tag_48:\n        /* \"#utility.yul\":1185:1188   */\n      0x00\n        /* \"#utility.yul\":1206:1211   */\n      dup2\n        /* \"#utility.yul\":1199:1211   */\n      swap1\n      pop\n        /* \"#utility.yul\":1157:1217   */\n      swap2\n      swap1\n      pop\n      jump\t// out\n        /* \"#utility.yul\":1223:1365   */\n    tag_49:\n        /* \"#utility.yul\":1273:1282   */\n      0x00\n        /* \"#utility.yul\":1306:1359   */\n      tag_84\n        /* \"#utility.yul\":1324:1358   */\n      tag_85\n        /* \"#utility.yul\":1333:1357   */\n      tag_86\n        /* \"#utility.yul\":1351:1356   */\n      dup5\n        /* \"#utility.yul\":1333:1357   */\n      tag_47\n      jump\t// in\n    tag_86:\n        /* \"#utility.yul\":1324:1358   */\n      tag_48\n      jump\t// in\n    tag_85:\n        /* \"#utility.yul\":1306:1359   */\n      tag_47\n      jump\t// in\n    tag_84:\n        /* \"#utility.yul\":1293:1359   */\n      swap1\n      pop\n        /* \"#utility.yul\":1223:1365   */\n      swap2\n      swap1\n      pop\n      jump\t// out\n        /* \"#utility.yul\":1371:1497   */\n    tag_50:\n        /* \"#utility.yul\":1421:1430   */\n      0x00\n        /* \"#utility.yul\":1454:1491   */\n      tag_88\n        /* \"#utility.yul\":1485:1490   */\n      dup3\n        /* \"#utility.yul\":1454:1491   */\n      tag_49\n      jump\t// in\n    tag_88:\n        /* \"#utility.yul\":1441:1491   */\n      swap1\n      pop\n        /* \"#utility.yul\":1371:1497   */\n      swap2\n      swap1\n      pop\n      jump\t// out\n        /* \"#utility.yul\":1503:1642   */\n    tag_51:\n        /* \"#utility.yul\":1566:1575   */\n      0x00\n        /* \"#utility.yul\":1599:1636   */\n      tag_90\n        /* \"#utility.yul\":1630:1635   */\n      dup3\n        /* \"#utility.yul\":1599:1636   */\n      tag_50\n      jump\t// in\n    tag_90:\n        /* \"#utility.yul\":1586:1636   */\n      swap1\n      pop\n        /* \"#utility.yul\":1503:1642   */\n      swap2\n      swap1\n      pop\n      jump\t// out\n        /* \"#utility.yul\":1648:1805   */\n    tag_52:\n        /* \"#utility.yul\":1748:1798   */\n      tag_92\n        /* \"#utility.yul\":1792:1797   */\n      dup2\n        /* \"#utility.yul\":1748:1798   */\n      tag_51\n      jump\t// in\n    tag_92:\n        /* \"#utility.yul\":1743:1746   */\n      dup3\n        /* \"#utility.yul\":1736:1799   */\n      mstore\n        /* \"#utility.yul\":1648:1805   */\n      pop\n      pop\n      jump\t// out\n        /* \"#utility.yul\":1811:2059   */\n    tag_12:\n        /* \"#utility.yul\":1917:1921   */\n      0x00\n        /* \"#utility.yul\":1955:1957   */\n      0x20\n        /* \"#utility.yul\":1944:1953   */\n      dup3\n        /* \"#utility.yul\":1940:1958   */\n      add\n        /* \"#utility.yul\":1932:1958   */\n      swap1\n      pop\n        /* \"#utility.yul\":1968:2052   */\n      tag_94\n        /* \"#utility.yul\":2049:2050   */\n      0x00\n        /* \"#utility.yul\":2038:2047   */\n      dup4\n        /* \"#utility.yul\":2034:2051   */\n      add\n        /* \"#utility.yul\":2025:2031   */\n      dup5\n        /* \"#utility.yul\":1968:2052   */\n      tag_52\n      jump\t// in\n    tag_94:\n        /* \"#utility.yul\":1811:2059   */\n      swap3\n      swap2\n      pop\n      pop\n      jump\t// out\n        /* \"#utility.yul\":2065:2161   */\n    tag_53:\n        /* \"#utility.yul\":2102:2109   */\n      0x00\n        /* \"#utility.yul\":2131:2155   */\n      tag_96\n        /* \"#utility.yul\":2149:2154   */\n      dup3\n        /* \"#utility.yul\":2131:2155   */\n      tag_47\n      jump\t// in\n    tag_96:\n        /* \"#utility.yul\":2120:2155   */\n      swap1\n      pop\n        /* \"#utility.yul\":2065:2161   */\n      swap2\n      swap1\n      pop\n      jump\t// out\n        /* \"#utility.yul\":2167:2285   */\n    tag_54:\n        /* \"#utility.yul\":2254:2278   */\n      tag_98\n        /* \"#utility.yul\":2272:2277   */\n      dup2\n        /* \"#utility.yul\":2254:2278   */\n      tag_53\n      jump\t// in\n    tag_98:\n        /* \"#utility.yul\":2249:2252   */\n      dup3\n        /* \"#utility.yul\":2242:2279   */\n      mstore\n        /* \"#utility.yul\":2167:2285   */\n      pop\n      pop\n      jump\t// out\n        /* \"#utility.yul\":2291:2409   */\n    tag_55:\n        /* \"#utility.yul\":2378:2402   */\n      tag_100\n        /* \"#utility.yul\":2396:2401   */\n      dup2\n        /* \"#utility.yul\":2378:2402   */\n      tag_44\n      jump\t// in\n    tag_100:\n        /* \"#utility.yul\":2373:2376   */\n      dup3\n        /* \"#utility.yul\":2366:2403   */\n      mstore\n        /* \"#utility.yul\":2291:2409   */\n      pop\n      pop\n      jump\t// out\n        /* \"#utility.yul\":2415:2857   */\n    tag_15:\n        /* \"#utility.yul\":2564:2568   */\n      0x00\n        /* \"#utility.yul\":2602:2604   */\n      0x60\n        /* \"#utility.yul\":2591:2600   */\n      dup3\n        /* \"#utility.yul\":2587:2605   */\n      add\n        /* \"#utility.yul\":2579:2605   */\n      swap1\n      pop\n        /* \"#utility.yul\":2615:2686   */\n      tag_102\n        /* \"#utility.yul\":2683:2684   */\n      0x00\n        /* \"#utility.yul\":2672:2681   */\n      dup4\n        /* \"#utility.yul\":2668:2685   */\n      add\n        /* \"#utility.yul\":2659:2665   */\n      dup7\n        /* \"#utility.yul\":2615:2686   */\n      tag_54\n      jump\t// in\n    tag_102:\n        /* \"#utility.yul\":2696:2768   */\n      tag_103\n        /* \"#utility.yul\":2764:2766   */\n      0x20\n        /* \"#utility.yul\":2753:2762   */\n      dup4\n        /* \"#utility.yul\":2749:2767   */\n      add\n        /* \"#utility.yul\":2740:2746   */\n      dup6\n        /* \"#utility.yul\":2696:2768   */\n      tag_54\n      jump\t// in\n    tag_103:\n        /* \"#utility.yul\":2778:2850   */\n      tag_104\n        /* \"#utility.yul\":2846:2848   */\n      0x40\n        /* \"#utility.yul\":2835:2844   */\n      dup4\n        /* \"#utility.yul\":2831:2849   */\n      add\n        /* \"#utility.yul\":2822:2828   */\n      dup5\n        /* \"#utility.yul\":2778:2850   */\n      tag_55\n      jump\t// in\n    tag_104:\n        /* \"#utility.yul\":2415:2857   */\n      swap5\n      swap4\n      pop\n      pop\n      pop\n      pop\n      jump\t// out\n        /* \"#utility.yul\":2863:2953   */\n    tag_56:\n        /* \"#utility.yul\":2897:2904   */\n      0x00\n        /* \"#utility.yul\":2940:2945   */\n      dup2\n        /* \"#utility.yul\":2933:2946   */\n      iszero\n        /* \"#utility.yul\":2926:2947   */\n      iszero\n        /* \"#utility.yul\":2915:2947   */\n      swap1\n      pop\n        /* \"#utility.yul\":2863:2953   */\n      swap2\n      swap1\n      pop\n      jump\t// out\n        /* \"#utility.yul\":2959:3075   */\n    tag_57:\n        /* \"#utility.yul\":3029:3050   */\n      tag_107\n        /* \"#utility.yul\":3044:3049   */\n      dup2\n        /* \"#utility.yul\":3029:3050   */\n      tag_56\n      jump\t// in\n    tag_107:\n        /* \"#utility.yul\":3022:3027   */\n      dup2\n        /* \"#utility.yul\":3019:3051   */\n      eq\n        /* \"#utility.yul\":3009:3069   */\n      tag_108\n      jumpi\n        /* \"#utility.yul\":3065:3066   */\n      0x00\n        /* \"#utility.yul\":3062:3063   */\n      0x00\n        /* \"#utility.yul\":3055:3067   */\n      revert\n        /* \"#utility.yul\":3009:3069   */\n    tag_108:\n        /* \"#utility.yul\":2959:3075   */\n      pop\n      jump\t// out\n        /* \"#utility.yul\":3081:3218   */\n    tag_58:\n        /* \"#utility.yul\":3135:3140   */\n      0x00\n        /* \"#utility.yul\":3166:3172   */\n      dup2\n        /* \"#utility.yul\":3160:3173   */\n      mload\n        /* \"#utility.yul\":3151:3173   */\n      swap1\n      pop\n        /* \"#utility.yul\":3182:3212   */\n      tag_110\n        /* \"#utility.yul\":3206:3211   */\n      dup2\n        /* \"#utility.yul\":3182:3212   */\n      tag_57\n      jump\t// in\n    tag_110:\n        /* \"#utility.yul\":3081:3218   */\n      swap3\n      swap2\n      pop\n      pop\n      jump\t// out\n        /* \"#utility.yul\":3224:3569   */\n    tag_19:\n        /* \"#utility.yul\":3291:3297   */\n      0x00\n        /* \"#utility.yul\":3340:3342   */\n      0x20\n        /* \"#utility.yul\":3328:3337   */\n      dup3\n        /* \"#utility.yul\":3319:3326   */\n      dup5\n        /* \"#utility.yul\":3315:3338   */\n      sub\n        /* \"#utility.yul\":3311:3343   */\n      slt\n        /* \"#utility.yul\":3308:3427   */\n      iszero\n      tag_112\n      jumpi\n        /* \"#utility.yul\":3346:3425   */\n      tag_113\n      tag_42\n      jump\t// in\n    tag_113:\n        /* \"#utility.yul\":3308:3427   */\n    tag_112:\n        /* \"#utility.yul\":3466:3467   */\n      0x00\n        /* \"#utility.yul\":3491:3552   */\n      tag_114\n        /* \"#utility.yul\":3544:3551   */\n      dup5\n        /* \"#utility.yul\":3535:3541   */\n      dup3\n        /* \"#utility.yul\":3524:3533   */\n      dup6\n        /* \"#utility.yul\":3520:3542   */\n      add\n        /* \"#utility.yul\":3491:3552   */\n      tag_58\n      jump\t// in\n    tag_114:\n        /* \"#utility.yul\":3481:3552   */\n      swap2\n      pop\n        /* \"#utility.yul\":3437:3562   */\n      pop\n        /* \"#utility.yul\":3224:3569   */\n      swap3\n      swap2\n      pop\n      pop\n      jump\t// out\n        /* \"#utility.yul\":3575:3744   */\n    tag_59:\n        /* \"#utility.yul\":3659:3670   */\n      0x00\n        /* \"#utility.yul\":3693:3699   */\n      dup3\n        /* \"#utility.yul\":3688:3691   */\n      dup3\n        /* \"#utility.yul\":3681:3700   */\n      mstore\n        /* \"#utility.yul\":3733:3737   */\n      0x20\n        /* \"#utility.yul\":3728:3731   */\n      dup3\n        /* \"#utility.yul\":3724:3738   */\n      add\n        /* \"#utility.yul\":3709:3738   */\n      swap1\n      pop\n        /* \"#utility.yul\":3575:3744   */\n      swap3\n      swap2\n      pop\n      pop\n      jump\t// out\n        /* \"#utility.yul\":3750:3924   */\n    tag_60:\n        /* \"#utility.yul\":3890:3916   */\n      0x5472616e7366657220646f20444558206e69657564616e790000000000000000\n        /* \"#utility.yul\":3886:3887   */\n      0x00\n        /* \"#utility.yul\":3878:3884   */\n      dup3\n        /* \"#utility.yul\":3874:3888   */\n      add\n        /* \"#utility.yul\":3867:3917   */\n      mstore\n        /* \"#utility.yul\":3750:3924   */\n      pop\n      jump\t// out\n        /* \"#utility.yul\":3930:4296   */\n    tag_61:\n        /* \"#utility.yul\":4072:4075   */\n      0x00\n        /* \"#utility.yul\":4093:4160   */\n      tag_118\n        /* \"#utility.yul\":4157:4159   */\n      0x18\n        /* \"#utility.yul\":4152:4155   */\n      dup4\n        /* \"#utility.yul\":4093:4160   */\n      tag_59\n      jump\t// in\n    tag_118:\n        /* \"#utility.yul\":4086:4160   */\n      swap2\n      pop\n        /* \"#utility.yul\":4169:4262   */\n      tag_119\n        /* \"#utility.yul\":4258:4261   */\n      dup3\n        /* \"#utility.yul\":4169:4262   */\n      tag_60\n      jump\t// in\n    tag_119:\n        /* \"#utility.yul\":4287:4289   */\n      0x20\n        /* \"#utility.yul\":4282:4285   */\n      dup3\n        /* \"#utility.yul\":4278:4290   */\n      add\n        /* \"#utility.yul\":4271:4290   */\n      swap1\n      pop\n        /* \"#utility.yul\":3930:4296   */\n      swap2\n      swap1\n      pop\n      jump\t// out\n        /* \"#utility.yul\":4302:4721   */\n    tag_22:\n        /* \"#utility.yul\":4468:4472   */\n      0x00\n        /* \"#utility.yul\":4506:4508   */\n      0x20\n        /* \"#utility.yul\":4495:4504   */\n      dup3\n        /* \"#utility.yul\":4491:4509   */\n      add\n        /* \"#utility.yul\":4483:4509   */\n      swap1\n      pop\n        /* \"#utility.yul\":4555:4564   */\n      dup2\n        /* \"#utility.yul\":4549:4553   */\n      dup2\n        /* \"#utility.yul\":4545:4565   */\n      sub\n        /* \"#utility.yul\":4541:4542   */\n      0x00\n        /* \"#utility.yul\":4530:4539   */\n      dup4\n        /* \"#utility.yul\":4526:4543   */\n      add\n        /* \"#utility.yul\":4519:4566   */\n      mstore\n        /* \"#utility.yul\":4583:4714   */\n      tag_121\n        /* \"#utility.yul\":4709:4713   */\n      dup2\n        /* \"#utility.yul\":4583:4714   */\n      tag_61\n      jump\t// in\n    tag_121:\n        /* \"#utility.yul\":4575:4714   */\n      swap1\n      pop\n        /* \"#utility.yul\":4302:4721   */\n      swap2\n      swap1\n      pop\n      jump\t// out\n        /* \"#utility.yul\":4727:4907   */\n    tag_62:\n        /* \"#utility.yul\":4775:4852   */\n      0x4e487b7100000000000000000000000000000000000000000000000000000000\n        /* \"#utility.yul\":4772:4773   */\n      0x00\n        /* \"#utility.yul\":4765:4853   */\n      mstore\n        /* \"#utility.yul\":4872:4876   */\n      0x11\n        /* \"#utility.yul\":4869:4870   */\n      0x04\n        /* \"#utility.yul\":4862:4877   */\n      mstore\n        /* \"#utility.yul\":4896:4900   */\n      0x24\n        /* \"#utility.yul\":4893:4894   */\n      0x00\n        /* \"#utility.yul\":4886:4901   */\n      revert\n        /* \"#utility.yul\":4913:5323   */\n    tag_24:\n        /* \"#utility.yul\":4953:4960   */\n      0x00\n        /* \"#utility.yul\":4976:4996   */\n      tag_124\n        /* \"#utility.yul\":4994:4995   */\n      dup3\n        /* \"#utility.yul\":4976:4996   */\n      tag_44\n      jump\t// in\n    tag_124:\n        /* \"#utility.yul\":4971:4996   */\n      swap2\n      pop\n        /* \"#utility.yul\":5010:5030   */\n      tag_125\n        /* \"#utility.yul\":5028:5029   */\n      dup4\n        /* \"#utility.yul\":5010:5030   */\n      tag_44\n      jump\t// in\n    tag_125:\n        /* \"#utility.yul\":5005:5030   */\n      swap3\n      pop\n        /* \"#utility.yul\":5065:5066   */\n      dup3\n        /* \"#utility.yul\":5062:5063   */\n      dup3\n        /* \"#utility.yul\":5058:5067   */\n      mul\n        /* \"#utility.yul\":5087:5117   */\n      tag_126\n        /* \"#utility.yul\":5105:5116   */\n      dup2\n        /* \"#utility.yul\":5087:5117   */\n      tag_44\n      jump\t// in\n    tag_126:\n        /* \"#utility.yul\":5076:5117   */\n      swap2\n      pop\n        /* \"#utility.yul\":5266:5267   */\n      dup3\n        /* \"#utility.yul\":5257:5264   */\n      dup3\n        /* \"#utility.yul\":5253:5268   */\n      div\n        /* \"#utility.yul\":5250:5251   */\n      dup5\n        /* \"#utility.yul\":5247:5269   */\n      eq\n        /* \"#utility.yul\":5227:5228   */\n      dup4\n        /* \"#utility.yul\":5220:5229   */\n      iszero\n        /* \"#utility.yul\":5200:5283   */\n      or\n        /* \"#utility.yul\":5177:5316   */\n      tag_127\n      jumpi\n        /* \"#utility.yul\":5296:5314   */\n      tag_128\n      tag_62\n      jump\t// in\n    tag_128:\n        /* \"#utility.yul\":5177:5316   */\n    tag_127:\n        /* \"#utility.yul\":4961:5323   */\n      pop\n        /* \"#utility.yul\":4913:5323   */\n      swap3\n      swap2\n      pop\n      pop\n      jump\t// out\n        /* \"#utility.yul\":5329:5509   */\n    tag_63:\n        /* \"#utility.yul\":5377:5454   */\n      0x4e487b7100000000000000000000000000000000000000000000000000000000\n        /* \"#utility.yul\":5374:5375   */\n      0x00\n        /* \"#utility.yul\":5367:5455   */\n      mstore\n        /* \"#utility.yul\":5474:5478   */\n      0x12\n        /* \"#utility.yul\":5471:5472   */\n      0x04\n        /* \"#utility.yul\":5464:5479   */\n      mstore\n        /* \"#utility.yul\":5498:5502   */\n      0x24\n        /* \"#utility.yul\":5495:5496   */\n      0x00\n        /* \"#utility.yul\":5488:5503   */\n      revert\n        /* \"#utility.yul\":5515:5700   */\n    tag_26:\n        /* \"#utility.yul\":5555:5556   */\n      0x00\n        /* \"#utility.yul\":5572:5592   */\n      tag_131\n        /* \"#utility.yul\":5590:5591   */\n      dup3\n        /* \"#utility.yul\":5572:5592   */\n      tag_44\n      jump\t// in\n    tag_131:\n        /* \"#utility.yul\":5567:5592   */\n      swap2\n      pop\n        /* \"#utility.yul\":5606:5626   */\n      tag_132\n        /* \"#utility.yul\":5624:5625   */\n      dup4\n        /* \"#utility.yul\":5606:5626   */\n      tag_44\n      jump\t// in\n    tag_132:\n        /* \"#utility.yul\":5601:5626   */\n      swap3\n      pop\n        /* \"#utility.yul\":5645:5646   */\n      dup3\n        /* \"#utility.yul\":5635:5670   */\n      tag_133\n      jumpi\n        /* \"#utility.yul\":5650:5668   */\n      tag_134\n      tag_63\n      jump\t// in\n    tag_134:\n        /* \"#utility.yul\":5635:5670   */\n    tag_133:\n        /* \"#utility.yul\":5692:5693   */\n      dup3\n        /* \"#utility.yul\":5689:5690   */\n      dup3\n        /* \"#utility.yul\":5685:5694   */\n      div\n        /* \"#utility.yul\":5680:5694   */\n      swap1\n      pop\n        /* \"#utility.yul\":5515:5700   */\n      swap3\n      swap2\n      pop\n      pop\n      jump\t// out\n        /* \"#utility.yul\":5706:5928   */\n    tag_28:\n        /* \"#utility.yul\":5799:5803   */\n      0x00\n        /* \"#utility.yul\":5837:5839   */\n      0x20\n        /* \"#utility.yul\":5826:5835   */\n      dup3\n        /* \"#utility.yul\":5822:5840   */\n      add\n        /* \"#utility.yul\":5814:5840   */\n      swap1\n      pop\n        /* \"#utility.yul\":5850:5921   */\n      tag_136\n        /* \"#utility.yul\":5918:5919   */\n      0x00\n        /* \"#utility.yul\":5907:5916   */\n      dup4\n        /* \"#utility.yul\":5903:5920   */\n      add\n        /* \"#utility.yul\":5894:5900   */\n      dup5\n        /* \"#utility.yul\":5850:5921   */\n      tag_54\n      jump\t// in\n    tag_136:\n        /* \"#utility.yul\":5706:5928   */\n      swap3\n      swap2\n      pop\n      pop\n      jump\t// out\n        /* \"#utility.yul\":5934:6077   */\n    tag_64:\n        /* \"#utility.yul\":5991:5996   */\n      0x00\n        /* \"#utility.yul\":6022:6028   */\n      dup2\n        /* \"#utility.yul\":6016:6029   */\n      mload\n        /* \"#utility.yul\":6007:6029   */\n      swap1\n      pop\n        /* \"#utility.yul\":6038:6071   */\n      tag_138\n        /* \"#utility.yul\":6065:6070   */\n      dup2\n        /* \"#utility.yul\":6038:6071   */\n      tag_45\n      jump\t// in\n    tag_138:\n        /* \"#utility.yul\":5934:6077   */\n      swap3\n      swap2\n      pop\n      pop\n      jump\t// out\n        /* \"#utility.yul\":6083:6434   */\n    tag_32:\n        /* \"#utility.yul\":6153:6159   */\n      0x00\n        /* \"#utility.yul\":6202:6204   */\n      0x20\n        /* \"#utility.yul\":6190:6199   */\n      dup3\n        /* \"#utility.yul\":6181:6188   */\n      dup5\n        /* \"#utility.yul\":6177:6200   */\n      sub\n        /* \"#utility.yul\":6173:6205   */\n      slt\n        /* \"#utility.yul\":6170:6289   */\n      iszero\n      tag_140\n      jumpi\n        /* \"#utility.yul\":6208:6287   */\n      tag_141\n      tag_42\n      jump\t// in\n    tag_141:\n        /* \"#utility.yul\":6170:6289   */\n    tag_140:\n        /* \"#utility.yul\":6328:6329   */\n      0x00\n        /* \"#utility.yul\":6353:6417   */\n      tag_142\n        /* \"#utility.yul\":6409:6416   */\n      dup5\n        /* \"#utility.yul\":6400:6406   */\n      dup3\n        /* \"#utility.yul\":6389:6398   */\n      dup6\n        /* \"#utility.yul\":6385:6407   */\n      add\n        /* \"#utility.yul\":6353:6417   */\n      tag_64\n      jump\t// in\n    tag_142:\n        /* \"#utility.yul\":6343:6417   */\n      swap2\n      pop\n        /* \"#utility.yul\":6299:6427   */\n      pop\n        /* \"#utility.yul\":6083:6434   */\n      swap3\n      swap2\n      pop\n      pop\n      jump\t// out\n        /* \"#utility.yul\":6440:6611   */\n    tag_65:\n        /* \"#utility.yul\":6580:6603   */\n      0x4272616b20706c796e6e6f736369206e61204445580000000000000000000000\n        /* \"#utility.yul\":6576:6577   */\n      0x00\n        /* \"#utility.yul\":6568:6574   */\n      dup3\n        /* \"#utility.yul\":6564:6578   */\n      add\n        /* \"#utility.yul\":6557:6604   */\n      mstore\n        /* \"#utility.yul\":6440:6611   */\n      pop\n      jump\t// out\n        /* \"#utility.yul\":6617:6983   */\n    tag_66:\n        /* \"#utility.yul\":6759:6762   */\n      0x00\n        /* \"#utility.yul\":6780:6847   */\n      tag_145\n        /* \"#utility.yul\":6844:6846   */\n      0x15\n        /* \"#utility.yul\":6839:6842   */\n      dup4\n        /* \"#utility.yul\":6780:6847   */\n      tag_59\n      jump\t// in\n    tag_145:\n        /* \"#utility.yul\":6773:6847   */\n      swap2\n      pop\n        /* \"#utility.yul\":6856:6949   */\n      tag_146\n        /* \"#utility.yul\":6945:6948   */\n      dup3\n        /* \"#utility.yul\":6856:6949   */\n      tag_65\n      jump\t// in\n    tag_146:\n        /* \"#utility.yul\":6974:6976   */\n      0x20\n        /* \"#utility.yul\":6969:6972   */\n      dup3\n        /* \"#utility.yul\":6965:6977   */\n      add\n        /* \"#utility.yul\":6958:6977   */\n      swap1\n      pop\n        /* \"#utility.yul\":6617:6983   */\n      swap2\n      swap1\n      pop\n      jump\t// out\n        /* \"#utility.yul\":6989:7408   */\n    tag_35:\n        /* \"#utility.yul\":7155:7159   */\n      0x00\n        /* \"#utility.yul\":7193:7195   */\n      0x20\n        /* \"#utility.yul\":7182:7191   */\n      dup3\n        /* \"#utility.yul\":7178:7196   */\n      add\n        /* \"#utility.yul\":7170:7196   */\n      swap1\n      pop\n        /* \"#utility.yul\":7242:7251   */\n      dup2\n        /* \"#utility.yul\":7236:7240   */\n      dup2\n        /* \"#utility.yul\":7232:7252   */\n      sub\n        /* \"#utility.yul\":7228:7229   */\n      0x00\n        /* \"#utility.yul\":7217:7226   */\n      dup4\n        /* \"#utility.yul\":7213:7230   */\n      add\n        /* \"#utility.yul\":7206:7253   */\n      mstore\n        /* \"#utility.yul\":7270:7401   */\n      tag_148\n        /* \"#utility.yul\":7396:7400   */\n      dup2\n        /* \"#utility.yul\":7270:7401   */\n      tag_66\n      jump\t// in\n    tag_148:\n        /* \"#utility.yul\":7262:7401   */\n      swap1\n      pop\n        /* \"#utility.yul\":6989:7408   */\n      swap2\n      swap1\n      pop\n      jump\t// out\n        /* \"#utility.yul\":7414:7746   */\n    tag_37:\n        /* \"#utility.yul\":7535:7539   */\n      0x00\n        /* \"#utility.yul\":7573:7575   */\n      0x40\n        /* \"#utility.yul\":7562:7571   */\n      dup3\n        /* \"#utility.yul\":7558:7576   */\n      add\n        /* \"#utility.yul\":7550:7576   */\n      swap1\n      pop\n        /* \"#utility.yul\":7586:7657   */\n      tag_150\n        /* \"#utility.yul\":7654:7655   */\n      0x00\n        /* \"#utility.yul\":7643:7652   */\n      dup4\n        /* \"#utility.yul\":7639:7656   */\n      add\n        /* \"#utility.yul\":7630:7636   */\n      dup6\n        /* \"#utility.yul\":7586:7657   */\n      tag_54\n      jump\t// in\n    tag_150:\n        /* \"#utility.yul\":7667:7739   */\n      tag_151\n        /* \"#utility.yul\":7735:7737   */\n      0x20\n        /* \"#utility.yul\":7724:7733   */\n      dup4\n        /* \"#utility.yul\":7720:7738   */\n      add\n        /* \"#utility.yul\":7711:7717   */\n      dup5\n        /* \"#utility.yul\":7667:7739   */\n      tag_55\n      jump\t// in\n    tag_151:\n        /* \"#utility.yul\":7414:7746   */\n      swap4\n      swap3\n      pop\n      pop\n      pop\n      jump\t// out\n\n    auxdata: 0xa2646970667358221220f332445d0a9c8d7bcac97548e474f74acf34a821925f31b4ddbbfb08e8c8c90864736f6c63430008220033\n}\n",
				"bytecode": {
					"linkReferences": {},
					"object": "608060405234801561000f575f5ffd5b5060405161082d38038061082d833981810160405281019061003191906100d4565b805f5f6101000a81548173ffffffffffffffffffffffffffffffffffffffff021916908373ffffffffffffffffffffffffffffffffffffffff160217905550506100ff565b5f5ffd5b5f73ffffffffffffffffffffffffffffffffffffffff82169050919050565b5f6100a38261007a565b9050919050565b6100b381610099565b81146100bd575f5ffd5b50565b5f815190506100ce816100aa565b92915050565b5f602082840312156100e9576100e8610076565b5b5f6100f6848285016100c0565b91505092915050565b6107218061010c5f395ff3fe608060405234801561000f575f5ffd5b5060043610610034575f3560e01c8063a2788f6514610038578063fc0c546a14610054575b5f5ffd5b610052600480360381019061004d919061033f565b610072565b005b61005c6102e4565b60405161006991906103e4565b60405180910390f35b5f5f9054906101000a900473ffffffffffffffffffffffffffffffffffffffff1673ffffffffffffffffffffffffffffffffffffffff166323b872dd3330846040518463ffffffff1660e01b81526004016100cf9392919061042c565b6020604051808303815f875af11580156100eb573d5f5f3e3d5ffd5b505050506040513d601f19601f8201168201806040525081019061010f9190610496565b61014e576040517f08c379a00000000000000000000000000000000000000000000000000000000081526004016101459061051b565b60405180910390fd5b5f606460788361015e9190610566565b61016891906105d4565b9050805f5f9054906101000a900473ffffffffffffffffffffffffffffffffffffffff1673ffffffffffffffffffffffffffffffffffffffff166370a08231306040518263ffffffff1660e01b81526004016101c49190610604565b602060405180830381865afa1580156101df573d5f5f3e3d5ffd5b505050506040513d601f19601f820116820180604052508101906102039190610631565b1015610244576040517f08c379a000000000000000000000000000000000000000000000000000000000815260040161023b906106a6565b60405180910390fd5b5f5f9054906101000a900473ffffffffffffffffffffffffffffffffffffffff1673ffffffffffffffffffffffffffffffffffffffff1663a9059cbb33836040518363ffffffff1660e01b815260040161029f9291906106c4565b6020604051808303815f875af11580156102bb573d5f5f3e3d5ffd5b505050506040513d601f19601f820116820180604052508101906102df9190610496565b505050565b5f5f9054906101000a900473ffffffffffffffffffffffffffffffffffffffff1681565b5f5ffd5b5f819050919050565b61031e8161030c565b8114610328575f5ffd5b50565b5f8135905061033981610315565b92915050565b5f6020828403121561035457610353610308565b5b5f6103618482850161032b565b91505092915050565b5f73ffffffffffffffffffffffffffffffffffffffff82169050919050565b5f819050919050565b5f6103ac6103a76103a28461036a565b610389565b61036a565b9050919050565b5f6103bd82610392565b9050919050565b5f6103ce826103b3565b9050919050565b6103de816103c4565b82525050565b5f6020820190506103f75f8301846103d5565b92915050565b5f6104078261036a565b9050919050565b610417816103fd565b82525050565b6104268161030c565b82525050565b5f60608201905061043f5f83018661040e565b61044c602083018561040e565b610459604083018461041d565b949350505050565b5f8115159050919050565b61047581610461565b811461047f575f5ffd5b50565b5f815190506104908161046c565b92915050565b5f602082840312156104ab576104aa610308565b5b5f6104b884828501610482565b91505092915050565b5f82825260208201905092915050565b7f5472616e7366657220646f20444558206e69657564616e7900000000000000005f82015250565b5f6105056018836104c1565b9150610510826104d1565b602082019050919050565b5f6020820190508181035f830152610532816104f9565b9050919050565b7f4e487b71000000000000000000000000000000000000000000000000000000005f52601160045260245ffd5b5f6105708261030c565b915061057b8361030c565b92508282026105898161030c565b915082820484148315176105a05761059f610539565b5b5092915050565b7f4e487b71000000000000000000000000000000000000000000000000000000005f52601260045260245ffd5b5f6105de8261030c565b91506105e98361030c565b9250826105f9576105f86105a7565b5b828204905092915050565b5f6020820190506106175f83018461040e565b92915050565b5f8151905061062b81610315565b92915050565b5f6020828403121561064657610645610308565b5b5f6106538482850161061d565b91505092915050565b7f4272616b20706c796e6e6f736369206e612044455800000000000000000000005f82015250565b5f6106906015836104c1565b915061069b8261065c565b602082019050919050565b5f6020820190508181035f8301526106bd81610684565b9050919050565b5f6040820190506106d75f83018561040e565b6106e4602083018461041d565b939250505056fea2646970667358221220f332445d0a9c8d7bcac97548e474f74acf34a821925f31b4ddbbfb08e8c8c90864736f6c63430008220033",
					"opcodes": "PUSH1 0x80 PUSH1 0x40 MSTORE CALLVALUE DUP1 ISZERO PUSH2 0xF JUMPI PUSH0 PUSH0 REVERT JUMPDEST POP PUSH1 0x40 MLOAD PUSH2 0x82D CODESIZE SUB DUP1 PUSH2 0x82D DUP4 CODECOPY DUP2 DUP2 ADD PUSH1 0x40 MSTORE DUP2 ADD SWAP1 PUSH2 0x31 SWAP2 SWAP1 PUSH2 0xD4 JUMP JUMPDEST DUP1 PUSH0 PUSH0 PUSH2 0x100 EXP DUP2 SLOAD DUP2 PUSH20 0xFFFFFFFFFFFFFFFFFFFFFFFFFFFFFFFFFFFFFFFF MUL NOT AND SWAP1 DUP4 PUSH20 0xFFFFFFFFFFFFFFFFFFFFFFFFFFFFFFFFFFFFFFFF AND MUL OR SWAP1 SSTORE POP POP PUSH2 0xFF JUMP JUMPDEST PUSH0 PUSH0 REVERT JUMPDEST PUSH0 PUSH20 0xFFFFFFFFFFFFFFFFFFFFFFFFFFFFFFFFFFFFFFFF DUP3 AND SWAP1 POP SWAP2 SWAP1 POP JUMP JUMPDEST PUSH0 PUSH2 0xA3 DUP3 PUSH2 0x7A JUMP JUMPDEST SWAP1 POP SWAP2 SWAP1 POP JUMP JUMPDEST PUSH2 0xB3 DUP2 PUSH2 0x99 JUMP JUMPDEST DUP2 EQ PUSH2 0xBD JUMPI PUSH0 PUSH0 REVERT JUMPDEST POP JUMP JUMPDEST PUSH0 DUP2 MLOAD SWAP1 POP PUSH2 0xCE DUP2 PUSH2 0xAA JUMP JUMPDEST SWAP3 SWAP2 POP POP JUMP JUMPDEST PUSH0 PUSH1 0x20 DUP3 DUP5 SUB SLT ISZERO PUSH2 0xE9 JUMPI PUSH2 0xE8 PUSH2 0x76 JUMP JUMPDEST JUMPDEST PUSH0 PUSH2 0xF6 DUP5 DUP3 DUP6 ADD PUSH2 0xC0 JUMP JUMPDEST SWAP2 POP POP SWAP3 SWAP2 POP POP JUMP JUMPDEST PUSH2 0x721 DUP1 PUSH2 0x10C PUSH0 CODECOPY PUSH0 RETURN INVALID PUSH1 0x80 PUSH1 0x40 MSTORE CALLVALUE DUP1 ISZERO PUSH2 0xF JUMPI PUSH0 PUSH0 REVERT JUMPDEST POP PUSH1 0x4 CALLDATASIZE LT PUSH2 0x34 JUMPI PUSH0 CALLDATALOAD PUSH1 0xE0 SHR DUP1 PUSH4 0xA2788F65 EQ PUSH2 0x38 JUMPI DUP1 PUSH4 0xFC0C546A EQ PUSH2 0x54 JUMPI JUMPDEST PUSH0 PUSH0 REVERT JUMPDEST PUSH2 0x52 PUSH1 0x4 DUP1 CALLDATASIZE SUB DUP2 ADD SWAP1 PUSH2 0x4D SWAP2 SWAP1 PUSH2 0x33F JUMP JUMPDEST PUSH2 0x72 JUMP JUMPDEST STOP JUMPDEST PUSH2 0x5C PUSH2 0x2E4 JUMP JUMPDEST PUSH1 0x40 MLOAD PUSH2 0x69 SWAP2 SWAP1 PUSH2 0x3E4 JUMP JUMPDEST PUSH1 0x40 MLOAD DUP1 SWAP2 SUB SWAP1 RETURN JUMPDEST PUSH0 PUSH0 SWAP1 SLOAD SWAP1 PUSH2 0x100 EXP SWAP1 DIV PUSH20 0xFFFFFFFFFFFFFFFFFFFFFFFFFFFFFFFFFFFFFFFF AND PUSH20 0xFFFFFFFFFFFFFFFFFFFFFFFFFFFFFFFFFFFFFFFF AND PUSH4 0x23B872DD CALLER ADDRESS DUP5 PUSH1 0x40 MLOAD DUP5 PUSH4 0xFFFFFFFF AND PUSH1 0xE0 SHL DUP2 MSTORE PUSH1 0x4 ADD PUSH2 0xCF SWAP4 SWAP3 SWAP2 SWAP1 PUSH2 0x42C JUMP JUMPDEST PUSH1 0x20 PUSH1 0x40 MLOAD DUP1 DUP4 SUB DUP2 PUSH0 DUP8 GAS CALL ISZERO DUP1 ISZERO PUSH2 0xEB JUMPI RETURNDATASIZE PUSH0 PUSH0 RETURNDATACOPY RETURNDATASIZE PUSH0 REVERT JUMPDEST POP POP POP POP PUSH1 0x40 MLOAD RETURNDATASIZE PUSH1 0x1F NOT PUSH1 0x1F DUP3 ADD AND DUP3 ADD DUP1 PUSH1 0x40 MSTORE POP DUP2 ADD SWAP1 PUSH2 0x10F SWAP2 SWAP1 PUSH2 0x496 JUMP JUMPDEST PUSH2 0x14E JUMPI PUSH1 0x40 MLOAD PUSH32 0x8C379A000000000000000000000000000000000000000000000000000000000 DUP2 MSTORE PUSH1 0x4 ADD PUSH2 0x145 SWAP1 PUSH2 0x51B JUMP JUMPDEST PUSH1 0x40 MLOAD DUP1 SWAP2 SUB SWAP1 REVERT JUMPDEST PUSH0 PUSH1 0x64 PUSH1 0x78 DUP4 PUSH2 0x15E SWAP2 SWAP1 PUSH2 0x566 JUMP JUMPDEST PUSH2 0x168 SWAP2 SWAP1 PUSH2 0x5D4 JUMP JUMPDEST SWAP1 POP DUP1 PUSH0 PUSH0 SWAP1 SLOAD SWAP1 PUSH2 0x100 EXP SWAP1 DIV PUSH20 0xFFFFFFFFFFFFFFFFFFFFFFFFFFFFFFFFFFFFFFFF AND PUSH20 0xFFFFFFFFFFFFFFFFFFFFFFFFFFFFFFFFFFFFFFFF AND PUSH4 0x70A08231 ADDRESS PUSH1 0x40 MLOAD DUP3 PUSH4 0xFFFFFFFF AND PUSH1 0xE0 SHL DUP2 MSTORE PUSH1 0x4 ADD PUSH2 0x1C4 SWAP2 SWAP1 PUSH2 0x604 JUMP JUMPDEST PUSH1 0x20 PUSH1 0x40 MLOAD DUP1 DUP4 SUB DUP2 DUP7 GAS STATICCALL ISZERO DUP1 ISZERO PUSH2 0x1DF JUMPI RETURNDATASIZE PUSH0 PUSH0 RETURNDATACOPY RETURNDATASIZE PUSH0 REVERT JUMPDEST POP POP POP POP PUSH1 0x40 MLOAD RETURNDATASIZE PUSH1 0x1F NOT PUSH1 0x1F DUP3 ADD AND DUP3 ADD DUP1 PUSH1 0x40 MSTORE POP DUP2 ADD SWAP1 PUSH2 0x203 SWAP2 SWAP1 PUSH2 0x631 JUMP JUMPDEST LT ISZERO PUSH2 0x244 JUMPI PUSH1 0x40 MLOAD PUSH32 0x8C379A000000000000000000000000000000000000000000000000000000000 DUP2 MSTORE PUSH1 0x4 ADD PUSH2 0x23B SWAP1 PUSH2 0x6A6 JUMP JUMPDEST PUSH1 0x40 MLOAD DUP1 SWAP2 SUB SWAP1 REVERT JUMPDEST PUSH0 PUSH0 SWAP1 SLOAD SWAP1 PUSH2 0x100 EXP SWAP1 DIV PUSH20 0xFFFFFFFFFFFFFFFFFFFFFFFFFFFFFFFFFFFFFFFF AND PUSH20 0xFFFFFFFFFFFFFFFFFFFFFFFFFFFFFFFFFFFFFFFF AND PUSH4 0xA9059CBB CALLER DUP4 PUSH1 0x40 MLOAD DUP4 PUSH4 0xFFFFFFFF AND PUSH1 0xE0 SHL DUP2 MSTORE PUSH1 0x4 ADD PUSH2 0x29F SWAP3 SWAP2 SWAP1 PUSH2 0x6C4 JUMP JUMPDEST PUSH1 0x20 PUSH1 0x40 MLOAD DUP1 DUP4 SUB DUP2 PUSH0 DUP8 GAS CALL ISZERO DUP1 ISZERO PUSH2 0x2BB JUMPI RETURNDATASIZE PUSH0 PUSH0 RETURNDATACOPY RETURNDATASIZE PUSH0 REVERT JUMPDEST POP POP POP POP PUSH1 0x40 MLOAD RETURNDATASIZE PUSH1 0x1F NOT PUSH1 0x1F DUP3 ADD AND DUP3 ADD DUP1 PUSH1 0x40 MSTORE POP DUP2 ADD SWAP1 PUSH2 0x2DF SWAP2 SWAP1 PUSH2 0x496 JUMP JUMPDEST POP POP POP JUMP JUMPDEST PUSH0 PUSH0 SWAP1 SLOAD SWAP1 PUSH2 0x100 EXP SWAP1 DIV PUSH20 0xFFFFFFFFFFFFFFFFFFFFFFFFFFFFFFFFFFFFFFFF AND DUP2 JUMP JUMPDEST PUSH0 PUSH0 REVERT JUMPDEST PUSH0 DUP2 SWAP1 POP SWAP2 SWAP1 POP JUMP JUMPDEST PUSH2 0x31E DUP2 PUSH2 0x30C JUMP JUMPDEST DUP2 EQ PUSH2 0x328 JUMPI PUSH0 PUSH0 REVERT JUMPDEST POP JUMP JUMPDEST PUSH0 DUP2 CALLDATALOAD SWAP1 POP PUSH2 0x339 DUP2 PUSH2 0x315 JUMP JUMPDEST SWAP3 SWAP2 POP POP JUMP JUMPDEST PUSH0 PUSH1 0x20 DUP3 DUP5 SUB SLT ISZERO PUSH2 0x354 JUMPI PUSH2 0x353 PUSH2 0x308 JUMP JUMPDEST JUMPDEST PUSH0 PUSH2 0x361 DUP5 DUP3 DUP6 ADD PUSH2 0x32B JUMP JUMPDEST SWAP2 POP POP SWAP3 SWAP2 POP POP JUMP JUMPDEST PUSH0 PUSH20 0xFFFFFFFFFFFFFFFFFFFFFFFFFFFFFFFFFFFFFFFF DUP3 AND SWAP1 POP SWAP2 SWAP1 POP JUMP JUMPDEST PUSH0 DUP2 SWAP1 POP SWAP2 SWAP1 POP JUMP JUMPDEST PUSH0 PUSH2 0x3AC PUSH2 0x3A7 PUSH2 0x3A2 DUP5 PUSH2 0x36A JUMP JUMPDEST PUSH2 0x389 JUMP JUMPDEST PUSH2 0x36A JUMP JUMPDEST SWAP1 POP SWAP2 SWAP1 POP JUMP JUMPDEST PUSH0 PUSH2 0x3BD DUP3 PUSH2 0x392 JUMP JUMPDEST SWAP1 POP SWAP2 SWAP1 POP JUMP JUMPDEST PUSH0 PUSH2 0x3CE DUP3 PUSH2 0x3B3 JUMP JUMPDEST SWAP1 POP SWAP2 SWAP1 POP JUMP JUMPDEST PUSH2 0x3DE DUP2 PUSH2 0x3C4 JUMP JUMPDEST DUP3 MSTORE POP POP JUMP JUMPDEST PUSH0 PUSH1 0x20 DUP3 ADD SWAP1 POP PUSH2 0x3F7 PUSH0 DUP4 ADD DUP5 PUSH2 0x3D5 JUMP JUMPDEST SWAP3 SWAP2 POP POP JUMP JUMPDEST PUSH0 PUSH2 0x407 DUP3 PUSH2 0x36A JUMP JUMPDEST SWAP1 POP SWAP2 SWAP1 POP JUMP JUMPDEST PUSH2 0x417 DUP2 PUSH2 0x3FD JUMP JUMPDEST DUP3 MSTORE POP POP JUMP JUMPDEST PUSH2 0x426 DUP2 PUSH2 0x30C JUMP JUMPDEST DUP3 MSTORE POP POP JUMP JUMPDEST PUSH0 PUSH1 0x60 DUP3 ADD SWAP1 POP PUSH2 0x43F PUSH0 DUP4 ADD DUP7 PUSH2 0x40E JUMP JUMPDEST PUSH2 0x44C PUSH1 0x20 DUP4 ADD DUP6 PUSH2 0x40E JUMP JUMPDEST PUSH2 0x459 PUSH1 0x40 DUP4 ADD DUP5 PUSH2 0x41D JUMP JUMPDEST SWAP5 SWAP4 POP POP POP POP JUMP JUMPDEST PUSH0 DUP2 ISZERO ISZERO SWAP1 POP SWAP2 SWAP1 POP JUMP JUMPDEST PUSH2 0x475 DUP2 PUSH2 0x461 JUMP JUMPDEST DUP2 EQ PUSH2 0x47F JUMPI PUSH0 PUSH0 REVERT JUMPDEST POP JUMP JUMPDEST PUSH0 DUP2 MLOAD SWAP1 POP PUSH2 0x490 DUP2 PUSH2 0x46C JUMP JUMPDEST SWAP3 SWAP2 POP POP JUMP JUMPDEST PUSH0 PUSH1 0x20 DUP3 DUP5 SUB SLT ISZERO PUSH2 0x4AB JUMPI PUSH2 0x4AA PUSH2 0x308 JUMP JUMPDEST JUMPDEST PUSH0 PUSH2 0x4B8 DUP5 DUP3 DUP6 ADD PUSH2 0x482 JUMP JUMPDEST SWAP2 POP POP SWAP3 SWAP2 POP POP JUMP JUMPDEST PUSH0 DUP3 DUP3 MSTORE PUSH1 0x20 DUP3 ADD SWAP1 POP SWAP3 SWAP2 POP POP JUMP JUMPDEST PUSH32 0x5472616E7366657220646F20444558206E69657564616E790000000000000000 PUSH0 DUP3 ADD MSTORE POP JUMP JUMPDEST PUSH0 PUSH2 0x505 PUSH1 0x18 DUP4 PUSH2 0x4C1 JUMP JUMPDEST SWAP2 POP PUSH2 0x510 DUP3 PUSH2 0x4D1 JUMP JUMPDEST PUSH1 0x20 DUP3 ADD SWAP1 POP SWAP2 SWAP1 POP JUMP JUMPDEST PUSH0 PUSH1 0x20 DUP3 ADD SWAP1 POP DUP2 DUP2 SUB PUSH0 DUP4 ADD MSTORE PUSH2 0x532 DUP2 PUSH2 0x4F9 JUMP JUMPDEST SWAP1 POP SWAP2 SWAP1 POP JUMP JUMPDEST PUSH32 0x4E487B7100000000000000000000000000000000000000000000000000000000 PUSH0 MSTORE PUSH1 0x11 PUSH1 0x4 MSTORE PUSH1 0x24 PUSH0 REVERT JUMPDEST PUSH0 PUSH2 0x570 DUP3 PUSH2 0x30C JUMP JUMPDEST SWAP2 POP PUSH2 0x57B DUP4 PUSH2 0x30C JUMP JUMPDEST SWAP3 POP DUP3 DUP3 MUL PUSH2 0x589 DUP2 PUSH2 0x30C JUMP JUMPDEST SWAP2 POP DUP3 DUP3 DIV DUP5 EQ DUP4 ISZERO OR PUSH2 0x5A0 JUMPI PUSH2 0x59F PUSH2 0x539 JUMP JUMPDEST JUMPDEST POP SWAP3 SWAP2 POP POP JUMP JUMPDEST PUSH32 0x4E487B7100000000000000000000000000000000000000000000000000000000 PUSH0 MSTORE PUSH1 0x12 PUSH1 0x4 MSTORE PUSH1 0x24 PUSH0 REVERT JUMPDEST PUSH0 PUSH2 0x5DE DUP3 PUSH2 0x30C JUMP JUMPDEST SWAP2 POP PUSH2 0x5E9 DUP4 PUSH2 0x30C JUMP JUMPDEST SWAP3 POP DUP3 PUSH2 0x5F9 JUMPI PUSH2 0x5F8 PUSH2 0x5A7 JUMP JUMPDEST JUMPDEST DUP3 DUP3 DIV SWAP1 POP SWAP3 SWAP2 POP POP JUMP JUMPDEST PUSH0 PUSH1 0x20 DUP3 ADD SWAP1 POP PUSH2 0x617 PUSH0 DUP4 ADD DUP5 PUSH2 0x40E JUMP JUMPDEST SWAP3 SWAP2 POP POP JUMP JUMPDEST PUSH0 DUP2 MLOAD SWAP1 POP PUSH2 0x62B DUP2 PUSH2 0x315 JUMP JUMPDEST SWAP3 SWAP2 POP POP JUMP JUMPDEST PUSH0 PUSH1 0x20 DUP3 DUP5 SUB SLT ISZERO PUSH2 0x646 JUMPI PUSH2 0x645 PUSH2 0x308 JUMP JUMPDEST JUMPDEST PUSH0 PUSH2 0x653 DUP5 DUP3 DUP6 ADD PUSH2 0x61D JUMP JUMPDEST SWAP2 POP POP SWAP3 SWAP2 POP POP JUMP JUMPDEST PUSH32 0x4272616B20706C796E6E6F736369206E61204445580000000000000000000000 PUSH0 DUP3 ADD MSTORE POP JUMP JUMPDEST PUSH0 PUSH2 0x690 PUSH1 0x15 DUP4 PUSH2 0x4C1 JUMP JUMPDEST SWAP2 POP PUSH2 0x69B DUP3 PUSH2 0x65C JUMP JUMPDEST PUSH1 0x20 DUP3 ADD SWAP1 POP SWAP2 SWAP1 POP JUMP JUMPDEST PUSH0 PUSH1 0x20 DUP3 ADD SWAP1 POP DUP2 DUP2 SUB PUSH0 DUP4 ADD MSTORE PUSH2 0x6BD DUP2 PUSH2 0x684 JUMP JUMPDEST SWAP1 POP SWAP2 SWAP1 POP JUMP JUMPDEST PUSH0 PUSH1 0x40 DUP3 ADD SWAP1 POP PUSH2 0x6D7 PUSH0 DUP4 ADD DUP6 PUSH2 0x40E JUMP JUMPDEST PUSH2 0x6E4 PUSH1 0x20 DUP4 ADD DUP5 PUSH2 0x41D JUMP JUMPDEST SWAP4 SWAP3 POP POP POP JUMP INVALID LOG2 PUSH5 0x6970667358 0x22 SLT KECCAK256 RETURN ORIGIN PREVRANDAO TSTORE EXP SWAP13 DUP14 PUSH28 0xCAC97548E474F74ACF34A821925F31B4DDBBFB08E8C8C90864736F6C PUSH4 0x43000822 STOP CALLER "
				},
				"gasEstimates": {
					"creation": {
						"codeDepositCost": "365000",
						"executionCost": "infinite",
						"totalCost": "infinite"
					},
					"external": {
						"swapAtInefficientRate(uint256)": "infinite",
						"token()": "infinite"
					}
				},
				"methodIdentifiers": {
					"swapAtInefficientRate(uint256)": "a2788f65",
					"token()": "fc0c546a"
				}
			},
			"storageLayout": {
				"storage": [
					{
						"astId": 83,
						"contract": "contracts/flashloan/MockArbitrageDEX.sol:MockArbitrageDEX",
						"label": "token",
						"offset": 0,
						"slot": "0",
						"type": "t_contract(IERC20)77"
					}
				],
				"types": {
					"t_contract(IERC20)77": {
						"encoding": "inplace",
						"label": "contract IERC20",
						"numberOfBytes": "20"
					}
				}
			},
			"userdoc": {
				"kind": "user",
				"methods": {},
				"version": 1
			}
		}
	}
}