{
	"contracts/workshop/Vault.sol": {
		"Sejf": {
			"abi": [
				{
					"inputs": [
						{
							"internalType": "bytes32",
							"name": "_haslo",
							"type": "bytes32"
						}
					],
					"stateMutability": "payable",
					"type": "constructor"
				},
				{
					"inputs": [
						{
							"internalType": "address",
							"name": "adresKranu",
							"type": "address"
						}
					],
					"name": "napadNaKran",
					"outputs": [],
					"stateMutability": "nonpayable",
					"type": "function"
				},
				{
					"inputs": [],
					"name": "sprawdzSaldo",
					"outputs": [
						{
							"internalType": "uint256",
							"name": "",
							"type": "uint256"
						}
					],
					"stateMutability": "view",
					"type": "function"
				},
				{
					"inputs": [
						{
							"internalType": "bytes32",
							"name": "podaneHaslo",
							"type": "bytes32"
						}
					],
					"name": "wlamanie",
					"outputs": [],
					"stateMutability": "nonpayable",
					"type": "function"
				},
				{
					"inputs": [],
					"name": "wlasciciel",
					"outputs": [
						{
							"internalType": "address",
							"name": "",
							"type": "address"
						}
					],
					"stateMutability": "view",
					"type": "function"
				},
				{
					"stateMutability": "payable",
					"type": "receive"
				}
			],
			"devdoc": {
				"kind": "dev",
				"methods": {},
				"version": 1
			},
			"evm": {
				"assembly": "    /* \"contracts/workshop/Vault.sol\":224:1341  contract Sejf {... */\n  mstore(0x40, 0x80)\n    /* \"contracts/workshop/Vault.sol\":426:534  constructor(bytes32 _haslo) payable {... */\n  mload(0x40)\n  sub(codesize, bytecodeSize)\n  dup1\n  bytecodeSize\n  dup4\n  codecopy\n  dup2\n  dup2\n  add\n  0x40\n  mstore\n  dup2\n  add\n  swap1\n  tag_1\n  swap2\n  swap1\n  tag_2\n  jump\t// in\ntag_1:\n    /* \"contracts/workshop/Vault.sol\":486:496  msg.sender */\n  caller\n    /* \"contracts/workshop/Vault.sol\":473:483  wlasciciel */\n  0x00\n  0x00\n    /* \"contracts/workshop/Vault.sol\":473:496  wlasciciel = msg.sender */\n  0x0100\n  exp\n  dup2\n  sload\n  dup2\n  0xffffffffffffffffffffffffffffffffffffffff\n  mul\n  not\n  and\n  swap1\n  dup4\n  0xffffffffffffffffffffffffffffffffffffffff\n  and\n  mul\n  or\n  swap1\n  sstore\n  pop\n    /* \"contracts/workshop/Vault.sol\":520:526  _haslo */\n  dup1\n    /* \"contracts/workshop/Vault.sol\":507:517  tajneHaslo */\n  0x01\n    /* \"contracts/workshop/Vault.sol\":507:526  tajneHaslo = _haslo */\n  dup2\n  swap1\n  sstore\n  pop\n    /* \"contracts/workshop/Vault.sol\":426:534  constructor(bytes32 _haslo) payable {... */\n  pop\n    /* \"contracts/workshop/Vault.sol\":224:1341  contract Sejf {... */\n  jump(tag_5)\n    /* \"#utility.yul\":88:205   */\ntag_7:\n    /* \"#utility.yul\":197:198   */\n  0x00\n    /* \"#utility.yul\":194:195   */\n  0x00\n    /* \"#utility.yul\":187:199   */\n  revert\n    /* \"#utility.yul\":334:411   */\ntag_9:\n    /* \"#utility.yul\":371:378   */\n  0x00\n    /* \"#utility.yul\":400:405   */\n  dup2\n    /* \"#utility.yul\":389:405   */\n  swap1\n  pop\n    /* \"#utility.yul\":334:411   */\n  swap2\n  swap1\n  pop\n  jump\t// out\n    /* \"#utility.yul\":417:539   */\ntag_10:\n    /* \"#utility.yul\":490:514   */\n  tag_18\n    /* \"#utility.yul\":508:513   */\n  dup2\n    /* \"#utility.yul\":490:514   */\n  tag_9\n  jump\t// in\ntag_18:\n    /* \"#utility.yul\":483:488   */\n  dup2\n    /* \"#utility.yul\":480:515   */\n  eq\n    /* \"#utility.yul\":470:533   */\n  tag_19\n  jumpi\n    /* \"#utility.yul\":529:530   */\n  0x00\n    /* \"#utility.yul\":526:527   */\n  0x00\n    /* \"#utility.yul\":519:531   */\n  revert\n    /* \"#utility.yul\":470:533   */\ntag_19:\n    /* \"#utility.yul\":417:539   */\n  pop\n  jump\t// out\n    /* \"#utility.yul\":545:688   */\ntag_11:\n    /* \"#utility.yul\":602:607   */\n  0x00\n    /* \"#utility.yul\":633:639   */\n  dup2\n    /* \"#utility.yul\":627:640   */\n  mload\n    /* \"#utility.yul\":618:640   */\n  swap1\n  pop\n    /* \"#utility.yul\":649:682   */\n  tag_21\n    /* \"#utility.yul\":676:681   */\n  dup2\n    /* \"#utility.yul\":649:682   */\n  tag_10\n  jump\t// in\ntag_21:\n    /* \"#utility.yul\":545:688   */\n  swap3\n  swap2\n  pop\n  pop\n  jump\t// out\n    /* \"#utility.yul\":694:1045   */\ntag_2:\n    /* \"#utility.yul\":764:770   */\n  0x00\n    /* \"#utility.yul\":813:815   */\n  0x20\n    /* \"#utility.yul\":801:810   */\n  dup3\n    /* \"#utility.yul\":792:799   */\n  dup5\n    /* \"#utility.yul\":788:811   */\n  sub\n    /* \"#utility.yul\":784:816   */\n  slt\n    /* \"#utility.yul\":781:900   */\n  iszero\n  tag_23\n  jumpi\n    /* \"#utility.yul\":819:898   */\n  tag_24\n  tag_7\n  jump\t// in\ntag_24:\n    /* \"#utility.yul\":781:900   */\ntag_23:\n    /* \"#utility.yul\":939:940   */\n  0x00\n    /* \"#utility.yul\":964:1028   */\n  tag_25\n    /* \"#utility.yul\":1020:1027   */\n  dup5\n    /* \"#utility.yul\":1011:1017   */\n  dup3\n    /* \"#utility.yul\":1000:1009   */\n  dup6\n    /* \"#utility.yul\":996:1018   */\n  add\n    /* \"#utility.yul\":964:1028   */\n  tag_11\n  jump\t// in\ntag_25:\n    /* \"#utility.yul\":954:1028   */\n  swap2\n  pop\n    /* \"#utility.yul\":910:1038   */\n  pop\n    /* \"#utility.yul\":694:1045   */\n  swap3\n  swap2\n  pop\n  pop\n  jump\t// out\n    /* \"contracts/workshop/Vault.sol\":224:1341  contract Sejf {... */\ntag_5:\n  dataSize(sub_0)\n  dup1\n  dataOffset(sub_0)\n  0x00\n  codecopy\n  0x00\n  return\nstop\n\nsub_0: assembly {\n        /* \"contracts/workshop/Vault.sol\":224:1341  contract Sejf {... */\n      mstore(0x40, 0x80)\n      jumpi(tag_1, lt(calldatasize, 0x04))\n      shr(0xe0, calldataload(0x00))\n      dup1\n      0x4abbd7a4\n      eq\n      tag_3\n      jumpi\n      dup1\n      0x8e140311\n      eq\n      tag_4\n      jumpi\n      dup1\n      0xd410896f\n      eq\n      tag_5\n      jumpi\n      dup1\n      0xffc51b69\n      eq\n      tag_6\n      jumpi\n      jump(tag_2)\n    tag_1:\n      jumpi(tag_2, calldatasize)\n      stop\n    tag_2:\n      revert(0x00, 0x00)\n        /* \"contracts/workshop/Vault.sol\":1237:1338  function sprawdzSaldo() public view returns (uint256) {... */\n    tag_3:\n      callvalue\n      dup1\n      iszero\n      tag_9\n      jumpi\n      revert(0x00, 0x00)\n    tag_9:\n      pop\n      tag_10\n      tag_11\n      jump\t// in\n    tag_10:\n      mload(0x40)\n      tag_12\n      swap2\n      swap1\n      tag_13\n      jump\t// in\n    tag_12:\n      mload(0x40)\n      dup1\n      swap2\n      sub\n      swap1\n      return\n        /* \"contracts/workshop/Vault.sol\":947:1229  function wlamanie(bytes32 podaneHaslo) public {... */\n    tag_4:\n      callvalue\n      dup1\n      iszero\n      tag_14\n      jumpi\n      revert(0x00, 0x00)\n    tag_14:\n      pop\n      tag_15\n      0x04\n      dup1\n      calldatasize\n      sub\n      dup2\n      add\n      swap1\n      tag_16\n      swap2\n      swap1\n      tag_17\n      jump\t// in\n    tag_16:\n      tag_18\n      jump\t// in\n    tag_15:\n      stop\n        /* \"contracts/workshop/Vault.sol\":606:939  function napadNaKran(address adresKranu) public {... */\n    tag_5:\n      callvalue\n      dup1\n      iszero\n      tag_19\n      jumpi\n      revert(0x00, 0x00)\n    tag_19:\n      pop\n      tag_20\n      0x04\n      dup1\n      calldatasize\n      sub\n      dup2\n      add\n      swap1\n      tag_21\n      swap2\n      swap1\n      tag_22\n      jump\t// in\n    tag_21:\n      tag_23\n      jump\t// in\n    tag_20:\n      stop\n        /* \"contracts/workshop/Vault.sol\":245:270  address public wlasciciel */\n    tag_6:\n      callvalue\n      dup1\n      iszero\n      tag_24\n      jumpi\n      revert(0x00, 0x00)\n    tag_24:\n      pop\n      tag_25\n      tag_26\n      jump\t// in\n    tag_25:\n      mload(0x40)\n      tag_27\n      swap2\n      swap1\n      tag_28\n      jump\t// in\n    tag_27:\n      mload(0x40)\n      dup1\n      swap2\n      sub\n      swap1\n      return\n        /* \"contracts/workshop/Vault.sol\":1237:1338  function sprawdzSaldo() public view returns (uint256) {... */\n    tag_11:\n        /* \"contracts/workshop/Vault.sol\":1282:1289  uint256 */\n      0x00\n        /* \"contracts/workshop/Vault.sol\":1309:1330  address(this).balance */\n      selfbalance\n        /* \"contracts/workshop/Vault.sol\":1302:1330  return address(this).balance */\n      swap1\n      pop\n        /* \"contracts/workshop/Vault.sol\":1237:1338  function sprawdzSaldo() public view returns (uint256) {... */\n      swap1\n      jump\t// out\n        /* \"contracts/workshop/Vault.sol\":947:1229  function wlamanie(bytes32 podaneHaslo) public {... */\n    tag_18:\n        /* \"contracts/workshop/Vault.sol\":1027:1037  tajneHaslo */\n      sload(0x01)\n        /* \"contracts/workshop/Vault.sol\":1012:1023  podaneHaslo */\n      dup2\n        /* \"contracts/workshop/Vault.sol\":1012:1037  podaneHaslo == tajneHaslo */\n      eq\n        /* \"contracts/workshop/Vault.sol\":1004:1052  require(podaneHaslo == tajneHaslo, \"Zle haslo!\") */\n      tag_31\n      jumpi\n      mload(0x40)\n      0x08c379a000000000000000000000000000000000000000000000000000000000\n      dup2\n      mstore\n      0x04\n      add\n      tag_32\n      swap1\n      tag_33\n      jump\t// in\n    tag_32:\n      mload(0x40)\n      dup1\n      swap2\n      sub\n      swap1\n      revert\n    tag_31:\n        /* \"contracts/workshop/Vault.sol\":1063:1082  uint256 calyMajatek */\n      0x00\n        /* \"contracts/workshop/Vault.sol\":1085:1106  address(this).balance */\n      selfbalance\n        /* \"contracts/workshop/Vault.sol\":1063:1106  uint256 calyMajatek = address(this).balance */\n      swap1\n      pop\n        /* \"contracts/workshop/Vault.sol\":1118:1129  bool sukces */\n      0x00\n        /* \"contracts/workshop/Vault.sol\":1135:1145  msg.sender */\n      caller\n        /* \"contracts/workshop/Vault.sol\":1135:1150  msg.sender.call */\n      0xffffffffffffffffffffffffffffffffffffffff\n      and\n        /* \"contracts/workshop/Vault.sol\":1158:1169  calyMajatek */\n      dup3\n        /* \"contracts/workshop/Vault.sol\":1135:1174  msg.sender.call{value: calyMajatek}(\"\") */\n      mload(0x40)\n      tag_34\n      swap1\n      tag_35\n      jump\t// in\n    tag_34:\n      0x00\n      mload(0x40)\n      dup1\n      dup4\n      sub\n      dup2\n      dup6\n      dup8\n      gas\n      call\n      swap3\n      pop\n      pop\n      pop\n      returndatasize\n      dup1\n      0x00\n      dup2\n      eq\n      tag_38\n      jumpi\n      mload(0x40)\n      swap2\n      pop\n      and(add(returndatasize, 0x3f), not(0x1f))\n      dup3\n      add\n      0x40\n      mstore\n      returndatasize\n      dup3\n      mstore\n      returndatasize\n      0x00\n      0x20\n      dup5\n      add\n      returndatacopy\n      jump(tag_37)\n    tag_38:\n      0x60\n      swap2\n      pop\n    tag_37:\n      pop\n        /* \"contracts/workshop/Vault.sol\":1117:1174  (bool sukces, ) = msg.sender.call{value: calyMajatek}(\"\") */\n      pop\n      swap1\n      pop\n        /* \"contracts/workshop/Vault.sol\":1193:1199  sukces */\n      dup1\n        /* \"contracts/workshop/Vault.sol\":1185:1221  require(sukces, \"Przelew nie udany\") */\n      tag_39\n      jumpi\n      mload(0x40)\n      0x08c379a000000000000000000000000000000000000000000000000000000000\n      dup2\n      mstore\n      0x04\n      add\n      tag_40\n      swap1\n      tag_41\n      jump\t// in\n    tag_40:\n      mload(0x40)\n      dup1\n      swap2\n      sub\n      swap1\n      revert\n    tag_39:\n        /* \"contracts/workshop/Vault.sol\":993:1229  {... */\n      pop\n      pop\n        /* \"contracts/workshop/Vault.sol\":947:1229  function wlamanie(bytes32 podaneHaslo) public {... */\n      pop\n      jump\t// out\n        /* \"contracts/workshop/Vault.sol\":606:939  function napadNaKran(address adresKranu) public {... */\n    tag_23:\n        /* \"contracts/workshop/Vault.sol\":706:718  IKranik kran */\n      0x00\n        /* \"contracts/workshop/Vault.sol\":729:739  adresKranu */\n      dup2\n        /* \"contracts/workshop/Vault.sol\":706:740  IKranik kran = IKranik(adresKranu) */\n      swap1\n      pop\n        /* \"contracts/workshop/Vault.sol\":905:909  kran */\n      dup1\n        /* \"contracts/workshop/Vault.sol\":905:918  kran.withdraw */\n      0xffffffffffffffffffffffffffffffffffffffff\n      and\n      0x2e1a7d4d\n        /* \"contracts/workshop/Vault.sol\":919:930  0.015 ether */\n      0x354a6ba7a18000\n        /* \"contracts/workshop/Vault.sol\":905:931  kran.withdraw(0.015 ether) */\n      mload(0x40)\n      dup3\n      0xffffffff\n      and\n      0xe0\n      shl\n      dup2\n      mstore\n      0x04\n      add\n      tag_43\n      swap2\n      swap1\n      tag_44\n      jump\t// in\n    tag_43:\n      0x00\n      mload(0x40)\n      dup1\n      dup4\n      sub\n      dup2\n      0x00\n      dup8\n      dup1\n      extcodesize\n      iszero\n      dup1\n      iszero\n      tag_45\n      jumpi\n      revert(0x00, 0x00)\n    tag_45:\n      pop\n      gas\n      call\n      iszero\n      dup1\n      iszero\n      tag_47\n      jumpi\n      returndatacopy(0x00, 0x00, returndatasize)\n      revert(0x00, returndatasize)\n    tag_47:\n      pop\n      pop\n      pop\n      pop\n        /* \"contracts/workshop/Vault.sol\":654:939  {... */\n      pop\n        /* \"contracts/workshop/Vault.sol\":606:939  function napadNaKran(address adresKranu) public {... */\n      pop\n      jump\t// out\n        /* \"contracts/workshop/Vault.sol\":245:270  address public wlasciciel */\n    tag_26:\n      0x00\n      0x00\n      swap1\n      sload\n      swap1\n      0x0100\n      exp\n      swap1\n      div\n      0xffffffffffffffffffffffffffffffffffffffff\n      and\n      dup2\n      jump\t// out\n        /* \"#utility.yul\":7:84   */\n    tag_48:\n        /* \"#utility.yul\":44:51   */\n      0x00\n        /* \"#utility.yul\":73:78   */\n      dup2\n        /* \"#utility.yul\":62:78   */\n      swap1\n      pop\n        /* \"#utility.yul\":7:84   */\n      swap2\n      swap1\n      pop\n      jump\t// out\n        /* \"#utility.yul\":90:208   */\n    tag_49:\n        /* \"#utility.yul\":177:201   */\n      tag_76\n        /* \"#utility.yul\":195:200   */\n      dup2\n        /* \"#utility.yul\":177:201   */\n      tag_48\n      jump\t// in\n    tag_76:\n        /* \"#utility.yul\":172:175   */\n      dup3\n        /* \"#utility.yul\":165:202   */\n      mstore\n        /* \"#utility.yul\":90:208   */\n      pop\n      pop\n      jump\t// out\n        /* \"#utility.yul\":214:436   */\n    tag_13:\n        /* \"#utility.yul\":307:311   */\n      0x00\n        /* \"#utility.yul\":345:347   */\n      0x20\n        /* \"#utility.yul\":334:343   */\n      dup3\n        /* \"#utility.yul\":330:348   */\n      add\n        /* \"#utility.yul\":322:348   */\n      swap1\n      pop\n        /* \"#utility.yul\":358:429   */\n      tag_78\n        /* \"#utility.yul\":426:427   */\n      0x00\n        /* \"#utility.yul\":415:424   */\n      dup4\n        /* \"#utility.yul\":411:428   */\n      add\n        /* \"#utility.yul\":402:408   */\n      dup5\n        /* \"#utility.yul\":358:429   */\n      tag_49\n      jump\t// in\n    tag_78:\n        /* \"#utility.yul\":214:436   */\n      swap3\n      swap2\n      pop\n      pop\n      jump\t// out\n        /* \"#utility.yul\":523:640   */\n    tag_51:\n        /* \"#utility.yul\":632:633   */\n      0x00\n        /* \"#utility.yul\":629:630   */\n      0x00\n        /* \"#utility.yul\":622:634   */\n      revert\n        /* \"#utility.yul\":769:846   */\n    tag_53:\n        /* \"#utility.yul\":806:813   */\n      0x00\n        /* \"#utility.yul\":835:840   */\n      dup2\n        /* \"#utility.yul\":824:840   */\n      swap1\n      pop\n        /* \"#utility.yul\":769:846   */\n      swap2\n      swap1\n      pop\n      jump\t// out\n        /* \"#utility.yul\":852:974   */\n    tag_54:\n        /* \"#utility.yul\":925:949   */\n      tag_84\n        /* \"#utility.yul\":943:948   */\n      dup2\n        /* \"#utility.yul\":925:949   */\n      tag_53\n      jump\t// in\n    tag_84:\n        /* \"#utility.yul\":918:923   */\n      dup2\n        /* \"#utility.yul\":915:950   */\n      eq\n        /* \"#utility.yul\":905:968   */\n      tag_85\n      jumpi\n        /* \"#utility.yul\":964:965   */\n      0x00\n        /* \"#utility.yul\":961:962   */\n      0x00\n        /* \"#utility.yul\":954:966   */\n      revert\n        /* \"#utility.yul\":905:968   */\n    tag_85:\n        /* \"#utility.yul\":852:974   */\n      pop\n      jump\t// out\n        /* \"#utility.yul\":980:1119   */\n    tag_55:\n        /* \"#utility.yul\":1026:1031   */\n      0x00\n        /* \"#utility.yul\":1064:1070   */\n      dup2\n        /* \"#utility.yul\":1051:1071   */\n      calldataload\n        /* \"#utility.yul\":1042:1071   */\n      swap1\n      pop\n        /* \"#utility.yul\":1080:1113   */\n      tag_87\n        /* \"#utility.yul\":1107:1112   */\n      dup2\n        /* \"#utility.yul\":1080:1113   */\n      tag_54\n      jump\t// in\n    tag_87:\n        /* \"#utility.yul\":980:1119   */\n      swap3\n      swap2\n      pop\n      pop\n      jump\t// out\n        /* \"#utility.yul\":1125:1454   */\n    tag_17:\n        /* \"#utility.yul\":1184:1190   */\n      0x00\n        /* \"#utility.yul\":1233:1235   */\n      0x20\n        /* \"#utility.yul\":1221:1230   */\n      dup3\n        /* \"#utility.yul\":1212:1219   */\n      dup5\n        /* \"#utility.yul\":1208:1231   */\n      sub\n        /* \"#utility.yul\":1204:1236   */\n      slt\n        /* \"#utility.yul\":1201:1320   */\n      iszero\n      tag_89\n      jumpi\n        /* \"#utility.yul\":1239:1318   */\n      tag_90\n      tag_51\n      jump\t// in\n    tag_90:\n        /* \"#utility.yul\":1201:1320   */\n    tag_89:\n        /* \"#utility.yul\":1359:1360   */\n      0x00\n        /* \"#utility.yul\":1384:1437   */\n      tag_91\n        /* \"#utility.yul\":1429:1436   */\n      dup5\n        /* \"#utility.yul\":1420:1426   */\n      dup3\n        /* \"#utility.yul\":1409:1418   */\n      dup6\n        /* \"#utility.yul\":1405:1427   */\n      add\n        /* \"#utility.yul\":1384:1437   */\n      tag_55\n      jump\t// in\n    tag_91:\n        /* \"#utility.yul\":1374:1437   */\n      swap2\n      pop\n        /* \"#utility.yul\":1330:1447   */\n      pop\n        /* \"#utility.yul\":1125:1454   */\n      swap3\n      swap2\n      pop\n      pop\n      jump\t// out\n        /* \"#utility.yul\":1460:1586   */\n    tag_56:\n        /* \"#utility.yul\":1497:1504   */\n      0x00\n        /* \"#utility.yul\":1537:1579   */\n      0xffffffffffffffffffffffffffffffffffffffff\n        /* \"#utility.yul\":1530:1535   */\n      dup3\n        /* \"#utility.yul\":1526:1580   */\n      and\n        /* \"#utility.yul\":1515:1580   */\n      swap1\n      pop\n        /* \"#utility.yul\":1460:1586   */\n      swap2\n      swap1\n      pop\n      jump\t// out\n        /* \"#utility.yul\":1592:1688   */\n    tag_57:\n        /* \"#utility.yul\":1629:1636   */\n      0x00\n        /* \"#utility.yul\":1658:1682   */\n      tag_94\n        /* \"#utility.yul\":1676:1681   */\n      dup3\n        /* \"#utility.yul\":1658:1682   */\n      tag_56\n      jump\t// in\n    tag_94:\n        /* \"#utility.yul\":1647:1682   */\n      swap1\n      pop\n        /* \"#utility.yul\":1592:1688   */\n      swap2\n      swap1\n      pop\n      jump\t// out\n        /* \"#utility.yul\":1694:1816   */\n    tag_58:\n        /* \"#utility.yul\":1767:1791   */\n      tag_96\n        /* \"#utility.yul\":1785:1790   */\n      dup2\n        /* \"#utility.yul\":1767:1791   */\n      tag_57\n      jump\t// in\n    tag_96:\n        /* \"#utility.yul\":1760:1765   */\n      dup2\n        /* \"#utility.yul\":1757:1792   */\n      eq\n        /* \"#utility.yul\":1747:1810   */\n      tag_97\n      jumpi\n        /* \"#utility.yul\":1806:1807   */\n      0x00\n        /* \"#utility.yul\":1803:1804   */\n      0x00\n        /* \"#utility.yul\":1796:1808   */\n      revert\n        /* \"#utility.yul\":1747:1810   */\n    tag_97:\n        /* \"#utility.yul\":1694:1816   */\n      pop\n      jump\t// out\n        /* \"#utility.yul\":1822:1961   */\n    tag_59:\n        /* \"#utility.yul\":1868:1873   */\n      0x00\n        /* \"#utility.yul\":1906:1912   */\n      dup2\n        /* \"#utility.yul\":1893:1913   */\n      calldataload\n        /* \"#utility.yul\":1884:1913   */\n      swap1\n      pop\n        /* \"#utility.yul\":1922:1955   */\n      tag_99\n        /* \"#utility.yul\":1949:1954   */\n      dup2\n        /* \"#utility.yul\":1922:1955   */\n      tag_58\n      jump\t// in\n    tag_99:\n        /* \"#utility.yul\":1822:1961   */\n      swap3\n      swap2\n      pop\n      pop\n      jump\t// out\n        /* \"#utility.yul\":1967:2296   */\n    tag_22:\n        /* \"#utility.yul\":2026:2032   */\n      0x00\n        /* \"#utility.yul\":2075:2077   */\n      0x20\n        /* \"#utility.yul\":2063:2072   */\n      dup3\n        /* \"#utility.yul\":2054:2061   */\n      dup5\n        /* \"#utility.yul\":2050:2073   */\n      sub\n        /* \"#utility.yul\":2046:2078   */\n      slt\n        /* \"#utility.yul\":2043:2162   */\n      iszero\n      tag_101\n      jumpi\n        /* \"#utility.yul\":2081:2160   */\n      tag_102\n      tag_51\n      jump\t// in\n    tag_102:\n        /* \"#utility.yul\":2043:2162   */\n    tag_101:\n        /* \"#utility.yul\":2201:2202   */\n      0x00\n        /* \"#utility.yul\":2226:2279   */\n      tag_103\n        /* \"#utility.yul\":2271:2278   */\n      dup5\n        /* \"#utility.yul\":2262:2268   */\n      dup3\n        /* \"#utility.yul\":2251:2260   */\n      dup6\n        /* \"#utility.yul\":2247:2269   */\n      add\n        /* \"#utility.yul\":2226:2279   */\n      tag_59\n      jump\t// in\n    tag_103:\n        /* \"#utility.yul\":2216:2279   */\n      swap2\n      pop\n        /* \"#utility.yul\":2172:2289   */\n      pop\n        /* \"#utility.yul\":1967:2296   */\n      swap3\n      swap2\n      pop\n      pop\n      jump\t// out\n        /* \"#utility.yul\":2302:2420   */\n    tag_60:\n        /* \"#utility.yul\":2389:2413   */\n      tag_105\n        /* \"#utility.yul\":2407:2412   */\n      dup2\n        /* \"#utility.yul\":2389:2413   */\n      tag_57\n      jump\t// in\n    tag_105:\n        /* \"#utility.yul\":2384:2387   */\n      dup3\n        /* \"#utility.yul\":2377:2414   */\n      mstore\n        /* \"#utility.yul\":2302:2420   */\n      pop\n      pop\n      jump\t// out\n        /* \"#utility.yul\":2426:2648   */\n    tag_28:\n        /* \"#utility.yul\":2519:2523   */\n      0x00\n        /* \"#utility.yul\":2557:2559   */\n      0x20\n        /* \"#utility.yul\":2546:2555   */\n      dup3\n        /* \"#utility.yul\":2542:2560   */\n      add\n        /* \"#utility.yul\":2534:2560   */\n      swap1\n      pop\n        /* \"#utility.yul\":2570:2641   */\n      tag_107\n        /* \"#utility.yul\":2638:2639   */\n      0x00\n        /* \"#utility.yul\":2627:2636   */\n      dup4\n        /* \"#utility.yul\":2623:2640   */\n      add\n        /* \"#utility.yul\":2614:2620   */\n      dup5\n        /* \"#utility.yul\":2570:2641   */\n      tag_60\n      jump\t// in\n    tag_107:\n        /* \"#utility.yul\":2426:2648   */\n      swap3\n      swap2\n      pop\n      pop\n      jump\t// out\n        /* \"#utility.yul\":2654:2823   */\n    tag_61:\n        /* \"#utility.yul\":2738:2749   */\n      0x00\n        /* \"#utility.yul\":2772:2778   */\n      dup3\n        /* \"#utility.yul\":2767:2770   */\n      dup3\n        /* \"#utility.yul\":2760:2779   */\n      mstore\n        /* \"#utility.yul\":2812:2816   */\n      0x20\n        /* \"#utility.yul\":2807:2810   */\n      dup3\n        /* \"#utility.yul\":2803:2817   */\n      add\n        /* \"#utility.yul\":2788:2817   */\n      swap1\n      pop\n        /* \"#utility.yul\":2654:2823   */\n      swap3\n      swap2\n      pop\n      pop\n      jump\t// out\n        /* \"#utility.yul\":2829:2989   */\n    tag_62:\n        /* \"#utility.yul\":2969:2981   */\n      0x5a6c65206861736c6f2100000000000000000000000000000000000000000000\n        /* \"#utility.yul\":2965:2966   */\n      0x00\n        /* \"#utility.yul\":2957:2963   */\n      dup3\n        /* \"#utility.yul\":2953:2967   */\n      add\n        /* \"#utility.yul\":2946:2982   */\n      mstore\n        /* \"#utility.yul\":2829:2989   */\n      pop\n      jump\t// out\n        /* \"#utility.yul\":2995:3361   */\n    tag_63:\n        /* \"#utility.yul\":3137:3140   */\n      0x00\n        /* \"#utility.yul\":3158:3225   */\n      tag_111\n        /* \"#utility.yul\":3222:3224   */\n      0x0a\n        /* \"#utility.yul\":3217:3220   */\n      dup4\n        /* \"#utility.yul\":3158:3225   */\n      tag_61\n      jump\t// in\n    tag_111:\n        /* \"#utility.yul\":3151:3225   */\n      swap2\n      pop\n        /* \"#utility.yul\":3234:3327   */\n      tag_112\n        /* \"#utility.yul\":3323:3326   */\n      dup3\n        /* \"#utility.yul\":3234:3327   */\n      tag_62\n      jump\t// in\n    tag_112:\n        /* \"#utility.yul\":3352:3354   */\n      0x20\n        /* \"#utility.yul\":3347:3350   */\n      dup3\n        /* \"#utility.yul\":3343:3355   */\n      add\n        /* \"#utility.yul\":3336:3355   */\n      swap1\n      pop\n        /* \"#utility.yul\":2995:3361   */\n      swap2\n      swap1\n      pop\n      jump\t// out\n        /* \"#utility.yul\":3367:3786   */\n    tag_33:\n        /* \"#utility.yul\":3533:3537   */\n      0x00\n        /* \"#utility.yul\":3571:3573   */\n      0x20\n        /* \"#utility.yul\":3560:3569   */\n      dup3\n        /* \"#utility.yul\":3556:3574   */\n      add\n        /* \"#utility.yul\":3548:3574   */\n      swap1\n      pop\n        /* \"#utility.yul\":3620:3629   */\n      dup2\n        /* \"#utility.yul\":3614:3618   */\n      dup2\n        /* \"#utility.yul\":3610:3630   */\n      sub\n        /* \"#utility.yul\":3606:3607   */\n      0x00\n        /* \"#utility.yul\":3595:3604   */\n      dup4\n        /* \"#utility.yul\":3591:3608   */\n      add\n        /* \"#utility.yul\":3584:3631   */\n      mstore\n        /* \"#utility.yul\":3648:3779   */\n      tag_114\n        /* \"#utility.yul\":3774:3778   */\n      dup2\n        /* \"#utility.yul\":3648:3779   */\n      tag_63\n      jump\t// in\n    tag_114:\n        /* \"#utility.yul\":3640:3779   */\n      swap1\n      pop\n        /* \"#utility.yul\":3367:3786   */\n      swap2\n      swap1\n      pop\n      jump\t// out\n        /* \"#utility.yul\":3792:3939   */\n    tag_64:\n        /* \"#utility.yul\":3893:3904   */\n      0x00\n        /* \"#utility.yul\":3930:3933   */\n      dup2\n        /* \"#utility.yul\":3915:3933   */\n      swap1\n      pop\n        /* \"#utility.yul\":3792:3939   */\n      swap3\n      swap2\n      pop\n      pop\n      jump\t// out\n        /* \"#utility.yul\":3945:4059   */\n    tag_65:\n      pop\n      jump\t// out\n        /* \"#utility.yul\":4065:4463   */\n    tag_66:\n        /* \"#utility.yul\":4224:4227   */\n      0x00\n        /* \"#utility.yul\":4245:4328   */\n      tag_118\n        /* \"#utility.yul\":4326:4327   */\n      0x00\n        /* \"#utility.yul\":4321:4324   */\n      dup4\n        /* \"#utility.yul\":4245:4328   */\n      tag_64\n      jump\t// in\n    tag_118:\n        /* \"#utility.yul\":4238:4328   */\n      swap2\n      pop\n        /* \"#utility.yul\":4337:4430   */\n      tag_119\n        /* \"#utility.yul\":4426:4429   */\n      dup3\n        /* \"#utility.yul\":4337:4430   */\n      tag_65\n      jump\t// in\n    tag_119:\n        /* \"#utility.yul\":4455:4456   */\n      0x00\n        /* \"#utility.yul\":4450:4453   */\n      dup3\n        /* \"#utility.yul\":4446:4457   */\n      add\n        /* \"#utility.yul\":4439:4457   */\n      swap1\n      pop\n        /* \"#utility.yul\":4065:4463   */\n      swap2\n      swap1\n      pop\n      jump\t// out\n        /* \"#utility.yul\":4469:4848   */\n    tag_35:\n        /* \"#utility.yul\":4653:4656   */\n      0x00\n        /* \"#utility.yul\":4675:4822   */\n      tag_121\n        /* \"#utility.yul\":4818:4821   */\n      dup3\n        /* \"#utility.yul\":4675:4822   */\n      tag_66\n      jump\t// in\n    tag_121:\n        /* \"#utility.yul\":4668:4822   */\n      swap2\n      pop\n        /* \"#utility.yul\":4839:4842   */\n      dup2\n        /* \"#utility.yul\":4832:4842   */\n      swap1\n      pop\n        /* \"#utility.yul\":4469:4848   */\n      swap2\n      swap1\n      pop\n      jump\t// out\n        /* \"#utility.yul\":4854:5021   */\n    tag_67:\n        /* \"#utility.yul\":4994:5013   */\n      0x50727a656c6577206e6965207564616e79000000000000000000000000000000\n        /* \"#utility.yul\":4990:4991   */\n      0x00\n        /* \"#utility.yul\":4982:4988   */\n      dup3\n        /* \"#utility.yul\":4978:4992   */\n      add\n        /* \"#utility.yul\":4971:5014   */\n      mstore\n        /* \"#utility.yul\":4854:5021   */\n      pop\n      jump\t// out\n        /* \"#utility.yul\":5027:5393   */\n    tag_68:\n        /* \"#utility.yul\":5169:5172   */\n      0x00\n        /* \"#utility.yul\":5190:5257   */\n      tag_124\n        /* \"#utility.yul\":5254:5256   */\n      0x11\n        /* \"#utility.yul\":5249:5252   */\n      dup4\n        /* \"#utility.yul\":5190:5257   */\n      tag_61\n      jump\t// in\n    tag_124:\n        /* \"#utility.yul\":5183:5257   */\n      swap2\n      pop\n        /* \"#utility.yul\":5266:5359   */\n      tag_125\n        /* \"#utility.yul\":5355:5358   */\n      dup3\n        /* \"#utility.yul\":5266:5359   */\n      tag_67\n      jump\t// in\n    tag_125:\n        /* \"#utility.yul\":5384:5386   */\n      0x20\n        /* \"#utility.yul\":5379:5382   */\n      dup3\n        /* \"#utility.yul\":5375:5387   */\n      add\n        /* \"#utility.yul\":5368:5387   */\n      swap1\n      pop\n        /* \"#utility.yul\":5027:5393   */\n      swap2\n      swap1\n      pop\n      jump\t// out\n        /* \"#utility.yul\":5399:5818   */\n    tag_41:\n        /* \"#utility.yul\":5565:5569   */\n      0x00\n        /* \"#utility.yul\":5603:5605   */\n      0x20\n        /* \"#utility.yul\":5592:5601   */\n      dup3\n        /* \"#utility.yul\":5588:5606   */\n      add\n        /* \"#utility.yul\":5580:5606   */\n      swap1\n      pop\n        /* \"#utility.yul\":5652:5661   */\n      dup2\n        /* \"#utility.yul\":5646:5650   */\n      dup2\n        /* \"#utility.yul\":5642:5662   */\n      sub\n        /* \"#utility.yul\":5638:5639   */\n      0x00\n        /* \"#utility.yul\":5627:5636   */\n      dup4\n        /* \"#utility.yul\":5623:5640   */\n      add\n        /* \"#utility.yul\":5616:5663   */\n      mstore\n        /* \"#utility.yul\":5680:5811   */\n      tag_127\n        /* \"#utility.yul\":5806:5810   */\n      dup2\n        /* \"#utility.yul\":5680:5811   */\n      tag_68\n      jump\t// in\n    tag_127:\n        /* \"#utility.yul\":5672:5811   */\n      swap1\n      pop\n        /* \"#utility.yul\":5399:5818   */\n      swap2\n      swap1\n      pop\n      jump\t// out\n        /* \"#utility.yul\":5824:5925   */\n    tag_69:\n        /* \"#utility.yul\":5885:5892   */\n      0x00\n        /* \"#utility.yul\":5914:5919   */\n      dup2\n        /* \"#utility.yul\":5903:5919   */\n      swap1\n      pop\n        /* \"#utility.yul\":5824:5925   */\n      swap2\n      swap1\n      pop\n      jump\t// out\n        /* \"#utility.yul\":5931:5991   */\n    tag_70:\n        /* \"#utility.yul\":5959:5962   */\n      0x00\n        /* \"#utility.yul\":5980:5985   */\n      dup2\n        /* \"#utility.yul\":5973:5985   */\n      swap1\n      pop\n        /* \"#utility.yul\":5931:5991   */\n      swap2\n      swap1\n      pop\n      jump\t// out\n        /* \"#utility.yul\":5997:6187   */\n    tag_71:\n        /* \"#utility.yul\":6071:6080   */\n      0x00\n        /* \"#utility.yul\":6104:6181   */\n      tag_131\n        /* \"#utility.yul\":6122:6180   */\n      tag_132\n        /* \"#utility.yul\":6131:6179   */\n      tag_133\n        /* \"#utility.yul\":6173:6178   */\n      dup5\n        /* \"#utility.yul\":6131:6179   */\n      tag_69\n      jump\t// in\n    tag_133:\n        /* \"#utility.yul\":6122:6180   */\n      tag_70\n      jump\t// in\n    tag_132:\n        /* \"#utility.yul\":6104:6181   */\n      tag_48\n      jump\t// in\n    tag_131:\n        /* \"#utility.yul\":6091:6181   */\n      swap1\n      pop\n        /* \"#utility.yul\":5997:6187   */\n      swap2\n      swap1\n      pop\n      jump\t// out\n        /* \"#utility.yul\":6193:6372   */\n    tag_72:\n        /* \"#utility.yul\":6304:6365   */\n      tag_135\n        /* \"#utility.yul\":6359:6364   */\n      dup2\n        /* \"#utility.yul\":6304:6365   */\n      tag_71\n      jump\t// in\n    tag_135:\n        /* \"#utility.yul\":6299:6302   */\n      dup3\n        /* \"#utility.yul\":6292:6366   */\n      mstore\n        /* \"#utility.yul\":6193:6372   */\n      pop\n      pop\n      jump\t// out\n        /* \"#utility.yul\":6378:6648   */\n    tag_44:\n        /* \"#utility.yul\":6495:6499   */\n      0x00\n        /* \"#utility.yul\":6533:6535   */\n      0x20\n        /* \"#utility.yul\":6522:6531   */\n      dup3\n        /* \"#utility.yul\":6518:6536   */\n      add\n        /* \"#utility.yul\":6510:6536   */\n      swap1\n      pop\n        /* \"#utility.yul\":6546:6641   */\n      tag_137\n        /* \"#utility.yul\":6638:6639   */\n      0x00\n        /* \"#utility.yul\":6627:6636   */\n      dup4\n        /* \"#utility.yul\":6623:6640   */\n      add\n        /* \"#utility.yul\":6614:6620   */\n      dup5\n        /* \"#utility.yul\":6546:6641   */\n      tag_72\n      jump\t// in\n    tag_137:\n        /* \"#utility.yul\":6378:6648   */\n      swap3\n      swap2\n      pop\n      pop\n      jump\t// out\n\n    auxdata: 0xa26469706673582212206260be27b7ecd99793b7a4530156cb27f8d83f9ced7866e9550bcda795e2c9b764736f6c63430008220033\n}\n",
				"bytecode": {
					"linkReferences": {},
					"object": "608060405260405161064b38038061064b83398181016040528101906023919060a0565b335f5f6101000a81548173ffffffffffffffffffffffffffffffffffffffff021916908373ffffffffffffffffffffffffffffffffffffffff160217905550806001819055505060c6565b5f5ffd5b5f819050919050565b6082816072565b8114608b575f5ffd5b50565b5f81519050609a81607b565b92915050565b5f6020828403121560b25760b1606e565b5b5f60bd84828501608e565b91505092915050565b610578806100d35f395ff3fe608060405260043610610042575f3560e01c80634abbd7a41461004d5780638e14031114610077578063d410896f1461009f578063ffc51b69146100c757610049565b3661004957005b5f5ffd5b348015610058575f5ffd5b506100616100f1565b60405161006e919061029e565b60405180910390f35b348015610082575f5ffd5b5061009d600480360381019061009891906102ee565b6100f8565b005b3480156100aa575f5ffd5b506100c560048036038101906100c09190610373565b6101ed565b005b3480156100d2575f5ffd5b506100db610262565b6040516100e891906103ad565b60405180910390f35b5f47905090565b600154811461013c576040517f08c379a000000000000000000000000000000000000000000000000000000000815260040161013390610420565b60405180910390fd5b5f4790505f3373ffffffffffffffffffffffffffffffffffffffff16826040516101659061046b565b5f6040518083038185875af1925050503d805f811461019f576040519150601f19603f3d011682016040523d82523d5f602084013e6101a4565b606091505b50509050806101e8576040517f08c379a00000000000000000000000000000000000000000000000000000000081526004016101df906104c9565b60405180910390fd5b505050565b5f8190508073ffffffffffffffffffffffffffffffffffffffff16632e1a7d4d66354a6ba7a180006040518263ffffffff1660e01b81526004016102319190610529565b5f604051808303815f87803b158015610248575f5ffd5b505af115801561025a573d5f5f3e3d5ffd5b505050505050565b5f5f9054906101000a900473ffffffffffffffffffffffffffffffffffffffff1681565b5f819050919050565b61029881610286565b82525050565b5f6020820190506102b15f83018461028f565b92915050565b5f5ffd5b5f819050919050565b6102cd816102bb565b81146102d7575f5ffd5b50565b5f813590506102e8816102c4565b92915050565b5f60208284031215610303576103026102b7565b5b5f610310848285016102da565b91505092915050565b5f73ffffffffffffffffffffffffffffffffffffffff82169050919050565b5f61034282610319565b9050919050565b61035281610338565b811461035c575f5ffd5b50565b5f8135905061036d81610349565b92915050565b5f60208284031215610388576103876102b7565b5b5f6103958482850161035f565b91505092915050565b6103a781610338565b82525050565b5f6020820190506103c05f83018461039e565b92915050565b5f82825260208201905092915050565b7f5a6c65206861736c6f21000000000000000000000000000000000000000000005f82015250565b5f61040a600a836103c6565b9150610415826103d6565b602082019050919050565b5f6020820190508181035f830152610437816103fe565b9050919050565b5f81905092915050565b50565b5f6104565f8361043e565b915061046182610448565b5f82019050919050565b5f6104758261044b565b9150819050919050565b7f50727a656c6577206e6965207564616e790000000000000000000000000000005f82015250565b5f6104b36011836103c6565b91506104be8261047f565b602082019050919050565b5f6020820190508181035f8301526104e0816104a7565b9050919050565b5f819050919050565b5f819050919050565b5f61051361050e610509846104e7565b6104f0565b610286565b9050919050565b610523816104f9565b82525050565b5f60208201905061053c5f83018461051a565b9291505056fea26469706673582212206260be27b7ecd99793b7a4530156cb27f8d83f9ced7866e9550bcda795e2c9b764736f6c63430008220033",
					"opcodes": "PUSH1 0x80 PUSH1 0x40 MSTORE PUSH1 0x40 MLOAD PUSH2 0x64B CODESIZE SUB DUP1 PUSH2 0x64B DUP4 CODECOPY DUP2 DUP2 ADD PUSH1 0x40 MSTORE DUP2 ADD SWAP1 PUSH1 0x23 SWAP2 SWAP1 PUSH1 0xA0 JUMP JUMPDEST CALLER PUSH0 PUSH0 PUSH2 0x100 EXP DUP2 SLOAD DUP2 PUSH20 0xFFFFFFFFFFFFFFFFFFFFFFFFFFFFFFFFFFFFFFFF MUL NOT AND SWAP1 DUP4 PUSH20 0xFFFFFFFFFFFFFFFFFFFFFFFFFFFFFFFFFFFFFFFF AND MUL OR SWAP1 SSTORE POP DUP1 PUSH1 0x1 DUP2 SWAP1 SSTORE POP POP PUSH1 0xC6 JUMP JUMPDEST PUSH0 PUSH0 REVERT JUMPDEST PUSH0 DUP2 SWAP1 POP SWAP2 SWAP1 POP JUMP JUMPDEST PUSH1 0x82 DUP2 PUSH1 0x72 JUMP JUMPDEST DUP2 EQ PUSH1 0x8B JUMPI PUSH0 PUSH0 REVERT JUMPDEST POP JUMP JUMPDEST PUSH0 DUP2 MLOAD SWAP1 POP PUSH1 0x9A DUP2 PUSH1 0x7B JUMP JUMPDEST SWAP3 SWAP2 POP POP JUMP JUMPDEST PUSH0 PUSH1 0x20 DUP3 DUP5 SUB SLT ISZERO PUSH1 0xB2 JUMPI PUSH1 0xB1 PUSH1 0x6E JUMP JUMPDEST JUMPDEST PUSH0 PUSH1 0xBD DUP5 DUP3 DUP6 ADD PUSH1 0x8E JUMP JUMPDEST SWAP2 POP POP SWAP3 SWAP2 POP POP JUMP JUMPDEST PUSH2 0x578 DUP1 PUSH2 0xD3 PUSH0 CODECOPY PUSH0 RETURN INVALID PUSH1 0x80 PUSH1 0x40 MSTORE PUSH1 0x4 CALLDATASIZE LT PUSH2 0x42 JUMPI PUSH0 CALLDATALOAD PUSH1 0xE0 SHR DUP1 PUSH4 0x4ABBD7A4 EQ PUSH2 0x4D JUMPI DUP1 PUSH4 0x8E140311 EQ PUSH2 0x77 JUMPI DUP1 PUSH4 0xD410896F EQ PUSH2 0x9F JUMPI DUP1 PUSH4 0xFFC51B69 EQ PUSH2 0xC7 JUMPI PUSH2 0x49 JUMP JUMPDEST CALLDATASIZE PUSH2 0x49 JUMPI STOP JUMPDEST PUSH0 PUSH0 REVERT JUMPDEST CALLVALUE DUP1 ISZERO PUSH2 0x58 JUMPI PUSH0 PUSH0 REVERT JUMPDEST POP PUSH2 0x61 PUSH2 0xF1 JUMP JUMPDEST PUSH1 0x40 MLOAD PUSH2 0x6E SWAP2 SWAP1 PUSH2 0x29E JUMP JUMPDEST PUSH1 0x40 MLOAD DUP1 SWAP2 SUB SWAP1 RETURN JUMPDEST CALLVALUE DUP1 ISZERO PUSH2 0x82 JUMPI PUSH0 PUSH0 REVERT JUMPDEST POP PUSH2 0x9D PUSH1 0x4 DUP1 CALLDATASIZE SUB DUP2 ADD SWAP1 PUSH2 0x98 SWAP2 SWAP1 PUSH2 0x2EE JUMP JUMPDEST PUSH2 0xF8 JUMP JUMPDEST STOP JUMPDEST CALLVALUE DUP1 ISZERO PUSH2 0xAA JUMPI PUSH0 PUSH0 REVERT JUMPDEST POP PUSH2 0xC5 PUSH1 0x4 DUP1 CALLDATASIZE SUB DUP2 ADD SWAP1 PUSH2 0xC0 SWAP2 SWAP1 PUSH2 0x373 JUMP JUMPDEST PUSH2 0x1ED JUMP JUMPDEST STOP JUMPDEST CALLVALUE DUP1 ISZERO PUSH2 0xD2 JUMPI PUSH0 PUSH0 REVERT JUMPDEST POP PUSH2 0xDB PUSH2 0x262 JUMP JUMPDEST PUSH1 0x40 MLOAD PUSH2 0xE8 SWAP2 SWAP1 PUSH2 0x3AD JUMP JUMPDEST PUSH1 0x40 MLOAD DUP1 SWAP2 SUB SWAP1 RETURN JUMPDEST PUSH0 SELFBALANCE SWAP1 POP SWAP1 JUMP JUMPDEST PUSH1 0x1 SLOAD DUP2 EQ PUSH2 0x13C JUMPI PUSH1 0x40 MLOAD PUSH32 0x8C379A000000000000000000000000000000000000000000000000000000000 DUP2 MSTORE PUSH1 0x4 ADD PUSH2 0x133 SWAP1 PUSH2 0x420 JUMP JUMPDEST PUSH1 0x40 MLOAD DUP1 SWAP2 SUB SWAP1 REVERT JUMPDEST PUSH0 SELFBALANCE SWAP1 POP PUSH0 CALLER PUSH20 0xFFFFFFFFFFFFFFFFFFFFFFFFFFFFFFFFFFFFFFFF AND DUP3 PUSH1 0x40 MLOAD PUSH2 0x165 SWAP1 PUSH2 0x46B JUMP JUMPDEST PUSH0 PUSH1 0x40 MLOAD DUP1 DUP4 SUB DUP2 DUP6 DUP8 GAS CALL SWAP3 POP POP POP RETURNDATASIZE DUP1 PUSH0 DUP2 EQ PUSH2 0x19F JUMPI PUSH1 0x40 MLOAD SWAP2 POP PUSH1 0x1F NOT PUSH1 0x3F RETURNDATASIZE ADD AND DUP3 ADD PUSH1 0x40 MSTORE RETURNDATASIZE DUP3 MSTORE RETURNDATASIZE PUSH0 PUSH1 0x20 DUP5 ADD RETURNDATACOPY PUSH2 0x1A4 JUMP JUMPDEST PUSH1 0x60 SWAP2 POP JUMPDEST POP POP SWAP1 POP DUP1 PUSH2 0x1E8 JUMPI PUSH1 0x40 MLOAD PUSH32 0x8C379A000000000000000000000000000000000000000000000000000000000 DUP2 MSTORE PUSH1 0x4 ADD PUSH2 0x1DF SWAP1 PUSH2 0x4C9 JUMP JUMPDEST PUSH1 0x40 MLOAD DUP1 SWAP2 SUB SWAP1 REVERT JUMPDEST POP POP POP JUMP JUMPDEST PUSH0 DUP2 SWAP1 POP DUP1 PUSH20 0xFFFFFFFFFFFFFFFFFFFFFFFFFFFFFFFFFFFFFFFF AND PUSH4 0x2E1A7D4D PUSH7 0x354A6BA7A18000 PUSH1 0x40 MLOAD DUP3 PUSH4 0xFFFFFFFF AND PUSH1 0xE0 SHL DUP2 MSTORE PUSH1 0x4 ADD PUSH2 0x231 SWAP2 SWAP1 PUSH2 0x529 JUMP JUMPDEST PUSH0 PUSH1 0x40 MLOAD DUP1 DUP4 SUB DUP2 PUSH0 DUP8 DUP1 EXTCODESIZE ISZERO DUP1 ISZERO PUSH2 0x248 JUMPI PUSH0 PUSH0 REVERT JUMPDEST POP GAS CALL ISZERO DUP1 ISZERO PUSH2 0x25A JUMPI RETURNDATASIZE PUSH0 PUSH0 RETURNDATACOPY RETURNDATASIZE PUSH0 REVERT JUMPDEST POP POP POP POP POP POP JUMP JUMPDEST PUSH0 PUSH0 SWAP1 SLOAD SWAP1 PUSH2 0x100 EXP SWAP1 DIV PUSH20 0xFFFFFFFFFFFFFFFFFFFFFFFFFFFFFFFFFFFFFFFF AND DUP2 JUMP JUMPDEST PUSH0 DUP2 SWAP1 POP SWAP2 SWAP1 POP JUMP JUMPDEST PUSH2 0x298 DUP2 PUSH2 0x286 JUMP JUMPDEST DUP3 MSTORE POP POP JUMP JUMPDEST PUSH0 PUSH1 0x20 DUP3 ADD SWAP1 POP PUSH2 0x2B1 PUSH0 DUP4 ADD DUP5 PUSH2 0x28F JUMP JUMPDEST SWAP3 SWAP2 POP POP JUMP JUMPDEST PUSH0 PUSH0 REVERT JUMPDEST PUSH0 DUP2 SWAP1 POP SWAP2 SWAP1 POP JUMP JUMPDEST PUSH2 0x2CD DUP2 PUSH2 0x2BB JUMP JUMPDEST DUP2 EQ PUSH2 0x2D7 JUMPI PUSH0 PUSH0 REVERT JUMPDEST POP JUMP JUMPDEST PUSH0 DUP2 CALLDATALOAD SWAP1 POP PUSH2 0x2E8 DUP2 PUSH2 0x2C4 JUMP JUMPDEST SWAP3 SWAP2 POP POP JUMP JUMPDEST PUSH0 PUSH1 0x20 DUP3 DUP5 SUB SLT ISZERO PUSH2 0x303 JUMPI PUSH2 0x302 PUSH2 0x2B7 JUMP JUMPDEST JUMPDEST PUSH0 PUSH2 0x310 DUP5 DUP3 DUP6 ADD PUSH2 0x2DA JUMP JUMPDEST SWAP2 POP POP SWAP3 SWAP2 POP POP JUMP JUMPDEST PUSH0 PUSH20 0xFFFFFFFFFFFFFFFFFFFFFFFFFFFFFFFFFFFFFFFF DUP3 AND SWAP1 POP SWAP2 SWAP1 POP JUMP JUMPDEST PUSH0 PUSH2 0x342 DUP3 PUSH2 0x319 JUMP JUMPDEST SWAP1 POP SWAP2 SWAP1 POP JUMP JUMPDEST PUSH2 0x352 DUP2 PUSH2 0x338 JUMP JUMPDEST DUP2 EQ PUSH2 0x35C JUMPI PUSH0 PUSH0 REVERT JUMPDEST POP JUMP JUMPDEST PUSH0 DUP2 CALLDATALOAD SWAP1 POP PUSH2 0x36D DUP2 PUSH2 0x349 JUMP JUMPDEST SWAP3 SWAP2 POP POP JUMP JUMPDEST PUSH0 PUSH1 0x20 DUP3 DUP5 SUB SLT ISZERO PUSH2 0x388 JUMPI PUSH2 0x387 PUSH2 0x2B7 JUMP JUMPDEST JUMPDEST PUSH0 PUSH2 0x395 DUP5 DUP3 DUP6 ADD PUSH2 0x35F JUMP JUMPDEST SWAP2 POP POP SWAP3 SWAP2 POP POP JUMP JUMPDEST PUSH2 0x3A7 DUP2 PUSH2 0x338 JUMP JUMPDEST DUP3 MSTORE POP POP JUMP JUMPDEST PUSH0 PUSH1 0x20 DUP3 ADD SWAP1 POP PUSH2 0x3C0 PUSH0 DUP4 ADD DUP5 PUSH2 0x39E JUMP JUMPDEST SWAP3 SWAP2 POP POP JUMP JUMPDEST PUSH0 DUP3 DUP3 MSTORE PUSH1 0x20 DUP3 ADD SWAP1 POP SWAP3 SWAP2 POP POP JUMP JUMPDEST PUSH32 0x5A6C65206861736C6F2100000000000000000000000000000000000000000000 PUSH0 DUP3 ADD MSTORE POP JUMP JUMPDEST PUSH0 PUSH2 0x40A PUSH1 0xA DUP4 PUSH2 0x3C6 JUMP JUMPDEST SWAP2 POP PUSH2 0x415 DUP3 PUSH2 0x3D6 JUMP JUMPDEST PUSH1 0x20 DUP3 ADD SWAP1 POP SWAP2 SWAP1 POP JUMP JUMPDEST PUSH0 PUSH1 0x20 DUP3 ADD SWAP1 POP DUP2 DUP2 SUB PUSH0 DUP4 ADD MSTORE PUSH2 0x437 DUP2 PUSH2 0x3FE JUMP JUMPDEST SWAP1 POP SWAP2 SWAP1 POP JUMP JUMPDEST PUSH0 DUP2 SWAP1 POP SWAP3 SWAP2 POP POP JUMP JUMPDEST POP JUMP JUMPDEST PUSH0 PUSH2 0x456 PUSH0 DUP4 PUSH2 0x43E JUMP JUMPDEST SWAP2 POP PUSH2 0x461 DUP3 PUSH2 0x448 JUMP JUMPDEST PUSH0 DUP3 ADD SWAP1 POP SWAP2 SWAP1 POP JUMP JUMPDEST PUSH0 PUSH2 0x475 DUP3 PUSH2 0x44B JUMP JUMPDEST SWAP2 POP DUP2 SWAP1 POP SWAP2 SWAP1 POP JUMP JUMPDEST PUSH32 0x50727A656C6577206E6965207564616E79000000000000000000000000000000 PUSH0 DUP3 ADD MSTORE POP JUMP JUMPDEST PUSH0 PUSH2 0x4B3 PUSH1 0x11 DUP4 PUSH2 0x3C6 JUMP JUMPDEST SWAP2 POP PUSH2 0x4BE DUP3 PUSH2 0x47F JUMP JUMPDEST PUSH1 0x20 DUP3 ADD SWAP1 POP SWAP2 SWAP1 POP JUMP JUMPDEST PUSH0 PUSH1 0x20 DUP3 ADD SWAP1 POP DUP2 DUP2 SUB PUSH0 DUP4 ADD MSTORE PUSH2 0x4E0 DUP2 PUSH2 0x4A7 JUMP JUMPDEST SWAP1 POP SWAP2 SWAP1 POP JUMP JUMPDEST PUSH0 DUP2 SWAP1 POP SWAP2 SWAP1 POP JUMP JUMPDEST PUSH0 DUP2 SWAP1 POP SWAP2 SWAP1 POP JUMP JUMPDEST PUSH0 PUSH2 0x513 PUSH2 0x50E PUSH2 0x509 DUP5 PUSH2 0x4E7 JUMP JUMPDEST PUSH2 0x4F0 JUMP JUMPDEST PUSH2 0x286 JUMP JUMPDEST SWAP1 POP SWAP2 SWAP1 POP JUMP JUMPDEST PUSH2 0x523 DUP2 PUSH2 0x4F9 JUMP JUMPDEST DUP3 MSTORE POP POP JUMP JUMPDEST PUSH0 PUSH1 0x20 DUP3 ADD SWAP1 POP PUSH2 0x53C PUSH0 DUP4 ADD DUP5 PUSH2 0x51A JUMP JUMPDEST SWAP3 SWAP2 POP POP JUMP INVALID LOG2 PUSH5 0x6970667358 0x22 SLT KECCAK256 PUSH3 0x60BE27 0xB7 EOFCREATE 0xD9 SWAP8 SWAP4 0xB7 LOG4 MSTORE8 ADD JUMP 0xCB 0x27 EXTCALL 0xD8 EXTCODEHASH SWAP13 0xED PUSH25 0x66E9550BCDA795E2C9B764736F6C6343000822003300000000 "
				},
				"gasEstimates": {
					"creation": {
						"codeDepositCost": "280000",
						"executionCost": "infinite",
						"totalCost": "infinite"
					},
					"external": {
						"napadNaKran(address)": "infinite",
						"sprawdzSaldo()": "312",
						"wlamanie(bytes32)": "infinite",
						"wlasciciel()": "2551"
					}
				},
				"methodIdentifiers": {
					"napadNaKran(address)": "d410896f",
					"sprawdzSaldo()": "4abbd7a4",
					"wlamanie(bytes32)": "8e140311",
					"wlasciciel()": "ffc51b69"
				}
			},
			"storageLayout": {
				"storage": [
					{
						"astId": 9,
						"contract": "contracts/workshop/Vault.sol:Sejf",
						"label": "wlasciciel",
						"offset": 0,
						"slot": "0",
						"type": "t_address"
					},
					{
						"astId": 11,
						"contract": "contracts/workshop/Vault.sol:Sejf",
						"label": "tajneHaslo",
						"offset": 0,
						"slot": "1",
						"type": "t_bytes32"
					}
				],
				"types": {
					"t_address": {
						"encoding": "inplace",
						"label": "address",
						"numberOfBytes": "20"
					},
					"t_bytes32": {
						"encoding": "inplace",
						"label": "bytes32",
						"numberOfBytes": "32"
					}
				}
			},
			"userdoc": {
				"kind": "user",
				"methods": {},
				"version": 1
			}
		}
	}
}