{
	"data": {
		"bytecode": {
			"linkReferences": {},
			"object": "6080604052348015600e575f5ffd5b5061041b8061001c5f395ff3fe608060405260043610610021575f3560e01c806383a233331461002c57610028565b3661002857005b5f5ffd5b610034610036565b005b5f3490505f811161007c576040517f08c379a0000000000000000000000000000000000000000000000000000000008152600401610073906101e2565b60405180910390fd5b5f606460788361008c9190610236565b61009691906102a4565b9050804710156100db576040517f08c379a00000000000000000000000000000000000000000000000000000000081526004016100d29061031e565b60405180910390fd5b5f3373ffffffffffffffffffffffffffffffffffffffff168260405161010090610369565b5f6040518083038185875af1925050503d805f811461013a576040519150601f19603f3d011682016040523d82523d5f602084013e61013f565b606091505b5050905080610183576040517f08c379a000000000000000000000000000000000000000000000000000000000815260040161017a906103c7565b60405180910390fd5b505050565b5f82825260208201905092915050565b7f4d757369737a2070727a65736c61632045544820646f2077796d69616e7900005f82015250565b5f6101cc601e83610188565b91506101d782610198565b602082019050919050565b5f6020820190508181035f8301526101f9816101c0565b9050919050565b5f819050919050565b7f4e487b71000000000000000000000000000000000000000000000000000000005f52601160045260245ffd5b5f61024082610200565b915061024b83610200565b925082820261025981610200565b915082820484148315176102705761026f610209565b5b5092915050565b7f4e487b71000000000000000000000000000000000000000000000000000000005f52601260045260245ffd5b5f6102ae82610200565b91506102b983610200565b9250826102c9576102c8610277565b5b828204905092915050565b7f4272616b20706c796e6e6f736369206e612044455800000000000000000000005f82015250565b5f610308601583610188565b9150610313826102d4565b602082019050919050565b5f6020820190508181035f830152610335816102fc565b9050919050565b5f81905092915050565b50565b5f6103545f8361033c565b915061035f82610346565b5f82019050919050565b5f61037382610349565b9150819050919050565b7f5472616e73666572207a79736b75206e69657564616e790000000000000000005f82015250565b5f6103b1601783610188565b91506103bc8261037d565b602082019050919050565b5f6020820190508181035f8301526103de816103a5565b905091905056fea26469706673582212201b9f464f6fd5747f08381ef5bb771438cea9dfeb3eeb2e062d94087df920b22c64736f6c63430008220033",
			"opcodes": "PUSH1 0x80 PUSH1 0x40 MSTORE CALLVALUE DUP1 ISZERO PUSH1 0xE JUMPI PUSH0 PUSH0 REVERT JUMPDEST POP PUSH2 0x41B DUP1 PUSH2 0x1C PUSH0 CODECOPY PUSH0 RETURN INVALID PUSH1 0x80 PUSH1 0x40 MSTORE PUSH1 0x4 CALLDATASIZE LT PUSH2 0x21 JUMPI PUSH0 CALLDATALOAD PUSH1 0xE0 SHR DUP1 PUSH4 0x83A23333 EQ PUSH2 0x2C JUMPI PUSH2 0x28 JUMP JUMPDEST CALLDATASIZE PUSH2 0x28 JUMPI STOP JUMPDEST PUSH0 PUSH0 REVERT JUMPDEST PUSH2 0x34 PUSH2 0x36 JUMP JUMPDEST STOP JUMPDEST PUSH0 CALLVALUE SWAP1 POP PUSH0 DUP2 GT PUSH2 0x7C JUMPI PUSH1 0x40 MLOAD PUSH32 0x8C379A000000000000000000000000000000000000000000000000000000000 DUP2 MSTORE PUSH1 0x4 ADD PUSH2 0x73 SWAP1 PUSH2 0x1E2 JUMP JUMPDEST PUSH1 0x40 MLOAD DUP1 SWAP2 SUB SWAP1 REVERT JUMPDEST PUSH0 PUSH1 0x64 PUSH1 0x78 DUP4 PUSH2 0x8C SWAP2 SWAP1 PUSH2 0x236 JUMP JUMPDEST PUSH2 0x96 SWAP2 SWAP1 PUSH2 0x2A4 JUMP JUMPDEST SWAP1 POP DUP1 SELFBALANCE LT ISZERO PUSH2 0xDB JUMPI PUSH1 0x40 MLOAD PUSH32 0x8C379A000000000000000000000000000000000000000000000000000000000 DUP2 MSTORE PUSH1 0x4 ADD PUSH2 0xD2 SWAP1 PUSH2 0x31E JUMP JUMPDEST PUSH1 0x40 MLOAD DUP1 SWAP2 SUB SWAP1 REVERT JUMPDEST PUSH0 CALLER PUSH20 0xFFFFFFFFFFFFFFFFFFFFFFFFFFFFFFFFFFFFFFFF AND DUP3 PUSH1 0x40 MLOAD PUSH2 0x100 SWAP1 PUSH2 0x369 JUMP JUMPDEST PUSH0 PUSH1 0x40 MLOAD DUP1 DUP4 SUB DUP2 DUP6 DUP8 GAS CALL SWAP3 POP POP POP RETURNDATASIZE DUP1 PUSH0 DUP2 EQ PUSH2 0x13A JUMPI PUSH1 0x40 MLOAD SWAP2 POP PUSH1 0x1F NOT PUSH1 0x3F RETURNDATASIZE ADD AND DUP3 ADD PUSH1 0x40 MSTORE RETURNDATASIZE DUP3 MSTORE RETURNDATASIZE PUSH0 PUSH1 0x20 DUP5 ADD RETURNDATACOPY PUSH2 0x13F JUMP JUMPDEST PUSH1 0x60 SWAP2 POP JUMPDEST POP POP SWAP1 POP DUP1 PUSH2 0x183 JUMPI PUSH1 0x40 MLOAD PUSH32 0x8C379A000000000000000000000000000000000000000000000000000000000 DUP2 MSTORE PUSH1 0x4 ADD PUSH2 0x17A SWAP1 PUSH2 0x3C7 JUMP JUMPDEST PUSH1 0x40 MLOAD DUP1 SWAP2 SUB SWAP1 REVERT JUMPDEST POP POP POP JUMP JUMPDEST PUSH0 DUP3 DUP3 MSTORE PUSH1 0x20 DUP3 ADD SWAP1 POP SWAP3 SWAP2 POP POP JUMP JUMPDEST PUSH32 0x4D757369737A2070727A65736C61632045544820646F2077796D69616E790000 PUSH0 DUP3 ADD MSTORE POP JUMP JUMPDEST PUSH0 PUSH2 0x1CC PUSH1 0x1E DUP4 PUSH2 0x188 JUMP JUMPDEST SWAP2 POP PUSH2 0x1D7 DUP3 PUSH2 0x198 JUMP JUMPDEST PUSH1 0x20 DUP3 ADD SWAP1 POP SWAP2 SWAP1 POP JUMP JUMPDEST PUSH0 PUSH1 0x20 DUP3 ADD SWAP1 POP DUP2 DUP2 SUB PUSH0 DUP4 ADD MSTORE PUSH2 0x1F9 DUP2 PUSH2 0x1C0 JUMP JUMPDEST SWAP1 POP SWAP2 SWAP1 POP JUMP JUMPDEST PUSH0 DUP2 SWAP1 POP SWAP2 SWAP1 POP JUMP JUMPDEST PUSH32 0x4E487B7100000000000000000000000000000000000000000000000000000000 PUSH0 MSTORE PUSH1 0x11 PUSH1 0x4 MSTORE PUSH1 0x24 PUSH0 REVERT JUMPDEST PUSH0 PUSH2 0x240 DUP3 PUSH2 0x200 JUMP JUMPDEST SWAP2 POP PUSH2 0x24B DUP4 PUSH2 0x200 JUMP JUMPDEST SWAP3 POP DUP3 DUP3 MUL PUSH2 0x259 DUP2 PUSH2 0x200 JUMP JUMPDEST SWAP2 POP DUP3 DUP3 DIV DUP5 EQ DUP4 ISZERO OR PUSH2 0x270 JUMPI PUSH2 0x26F PUSH2 0x209 JUMP JUMPDEST JUMPDEST POP SWAP3 SWAP2 POP POP JUMP JUMPDEST PUSH32 0x4E487B7100000000000000000000000000000000000000000000000000000000 PUSH0 MSTORE PUSH1 0x12 PUSH1 0x4 MSTORE PUSH1 0x24 PUSH0 REVERT JUMPDEST PUSH0 PUSH2 0x2AE DUP3 PUSH2 0x200 JUMP JUMPDEST SWAP2 POP PUSH2 0x2B9 DUP4 PUSH2 0x200 JUMP JUMPDEST SWAP3 POP DUP3 PUSH2 0x2C9 JUMPI PUSH2 0x2C8 PUSH2 0x277 JUMP JUMPDEST JUMPDEST DUP3 DUP3 DIV SWAP1 POP SWAP3 SWAP2 POP POP JUMP JUMPDEST PUSH32 0x4272616B20706C796E6E6F736369206E61204445580000000000000000000000 PUSH0 DUP3 ADD MSTORE POP JUMP JUMPDEST PUSH0 PUSH2 0x308 PUSH1 0x15 DUP4 PUSH2 0x188 JUMP JUMPDEST SWAP2 POP PUSH2 0x313 DUP3 PUSH2 0x2D4 JUMP JUMPDEST PUSH1 0x20 DUP3 ADD SWAP1 POP SWAP2 SWAP1 POP JUMP JUMPDEST PUSH0 PUSH1 0x20 DUP3 ADD SWAP1 POP DUP2 DUP2 SUB PUSH0 DUP4 ADD MSTORE PUSH2 0x335 DUP2 PUSH2 0x2FC JUMP JUMPDEST SWAP1 POP SWAP2 SWAP1 POP JUMP JUMPDEST PUSH0 DUP2 SWAP1 POP SWAP3 SWAP2 POP POP JUMP JUMPDEST POP JUMP JUMPDEST PUSH0 PUSH2 0x354 PUSH0 DUP4 PUSH2 0x33C JUMP JUMPDEST SWAP2 POP PUSH2 0x35F DUP3 PUSH2 0x346 JUMP JUMPDEST PUSH0 DUP3 ADD SWAP1 POP SWAP2 SWAP1 POP JUMP JUMPDEST PUSH0 PUSH2 0x373 DUP3 PUSH2 0x349 JUMP JUMPDEST SWAP2 POP DUP2 SWAP1 POP SWAP2 SWAP1 POP JUMP JUMPDEST PUSH32 0x5472616E73666572207A79736B75206E69657564616E79000000000000000000 PUSH0 DUP3 ADD MSTORE POP JUMP JUMPDEST PUSH0 PUSH2 0x3B1 PUSH1 0x17 DUP4 PUSH2 0x188 JUMP JUMPDEST SWAP2 POP PUSH2 0x3BC DUP3 PUSH2 0x37D JUMP JUMPDEST PUSH1 0x20 DUP3 ADD SWAP1 POP SWAP2 SWAP1 POP JUMP JUMPDEST PUSH0 PUSH1 0x20 DUP3 ADD SWAP1 POP DUP2 DUP2 SUB PUSH0 DUP4 ADD MSTORE PUSH2 0x3DE DUP2 PUSH2 0x3A5 JUMP JUMPDEST SWAP1 POP SWAP2 SWAP1 POP JUMP INVALID LOG2 PUSH5 0x6970667358 0x22 SLT KECCAK256 SHL SWAP16 CHAINID 0x4F PUSH16 0xD5747F08381EF5BB771438CEA9DFEB3E 0xEB 0x2E MOD 0x2D SWAP5 ADDMOD PUSH30 0xF920B22C64736F6C63430008220033000000000000000000000000000000 "
		},
		"gasEstimates": {
			"creation": {
				"codeDepositCost": "210200",
				"executionCost": "249",
				"totalCost": "210449"
			},
			"external": {
				"swapAtInefficientRate()": "infinite"
			}
		},
		"methodIdentifiers": {
			"swapAtInefficientRate()": "83a23333"
		}
	},
	"abi": [
		{
			"inputs": [],
			"name": "swapAtInefficientRate",
			"outputs": [],
			"stateMutability": "payable",
			"type": "function"
		},
		{
			"stateMutability": "payable",
			"type": "receive"
		}
	]
}