{
	"data": {
		"bytecode": {
			"linkReferences": {},
			"object": "608060405234801561000f575f5ffd5b506040518060400160405280601381526020017f4b6f6c656b636a612057796b6c61646f776379000000000000000000000000008152506040518060400160405280600581526020017f4b574e4654000000000000000000000000000000000000000000000000000000815250815f908161008a91906104ec565b50806001908161009a91906104ec565b5050503360095f6101000a81548173ffffffffffffffffffffffffffffffffffffffff021916908373ffffffffffffffffffffffffffffffffffffffff1602179055506100ef336101f46100f460201b60201c565b610690565b5f61010361029560201b60201c565b6bffffffffffffffffffffffff16905080826bffffffffffffffffffffffff1611156101685781816040517f6f483d0900000000000000000000000000000000000000000000000000000000815260040161015f929190610611565b60405180910390fd5b5f73ffffffffffffffffffffffffffffffffffffffff168373ffffffffffffffffffffffffffffffffffffffff16036101d8575f6040517fb6d9900a0000000000000000000000000000000000000000000000000000000081526004016101cf9190610677565b60405180910390fd5b60405180604001604052808473ffffffffffffffffffffffffffffffffffffffff168152602001836bffffffffffffffffffffffff1681525060065f820151815f015f6101000a81548173ffffffffffffffffffffffffffffffffffffffff021916908373ffffffffffffffffffffffffffffffffffffffff1602179055506020820151815f0160146101000a8154816bffffffffffffffffffffffff02191690836bffffffffffffffffffffffff160217905550905050505050565b5f612710905090565b5f81519050919050565b7f4e487b71000000000000000000000000000000000000000000000000000000005f52604160045260245ffd5b7f4e487b71000000000000000000000000000000000000000000000000000000005f52602260045260245ffd5b5f600282049050600182168061031957607f821691505b60208210810361032c5761032b6102d5565b5b50919050565b5f819050815f5260205f209050919050565b5f6020601f8301049050919050565b5f82821b905092915050565b5f6008830261038e7fffffffffffffffffffffffffffffffffffffffffffffffffffffffffffffffff82610353565b6103988683610353565b95508019841693508086168417925050509392505050565b5f819050919050565b5f819050919050565b5f6103dc6103d76103d2846103b0565b6103b9565b6103b0565b9050919050565b5f819050919050565b6103f5836103c2565b610409610401826103e3565b84845461035f565b825550505050565b5f5f905090565b610420610411565b61042b8184846103ec565b505050565b5f5b82811015610451576104465f828401610418565b600181019050610432565b505050565b601f8211156104a457828211156104a35761047081610332565b61047983610344565b61048285610344565b602086101561048f575f90505b80830161049e82840382610430565b505050505b5b505050565b5f82821c905092915050565b5f6104c45f19846008026104a9565b1980831691505092915050565b5f6104dc83836104b5565b9150826002028217905092915050565b6104f58261029e565b67ffffffffffffffff81111561050e5761050d6102a8565b5b6105188254610302565b610523828285610456565b5f60209050601f831160018114610554575f8415610542578287015190505b61054c85826104d1565b8655506105b3565b601f19841661056286610332565b5f5b8281101561058957848901518255600182019150602085019450602081019050610564565b868310156105a657848901516105a2601f8916826104b5565b8355505b6001600288020188555050505b505050505050565b5f6bffffffffffffffffffffffff82169050919050565b5f6105ec6105e76105e2846105bb565b6103b9565b6103b0565b9050919050565b6105fc816105d2565b82525050565b61060b816103b0565b82525050565b5f6040820190506106245f8301856105f3565b6106316020830184610602565b9392505050565b5f73ffffffffffffffffffffffffffffffffffffffff82169050919050565b5f61066182610638565b9050919050565b61067181610657565b82525050565b5f60208201905061068a5f830184610668565b92915050565b61224e8061069d5f395ff3fe608060405234801561000f575f5ffd5b5060043610610109575f3560e01c80636a627842116100a0578063a22cb4651161006f578063a22cb465146102c8578063b88d4fde146102e4578063c87b56dd14610300578063e985e9c514610330578063f851a4401461036057610109565b80636a6278421461024057806370a082311461025c57806375794a3c1461028c57806395d89b41146102aa57610109565b806323b872dd116100dc57806323b872dd146101a75780632a55205a146101c357806342842e0e146101f45780636352211e1461021057610109565b806301ffc9a71461010d57806306fdde031461013d578063081812fc1461015b578063095ea7b31461018b575b5f5ffd5b6101276004803603810190610122919061196e565b61037e565b60405161013491906119b3565b60405180910390f35b61014561038f565b6040516101529190611a3c565b60405180910390f35b61017560048036038101906101709190611a8f565b61041e565b6040516101829190611af9565b60405180910390f35b6101a560048036038101906101a09190611b3c565b610439565b005b6101c160048036038101906101bc9190611b7a565b61044f565b005b6101dd60048036038101906101d89190611bca565b61054e565b6040516101eb929190611c17565b60405180910390f35b61020e60048036038101906102099190611b7a565b610670565b005b61022a60048036038101906102259190611a8f565b61068f565b6040516102379190611af9565b60405180910390f35b61025a60048036038101906102559190611c3e565b6106a0565b005b61027660048036038101906102719190611c3e565b610755565b6040516102839190611c69565b60405180910390f35b61029461080b565b6040516102a19190611c69565b60405180910390f35b6102b2610811565b6040516102bf9190611a3c565b60405180910390f35b6102e260048036038101906102dd9190611cac565b6108a1565b005b6102fe60048036038101906102f99190611e16565b6108b7565b005b61031a60048036038101906103159190611a8f565b6108dc565b6040516103279190611a3c565b60405180910390f35b61034a60048036038101906103459190611e96565b610942565b60405161035791906119b3565b60405180910390f35b6103686109d0565b6040516103759190611af9565b60405180910390f35b5f610388826109f5565b9050919050565b60605f805461039d90611f01565b80601f01602080910402602001604051908101604052809291908181526020018280546103c990611f01565b80156104145780601f106103eb57610100808354040283529160200191610414565b820191905f5260205f20905b8154815290600101906020018083116103f757829003601f168201915b5050505050905090565b5f61042882610a6e565b5061043282610af4565b9050919050565b61044b8282610446610b2d565b610b34565b5050565b5f73ffffffffffffffffffffffffffffffffffffffff168273ffffffffffffffffffffffffffffffffffffffff16036104bf575f6040517f64a0ae920000000000000000000000000000000000000000000000000000000081526004016104b69190611af9565b60405180910390fd5b5f6104d283836104cd610b2d565b610b46565b90508373ffffffffffffffffffffffffffffffffffffffff168173ffffffffffffffffffffffffffffffffffffffff1614610548578382826040517f64283d7b00000000000000000000000000000000000000000000000000000000815260040161053f93929190611f31565b60405180910390fd5b50505050565b5f5f5f60075f8681526020019081526020015f2090505f815f015f9054906101000a900473ffffffffffffffffffffffffffffffffffffffff1690505f825f0160149054906101000a90046bffffffffffffffffffffffff1690505f73ffffffffffffffffffffffffffffffffffffffff168273ffffffffffffffffffffffffffffffffffffffff16036106225760065f015f9054906101000a900473ffffffffffffffffffffffffffffffffffffffff16915060065f0160149054906101000a90046bffffffffffffffffffffffff1690505b5f61062b610d51565b6bffffffffffffffffffffffff16826bffffffffffffffffffffffff16886106539190611f93565b61065d9190612001565b9050828195509550505050509250929050565b61068a83838360405180602001604052805f8152506108b7565b505050565b5f61069982610a6e565b9050919050565b60095f9054906101000a900473ffffffffffffffffffffffffffffffffffffffff1673ffffffffffffffffffffffffffffffffffffffff163373ffffffffffffffffffffffffffffffffffffffff161461072f576040517f08c379a00000000000000000000000000000000000000000000000000000000081526004016107269061207b565b60405180910390fd5b61073b81600854610d5a565b60085f81548092919061074d90612099565b919050555050565b5f5f73ffffffffffffffffffffffffffffffffffffffff168273ffffffffffffffffffffffffffffffffffffffff16036107c6575f6040517f89c62b640000000000000000000000000000000000000000000000000000000081526004016107bd9190611af9565b60405180910390fd5b60035f8373ffffffffffffffffffffffffffffffffffffffff1673ffffffffffffffffffffffffffffffffffffffff1681526020019081526020015f20549050919050565b60085481565b60606001805461082090611f01565b80601f016020809104026020016040519081016040528092919081815260200182805461084c90611f01565b80156108975780601f1061086e57610100808354040283529160200191610897565b820191905f5260205f20905b81548152906001019060200180831161087a57829003601f168201915b5050505050905090565b6108b36108ac610b2d565b8383610d77565b5050565b6108c284848461044f565b6108d66108cd610b2d565b85858585610f50565b50505050565b60606108e782610a6e565b505f6108f16110fc565b90505f81511161090f5760405180602001604052805f81525061093a565b8061091984611112565b60405160200161092a92919061211a565b6040516020818303038152906040525b915050919050565b5f60055f8473ffffffffffffffffffffffffffffffffffffffff1673ffffffffffffffffffffffffffffffffffffffff1681526020019081526020015f205f8373ffffffffffffffffffffffffffffffffffffffff1673ffffffffffffffffffffffffffffffffffffffff1681526020019081526020015f205f9054906101000a900460ff16905092915050565b60095f9054906101000a900473ffffffffffffffffffffffffffffffffffffffff1681565b5f7f2a55205a000000000000000000000000000000000000000000000000000000007bffffffffffffffffffffffffffffffffffffffffffffffffffffffff1916827bffffffffffffffffffffffffffffffffffffffffffffffffffffffff19161480610a675750610a66826111dc565b5b9050919050565b5f5f610a79836112bd565b90505f73ffffffffffffffffffffffffffffffffffffffff168173ffffffffffffffffffffffffffffffffffffffff1603610aeb57826040517f7e273289000000000000000000000000000000000000000000000000000000008152600401610ae29190611c69565b60405180910390fd5b80915050919050565b5f60045f8381526020019081526020015f205f9054906101000a900473ffffffffffffffffffffffffffffffffffffffff169050919050565b5f33905090565b610b4183838360016112f6565b505050565b5f5f610b51846112bd565b90505f73ffffffffffffffffffffffffffffffffffffffff168373ffffffffffffffffffffffffffffffffffffffff1614610b9257610b918184866114b5565b5b5f73ffffffffffffffffffffffffffffffffffffffff168173ffffffffffffffffffffffffffffffffffffffff1614610c1d57610bd15f855f5f6112f6565b600160035f8373ffffffffffffffffffffffffffffffffffffffff1673ffffffffffffffffffffffffffffffffffffffff1681526020019081526020015f205f82825403925050819055505b5f73ffffffffffffffffffffffffffffffffffffffff168573ffffffffffffffffffffffffffffffffffffffff1614610c9c57600160035f8773ffffffffffffffffffffffffffffffffffffffff1673ffffffffffffffffffffffffffffffffffffffff1681526020019081526020015f205f82825401925050819055505b8460025f8681526020019081526020015f205f6101000a81548173ffffffffffffffffffffffffffffffffffffffff021916908373ffffffffffffffffffffffffffffffffffffffff160217905550838573ffffffffffffffffffffffffffffffffffffffff168273ffffffffffffffffffffffffffffffffffffffff167fddf252ad1be2c89b69c2b068fc378daa952ba7f163c4a11628f55a4df523b3ef60405160405180910390a4809150509392505050565b5f612710905090565b610d73828260405180602001604052805f815250611578565b5050565b5f73ffffffffffffffffffffffffffffffffffffffff168373ffffffffffffffffffffffffffffffffffffffff1603610de7575f6040517fa9fbf51f000000000000000000000000000000000000000000000000000000008152600401610dde9190611af9565b60405180910390fd5b5f73ffffffffffffffffffffffffffffffffffffffff168273ffffffffffffffffffffffffffffffffffffffff1603610e5757816040517f5b08ba18000000000000000000000000000000000000000000000000000000008152600401610e4e9190611af9565b60405180910390fd5b8060055f8573ffffffffffffffffffffffffffffffffffffffff1673ffffffffffffffffffffffffffffffffffffffff1681526020019081526020015f205f8473ffffffffffffffffffffffffffffffffffffffff1673ffffffffffffffffffffffffffffffffffffffff1681526020019081526020015f205f6101000a81548160ff0219169083151502179055508173ffffffffffffffffffffffffffffffffffffffff168373ffffffffffffffffffffffffffffffffffffffff167f17307eab39ab6107e8899845ad3d59bd9653f200f220920489ca2b5937696c3183604051610f4391906119b3565b60405180910390a3505050565b5f8373ffffffffffffffffffffffffffffffffffffffff163b11156110f5578273ffffffffffffffffffffffffffffffffffffffff1663150b7a02868685856040518563ffffffff1660e01b8152600401610fae949392919061218f565b6020604051808303815f875af1925050508015610fe957506040513d601f19601f82011682018060405250810190610fe691906121ed565b60015b61106a573d805f8114611017576040519150601f19603f3d011682016040523d82523d5f602084013e61101c565b606091505b505f81510361106257836040517f64a0ae920000000000000000000000000000000000000000000000000000000081526004016110599190611af9565b60405180910390fd5b805160208201fd5b63150b7a0260e01b7bffffffffffffffffffffffffffffffffffffffffffffffffffffffff1916817bffffffffffffffffffffffffffffffffffffffffffffffffffffffff1916146110f357836040517f64a0ae920000000000000000000000000000000000000000000000000000000081526004016110ea9190611af9565b60405180910390fd5b505b5050505050565b606060405180602001604052805f815250905090565b60605f60016111208461159b565b0190505f8167ffffffffffffffff81111561113e5761113d611cf2565b5b6040519080825280601f01601f1916602001820160405280156111705781602001600182028036833780820191505090505b5090505f82602083010190505b6001156111d1578080600190039150507f3031323334353637383961626364656600000000000000000000000000000000600a86061a8153600a85816111c6576111c5611fd4565b5b0494505f850361117d575b819350505050919050565b5f7f80ac58cd000000000000000000000000000000000000000000000000000000007bffffffffffffffffffffffffffffffffffffffffffffffffffffffff1916827bffffffffffffffffffffffffffffffffffffffffffffffffffffffff191614806112a657507f5b5e139f000000000000000000000000000000000000000000000000000000007bffffffffffffffffffffffffffffffffffffffffffffffffffffffff1916827bffffffffffffffffffffffffffffffffffffffffffffffffffffffff1916145b806112b657506112b5826116ec565b5b9050919050565b5f60025f8381526020019081526020015f205f9054906101000a900473ffffffffffffffffffffffffffffffffffffffff169050919050565b808061132e57505f73ffffffffffffffffffffffffffffffffffffffff168273ffffffffffffffffffffffffffffffffffffffff1614155b15611460575f61133d84610a6e565b90505f73ffffffffffffffffffffffffffffffffffffffff168373ffffffffffffffffffffffffffffffffffffffff16141580156113a757508273ffffffffffffffffffffffffffffffffffffffff168173ffffffffffffffffffffffffffffffffffffffff1614155b80156113ba57506113b88184610942565b155b156113fc57826040517fa9fbf51f0000000000000000000000000000000000000000000000000000000081526004016113f39190611af9565b60405180910390fd5b811561145e57838573ffffffffffffffffffffffffffffffffffffffff168273ffffffffffffffffffffffffffffffffffffffff167f8c5be1e5ebec7d5bd14f71427d1e84f3dd0314c0f7b2291e5b200ac8c7c3b92560405160405180910390a45b505b8360045f8581526020019081526020015f205f6101000a81548173ffffffffffffffffffffffffffffffffffffffff021916908373ffffffffffffffffffffffffffffffffffffffff16021790555050505050565b6114c0838383611755565b611573575f73ffffffffffffffffffffffffffffffffffffffff168373ffffffffffffffffffffffffffffffffffffffff160361153457806040517f7e27328900000000000000000000000000000000000000000000000000000000815260040161152b9190611c69565b60405180910390fd5b81816040517f177e802f00000000000000000000000000000000000000000000000000000000815260040161156a929190611c17565b60405180910390fd5b505050565b6115828383611815565b61159661158d610b2d565b5f858585610f50565b505050565b5f5f5f90507a184f03e93ff9f4daa797ed6e38ed64bf6a1f01000000000000000083106115f7577a184f03e93ff9f4daa797ed6e38ed64bf6a1f01000000000000000083816115ed576115ec611fd4565b5b0492506040810190505b6d04ee2d6d415b85acef81000000008310611634576d04ee2d6d415b85acef8100000000838161162a57611629611fd4565b5b0492506020810190505b662386f26fc10000831061166357662386f26fc10000838161165957611658611fd4565b5b0492506010810190505b6305f5e100831061168c576305f5e100838161168257611681611fd4565b5b0492506008810190505b61271083106116b15761271083816116a7576116a6611fd4565b5b0492506004810190505b606483106116d457606483816116ca576116c9611fd4565b5b0492506002810190505b600a83106116e3576001810190505b80915050919050565b5f7f01ffc9a7000000000000000000000000000000000000000000000000000000007bffffffffffffffffffffffffffffffffffffffffffffffffffffffff1916827bffffffffffffffffffffffffffffffffffffffffffffffffffffffff1916149050919050565b5f5f73ffffffffffffffffffffffffffffffffffffffff168373ffffffffffffffffffffffffffffffffffffffff161415801561180c57508273ffffffffffffffffffffffffffffffffffffffff168473ffffffffffffffffffffffffffffffffffffffff1614806117cd57506117cc8484610942565b5b8061180b57508273ffffffffffffffffffffffffffffffffffffffff166117f383610af4565b73ffffffffffffffffffffffffffffffffffffffff16145b5b90509392505050565b5f73ffffffffffffffffffffffffffffffffffffffff168273ffffffffffffffffffffffffffffffffffffffff1603611885575f6040517f64a0ae9200000000000000000000000000000000000000000000000000000000815260040161187c9190611af9565b60405180910390fd5b5f61189183835f610b46565b90505f73ffffffffffffffffffffffffffffffffffffffff168173ffffffffffffffffffffffffffffffffffffffff1614611903575f6040517f73c6ac6e0000000000000000000000000000000000000000000000000000000081526004016118fa9190611af9565b60405180910390fd5b505050565b5f604051905090565b5f5ffd5b5f5ffd5b5f7fffffffff0000000000000000000000000000000000000000000000000000000082169050919050565b61194d81611919565b8114611957575f5ffd5b50565b5f8135905061196881611944565b92915050565b5f6020828403121561198357611982611911565b5b5f6119908482850161195a565b91505092915050565b5f8115159050919050565b6119ad81611999565b82525050565b5f6020820190506119c65f8301846119a4565b92915050565b5f81519050919050565b5f82825260208201905092915050565b8281835e5f83830152505050565b5f601f19601f8301169050919050565b5f611a0e826119cc565b611a1881856119d6565b9350611a288185602086016119e6565b611a31816119f4565b840191505092915050565b5f6020820190508181035f830152611a548184611a04565b905092915050565b5f819050919050565b611a6e81611a5c565b8114611a78575f5ffd5b50565b5f81359050611a8981611a65565b92915050565b5f60208284031215611aa457611aa3611911565b5b5f611ab184828501611a7b565b91505092915050565b5f73ffffffffffffffffffffffffffffffffffffffff82169050919050565b5f611ae382611aba565b9050919050565b611af381611ad9565b82525050565b5f602082019050611b0c5f830184611aea565b92915050565b611b1b81611ad9565b8114611b25575f5ffd5b50565b5f81359050611b3681611b12565b92915050565b5f5f60408385031215611b5257611b51611911565b5b5f611b5f85828601611b28565b9250506020611b7085828601611a7b565b9150509250929050565b5f5f5f60608486031215611b9157611b90611911565b5b5f611b9e86828701611b28565b9350506020611baf86828701611b28565b9250506040611bc086828701611a7b565b9150509250925092565b5f5f60408385031215611be057611bdf611911565b5b5f611bed85828601611a7b565b9250506020611bfe85828601611a7b565b9150509250929050565b611c1181611a5c565b82525050565b5f604082019050611c2a5f830185611aea565b611c376020830184611c08565b9392505050565b5f60208284031215611c5357611c52611911565b5b5f611c6084828501611b28565b91505092915050565b5f602082019050611c7c5f830184611c08565b92915050565b611c8b81611999565b8114611c95575f5ffd5b50565b5f81359050611ca681611c82565b92915050565b5f5f60408385031215611cc257611cc1611911565b5b5f611ccf85828601611b28565b9250506020611ce085828601611c98565b9150509250929050565b5f5ffd5b5f5ffd5b7f4e487b71000000000000000000000000000000000000000000000000000000005f52604160045260245ffd5b611d28826119f4565b810181811067ffffffffffffffff82111715611d4757611d46611cf2565b5b80604052505050565b5f611d59611908565b9050611d658282611d1f565b919050565b5f67ffffffffffffffff821115611d8457611d83611cf2565b5b611d8d826119f4565b9050602081019050919050565b828183375f83830152505050565b5f611dba611db584611d6a565b611d50565b905082815260208101848484011115611dd657611dd5611cee565b5b611de1848285611d9a565b509392505050565b5f82601f830112611dfd57611dfc611cea565b5b8135611e0d848260208601611da8565b91505092915050565b5f5f5f5f60808587031215611e2e57611e2d611911565b5b5f611e3b87828801611b28565b9450506020611e4c87828801611b28565b9350506040611e5d87828801611a7b565b925050606085013567ffffffffffffffff811115611e7e57611e7d611915565b5b611e8a87828801611de9565b91505092959194509250565b5f5f60408385031215611eac57611eab611911565b5b5f611eb985828601611b28565b9250506020611eca85828601611b28565b9150509250929050565b7f4e487b71000000000000000000000000000000000000000000000000000000005f52602260045260245ffd5b5f6002820490506001821680611f1857607f821691505b602082108103611f2b57611f2a611ed4565b5b50919050565b5f606082019050611f445f830186611aea565b611f516020830185611c08565b611f5e6040830184611aea565b949350505050565b7f4e487b71000000000000000000000000000000000000000000000000000000005f52601160045260245ffd5b5f611f9d82611a5c565b9150611fa883611a5c565b9250828202611fb681611a5c565b91508282048414831517611fcd57611fcc611f66565b5b5092915050565b7f4e487b71000000000000000000000000000000000000000000000000000000005f52601260045260245ffd5b5f61200b82611a5c565b915061201683611a5c565b92508261202657612025611fd4565b5b828204905092915050565b7f54796c6b6f2061646d696e206d6f7a6520626963204e465400000000000000005f82015250565b5f6120656018836119d6565b915061207082612031565b602082019050919050565b5f6020820190508181035f83015261209281612059565b9050919050565b5f6120a382611a5c565b91507fffffffffffffffffffffffffffffffffffffffffffffffffffffffffffffffff82036120d5576120d4611f66565b5b600182019050919050565b5f81905092915050565b5f6120f4826119cc565b6120fe81856120e0565b935061210e8185602086016119e6565b80840191505092915050565b5f61212582856120ea565b915061213182846120ea565b91508190509392505050565b5f81519050919050565b5f82825260208201905092915050565b5f6121618261213d565b61216b8185612147565b935061217b8185602086016119e6565b612184816119f4565b840191505092915050565b5f6080820190506121a25f830187611aea565b6121af6020830186611aea565b6121bc6040830185611c08565b81810360608301526121ce8184612157565b905095945050505050565b5f815190506121e781611944565b92915050565b5f6020828403121561220257612201611911565b5b5f61220f848285016121d9565b9150509291505056fea2646970667358221220d37e8e068a96158e3af15fc95eb9f8155e1156d6f55d9569da86dea36dfa553864736f6c63430008220033",
			"opcodes": "PUSH1 0x80 PUSH1 0x40 MSTORE CALLVALUE DUP1 ISZERO PUSH2 0xF JUMPI PUSH0 PUSH0 REVERT JUMPDEST POP PUSH1 0x40 MLOAD DUP1 PUSH1 0x40 ADD PUSH1 0x40 MSTORE DUP1 PUSH1 0x13 DUP2 MSTORE PUSH1 0x20 ADD PUSH32 0x4B6F6C656B636A612057796B6C61646F77637900000000000000000000000000 DUP2 MSTORE POP PUSH1 0x40 MLOAD DUP1 PUSH1 0x40 ADD PUSH1 0x40 MSTORE DUP1 PUSH1 0x5 DUP2 MSTORE PUSH1 0x20 ADD PUSH32 0x4B574E4654000000000000000000000000000000000000000000000000000000 DUP2 MSTORE POP DUP2 PUSH0 SWAP1 DUP2 PUSH2 0x8A SWAP2 SWAP1 PUSH2 0x4EC JUMP JUMPDEST POP DUP1 PUSH1 0x1 SWAP1 DUP2 PUSH2 0x9A SWAP2 SWAP1 PUSH2 0x4EC JUMP JUMPDEST POP POP POP CALLER PUSH1 0x9 PUSH0 PUSH2 0x100 EXP DUP2 SLOAD DUP2 PUSH20 0xFFFFFFFFFFFFFFFFFFFFFFFFFFFFFFFFFFFFFFFF MUL NOT AND SWAP1 DUP4 PUSH20 0xFFFFFFFFFFFFFFFFFFFFFFFFFFFFFFFFFFFFFFFF AND MUL OR SWAP1 SSTORE POP PUSH2 0xEF CALLER PUSH2 0x1F4 PUSH2 0xF4 PUSH1 0x20 SHL PUSH1 0x20 SHR JUMP JUMPDEST PUSH2 0x690 JUMP JUMPDEST PUSH0 PUSH2 0x103 PUSH2 0x295 PUSH1 0x20 SHL PUSH1 0x20 SHR JUMP JUMPDEST PUSH12 0xFFFFFFFFFFFFFFFFFFFFFFFF AND SWAP1 POP DUP1 DUP3 PUSH12 0xFFFFFFFFFFFFFFFFFFFFFFFF AND GT ISZERO PUSH2 0x168 JUMPI DUP2 DUP2 PUSH1 0x40 MLOAD PUSH32 0x6F483D0900000000000000000000000000000000000000000000000000000000 DUP2 MSTORE PUSH1 0x4 ADD PUSH2 0x15F SWAP3 SWAP2 SWAP1 PUSH2 0x611 JUMP JUMPDEST PUSH1 0x40 MLOAD DUP1 SWAP2 SUB SWAP1 REVERT JUMPDEST PUSH0 PUSH20 0xFFFFFFFFFFFFFFFFFFFFFFFFFFFFFFFFFFFFFFFF AND DUP4 PUSH20 0xFFFFFFFFFFFFFFFFFFFFFFFFFFFFFFFFFFFFFFFF AND SUB PUSH2 0x1D8 JUMPI PUSH0 PUSH1 0x40 MLOAD PUSH32 0xB6D9900A00000000000000000000000000000000000000000000000000000000 DUP2 MSTORE PUSH1 0x4 ADD PUSH2 0x1CF SWAP2 SWAP1 PUSH2 0x677 JUMP JUMPDEST PUSH1 0x40 MLOAD DUP1 SWAP2 SUB SWAP1 REVERT JUMPDEST PUSH1 0x40 MLOAD DUP1 PUSH1 0x40 ADD PUSH1 0x40 MSTORE DUP1 DUP5 PUSH20 0xFFFFFFFFFFFFFFFFFFFFFFFFFFFFFFFFFFFFFFFF AND DUP2 MSTORE PUSH1 0x20 ADD DUP4 PUSH12 0xFFFFFFFFFFFFFFFFFFFFFFFF AND DUP2 MSTORE POP PUSH1 0x6 PUSH0 DUP3 ADD MLOAD DUP2 PUSH0 ADD PUSH0 PUSH2 0x100 EXP DUP2 SLOAD DUP2 PUSH20 0xFFFFFFFFFFFFFFFFFFFFFFFFFFFFFFFFFFFFFFFF MUL NOT AND SWAP1 DUP4 PUSH20 0xFFFFFFFFFFFFFFFFFFFFFFFFFFFFFFFFFFFFFFFF AND MUL OR SWAP1 SSTORE POP PUSH1 0x20 DUP3 ADD MLOAD DUP2 PUSH0 ADD PUSH1 0x14 PUSH2 0x100 EXP DUP2 SLOAD DUP2 PUSH12 0xFFFFFFFFFFFFFFFFFFFFFFFF MUL NOT AND SWAP1 DUP4 PUSH12 0xFFFFFFFFFFFFFFFFFFFFFFFF AND MUL OR SWAP1 SSTORE POP SWAP1 POP POP POP POP POP JUMP JUMPDEST PUSH0 PUSH2 0x2710 SWAP1 POP SWAP1 JUMP JUMPDEST PUSH0 DUP2 MLOAD SWAP1 POP SWAP2 SWAP1 POP JUMP JUMPDEST PUSH32 0x4E487B7100000000000000000000000000000000000000000000000000000000 PUSH0 MSTORE PUSH1 0x41 PUSH1 0x4 MSTORE PUSH1 0x24 PUSH0 REVERT JUMPDEST PUSH32 0x4E487B7100000000000000000000000000000000000000000000000000000000 PUSH0 MSTORE PUSH1 0x22 PUSH1 0x4 MSTORE PUSH1 0x24 PUSH0 REVERT JUMPDEST PUSH0 PUSH1 0x2 DUP3 DIV SWAP1 POP PUSH1 0x1 DUP3 AND DUP1 PUSH2 0x319 JUMPI PUSH1 0x7F DUP3 AND SWAP2 POP JUMPDEST PUSH1 0x20 DUP3 LT DUP2 SUB PUSH2 0x32C JUMPI PUSH2 0x32B PUSH2 0x2D5 JUMP JUMPDEST JUMPDEST POP SWAP2 SWAP1 POP JUMP JUMPDEST PUSH0 DUP2 SWAP1 POP DUP2 PUSH0 MSTORE PUSH1 0x20 PUSH0 KECCAK256 SWAP1 POP SWAP2 SWAP1 POP JUMP JUMPDEST PUSH0 PUSH1 0x20 PUSH1 0x1F DUP4 ADD DIV SWAP1 POP SWAP2 SWAP1 POP JUMP JUMPDEST PUSH0 DUP3 DUP3 SHL SWAP1 POP SWAP3 SWAP2 POP POP JUMP JUMPDEST PUSH0 PUSH1 0x8 DUP4 MUL PUSH2 0x38E PUSH32 0xFFFFFFFFFFFFFFFFFFFFFFFFFFFFFFFFFFFFFFFFFFFFFFFFFFFFFFFFFFFFFFFF DUP3 PUSH2 0x353 JUMP JUMPDEST PUSH2 0x398 DUP7 DUP4 PUSH2 0x353 JUMP JUMPDEST SWAP6 POP DUP1 NOT DUP5 AND SWAP4 POP DUP1 DUP7 AND DUP5 OR SWAP3 POP POP POP SWAP4 SWAP3 POP POP POP JUMP JUMPDEST PUSH0 DUP2 SWAP1 POP SWAP2 SWAP1 POP JUMP JUMPDEST PUSH0 DUP2 SWAP1 POP SWAP2 SWAP1 POP JUMP JUMPDEST PUSH0 PUSH2 0x3DC PUSH2 0x3D7 PUSH2 0x3D2 DUP5 PUSH2 0x3B0 JUMP JUMPDEST PUSH2 0x3B9 JUMP JUMPDEST PUSH2 0x3B0 JUMP JUMPDEST SWAP1 POP SWAP2 SWAP1 POP JUMP JUMPDEST PUSH0 DUP2 SWAP1 POP SWAP2 SWAP1 POP JUMP JUMPDEST PUSH2 0x3F5 DUP4 PUSH2 0x3C2 JUMP JUMPDEST PUSH2 0x409 PUSH2 0x401 DUP3 PUSH2 0x3E3 JUMP JUMPDEST DUP5 DUP5 SLOAD PUSH2 0x35F JUMP JUMPDEST DUP3 SSTORE POP POP POP POP JUMP JUMPDEST PUSH0 PUSH0 SWAP1 POP SWAP1 JUMP JUMPDEST PUSH2 0x420 PUSH2 0x411 JUMP JUMPDEST PUSH2 0x42B DUP2 DUP5 DUP5 PUSH2 0x3EC JUMP JUMPDEST POP POP POP JUMP JUMPDEST PUSH0 JUMPDEST DUP3 DUP2 LT ISZERO PUSH2 0x451 JUMPI PUSH2 0x446 PUSH0 DUP3 DUP5 ADD PUSH2 0x418 JUMP JUMPDEST PUSH1 0x1 DUP2 ADD SWAP1 POP PUSH2 0x432 JUMP JUMPDEST POP POP POP JUMP JUMPDEST PUSH1 0x1F DUP3 GT ISZERO PUSH2 0x4A4 JUMPI DUP3 DUP3 GT ISZERO PUSH2 0x4A3 JUMPI PUSH2 0x470 DUP2 PUSH2 0x332 JUMP JUMPDEST PUSH2 0x479 DUP4 PUSH2 0x344 JUMP JUMPDEST PUSH2 0x482 DUP6 PUSH2 0x344 JUMP JUMPDEST PUSH1 0x20 DUP7 LT ISZERO PUSH2 0x48F JUMPI PUSH0 SWAP1 POP JUMPDEST DUP1 DUP4 ADD PUSH2 0x49E DUP3 DUP5 SUB DUP3 PUSH2 0x430 JUMP JUMPDEST POP POP POP POP JUMPDEST JUMPDEST POP POP POP JUMP JUMPDEST PUSH0 DUP3 DUP3 SHR SWAP1 POP SWAP3 SWAP2 POP POP JUMP JUMPDEST PUSH0 PUSH2 0x4C4 PUSH0 NOT DUP5 PUSH1 0x8 MUL PUSH2 0x4A9 JUMP JUMPDEST NOT DUP1 DUP4 AND SWAP2 POP POP SWAP3 SWAP2 POP POP JUMP JUMPDEST PUSH0 PUSH2 0x4DC DUP4 DUP4 PUSH2 0x4B5 JUMP JUMPDEST SWAP2 POP DUP3 PUSH1 0x2 MUL DUP3 OR SWAP1 POP SWAP3 SWAP2 POP POP JUMP JUMPDEST PUSH2 0x4F5 DUP3 PUSH2 0x29E JUMP JUMPDEST PUSH8 0xFFFFFFFFFFFFFFFF DUP2 GT ISZERO PUSH2 0x50E JUMPI PUSH2 0x50D PUSH2 0x2A8 JUMP JUMPDEST JUMPDEST PUSH2 0x518 DUP3 SLOAD PUSH2 0x302 JUMP JUMPDEST PUSH2 0x523 DUP3 DUP3 DUP6 PUSH2 0x456 JUMP JUMPDEST PUSH0 PUSH1 0x20 SWAP1 POP PUSH1 0x1F DUP4 GT PUSH1 0x1 DUP2 EQ PUSH2 0x554 JUMPI PUSH0 DUP5 ISZERO PUSH2 0x542 JUMPI DUP3 DUP8 ADD MLOAD SWAP1 POP JUMPDEST PUSH2 0x54C DUP6 DUP3 PUSH2 0x4D1 JUMP JUMPDEST DUP7 SSTORE POP PUSH2 0x5B3 JUMP JUMPDEST PUSH1 0x1F NOT DUP5 AND PUSH2 0x562 DUP7 PUSH2 0x332 JUMP JUMPDEST PUSH0 JUMPDEST DUP3 DUP2 LT ISZERO PUSH2 0x589 JUMPI DUP5 DUP10 ADD MLOAD DUP3 SSTORE PUSH1 0x1 DUP3 ADD SWAP2 POP PUSH1 0x20 DUP6 ADD SWAP5 POP PUSH1 0x20 DUP2 ADD SWAP1 POP PUSH2 0x564 JUMP JUMPDEST DUP7 DUP4 LT ISZERO PUSH2 0x5A6 JUMPI DUP5 DUP10 ADD MLOAD PUSH2 0x5A2 PUSH1 0x1F DUP10 AND DUP3 PUSH2 0x4B5 JUMP JUMPDEST DUP4 SSTORE POP JUMPDEST PUSH1 0x1 PUSH1 0x2 DUP9 MUL ADD DUP9 SSTORE POP POP POP JUMPDEST POP POP POP POP POP POP JUMP JUMPDEST PUSH0 PUSH12 0xFFFFFFFFFFFFFFFFFFFFFFFF DUP3 AND SWAP1 POP SWAP2 SWAP1 POP JUMP JUMPDEST PUSH0 PUSH2 0x5EC PUSH2 0x5E7 PUSH2 0x5E2 DUP5 PUSH2 0x5BB JUMP JUMPDEST PUSH2 0x3B9 JUMP JUMPDEST PUSH2 0x3B0 JUMP JUMPDEST SWAP1 POP SWAP2 SWAP1 POP JUMP JUMPDEST PUSH2 0x5FC DUP2 PUSH2 0x5D2 JUMP JUMPDEST DUP3 MSTORE POP POP JUMP JUMPDEST PUSH2 0x60B DUP2 PUSH2 0x3B0 JUMP JUMPDEST DUP3 MSTORE POP POP JUMP JUMPDEST PUSH0 PUSH1 0x40 DUP3 ADD SWAP1 POP PUSH2 0x624 PUSH0 DUP4 ADD DUP6 PUSH2 0x5F3 JUMP JUMPDEST PUSH2 0x631 PUSH1 0x20 DUP4 ADD DUP5 PUSH2 0x602 JUMP JUMPDEST SWAP4 SWAP3 POP POP POP JUMP JUMPDEST PUSH0 PUSH20 0xFFFFFFFFFFFFFFFFFFFFFFFFFFFFFFFFFFFFFFFF DUP3 AND SWAP1 POP SWAP2 SWAP1 POP JUMP JUMPDEST PUSH0 PUSH2 0x661 DUP3 PUSH2 0x638 JUMP JUMPDEST SWAP1 POP SWAP2 SWAP1 POP JUMP JUMPDEST PUSH2 0x671 DUP2 PUSH2 0x657 JUMP JUMPDEST DUP3 MSTORE POP POP JUMP JUMPDEST PUSH0 PUSH1 0x20 DUP3 ADD SWAP1 POP PUSH2 0x68A PUSH0 DUP4 ADD DUP5 PUSH2 0x668 JUMP JUMPDEST SWAP3 SWAP2 POP POP JUMP JUMPDEST PUSH2 0x224E DUP1 PUSH2 0x69D PUSH0 CODECOPY PUSH0 RETURN INVALID PUSH1 0x80 PUSH1 0x40 MSTORE CALLVALUE DUP1 ISZERO PUSH2 0xF JUMPI PUSH0 PUSH0 REVERT JUMPDEST POP PUSH1 0x4 CALLDATASIZE LT PUSH2 0x109 JUMPI PUSH0 CALLDATALOAD PUSH1 0xE0 SHR DUP1 PUSH4 0x6A627842 GT PUSH2 0xA0 JUMPI DUP1 PUSH4 0xA22CB465 GT PUSH2 0x6F JUMPI DUP1 PUSH4 0xA22CB465 EQ PUSH2 0x2C8 JUMPI DUP1 PUSH4 0xB88D4FDE EQ PUSH2 0x2E4 JUMPI DUP1 PUSH4 0xC87B56DD EQ PUSH2 0x300 JUMPI DUP1 PUSH4 0xE985E9C5 EQ PUSH2 0x330 JUMPI DUP1 PUSH4 0xF851A440 EQ PUSH2 0x360 JUMPI PUSH2 0x109 JUMP JUMPDEST DUP1 PUSH4 0x6A627842 EQ PUSH2 0x240 JUMPI DUP1 PUSH4 0x70A08231 EQ PUSH2 0x25C JUMPI DUP1 PUSH4 0x75794A3C EQ PUSH2 0x28C JUMPI DUP1 PUSH4 0x95D89B41 EQ PUSH2 0x2AA JUMPI PUSH2 0x109 JUMP JUMPDEST DUP1 PUSH4 0x23B872DD GT PUSH2 0xDC JUMPI DUP1 PUSH4 0x23B872DD EQ PUSH2 0x1A7 JUMPI DUP1 PUSH4 0x2A55205A EQ PUSH2 0x1C3 JUMPI DUP1 PUSH4 0x42842E0E EQ PUSH2 0x1F4 JUMPI DUP1 PUSH4 0x6352211E EQ PUSH2 0x210 JUMPI PUSH2 0x109 JUMP JUMPDEST DUP1 PUSH4 0x1FFC9A7 EQ PUSH2 0x10D JUMPI DUP1 PUSH4 0x6FDDE03 EQ PUSH2 0x13D JUMPI DUP1 PUSH4 0x81812FC EQ PUSH2 0x15B JUMPI DUP1 PUSH4 0x95EA7B3 EQ PUSH2 0x18B JUMPI JUMPDEST PUSH0 PUSH0 REVERT JUMPDEST PUSH2 0x127 PUSH1 0x4 DUP1 CALLDATASIZE SUB DUP2 ADD SWAP1 PUSH2 0x122 SWAP2 SWAP1 PUSH2 0x196E JUMP JUMPDEST PUSH2 0x37E JUMP JUMPDEST PUSH1 0x40 MLOAD PUSH2 0x134 SWAP2 SWAP1 PUSH2 0x19B3 JUMP JUMPDEST PUSH1 0x40 MLOAD DUP1 SWAP2 SUB SWAP1 RETURN JUMPDEST PUSH2 0x145 PUSH2 0x38F JUMP JUMPDEST PUSH1 0x40 MLOAD PUSH2 0x152 SWAP2 SWAP1 PUSH2 0x1A3C JUMP JUMPDEST PUSH1 0x40 MLOAD DUP1 SWAP2 SUB SWAP1 RETURN JUMPDEST PUSH2 0x175 PUSH1 0x4 DUP1 CALLDATASIZE SUB DUP2 ADD SWAP1 PUSH2 0x170 SWAP2 SWAP1 PUSH2 0x1A8F JUMP JUMPDEST PUSH2 0x41E JUMP JUMPDEST PUSH1 0x40 MLOAD PUSH2 0x182 SWAP2 SWAP1 PUSH2 0x1AF9 JUMP JUMPDEST PUSH1 0x40 MLOAD DUP1 SWAP2 SUB SWAP1 RETURN JUMPDEST PUSH2 0x1A5 PUSH1 0x4 DUP1 CALLDATASIZE SUB DUP2 ADD SWAP1 PUSH2 0x1A0 SWAP2 SWAP1 PUSH2 0x1B3C JUMP JUMPDEST PUSH2 0x439 JUMP JUMPDEST STOP JUMPDEST PUSH2 0x1C1 PUSH1 0x4 DUP1 CALLDATASIZE SUB DUP2 ADD SWAP1 PUSH2 0x1BC SWAP2 SWAP1 PUSH2 0x1B7A JUMP JUMPDEST PUSH2 0x44F JUMP JUMPDEST STOP JUMPDEST PUSH2 0x1DD PUSH1 0x4 DUP1 CALLDATASIZE SUB DUP2 ADD SWAP1 PUSH2 0x1D8 SWAP2 SWAP1 PUSH2 0x1BCA JUMP JUMPDEST PUSH2 0x54E JUMP JUMPDEST PUSH1 0x40 MLOAD PUSH2 0x1EB SWAP3 SWAP2 SWAP1 PUSH2 0x1C17 JUMP JUMPDEST PUSH1 0x40 MLOAD DUP1 SWAP2 SUB SWAP1 RETURN JUMPDEST PUSH2 0x20E PUSH1 0x4 DUP1 CALLDATASIZE SUB DUP2 ADD SWAP1 PUSH2 0x209 SWAP2 SWAP1 PUSH2 0x1B7A JUMP JUMPDEST PUSH2 0x670 JUMP JUMPDEST STOP JUMPDEST PUSH2 0x22A PUSH1 0x4 DUP1 CALLDATASIZE SUB DUP2 ADD SWAP1 PUSH2 0x225 SWAP2 SWAP1 PUSH2 0x1A8F JUMP JUMPDEST PUSH2 0x68F JUMP JUMPDEST PUSH1 0x40 MLOAD PUSH2 0x237 SWAP2 SWAP1 PUSH2 0x1AF9 JUMP JUMPDEST PUSH1 0x40 MLOAD DUP1 SWAP2 SUB SWAP1 RETURN JUMPDEST PUSH2 0x25A PUSH1 0x4 DUP1 CALLDATASIZE SUB DUP2 ADD SWAP1 PUSH2 0x255 SWAP2 SWAP1 PUSH2 0x1C3E JUMP JUMPDEST PUSH2 0x6A0 JUMP JUMPDEST STOP JUMPDEST PUSH2 0x276 PUSH1 0x4 DUP1 CALLDATASIZE SUB DUP2 ADD SWAP1 PUSH2 0x271 SWAP2 SWAP1 PUSH2 0x1C3E JUMP JUMPDEST PUSH2 0x755 JUMP JUMPDEST PUSH1 0x40 MLOAD PUSH2 0x283 SWAP2 SWAP1 PUSH2 0x1C69 JUMP JUMPDEST PUSH1 0x40 MLOAD DUP1 SWAP2 SUB SWAP1 RETURN JUMPDEST PUSH2 0x294 PUSH2 0x80B JUMP JUMPDEST PUSH1 0x40 MLOAD PUSH2 0x2A1 SWAP2 SWAP1 PUSH2 0x1C69 JUMP JUMPDEST PUSH1 0x40 MLOAD DUP1 SWAP2 SUB SWAP1 RETURN JUMPDEST PUSH2 0x2B2 PUSH2 0x811 JUMP JUMPDEST PUSH1 0x40 MLOAD PUSH2 0x2BF SWAP2 SWAP1 PUSH2 0x1A3C JUMP JUMPDEST PUSH1 0x40 MLOAD DUP1 SWAP2 SUB SWAP1 RETURN JUMPDEST PUSH2 0x2E2 PUSH1 0x4 DUP1 CALLDATASIZE SUB DUP2 ADD SWAP1 PUSH2 0x2DD SWAP2 SWAP1 PUSH2 0x1CAC JUMP JUMPDEST PUSH2 0x8A1 JUMP JUMPDEST STOP JUMPDEST PUSH2 0x2FE PUSH1 0x4 DUP1 CALLDATASIZE SUB DUP2 ADD SWAP1 PUSH2 0x2F9 SWAP2 SWAP1 PUSH2 0x1E16 JUMP JUMPDEST PUSH2 0x8B7 JUMP JUMPDEST STOP JUMPDEST PUSH2 0x31A PUSH1 0x4 DUP1 CALLDATASIZE SUB DUP2 ADD SWAP1 PUSH2 0x315 SWAP2 SWAP1 PUSH2 0x1A8F JUMP JUMPDEST PUSH2 0x8DC JUMP JUMPDEST PUSH1 0x40 MLOAD PUSH2 0x327 SWAP2 SWAP1 PUSH2 0x1A3C JUMP JUMPDEST PUSH1 0x40 MLOAD DUP1 SWAP2 SUB SWAP1 RETURN JUMPDEST PUSH2 0x34A PUSH1 0x4 DUP1 CALLDATASIZE SUB DUP2 ADD SWAP1 PUSH2 0x345 SWAP2 SWAP1 PUSH2 0x1E96 JUMP JUMPDEST PUSH2 0x942 JUMP JUMPDEST PUSH1 0x40 MLOAD PUSH2 0x357 SWAP2 SWAP1 PUSH2 0x19B3 JUMP JUMPDEST PUSH1 0x40 MLOAD DUP1 SWAP2 SUB SWAP1 RETURN JUMPDEST PUSH2 0x368 PUSH2 0x9D0 JUMP JUMPDEST PUSH1 0x40 MLOAD PUSH2 0x375 SWAP2 SWAP1 PUSH2 0x1AF9 JUMP JUMPDEST PUSH1 0x40 MLOAD DUP1 SWAP2 SUB SWAP1 RETURN JUMPDEST PUSH0 PUSH2 0x388 DUP3 PUSH2 0x9F5 JUMP JUMPDEST SWAP1 POP SWAP2 SWAP1 POP JUMP JUMPDEST PUSH1 0x60 PUSH0 DUP1 SLOAD PUSH2 0x39D SWAP1 PUSH2 0x1F01 JUMP JUMPDEST DUP1 PUSH1 0x1F ADD PUSH1 0x20 DUP1 SWAP2 DIV MUL PUSH1 0x20 ADD PUSH1 0x40 MLOAD SWAP1 DUP2 ADD PUSH1 0x40 MSTORE DUP1 SWAP3 SWAP2 SWAP1 DUP2 DUP2 MSTORE PUSH1 0x20 ADD DUP3 DUP1 SLOAD PUSH2 0x3C9 SWAP1 PUSH2 0x1F01 JUMP JUMPDEST DUP1 ISZERO PUSH2 0x414 JUMPI DUP1 PUSH1 0x1F LT PUSH2 0x3EB JUMPI PUSH2 0x100 DUP1 DUP4 SLOAD DIV MUL DUP4 MSTORE SWAP2 PUSH1 0x20 ADD SWAP2 PUSH2 0x414 JUMP JUMPDEST DUP3 ADD SWAP2 SWAP1 PUSH0 MSTORE PUSH1 0x20 PUSH0 KECCAK256 SWAP1 JUMPDEST DUP2 SLOAD DUP2 MSTORE SWAP1 PUSH1 0x1 ADD SWAP1 PUSH1 0x20 ADD DUP1 DUP4 GT PUSH2 0x3F7 JUMPI DUP3 SWAP1 SUB PUSH1 0x1F AND DUP3 ADD SWAP2 JUMPDEST POP POP POP POP POP SWAP1 POP SWAP1 JUMP JUMPDEST PUSH0 PUSH2 0x428 DUP3 PUSH2 0xA6E JUMP JUMPDEST POP PUSH2 0x432 DUP3 PUSH2 0xAF4 JUMP JUMPDEST SWAP1 POP SWAP2 SWAP1 POP JUMP JUMPDEST PUSH2 0x44B DUP3 DUP3 PUSH2 0x446 PUSH2 0xB2D JUMP JUMPDEST PUSH2 0xB34 JUMP JUMPDEST POP POP JUMP JUMPDEST PUSH0 PUSH20 0xFFFFFFFFFFFFFFFFFFFFFFFFFFFFFFFFFFFFFFFF AND DUP3 PUSH20 0xFFFFFFFFFFFFFFFFFFFFFFFFFFFFFFFFFFFFFFFF AND SUB PUSH2 0x4BF JUMPI PUSH0 PUSH1 0x40 MLOAD PUSH32 0x64A0AE9200000000000000000000000000000000000000000000000000000000 DUP2 MSTORE PUSH1 0x4 ADD PUSH2 0x4B6 SWAP2 SWAP1 PUSH2 0x1AF9 JUMP JUMPDEST PUSH1 0x40 MLOAD DUP1 SWAP2 SUB SWAP1 REVERT JUMPDEST PUSH0 PUSH2 0x4D2 DUP4 DUP4 PUSH2 0x4CD PUSH2 0xB2D JUMP JUMPDEST PUSH2 0xB46 JUMP JUMPDEST SWAP1 POP DUP4 PUSH20 0xFFFFFFFFFFFFFFFFFFFFFFFFFFFFFFFFFFFFFFFF AND DUP2 PUSH20 0xFFFFFFFFFFFFFFFFFFFFFFFFFFFFFFFFFFFFFFFF AND EQ PUSH2 0x548 JUMPI DUP4 DUP3 DUP3 PUSH1 0x40 MLOAD PUSH32 0x64283D7B00000000000000000000000000000000000000000000000000000000 DUP2 MSTORE PUSH1 0x4 ADD PUSH2 0x53F SWAP4 SWAP3 SWAP2 SWAP1 PUSH2 0x1F31 JUMP JUMPDEST PUSH1 0x40 MLOAD DUP1 SWAP2 SUB SWAP1 REVERT JUMPDEST POP POP POP POP JUMP JUMPDEST PUSH0 PUSH0 PUSH0 PUSH1 0x7 PUSH0 DUP7 DUP2 MSTORE PUSH1 0x20 ADD SWAP1 DUP2 MSTORE PUSH1 0x20 ADD PUSH0 KECCAK256 SWAP1 POP PUSH0 DUP2 PUSH0 ADD PUSH0 SWAP1 SLOAD SWAP1 PUSH2 0x100 EXP SWAP1 DIV PUSH20 0xFFFFFFFFFFFFFFFFFFFFFFFFFFFFFFFFFFFFFFFF AND SWAP1 POP PUSH0 DUP3 PUSH0 ADD PUSH1 0x14 SWAP1 SLOAD SWAP1 PUSH2 0x100 EXP SWAP1 DIV PUSH12 0xFFFFFFFFFFFFFFFFFFFFFFFF AND SWAP1 POP PUSH0 PUSH20 0xFFFFFFFFFFFFFFFFFFFFFFFFFFFFFFFFFFFFFFFF AND DUP3 PUSH20 0xFFFFFFFFFFFFFFFFFFFFFFFFFFFFFFFFFFFFFFFF AND SUB PUSH2 0x622 JUMPI PUSH1 0x6 PUSH0 ADD PUSH0 SWAP1 SLOAD SWAP1 PUSH2 0x100 EXP SWAP1 DIV PUSH20 0xFFFFFFFFFFFFFFFFFFFFFFFFFFFFFFFFFFFFFFFF AND SWAP2 POP PUSH1 0x6 PUSH0 ADD PUSH1 0x14 SWAP1 SLOAD SWAP1 PUSH2 0x100 EXP SWAP1 DIV PUSH12 0xFFFFFFFFFFFFFFFFFFFFFFFF AND SWAP1 POP JUMPDEST PUSH0 PUSH2 0x62B PUSH2 0xD51 JUMP JUMPDEST PUSH12 0xFFFFFFFFFFFFFFFFFFFFFFFF AND DUP3 PUSH12 0xFFFFFFFFFFFFFFFFFFFFFFFF AND DUP9 PUSH2 0x653 SWAP2 SWAP1 PUSH2 0x1F93 JUMP JUMPDEST PUSH2 0x65D SWAP2 SWAP1 PUSH2 0x2001 JUMP JUMPDEST SWAP1 POP DUP3 DUP2 SWAP6 POP SWAP6 POP POP POP POP POP SWAP3 POP SWAP3 SWAP1 POP JUMP JUMPDEST PUSH2 0x68A DUP4 DUP4 DUP4 PUSH1 0x40 MLOAD DUP1 PUSH1 0x20 ADD PUSH1 0x40 MSTORE DUP1 PUSH0 DUP2 MSTORE POP PUSH2 0x8B7 JUMP JUMPDEST POP POP POP JUMP JUMPDEST PUSH0 PUSH2 0x699 DUP3 PUSH2 0xA6E JUMP JUMPDEST SWAP1 POP SWAP2 SWAP1 POP JUMP JUMPDEST PUSH1 0x9 PUSH0 SWAP1 SLOAD SWAP1 PUSH2 0x100 EXP SWAP1 DIV PUSH20 0xFFFFFFFFFFFFFFFFFFFFFFFFFFFFFFFFFFFFFFFF AND PUSH20 0xFFFFFFFFFFFFFFFFFFFFFFFFFFFFFFFFFFFFFFFF AND CALLER PUSH20 0xFFFFFFFFFFFFFFFFFFFFFFFFFFFFFFFFFFFFFFFF AND EQ PUSH2 0x72F JUMPI PUSH1 0x40 MLOAD PUSH32 0x8C379A000000000000000000000000000000000000000000000000000000000 DUP2 MSTORE PUSH1 0x4 ADD PUSH2 0x726 SWAP1 PUSH2 0x207B JUMP JUMPDEST PUSH1 0x40 MLOAD DUP1 SWAP2 SUB SWAP1 REVERT JUMPDEST PUSH2 0x73B DUP2 PUSH1 0x8 SLOAD PUSH2 0xD5A JUMP JUMPDEST PUSH1 0x8 PUSH0 DUP2 SLOAD DUP1 SWAP3 SWAP2 SWAP1 PUSH2 0x74D SWAP1 PUSH2 0x2099 JUMP JUMPDEST SWAP2 SWAP1 POP SSTORE POP POP JUMP JUMPDEST PUSH0 PUSH0 PUSH20 0xFFFFFFFFFFFFFFFFFFFFFFFFFFFFFFFFFFFFFFFF AND DUP3 PUSH20 0xFFFFFFFFFFFFFFFFFFFFFFFFFFFFFFFFFFFFFFFF AND SUB PUSH2 0x7C6 JUMPI PUSH0 PUSH1 0x40 MLOAD PUSH32 0x89C62B6400000000000000000000000000000000000000000000000000000000 DUP2 MSTORE PUSH1 0x4 ADD PUSH2 0x7BD SWAP2 SWAP1 PUSH2 0x1AF9 JUMP JUMPDEST PUSH1 0x40 MLOAD DUP1 SWAP2 SUB SWAP1 REVERT JUMPDEST PUSH1 0x3 PUSH0 DUP4 PUSH20 0xFFFFFFFFFFFFFFFFFFFFFFFFFFFFFFFFFFFFFFFF AND PUSH20 0xFFFFFFFFFFFFFFFFFFFFFFFFFFFFFFFFFFFFFFFF AND DUP2 MSTORE PUSH1 0x20 ADD SWAP1 DUP2 MSTORE PUSH1 0x20 ADD PUSH0 KECCAK256 SLOAD SWAP1 POP SWAP2 SWAP1 POP JUMP JUMPDEST PUSH1 0x8 SLOAD DUP2 JUMP JUMPDEST PUSH1 0x60 PUSH1 0x1 DUP1 SLOAD PUSH2 0x820 SWAP1 PUSH2 0x1F01 JUMP JUMPDEST DUP1 PUSH1 0x1F ADD PUSH1 0x20 DUP1 SWAP2 DIV MUL PUSH1 0x20 ADD PUSH1 0x40 MLOAD SWAP1 DUP2 ADD PUSH1 0x40 MSTORE DUP1 SWAP3 SWAP2 SWAP1 DUP2 DUP2 MSTORE PUSH1 0x20 ADD DUP3 DUP1 SLOAD PUSH2 0x84C SWAP1 PUSH2 0x1F01 JUMP JUMPDEST DUP1 ISZERO PUSH2 0x897 JUMPI DUP1 PUSH1 0x1F LT PUSH2 0x86E JUMPI PUSH2 0x100 DUP1 DUP4 SLOAD DIV MUL DUP4 MSTORE SWAP2 PUSH1 0x20 ADD SWAP2 PUSH2 0x897 JUMP JUMPDEST DUP3 ADD SWAP2 SWAP1 PUSH0 MSTORE PUSH1 0x20 PUSH0 KECCAK256 SWAP1 JUMPDEST DUP2 SLOAD DUP2 MSTORE SWAP1 PUSH1 0x1 ADD SWAP1 PUSH1 0x20 ADD DUP1 DUP4 GT PUSH2 0x87A JUMPI DUP3 SWAP1 SUB PUSH1 0x1F AND DUP3 ADD SWAP2 JUMPDEST POP POP POP POP POP SWAP1 POP SWAP1 JUMP JUMPDEST PUSH2 0x8B3 PUSH2 0x8AC PUSH2 0xB2D JUMP JUMPDEST DUP4 DUP4 PUSH2 0xD77 JUMP JUMPDEST POP POP JUMP JUMPDEST PUSH2 0x8C2 DUP5 DUP5 DUP5 PUSH2 0x44F JUMP JUMPDEST PUSH2 0x8D6 PUSH2 0x8CD PUSH2 0xB2D JUMP JUMPDEST DUP6 DUP6 DUP6 DUP6 PUSH2 0xF50 JUMP JUMPDEST POP POP POP POP JUMP JUMPDEST PUSH1 0x60 PUSH2 0x8E7 DUP3 PUSH2 0xA6E JUMP JUMPDEST POP PUSH0 PUSH2 0x8F1 PUSH2 0x10FC JUMP JUMPDEST SWAP1 POP PUSH0 DUP2 MLOAD GT PUSH2 0x90F JUMPI PUSH1 0x40 MLOAD DUP1 PUSH1 0x20 ADD PUSH1 0x40 MSTORE DUP1 PUSH0 DUP2 MSTORE POP PUSH2 0x93A JUMP JUMPDEST DUP1 PUSH2 0x919 DUP5 PUSH2 0x1112 JUMP JUMPDEST PUSH1 0x40 MLOAD PUSH1 0x20 ADD PUSH2 0x92A SWAP3 SWAP2 SWAP1 PUSH2 0x211A JUMP JUMPDEST PUSH1 0x40 MLOAD PUSH1 0x20 DUP2 DUP4 SUB SUB DUP2 MSTORE SWAP1 PUSH1 0x40 MSTORE JUMPDEST SWAP2 POP POP SWAP2 SWAP1 POP JUMP JUMPDEST PUSH0 PUSH1 0x5 PUSH0 DUP5 PUSH20 0xFFFFFFFFFFFFFFFFFFFFFFFFFFFFFFFFFFFFFFFF AND PUSH20 0xFFFFFFFFFFFFFFFFFFFFFFFFFFFFFFFFFFFFFFFF AND DUP2 MSTORE PUSH1 0x20 ADD SWAP1 DUP2 MSTORE PUSH1 0x20 ADD PUSH0 KECCAK256 PUSH0 DUP4 PUSH20 0xFFFFFFFFFFFFFFFFFFFFFFFFFFFFFFFFFFFFFFFF AND PUSH20 0xFFFFFFFFFFFFFFFFFFFFFFFFFFFFFFFFFFFFFFFF AND DUP2 MSTORE PUSH1 0x20 ADD SWAP1 DUP2 MSTORE PUSH1 0x20 ADD PUSH0 KECCAK256 PUSH0 SWAP1 SLOAD SWAP1 PUSH2 0x100 EXP SWAP1 DIV PUSH1 0xFF AND SWAP1 POP SWAP3 SWAP2 POP POP JUMP JUMPDEST PUSH1 0x9 PUSH0 SWAP1 SLOAD SWAP1 PUSH2 0x100 EXP SWAP1 DIV PUSH20 0xFFFFFFFFFFFFFFFFFFFFFFFFFFFFFFFFFFFFFFFF AND DUP2 JUMP JUMPDEST PUSH0 PUSH32 0x2A55205A00000000000000000000000000000000000000000000000000000000 PUSH28 0xFFFFFFFFFFFFFFFFFFFFFFFFFFFFFFFFFFFFFFFFFFFFFFFFFFFFFFFF NOT AND DUP3 PUSH28 0xFFFFFFFFFFFFFFFFFFFFFFFFFFFFFFFFFFFFFFFFFFFFFFFFFFFFFFFF NOT AND EQ DUP1 PUSH2 0xA67 JUMPI POP PUSH2 0xA66 DUP3 PUSH2 0x11DC JUMP JUMPDEST JUMPDEST SWAP1 POP SWAP2 SWAP1 POP JUMP JUMPDEST PUSH0 PUSH0 PUSH2 0xA79 DUP4 PUSH2 0x12BD JUMP JUMPDEST SWAP1 POP PUSH0 PUSH20 0xFFFFFFFFFFFFFFFFFFFFFFFFFFFFFFFFFFFFFFFF AND DUP2 PUSH20 0xFFFFFFFFFFFFFFFFFFFFFFFFFFFFFFFFFFFFFFFF AND SUB PUSH2 0xAEB JUMPI DUP3 PUSH1 0x40 MLOAD PUSH32 0x7E27328900000000000000000000000000000000000000000000000000000000 DUP2 MSTORE PUSH1 0x4 ADD PUSH2 0xAE2 SWAP2 SWAP1 PUSH2 0x1C69 JUMP JUMPDEST PUSH1 0x40 MLOAD DUP1 SWAP2 SUB SWAP1 REVERT JUMPDEST DUP1 SWAP2 POP POP SWAP2 SWAP1 POP JUMP JUMPDEST PUSH0 PUSH1 0x4 PUSH0 DUP4 DUP2 MSTORE PUSH1 0x20 ADD SWAP1 DUP2 MSTORE PUSH1 0x20 ADD PUSH0 KECCAK256 PUSH0 SWAP1 SLOAD SWAP1 PUSH2 0x100 EXP SWAP1 DIV PUSH20 0xFFFFFFFFFFFFFFFFFFFFFFFFFFFFFFFFFFFFFFFF AND SWAP1 POP SWAP2 SWAP1 POP JUMP JUMPDEST PUSH0 CALLER SWAP1 POP SWAP1 JUMP JUMPDEST PUSH2 0xB41 DUP4 DUP4 DUP4 PUSH1 0x1 PUSH2 0x12F6 JUMP JUMPDEST POP POP POP JUMP JUMPDEST PUSH0 PUSH0 PUSH2 0xB51 DUP5 PUSH2 0x12BD JUMP JUMPDEST SWAP1 POP PUSH0 PUSH20 0xFFFFFFFFFFFFFFFFFFFFFFFFFFFFFFFFFFFFFFFF AND DUP4 PUSH20 0xFFFFFFFFFFFFFFFFFFFFFFFFFFFFFFFFFFFFFFFF AND EQ PUSH2 0xB92 JUMPI PUSH2 0xB91 DUP2 DUP5 DUP7 PUSH2 0x14B5 JUMP JUMPDEST JUMPDEST PUSH0 PUSH20 0xFFFFFFFFFFFFFFFFFFFFFFFFFFFFFFFFFFFFFFFF AND DUP2 PUSH20 0xFFFFFFFFFFFFFFFFFFFFFFFFFFFFFFFFFFFFFFFF AND EQ PUSH2 0xC1D JUMPI PUSH2 0xBD1 PUSH0 DUP6 PUSH0 PUSH0 PUSH2 0x12F6 JUMP JUMPDEST PUSH1 0x1 PUSH1 0x3 PUSH0 DUP4 PUSH20 0xFFFFFFFFFFFFFFFFFFFFFFFFFFFFFFFFFFFFFFFF AND PUSH20 0xFFFFFFFFFFFFFFFFFFFFFFFFFFFFFFFFFFFFFFFF AND DUP2 MSTORE PUSH1 0x20 ADD SWAP1 DUP2 MSTORE PUSH1 0x20 ADD PUSH0 KECCAK256 PUSH0 DUP3 DUP3 SLOAD SUB SWAP3 POP POP DUP2 SWAP1 SSTORE POP JUMPDEST PUSH0 PUSH20 0xFFFFFFFFFFFFFFFFFFFFFFFFFFFFFFFFFFFFFFFF AND DUP6 PUSH20 0xFFFFFFFFFFFFFFFFFFFFFFFFFFFFFFFFFFFFFFFF AND EQ PUSH2 0xC9C JUMPI PUSH1 0x1 PUSH1 0x3 PUSH0 DUP8 PUSH20 0xFFFFFFFFFFFFFFFFFFFFFFFFFFFFFFFFFFFFFFFF AND PUSH20 0xFFFFFFFFFFFFFFFFFFFFFFFFFFFFFFFFFFFFFFFF AND DUP2 MSTORE PUSH1 0x20 ADD SWAP1 DUP2 MSTORE PUSH1 0x20 ADD PUSH0 KECCAK256 PUSH0 DUP3 DUP3 SLOAD ADD SWAP3 POP POP DUP2 SWAP1 SSTORE POP JUMPDEST DUP5 PUSH1 0x2 PUSH0 DUP7 DUP2 MSTORE PUSH1 0x20 ADD SWAP1 DUP2 MSTORE PUSH1 0x20 ADD PUSH0 KECCAK256 PUSH0 PUSH2 0x100 EXP DUP2 SLOAD DUP2 PUSH20 0xFFFFFFFFFFFFFFFFFFFFFFFFFFFFFFFFFFFFFFFF MUL NOT AND SWAP1 DUP4 PUSH20 0xFFFFFFFFFFFFFFFFFFFFFFFFFFFFFFFFFFFFFFFF AND MUL OR SWAP1 SSTORE POP DUP4 DUP6 PUSH20 0xFFFFFFFFFFFFFFFFFFFFFFFFFFFFFFFFFFFFFFFF AND DUP3 PUSH20 0xFFFFFFFFFFFFFFFFFFFFFFFFFFFFFFFFFFFFFFFF AND PUSH32 0xDDF252AD1BE2C89B69C2B068FC378DAA952BA7F163C4A11628F55A4DF523B3EF PUSH1 0x40 MLOAD PUSH1 0x40 MLOAD DUP1 SWAP2 SUB SWAP1 LOG4 DUP1 SWAP2 POP POP SWAP4 SWAP3 POP POP POP JUMP JUMPDEST PUSH0 PUSH2 0x2710 SWAP1 POP SWAP1 JUMP JUMPDEST PUSH2 0xD73 DUP3 DUP3 PUSH1 0x40 MLOAD DUP1 PUSH1 0x20 ADD PUSH1 0x40 MSTORE DUP1 PUSH0 DUP2 MSTORE POP PUSH2 0x1578 JUMP JUMPDEST POP POP JUMP JUMPDEST PUSH0 PUSH20 0xFFFFFFFFFFFFFFFFFFFFFFFFFFFFFFFFFFFFFFFF AND DUP4 PUSH20 0xFFFFFFFFFFFFFFFFFFFFFFFFFFFFFFFFFFFFFFFF AND SUB PUSH2 0xDE7 JUMPI PUSH0 PUSH1 0x40 MLOAD PUSH32 0xA9FBF51F00000000000000000000000000000000000000000000000000000000 DUP2 MSTORE PUSH1 0x4 ADD PUSH2 0xDDE SWAP2 SWAP1 PUSH2 0x1AF9 JUMP JUMPDEST PUSH1 0x40 MLOAD DUP1 SWAP2 SUB SWAP1 REVERT JUMPDEST PUSH0 PUSH20 0xFFFFFFFFFFFFFFFFFFFFFFFFFFFFFFFFFFFFFFFF AND DUP3 PUSH20 0xFFFFFFFFFFFFFFFFFFFFFFFFFFFFFFFFFFFFFFFF AND SUB PUSH2 0xE57 JUMPI DUP2 PUSH1 0x40 MLOAD PUSH32 0x5B08BA1800000000000000000000000000000000000000000000000000000000 DUP2 MSTORE PUSH1 0x4 ADD PUSH2 0xE4E SWAP2 SWAP1 PUSH2 0x1AF9 JUMP JUMPDEST PUSH1 0x40 MLOAD DUP1 SWAP2 SUB SWAP1 REVERT JUMPDEST DUP1 PUSH1 0x5 PUSH0 DUP6 PUSH20 0xFFFFFFFFFFFFFFFFFFFFFFFFFFFFFFFFFFFFFFFF AND PUSH20 0xFFFFFFFFFFFFFFFFFFFFFFFFFFFFFFFFFFFFFFFF AND DUP2 MSTORE PUSH1 0x20 ADD SWAP1 DUP2 MSTORE PUSH1 0x20 ADD PUSH0 KECCAK256 PUSH0 DUP5 PUSH20 0xFFFFFFFFFFFFFFFFFFFFFFFFFFFFFFFFFFFFFFFF AND PUSH20 0xFFFFFFFFFFFFFFFFFFFFFFFFFFFFFFFFFFFFFFFF AND DUP2 MSTORE PUSH1 0x20 ADD SWAP1 DUP2 MSTORE PUSH1 0x20 ADD PUSH0 KECCAK256 PUSH0 PUSH2 0x100 EXP DUP2 SLOAD DUP2 PUSH1 0xFF MUL NOT AND SWAP1 DUP4 ISZERO ISZERO MUL OR SWAP1 SSTORE POP DUP2 PUSH20 0xFFFFFFFFFFFFFFFFFFFFFFFFFFFFFFFFFFFFFFFF AND DUP4 PUSH20 0xFFFFFFFFFFFFFFFFFFFFFFFFFFFFFFFFFFFFFFFF AND PUSH32 0x17307EAB39AB6107E8899845AD3D59BD9653F200F220920489CA2B5937696C31 DUP4 PUSH1 0x40 MLOAD PUSH2 0xF43 SWAP2 SWAP1 PUSH2 0x19B3 JUMP JUMPDEST PUSH1 0x40 MLOAD DUP1 SWAP2 SUB SWAP1 LOG3 POP POP POP JUMP JUMPDEST PUSH0 DUP4 PUSH20 0xFFFFFFFFFFFFFFFFFFFFFFFFFFFFFFFFFFFFFFFF AND EXTCODESIZE GT ISZERO PUSH2 0x10F5 JUMPI DUP3 PUSH20 0xFFFFFFFFFFFFFFFFFFFFFFFFFFFFFFFFFFFFFFFF AND PUSH4 0x150B7A02 DUP7 DUP7 DUP6 DUP6 PUSH1 0x40 MLOAD DUP6 PUSH4 0xFFFFFFFF AND PUSH1 0xE0 SHL DUP2 MSTORE PUSH1 0x4 ADD PUSH2 0xFAE SWAP5 SWAP4 SWAP3 SWAP2 SWAP1 PUSH2 0x218F JUMP JUMPDEST PUSH1 0x20 PUSH1 0x40 MLOAD DUP1 DUP4 SUB DUP2 PUSH0 DUP8 GAS CALL SWAP3 POP POP POP DUP1 ISZERO PUSH2 0xFE9 JUMPI POP PUSH1 0x40 MLOAD RETURNDATASIZE PUSH1 0x1F NOT PUSH1 0x1F DUP3 ADD AND DUP3 ADD DUP1 PUSH1 0x40 MSTORE POP DUP2 ADD SWAP1 PUSH2 0xFE6 SWAP2 SWAP1 PUSH2 0x21ED JUMP JUMPDEST PUSH1 0x1 JUMPDEST PUSH2 0x106A JUMPI RETURNDATASIZE DUP1 PUSH0 DUP2 EQ PUSH2 0x1017 JUMPI PUSH1 0x40 MLOAD SWAP2 POP PUSH1 0x1F NOT PUSH1 0x3F RETURNDATASIZE ADD AND DUP3 ADD PUSH1 0x40 MSTORE RETURNDATASIZE DUP3 MSTORE RETURNDATASIZE PUSH0 PUSH1 0x20 DUP5 ADD RETURNDATACOPY PUSH2 0x101C JUMP JUMPDEST PUSH1 0x60 SWAP2 POP JUMPDEST POP PUSH0 DUP2 MLOAD SUB PUSH2 0x1062 JUMPI DUP4 PUSH1 0x40 MLOAD PUSH32 0x64A0AE9200000000000000000000000000000000000000000000000000000000 DUP2 MSTORE PUSH1 0x4 ADD PUSH2 0x1059 SWAP2 SWAP1 PUSH2 0x1AF9 JUMP JUMPDEST PUSH1 0x40 MLOAD DUP1 SWAP2 SUB SWAP1 REVERT JUMPDEST DUP1 MLOAD PUSH1 0x20 DUP3 ADD REVERT JUMPDEST PUSH4 0x150B7A02 PUSH1 0xE0 SHL PUSH28 0xFFFFFFFFFFFFFFFFFFFFFFFFFFFFFFFFFFFFFFFFFFFFFFFFFFFFFFFF NOT AND DUP2 PUSH28 0xFFFFFFFFFFFFFFFFFFFFFFFFFFFFFFFFFFFFFFFFFFFFFFFFFFFFFFFF NOT AND EQ PUSH2 0x10F3 JUMPI DUP4 PUSH1 0x40 MLOAD PUSH32 0x64A0AE9200000000000000000000000000000000000000000000000000000000 DUP2 MSTORE PUSH1 0x4 ADD PUSH2 0x10EA SWAP2 SWAP1 PUSH2 0x1AF9 JUMP JUMPDEST PUSH1 0x40 MLOAD DUP1 SWAP2 SUB SWAP1 REVERT JUMPDEST POP JUMPDEST POP POP POP POP POP JUMP JUMPDEST PUSH1 0x60 PUSH1 0x40 MLOAD DUP1 PUSH1 0x20 ADD PUSH1 0x40 MSTORE DUP1 PUSH0 DUP2 MSTORE POP SWAP1 POP SWAP1 JUMP JUMPDEST PUSH1 0x60 PUSH0 PUSH1 0x1 PUSH2 0x1120 DUP5 PUSH2 0x159B JUMP JUMPDEST ADD SWAP1 POP PUSH0 DUP2 PUSH8 0xFFFFFFFFFFFFFFFF DUP2 GT ISZERO PUSH2 0x113E JUMPI PUSH2 0x113D PUSH2 0x1CF2 JUMP JUMPDEST JUMPDEST PUSH1 0x40 MLOAD SWAP1 DUP1 DUP3 MSTORE DUP1 PUSH1 0x1F ADD PUSH1 0x1F NOT AND PUSH1 0x20 ADD DUP3 ADD PUSH1 0x40 MSTORE DUP1 ISZERO PUSH2 0x1170 JUMPI DUP2 PUSH1 0x20 ADD PUSH1 0x1 DUP3 MUL DUP1 CALLDATASIZE DUP4 CALLDATACOPY DUP1 DUP3 ADD SWAP2 POP POP SWAP1 POP JUMPDEST POP SWAP1 POP PUSH0 DUP3 PUSH1 0x20 DUP4 ADD ADD SWAP1 POP JUMPDEST PUSH1 0x1 ISZERO PUSH2 0x11D1 JUMPI DUP1 DUP1 PUSH1 0x1 SWAP1 SUB SWAP2 POP POP PUSH32 0x3031323334353637383961626364656600000000000000000000000000000000 PUSH1 0xA DUP7 MOD BYTE DUP2 MSTORE8 PUSH1 0xA DUP6 DUP2 PUSH2 0x11C6 JUMPI PUSH2 0x11C5 PUSH2 0x1FD4 JUMP JUMPDEST JUMPDEST DIV SWAP5 POP PUSH0 DUP6 SUB PUSH2 0x117D JUMPI JUMPDEST DUP2 SWAP4 POP POP POP POP SWAP2 SWAP1 POP JUMP JUMPDEST PUSH0 PUSH32 0x80AC58CD00000000000000000000000000000000000000000000000000000000 PUSH28 0xFFFFFFFFFFFFFFFFFFFFFFFFFFFFFFFFFFFFFFFFFFFFFFFFFFFFFFFF NOT AND DUP3 PUSH28 0xFFFFFFFFFFFFFFFFFFFFFFFFFFFFFFFFFFFFFFFFFFFFFFFFFFFFFFFF NOT AND EQ DUP1 PUSH2 0x12A6 JUMPI POP PUSH32 0x5B5E139F00000000000000000000000000000000000000000000000000000000 PUSH28 0xFFFFFFFFFFFFFFFFFFFFFFFFFFFFFFFFFFFFFFFFFFFFFFFFFFFFFFFF NOT AND DUP3 PUSH28 0xFFFFFFFFFFFFFFFFFFFFFFFFFFFFFFFFFFFFFFFFFFFFFFFFFFFFFFFF NOT AND EQ JUMPDEST DUP1 PUSH2 0x12B6 JUMPI POP PUSH2 0x12B5 DUP3 PUSH2 0x16EC JUMP JUMPDEST JUMPDEST SWAP1 POP SWAP2 SWAP1 POP JUMP JUMPDEST PUSH0 PUSH1 0x2 PUSH0 DUP4 DUP2 MSTORE PUSH1 0x20 ADD SWAP1 DUP2 MSTORE PUSH1 0x20 ADD PUSH0 KECCAK256 PUSH0 SWAP1 SLOAD SWAP1 PUSH2 0x100 EXP SWAP1 DIV PUSH20 0xFFFFFFFFFFFFFFFFFFFFFFFFFFFFFFFFFFFFFFFF AND SWAP1 POP SWAP2 SWAP1 POP JUMP JUMPDEST DUP1 DUP1 PUSH2 0x132E JUMPI POP PUSH0 PUSH20 0xFFFFFFFFFFFFFFFFFFFFFFFFFFFFFFFFFFFFFFFF AND DUP3 PUSH20 0xFFFFFFFFFFFFFFFFFFFFFFFFFFFFFFFFFFFFFFFF AND EQ ISZERO JUMPDEST ISZERO PUSH2 0x1460 JUMPI PUSH0 PUSH2 0x133D DUP5 PUSH2 0xA6E JUMP JUMPDEST SWAP1 POP PUSH0 PUSH20 0xFFFFFFFFFFFFFFFFFFFFFFFFFFFFFFFFFFFFFFFF AND DUP4 PUSH20 0xFFFFFFFFFFFFFFFFFFFFFFFFFFFFFFFFFFFFFFFF AND EQ ISZERO DUP1 ISZERO PUSH2 0x13A7 JUMPI POP DUP3 PUSH20 0xFFFFFFFFFFFFFFFFFFFFFFFFFFFFFFFFFFFFFFFF AND DUP2 PUSH20 0xFFFFFFFFFFFFFFFFFFFFFFFFFFFFFFFFFFFFFFFF AND EQ ISZERO JUMPDEST DUP1 ISZERO PUSH2 0x13BA JUMPI POP PUSH2 0x13B8 DUP2 DUP5 PUSH2 0x942 JUMP JUMPDEST ISZERO JUMPDEST ISZERO PUSH2 0x13FC JUMPI DUP3 PUSH1 0x40 MLOAD PUSH32 0xA9FBF51F00000000000000000000000000000000000000000000000000000000 DUP2 MSTORE PUSH1 0x4 ADD PUSH2 0x13F3 SWAP2 SWAP1 PUSH2 0x1AF9 JUMP JUMPDEST PUSH1 0x40 MLOAD DUP1 SWAP2 SUB SWAP1 REVERT JUMPDEST DUP2 ISZERO PUSH2 0x145E JUMPI DUP4 DUP6 PUSH20 0xFFFFFFFFFFFFFFFFFFFFFFFFFFFFFFFFFFFFFFFF AND DUP3 PUSH20 0xFFFFFFFFFFFFFFFFFFFFFFFFFFFFFFFFFFFFFFFF AND PUSH32 0x8C5BE1E5EBEC7D5BD14F71427D1E84F3DD0314C0F7B2291E5B200AC8C7C3B925 PUSH1 0x40 MLOAD PUSH1 0x40 MLOAD DUP1 SWAP2 SUB SWAP1 LOG4 JUMPDEST POP JUMPDEST DUP4 PUSH1 0x4 PUSH0 DUP6 DUP2 MSTORE PUSH1 0x20 ADD SWAP1 DUP2 MSTORE PUSH1 0x20 ADD PUSH0 KECCAK256 PUSH0 PUSH2 0x100 EXP DUP2 SLOAD DUP2 PUSH20 0xFFFFFFFFFFFFFFFFFFFFFFFFFFFFFFFFFFFFFFFF MUL NOT AND SWAP1 DUP4 PUSH20 0xFFFFFFFFFFFFFFFFFFFFFFFFFFFFFFFFFFFFFFFF AND MUL OR SWAP1 SSTORE POP POP POP POP POP JUMP JUMPDEST PUSH2 0x14C0 DUP4 DUP4 DUP4 PUSH2 0x1755 JUMP JUMPDEST PUSH2 0x1573 JUMPI PUSH0 PUSH20 0xFFFFFFFFFFFFFFFFFFFFFFFFFFFFFFFFFFFFFFFF AND DUP4 PUSH20 0xFFFFFFFFFFFFFFFFFFFFFFFFFFFFFFFFFFFFFFFF AND SUB PUSH2 0x1534 JUMPI DUP1 PUSH1 0x40 MLOAD PUSH32 0x7E27328900000000000000000000000000000000000000000000000000000000 DUP2 MSTORE PUSH1 0x4 ADD PUSH2 0x152B SWAP2 SWAP1 PUSH2 0x1C69 JUMP JUMPDEST PUSH1 0x40 MLOAD DUP1 SWAP2 SUB SWAP1 REVERT JUMPDEST DUP2 DUP2 PUSH1 0x40 MLOAD PUSH32 0x177E802F00000000000000000000000000000000000000000000000000000000 DUP2 MSTORE PUSH1 0x4 ADD PUSH2 0x156A SWAP3 SWAP2 SWAP1 PUSH2 0x1C17 JUMP JUMPDEST PUSH1 0x40 MLOAD DUP1 SWAP2 SUB SWAP1 REVERT JUMPDEST POP POP POP JUMP JUMPDEST PUSH2 0x1582 DUP4 DUP4 PUSH2 0x1815 JUMP JUMPDEST PUSH2 0x1596 PUSH2 0x158D PUSH2 0xB2D JUMP JUMPDEST PUSH0 DUP6 DUP6 DUP6 PUSH2 0xF50 JUMP JUMPDEST POP POP POP JUMP JUMPDEST PUSH0 PUSH0 PUSH0 SWAP1 POP PUSH27 0x184F03E93FF9F4DAA797ED6E38ED64BF6A1F010000000000000000 DUP4 LT PUSH2 0x15F7 JUMPI PUSH27 0x184F03E93FF9F4DAA797ED6E38ED64BF6A1F010000000000000000 DUP4 DUP2 PUSH2 0x15ED JUMPI PUSH2 0x15EC PUSH2 0x1FD4 JUMP JUMPDEST JUMPDEST DIV SWAP3 POP PUSH1 0x40 DUP2 ADD SWAP1 POP JUMPDEST PUSH14 0x4EE2D6D415B85ACEF8100000000 DUP4 LT PUSH2 0x1634 JUMPI PUSH14 0x4EE2D6D415B85ACEF8100000000 DUP4 DUP2 PUSH2 0x162A JUMPI PUSH2 0x1629 PUSH2 0x1FD4 JUMP JUMPDEST JUMPDEST DIV SWAP3 POP PUSH1 0x20 DUP2 ADD SWAP1 POP JUMPDEST PUSH7 0x2386F26FC10000 DUP4 LT PUSH2 0x1663 JUMPI PUSH7 0x2386F26FC10000 DUP4 DUP2 PUSH2 0x1659 JUMPI PUSH2 0x1658 PUSH2 0x1FD4 JUMP JUMPDEST JUMPDEST DIV SWAP3 POP PUSH1 0x10 DUP2 ADD SWAP1 POP JUMPDEST PUSH4 0x5F5E100 DUP4 LT PUSH2 0x168C JUMPI PUSH4 0x5F5E100 DUP4 DUP2 PUSH2 0x1682 JUMPI PUSH2 0x1681 PUSH2 0x1FD4 JUMP JUMPDEST JUMPDEST DIV SWAP3 POP PUSH1 0x8 DUP2 ADD SWAP1 POP JUMPDEST PUSH2 0x2710 DUP4 LT PUSH2 0x16B1 JUMPI PUSH2 0x2710 DUP4 DUP2 PUSH2 0x16A7 JUMPI PUSH2 0x16A6 PUSH2 0x1FD4 JUMP JUMPDEST JUMPDEST DIV SWAP3 POP PUSH1 0x4 DUP2 ADD SWAP1 POP JUMPDEST PUSH1 0x64 DUP4 LT PUSH2 0x16D4 JUMPI PUSH1 0x64 DUP4 DUP2 PUSH2 0x16CA JUMPI PUSH2 0x16C9 PUSH2 0x1FD4 JUMP JUMPDEST JUMPDEST DIV SWAP3 POP PUSH1 0x2 DUP2 ADD SWAP1 POP JUMPDEST PUSH1 0xA DUP4 LT PUSH2 0x16E3 JUMPI PUSH1 0x1 DUP2 ADD SWAP1 POP JUMPDEST DUP1 SWAP2 POP POP SWAP2 SWAP1 POP JUMP JUMPDEST PUSH0 PUSH32 0x1FFC9A700000000000000000000000000000000000000000000000000000000 PUSH28 0xFFFFFFFFFFFFFFFFFFFFFFFFFFFFFFFFFFFFFFFFFFFFFFFFFFFFFFFF NOT AND DUP3 PUSH28 0xFFFFFFFFFFFFFFFFFFFFFFFFFFFFFFFFFFFFFFFFFFFFFFFFFFFFFFFF NOT AND EQ SWAP1 POP SWAP2 SWAP1 POP JUMP JUMPDEST PUSH0 PUSH0 PUSH20 0xFFFFFFFFFFFFFFFFFFFFFFFFFFFFFFFFFFFFFFFF AND DUP4 PUSH20 0xFFFFFFFFFFFFFFFFFFFFFFFFFFFFFFFFFFFFFFFF AND EQ ISZERO DUP1 ISZERO PUSH2 0x180C JUMPI POP DUP3 PUSH20 0xFFFFFFFFFFFFFFFFFFFFFFFFFFFFFFFFFFFFFFFF AND DUP5 PUSH20 0xFFFFFFFFFFFFFFFFFFFFFFFFFFFFFFFFFFFFFFFF AND EQ DUP1 PUSH2 0x17CD JUMPI POP PUSH2 0x17CC DUP5 DUP5 PUSH2 0x942 JUMP JUMPDEST JUMPDEST DUP1 PUSH2 0x180B JUMPI POP DUP3 PUSH20 0xFFFFFFFFFFFFFFFFFFFFFFFFFFFFFFFFFFFFFFFF AND PUSH2 0x17F3 DUP4 PUSH2 0xAF4 JUMP JUMPDEST PUSH20 0xFFFFFFFFFFFFFFFFFFFFFFFFFFFFFFFFFFFFFFFF AND EQ JUMPDEST JUMPDEST SWAP1 POP SWAP4 SWAP3 POP POP POP JUMP JUMPDEST PUSH0 PUSH20 0xFFFFFFFFFFFFFFFFFFFFFFFFFFFFFFFFFFFFFFFF AND DUP3 PUSH20 0xFFFFFFFFFFFFFFFFFFFFFFFFFFFFFFFFFFFFFFFF AND SUB PUSH2 0x1885 JUMPI PUSH0 PUSH1 0x40 MLOAD PUSH32 0x64A0AE9200000000000000000000000000000000000000000000000000000000 DUP2 MSTORE PUSH1 0x4 ADD PUSH2 0x187C SWAP2 SWAP1 PUSH2 0x1AF9 JUMP JUMPDEST PUSH1 0x40 MLOAD DUP1 SWAP2 SUB SWAP1 REVERT JUMPDEST PUSH0 PUSH2 0x1891 DUP4 DUP4 PUSH0 PUSH2 0xB46 JUMP JUMPDEST SWAP1 POP PUSH0 PUSH20 0xFFFFFFFFFFFFFFFFFFFFFFFFFFFFFFFFFFFFFFFF AND DUP2 PUSH20 0xFFFFFFFFFFFFFFFFFFFFFFFFFFFFFFFFFFFFFFFF AND EQ PUSH2 0x1903 JUMPI PUSH0 PUSH1 0x40 MLOAD PUSH32 0x73C6AC6E00000000000000000000000000000000000000000000000000000000 DUP2 MSTORE PUSH1 0x4 ADD PUSH2 0x18FA SWAP2 SWAP1 PUSH2 0x1AF9 JUMP JUMPDEST PUSH1 0x40 MLOAD DUP1 SWAP2 SUB SWAP1 REVERT JUMPDEST POP POP POP JUMP JUMPDEST PUSH0 PUSH1 0x40 MLOAD SWAP1 POP SWAP1 JUMP JUMPDEST PUSH0 PUSH0 REVERT JUMPDEST PUSH0 PUSH0 REVERT JUMPDEST PUSH0 PUSH32 0xFFFFFFFF00000000000000000000000000000000000000000000000000000000 DUP3 AND SWAP1 POP SWAP2 SWAP1 POP JUMP JUMPDEST PUSH2 0x194D DUP2 PUSH2 0x1919 JUMP JUMPDEST DUP2 EQ PUSH2 0x1957 JUMPI PUSH0 PUSH0 REVERT JUMPDEST POP JUMP JUMPDEST PUSH0 DUP2 CALLDATALOAD SWAP1 POP PUSH2 0x1968 DUP2 PUSH2 0x1944 JUMP JUMPDEST SWAP3 SWAP2 POP POP JUMP JUMPDEST PUSH0 PUSH1 0x20 DUP3 DUP5 SUB SLT ISZERO PUSH2 0x1983 JUMPI PUSH2 0x1982 PUSH2 0x1911 JUMP JUMPDEST JUMPDEST PUSH0 PUSH2 0x1990 DUP5 DUP3 DUP6 ADD PUSH2 0x195A JUMP JUMPDEST SWAP2 POP POP SWAP3 SWAP2 POP POP JUMP JUMPDEST PUSH0 DUP2 ISZERO ISZERO SWAP1 POP SWAP2 SWAP1 POP JUMP JUMPDEST PUSH2 0x19AD DUP2 PUSH2 0x1999 JUMP JUMPDEST DUP3 MSTORE POP POP JUMP JUMPDEST PUSH0 PUSH1 0x20 DUP3 ADD SWAP1 POP PUSH2 0x19C6 PUSH0 DUP4 ADD DUP5 PUSH2 0x19A4 JUMP JUMPDEST SWAP3 SWAP2 POP POP JUMP JUMPDEST PUSH0 DUP2 MLOAD SWAP1 POP SWAP2 SWAP1 POP JUMP JUMPDEST PUSH0 DUP3 DUP3 MSTORE PUSH1 0x20 DUP3 ADD SWAP1 POP SWAP3 SWAP2 POP POP JUMP JUMPDEST DUP3 DUP2 DUP4 MCOPY PUSH0 DUP4 DUP4 ADD MSTORE POP POP POP JUMP JUMPDEST PUSH0 PUSH1 0x1F NOT PUSH1 0x1F DUP4 ADD AND SWAP1 POP SWAP2 SWAP1 POP JUMP JUMPDEST PUSH0 PUSH2 0x1A0E DUP3 PUSH2 0x19CC JUMP JUMPDEST PUSH2 0x1A18 DUP2 DUP6 PUSH2 0x19D6 JUMP JUMPDEST SWAP4 POP PUSH2 0x1A28 DUP2 DUP6 PUSH1 0x20 DUP7 ADD PUSH2 0x19E6 JUMP JUMPDEST PUSH2 0x1A31 DUP2 PUSH2 0x19F4 JUMP JUMPDEST DUP5 ADD SWAP2 POP POP SWAP3 SWAP2 POP POP JUMP JUMPDEST PUSH0 PUSH1 0x20 DUP3 ADD SWAP1 POP DUP2 DUP2 SUB PUSH0 DUP4 ADD MSTORE PUSH2 0x1A54 DUP2 DUP5 PUSH2 0x1A04 JUMP JUMPDEST SWAP1 POP SWAP3 SWAP2 POP POP JUMP JUMPDEST PUSH0 DUP2 SWAP1 POP SWAP2 SWAP1 POP JUMP JUMPDEST PUSH2 0x1A6E DUP2 PUSH2 0x1A5C JUMP JUMPDEST DUP2 EQ PUSH2 0x1A78 JUMPI PUSH0 PUSH0 REVERT JUMPDEST POP JUMP JUMPDEST PUSH0 DUP2 CALLDATALOAD SWAP1 POP PUSH2 0x1A89 DUP2 PUSH2 0x1A65 JUMP JUMPDEST SWAP3 SWAP2 POP POP JUMP JUMPDEST PUSH0 PUSH1 0x20 DUP3 DUP5 SUB SLT ISZERO PUSH2 0x1AA4 JUMPI PUSH2 0x1AA3 PUSH2 0x1911 JUMP JUMPDEST JUMPDEST PUSH0 PUSH2 0x1AB1 DUP5 DUP3 DUP6 ADD PUSH2 0x1A7B JUMP JUMPDEST SWAP2 POP POP SWAP3 SWAP2 POP POP JUMP JUMPDEST PUSH0 PUSH20 0xFFFFFFFFFFFFFFFFFFFFFFFFFFFFFFFFFFFFFFFF DUP3 AND SWAP1 POP SWAP2 SWAP1 POP JUMP JUMPDEST PUSH0 PUSH2 0x1AE3 DUP3 PUSH2 0x1ABA JUMP JUMPDEST SWAP1 POP SWAP2 SWAP1 POP JUMP JUMPDEST PUSH2 0x1AF3 DUP2 PUSH2 0x1AD9 JUMP JUMPDEST DUP3 MSTORE POP POP JUMP JUMPDEST PUSH0 PUSH1 0x20 DUP3 ADD SWAP1 POP PUSH2 0x1B0C PUSH0 DUP4 ADD DUP5 PUSH2 0x1AEA JUMP JUMPDEST SWAP3 SWAP2 POP POP JUMP JUMPDEST PUSH2 0x1B1B DUP2 PUSH2 0x1AD9 JUMP JUMPDEST DUP2 EQ PUSH2 0x1B25 JUMPI PUSH0 PUSH0 REVERT JUMPDEST POP JUMP JUMPDEST PUSH0 DUP2 CALLDATALOAD SWAP1 POP PUSH2 0x1B36 DUP2 PUSH2 0x1B12 JUMP JUMPDEST SWAP3 SWAP2 POP POP JUMP JUMPDEST PUSH0 PUSH0 PUSH1 0x40 DUP4 DUP6 SUB SLT ISZERO PUSH2 0x1B52 JUMPI PUSH2 0x1B51 PUSH2 0x1911 JUMP JUMPDEST JUMPDEST PUSH0 PUSH2 0x1B5F DUP6 DUP3 DUP7 ADD PUSH2 0x1B28 JUMP JUMPDEST SWAP3 POP POP PUSH1 0x20 PUSH2 0x1B70 DUP6 DUP3 DUP7 ADD PUSH2 0x1A7B JUMP JUMPDEST SWAP2 POP POP SWAP3 POP SWAP3 SWAP1 POP JUMP JUMPDEST PUSH0 PUSH0 PUSH0 PUSH1 0x60 DUP5 DUP7 SUB SLT ISZERO PUSH2 0x1B91 JUMPI PUSH2 0x1B90 PUSH2 0x1911 JUMP JUMPDEST JUMPDEST PUSH0 PUSH2 0x1B9E DUP7 DUP3 DUP8 ADD PUSH2 0x1B28 JUMP JUMPDEST SWAP4 POP POP PUSH1 0x20 PUSH2 0x1BAF DUP7 DUP3 DUP8 ADD PUSH2 0x1B28 JUMP JUMPDEST SWAP3 POP POP PUSH1 0x40 PUSH2 0x1BC0 DUP7 DUP3 DUP8 ADD PUSH2 0x1A7B JUMP JUMPDEST SWAP2 POP POP SWAP3 POP SWAP3 POP SWAP3 JUMP JUMPDEST PUSH0 PUSH0 PUSH1 0x40 DUP4 DUP6 SUB SLT ISZERO PUSH2 0x1BE0 JUMPI PUSH2 0x1BDF PUSH2 0x1911 JUMP JUMPDEST JUMPDEST PUSH0 PUSH2 0x1BED DUP6 DUP3 DUP7 ADD PUSH2 0x1A7B JUMP JUMPDEST SWAP3 POP POP PUSH1 0x20 PUSH2 0x1BFE DUP6 DUP3 DUP7 ADD PUSH2 0x1A7B JUMP JUMPDEST SWAP2 POP POP SWAP3 POP SWAP3 SWAP1 POP JUMP JUMPDEST PUSH2 0x1C11 DUP2 PUSH2 0x1A5C JUMP JUMPDEST DUP3 MSTORE POP POP JUMP JUMPDEST PUSH0 PUSH1 0x40 DUP3 ADD SWAP1 POP PUSH2 0x1C2A PUSH0 DUP4 ADD DUP6 PUSH2 0x1AEA JUMP JUMPDEST PUSH2 0x1C37 PUSH1 0x20 DUP4 ADD DUP5 PUSH2 0x1C08 JUMP JUMPDEST SWAP4 SWAP3 POP POP POP JUMP JUMPDEST PUSH0 PUSH1 0x20 DUP3 DUP5 SUB SLT ISZERO PUSH2 0x1C53 JUMPI PUSH2 0x1C52 PUSH2 0x1911 JUMP JUMPDEST JUMPDEST PUSH0 PUSH2 0x1C60 DUP5 DUP3 DUP6 ADD PUSH2 0x1B28 JUMP JUMPDEST SWAP2 POP POP SWAP3 SWAP2 POP POP JUMP JUMPDEST PUSH0 PUSH1 0x20 DUP3 ADD SWAP1 POP PUSH2 0x1C7C PUSH0 DUP4 ADD DUP5 PUSH2 0x1C08 JUMP JUMPDEST SWAP3 SWAP2 POP POP JUMP JUMPDEST PUSH2 0x1C8B DUP2 PUSH2 0x1999 JUMP JUMPDEST DUP2 EQ PUSH2 0x1C95 JUMPI PUSH0 PUSH0 REVERT JUMPDEST POP JUMP JUMPDEST PUSH0 DUP2 CALLDATALOAD SWAP1 POP PUSH2 0x1CA6 DUP2 PUSH2 0x1C82 JUMP JUMPDEST SWAP3 SWAP2 POP POP JUMP JUMPDEST PUSH0 PUSH0 PUSH1 0x40 DUP4 DUP6 SUB SLT ISZERO PUSH2 0x1CC2 JUMPI PUSH2 0x1CC1 PUSH2 0x1911 JUMP JUMPDEST JUMPDEST PUSH0 PUSH2 0x1CCF DUP6 DUP3 DUP7 ADD PUSH2 0x1B28 JUMP JUMPDEST SWAP3 POP POP PUSH1 0x20 PUSH2 0x1CE0 DUP6 DUP3 DUP7 ADD PUSH2 0x1C98 JUMP JUMPDEST SWAP2 POP POP SWAP3 POP SWAP3 SWAP1 POP JUMP JUMPDEST PUSH0 PUSH0 REVERT JUMPDEST PUSH0 PUSH0 REVERT JUMPDEST PUSH32 0x4E487B7100000000000000000000000000000000000000000000000000000000 PUSH0 MSTORE PUSH1 0x41 PUSH1 0x4 MSTORE PUSH1 0x24 PUSH0 REVERT JUMPDEST PUSH2 0x1D28 DUP3 PUSH2 0x19F4 JUMP JUMPDEST DUP2 ADD DUP2 DUP2 LT PUSH8 0xFFFFFFFFFFFFFFFF DUP3 GT OR ISZERO PUSH2 0x1D47 JUMPI PUSH2 0x1D46 PUSH2 0x1CF2 JUMP JUMPDEST JUMPDEST DUP1 PUSH1 0x40 MSTORE POP POP POP JUMP JUMPDEST PUSH0 PUSH2 0x1D59 PUSH2 0x1908 JUMP JUMPDEST SWAP1 POP PUSH2 0x1D65 DUP3 DUP3 PUSH2 0x1D1F JUMP JUMPDEST SWAP2 SWAP1 POP JUMP JUMPDEST PUSH0 PUSH8 0xFFFFFFFFFFFFFFFF DUP3 GT ISZERO PUSH2 0x1D84 JUMPI PUSH2 0x1D83 PUSH2 0x1CF2 JUMP JUMPDEST JUMPDEST PUSH2 0x1D8D DUP3 PUSH2 0x19F4 JUMP JUMPDEST SWAP1 POP PUSH1 0x20 DUP2 ADD SWAP1 POP SWAP2 SWAP1 POP JUMP JUMPDEST DUP3 DUP2 DUP4 CALLDATACOPY PUSH0 DUP4 DUP4 ADD MSTORE POP POP POP JUMP JUMPDEST PUSH0 PUSH2 0x1DBA PUSH2 0x1DB5 DUP5 PUSH2 0x1D6A JUMP JUMPDEST PUSH2 0x1D50 JUMP JUMPDEST SWAP1 POP DUP3 DUP2 MSTORE PUSH1 0x20 DUP2 ADD DUP5 DUP5 DUP5 ADD GT ISZERO PUSH2 0x1DD6 JUMPI PUSH2 0x1DD5 PUSH2 0x1CEE JUMP JUMPDEST JUMPDEST PUSH2 0x1DE1 DUP5 DUP3 DUP6 PUSH2 0x1D9A JUMP JUMPDEST POP SWAP4 SWAP3 POP POP POP JUMP JUMPDEST PUSH0 DUP3 PUSH1 0x1F DUP4 ADD SLT PUSH2 0x1DFD JUMPI PUSH2 0x1DFC PUSH2 0x1CEA JUMP JUMPDEST JUMPDEST DUP2 CALLDATALOAD PUSH2 0x1E0D DUP5 DUP3 PUSH1 0x20 DUP7 ADD PUSH2 0x1DA8 JUMP JUMPDEST SWAP2 POP POP SWAP3 SWAP2 POP POP JUMP JUMPDEST PUSH0 PUSH0 PUSH0 PUSH0 PUSH1 0x80 DUP6 DUP8 SUB SLT ISZERO PUSH2 0x1E2E JUMPI PUSH2 0x1E2D PUSH2 0x1911 JUMP JUMPDEST JUMPDEST PUSH0 PUSH2 0x1E3B DUP8 DUP3 DUP9 ADD PUSH2 0x1B28 JUMP JUMPDEST SWAP5 POP POP PUSH1 0x20 PUSH2 0x1E4C DUP8 DUP3 DUP9 ADD PUSH2 0x1B28 JUMP JUMPDEST SWAP4 POP POP PUSH1 0x40 PUSH2 0x1E5D DUP8 DUP3 DUP9 ADD PUSH2 0x1A7B JUMP JUMPDEST SWAP3 POP POP PUSH1 0x60 DUP6 ADD CALLDATALOAD PUSH8 0xFFFFFFFFFFFFFFFF DUP2 GT ISZERO PUSH2 0x1E7E JUMPI PUSH2 0x1E7D PUSH2 0x1915 JUMP JUMPDEST JUMPDEST PUSH2 0x1E8A DUP8 DUP3 DUP9 ADD PUSH2 0x1DE9 JUMP JUMPDEST SWAP2 POP POP SWAP3 SWAP6 SWAP2 SWAP5 POP SWAP3 POP JUMP JUMPDEST PUSH0 PUSH0 PUSH1 0x40 DUP4 DUP6 SUB SLT ISZERO PUSH2 0x1EAC JUMPI PUSH2 0x1EAB PUSH2 0x1911 JUMP JUMPDEST JUMPDEST PUSH0 PUSH2 0x1EB9 DUP6 DUP3 DUP7 ADD PUSH2 0x1B28 JUMP JUMPDEST SWAP3 POP POP PUSH1 0x20 PUSH2 0x1ECA DUP6 DUP3 DUP7 ADD PUSH2 0x1B28 JUMP JUMPDEST SWAP2 POP POP SWAP3 POP SWAP3 SWAP1 POP JUMP JUMPDEST PUSH32 0x4E487B7100000000000000000000000000000000000000000000000000000000 PUSH0 MSTORE PUSH1 0x22 PUSH1 0x4 MSTORE PUSH1 0x24 PUSH0 REVERT JUMPDEST PUSH0 PUSH1 0x2 DUP3 DIV SWAP1 POP PUSH1 0x1 DUP3 AND DUP1 PUSH2 0x1F18 JUMPI PUSH1 0x7F DUP3 AND SWAP2 POP JUMPDEST PUSH1 0x20 DUP3 LT DUP2 SUB PUSH2 0x1F2B JUMPI PUSH2 0x1F2A PUSH2 0x1ED4 JUMP JUMPDEST JUMPDEST POP SWAP2 SWAP1 POP JUMP JUMPDEST PUSH0 PUSH1 0x60 DUP3 ADD SWAP1 POP PUSH2 0x1F44 PUSH0 DUP4 ADD DUP7 PUSH2 0x1AEA JUMP JUMPDEST PUSH2 0x1F51 PUSH1 0x20 DUP4 ADD DUP6 PUSH2 0x1C08 JUMP JUMPDEST PUSH2 0x1F5E PUSH1 0x40 DUP4 ADD DUP5 PUSH2 0x1AEA JUMP JUMPDEST SWAP5 SWAP4 POP POP POP POP JUMP JUMPDEST PUSH32 0x4E487B7100000000000000000000000000000000000000000000000000000000 PUSH0 MSTORE PUSH1 0x11 PUSH1 0x4 MSTORE PUSH1 0x24 PUSH0 REVERT JUMPDEST PUSH0 PUSH2 0x1F9D DUP3 PUSH2 0x1A5C JUMP JUMPDEST SWAP2 POP PUSH2 0x1FA8 DUP4 PUSH2 0x1A5C JUMP JUMPDEST SWAP3 POP DUP3 DUP3 MUL PUSH2 0x1FB6 DUP2 PUSH2 0x1A5C JUMP JUMPDEST SWAP2 POP DUP3 DUP3 DIV DUP5 EQ DUP4 ISZERO OR PUSH2 0x1FCD JUMPI PUSH2 0x1FCC PUSH2 0x1F66 JUMP JUMPDEST JUMPDEST POP SWAP3 SWAP2 POP POP JUMP JUMPDEST PUSH32 0x4E487B7100000000000000000000000000000000000000000000000000000000 PUSH0 MSTORE PUSH1 0x12 PUSH1 0x4 MSTORE PUSH1 0x24 PUSH0 REVERT JUMPDEST PUSH0 PUSH2 0x200B DUP3 PUSH2 0x1A5C JUMP JUMPDEST SWAP2 POP PUSH2 0x2016 DUP4 PUSH2 0x1A5C JUMP JUMPDEST SWAP3 POP DUP3 PUSH2 0x2026 JUMPI PUSH2 0x2025 PUSH2 0x1FD4 JUMP JUMPDEST JUMPDEST DUP3 DUP3 DIV SWAP1 POP SWAP3 SWAP2 POP POP JUMP JUMPDEST PUSH32 0x54796C6B6F2061646D696E206D6F7A6520626963204E46540000000000000000 PUSH0 DUP3 ADD MSTORE POP JUMP JUMPDEST PUSH0 PUSH2 0x2065 PUSH1 0x18 DUP4 PUSH2 0x19D6 JUMP JUMPDEST SWAP2 POP PUSH2 0x2070 DUP3 PUSH2 0x2031 JUMP JUMPDEST PUSH1 0x20 DUP3 ADD SWAP1 POP SWAP2 SWAP1 POP JUMP JUMPDEST PUSH0 PUSH1 0x20 DUP3 ADD SWAP1 POP DUP2 DUP2 SUB PUSH0 DUP4 ADD MSTORE PUSH2 0x2092 DUP2 PUSH2 0x2059 JUMP JUMPDEST SWAP1 POP SWAP2 SWAP1 POP JUMP JUMPDEST PUSH0 PUSH2 0x20A3 DUP3 PUSH2 0x1A5C JUMP JUMPDEST SWAP2 POP PUSH32 0xFFFFFFFFFFFFFFFFFFFFFFFFFFFFFFFFFFFFFFFFFFFFFFFFFFFFFFFFFFFFFFFF DUP3 SUB PUSH2 0x20D5 JUMPI PUSH2 0x20D4 PUSH2 0x1F66 JUMP JUMPDEST JUMPDEST PUSH1 0x1 DUP3 ADD SWAP1 POP SWAP2 SWAP1 POP JUMP JUMPDEST PUSH0 DUP2 SWAP1 POP SWAP3 SWAP2 POP POP JUMP JUMPDEST PUSH0 PUSH2 0x20F4 DUP3 PUSH2 0x19CC JUMP JUMPDEST PUSH2 0x20FE DUP2 DUP6 PUSH2 0x20E0 JUMP JUMPDEST SWAP4 POP PUSH2 0x210E DUP2 DUP6 PUSH1 0x20 DUP7 ADD PUSH2 0x19E6 JUMP JUMPDEST DUP1 DUP5 ADD SWAP2 POP POP SWAP3 SWAP2 POP POP JUMP JUMPDEST PUSH0 PUSH2 0x2125 DUP3 DUP6 PUSH2 0x20EA JUMP JUMPDEST SWAP2 POP PUSH2 0x2131 DUP3 DUP5 PUSH2 0x20EA JUMP JUMPDEST SWAP2 POP DUP2 SWAP1 POP SWAP4 SWAP3 POP POP POP JUMP JUMPDEST PUSH0 DUP2 MLOAD SWAP1 POP SWAP2 SWAP1 POP JUMP JUMPDEST PUSH0 DUP3 DUP3 MSTORE PUSH1 0x20 DUP3 ADD SWAP1 POP SWAP3 SWAP2 POP POP JUMP JUMPDEST PUSH0 PUSH2 0x2161 DUP3 PUSH2 0x213D JUMP JUMPDEST PUSH2 0x216B DUP2 DUP6 PUSH2 0x2147 JUMP JUMPDEST SWAP4 POP PUSH2 0x217B DUP2 DUP6 PUSH1 0x20 DUP7 ADD PUSH2 0x19E6 JUMP JUMPDEST PUSH2 0x2184 DUP2 PUSH2 0x19F4 JUMP JUMPDEST DUP5 ADD SWAP2 POP POP SWAP3 SWAP2 POP POP JUMP JUMPDEST PUSH0 PUSH1 0x80 DUP3 ADD SWAP1 POP PUSH2 0x21A2 PUSH0 DUP4 ADD DUP8 PUSH2 0x1AEA JUMP JUMPDEST PUSH2 0x21AF PUSH1 0x20 DUP4 ADD DUP7 PUSH2 0x1AEA JUMP JUMPDEST PUSH2 0x21BC PUSH1 0x40 DUP4 ADD DUP6 PUSH2 0x1C08 JUMP JUMPDEST DUP2 DUP2 SUB PUSH1 0x60 DUP4 ADD MSTORE PUSH2 0x21CE DUP2 DUP5 PUSH2 0x2157 JUMP JUMPDEST SWAP1 POP SWAP6 SWAP5 POP POP POP POP POP JUMP JUMPDEST PUSH0 DUP2 MLOAD SWAP1 POP PUSH2 0x21E7 DUP2 PUSH2 0x1944 JUMP JUMPDEST SWAP3 SWAP2 POP POP JUMP JUMPDEST PUSH0 PUSH1 0x20 DUP3 DUP5 SUB SLT ISZERO PUSH2 0x2202 JUMPI PUSH2 0x2201 PUSH2 0x1911 JUMP JUMPDEST JUMPDEST PUSH0 PUSH2 0x220F DUP5 DUP3 DUP6 ADD PUSH2 0x21D9 JUMP JUMPDEST SWAP2 POP POP SWAP3 SWAP2 POP POP JUMP INVALID LOG2 PUSH5 0x6970667358 0x22 SLT KECCAK256 0xD3 PUSH31 0x8E068A96158E3AF15FC95EB9F8155E1156D6F55D9569DA86DEA36DFA553864 PUSH20 0x6F6C634300082200330000000000000000000000 "
		},
		"gasEstimates": {
			"creation": {
				"codeDepositCost": "1756400",
				"executionCost": "infinite",
				"totalCost": "infinite"
			},
			"external": {
				"admin()": "2618",
				"approve(address,uint256)": "infinite",
				"balanceOf(address)": "infinite",
				"getApproved(uint256)": "infinite",
				"isApprovedForAll(address,address)": "infinite",
				"mint(address)": "infinite",
				"name()": "infinite",
				"nextTokenId()": "2492",
				"ownerOf(uint256)": "infinite",
				"royaltyInfo(uint256,uint256)": "infinite",
				"safeTransferFrom(address,address,uint256)": "infinite",
				"safeTransferFrom(address,address,uint256,bytes)": "infinite",
				"setApprovalForAll(address,bool)": "infinite",
				"supportsInterface(bytes4)": "917",
				"symbol()": "infinite",
				"tokenURI(uint256)": "infinite",
				"transferFrom(address,address,uint256)": "infinite"
			}
		},
		"methodIdentifiers": {
			"admin()": "f851a440",
			"approve(address,uint256)": "095ea7b3",
			"balanceOf(address)": "70a08231",
			"getApproved(uint256)": "081812fc",
			"isApprovedForAll(address,address)": "e985e9c5",
			"mint(address)": "6a627842",
			"name()": "06fdde03",
			"nextTokenId()": "75794a3c",
			"ownerOf(uint256)": "6352211e",
			"royaltyInfo(uint256,uint256)": "2a55205a",
			"safeTransferFrom(address,address,uint256)": "42842e0e",
			"safeTransferFrom(address,address,uint256,bytes)": "b88d4fde",
			"setApprovalForAll(address,bool)": "a22cb465",
			"supportsInterface(bytes4)": "01ffc9a7",
			"symbol()": "95d89b41",
			"tokenURI(uint256)": "c87b56dd",
			"transferFrom(address,address,uint256)": "23b872dd"
		}
	},
	"abi": [
		{
			"inputs": [],
			"stateMutability": "nonpayable",
			"type": "constructor"
		},
		{
			"inputs": [
				{
					"internalType": "uint256",
					"name": "numerator",
					"type": "uint256"
				},
				{
					"internalType": "uint256",
					"name": "denominator",
					"type": "uint256"
				}
			],
			"name": "ERC2981InvalidDefaultRoyalty",
			"type": "error"
		},
		{
			"inputs": [
				{
					"internalType": "address",
					"name": "receiver",
					"type": "address"
				}
			],
			"name": "ERC2981InvalidDefaultRoyaltyReceiver",
			"type": "error"
		},
		{
			"inputs": [
				{
					"internalType": "uint256",
					"name": "tokenId",
					"type": "uint256"
				},
				{
					"internalType": "uint256",
					"name": "numerator",
					"type": "uint256"
				},
				{
					"internalType": "uint256",
					"name": "denominator",
					"type": "uint256"
				}
			],
			"name": "ERC2981InvalidTokenRoyalty",
			"type": "error"
		},
		{
			"inputs": [
				{
					"internalType": "uint256",
					"name": "tokenId",
					"type": "uint256"
				},
				{
					"internalType": "address",
					"name": "receiver",
					"type": "address"
				}
			],
			"name": "ERC2981InvalidTokenRoyaltyReceiver",
			"type": "error"
		},
		{
			"inputs": [
				{
					"internalType": "address",
					"name": "sender",
					"type": "address"
				},
				{
					"internalType": "uint256",
					"name": "tokenId",
					"type": "uint256"
				},
				{
					"internalType": "address",
					"name": "owner",
					"type": "address"
				}
			],
			"name": "ERC721IncorrectOwner",
			"type": "error"
		},
		{
			"inputs": [
				{
					"internalType": "address",
					"name": "operator",
					"type": "address"
				},
				{
					"internalType": "uint256",
					"name": "tokenId",
					"type": "uint256"
				}
			],
			"name": "ERC721InsufficientApproval",
			"type": "error"
		},
		{
			"inputs": [
				{
					"internalType": "address",
					"name": "approver",
					"type": "address"
				}
			],
			"name": "ERC721InvalidApprover",
			"type": "error"
		},
		{
			"inputs": [
				{
					"internalType": "address",
					"name": "operator",
					"type": "address"
				}
			],
			"name": "ERC721InvalidOperator",
			"type": "error"
		},
		{
			"inputs": [
				{
					"internalType": "address",
					"name": "owner",
					"type": "address"
				}
			],
			"name": "ERC721InvalidOwner",
			"type": "error"
		},
		{
			"inputs": [
				{
					"internalType": "address",
					"name": "receiver",
					"type": "address"
				}
			],
			"name": "ERC721InvalidReceiver",
			"type": "error"
		},
		{
			"inputs": [
				{
					"internalType": "address",
					"name": "sender",
					"type": "address"
				}
			],
			"name": "ERC721InvalidSender",
			"type": "error"
		},
		{
			"inputs": [
				{
					"internalType": "uint256",
					"name": "tokenId",
					"type": "uint256"
				}
			],
			"name": "ERC721NonexistentToken",
			"type": "error"
		},
		{
			"anonymous": false,
			"inputs": [
				{
					"indexed": true,
					"internalType": "address",
					"name": "owner",
					"type": "address"
				},
				{
					"indexed": true,
					"internalType": "address",
					"name": "approved",
					"type": "address"
				},
				{
					"indexed": true,
					"internalType": "uint256",
					"name": "tokenId",
					"type": "uint256"
				}
			],
			"name": "Approval",
			"type": "event"
		},
		{
			"anonymous": false,
			"inputs": [
				{
					"indexed": true,
					"internalType": "address",
					"name": "owner",
					"type": "address"
				},
				{
					"indexed": true,
					"internalType": "address",
					"name": "operator",
					"type": "address"
				},
				{
					"indexed": false,
					"internalType": "bool",
					"name": "approved",
					"type": "bool"
				}
			],
			"name": "ApprovalForAll",
			"type": "event"
		},
		{
			"anonymous": false,
			"inputs": [
				{
					"indexed": true,
					"internalType": "address",
					"name": "from",
					"type": "address"
				},
				{
					"indexed": true,
					"internalType": "address",
					"name": "to",
					"type": "address"
				},
				{
					"indexed": true,
					"internalType": "uint256",
					"name": "tokenId",
					"type": "uint256"
				}
			],
			"name": "Transfer",
			"type": "event"
		},
		{
			"inputs": [],
			"name": "admin",
			"outputs": [
				{
					"internalType": "address",
					"name": "",
					"type": "address"
				}
			],
			"stateMutability": "view",
			"type": "function"
		},
		{
			"inputs": [
				{
					"internalType": "address",
					"name": "to",
					"type": "address"
				},
				{
					"internalType": "uint256",
					"name": "tokenId",
					"type": "uint256"
				}
			],
			"name": "approve",
			"outputs": [],
			"stateMutability": "nonpayable",
			"type": "function"
		},
		{
			"inputs": [
				{
					"internalType": "address",
					"name": "owner",
					"type": "address"
				}
			],
			"name": "balanceOf",
			"outputs": [
				{
					"internalType": "uint256",
					"name": "",
					"type": "uint256"
				}
			],
			"stateMutability": "view",
			"type": "function"
		},
		{
			"inputs": [
				{
					"internalType": "uint256",
					"name": "tokenId",
					"type": "uint256"
				}
			],
			"name": "getApproved",
			"outputs": [
				{
					"internalType": "address",
					"name": "",
					"type": "address"
				}
			],
			"stateMutability": "view",
			"type": "function"
		},
		{
			"inputs": [
				{
					"internalType": "address",
					"name": "owner",
					"type": "address"
				},
				{
					"internalType": "address",
					"name": "operator",
					"type": "address"
				}
			],
			"name": "isApprovedForAll",
			"outputs": [
				{
					"internalType": "bool",
					"name": "",
					"type": "bool"
				}
			],
			"stateMutability": "view",
			"type": "function"
		},
		{
			"inputs": [
				{
					"internalType": "address",
					"name": "to",
					"type": "address"
				}
			],
			"name": "mint",
			"outputs": [],
			"stateMutability": "nonpayable",
			"type": "function"
		},
		{
			"inputs": [],
			"name": "name",
			"outputs": [
				{
					"internalType": "string",
					"name": "",
					"type": "string"
				}
			],
			"stateMutability": "view",
			"type": "function"
		},
		{
			"inputs": [],
			"name": "nextTokenId",
			"outputs": [
				{
					"internalType": "uint256",
					"name": "",
					"type": "uint256"
				}
			],
			"stateMutability": "view",
			"type": "function"
		},
		{
			"inputs": [
				{
					"internalType": "uint256",
					"name": "tokenId",
					"type": "uint256"
				}
			],
			"name": "ownerOf",
			"outputs": [
				{
					"internalType": "address",
					"name": "",
					"type": "address"
				}
			],
			"stateMutability": "view",
			"type": "function"
		},
		{
			"inputs": [
				{
					"internalType": "uint256",
					"name": "tokenId",
					"type": "uint256"
				},
				{
					"internalType": "uint256",
					"name": "salePrice",
					"type": "uint256"
				}
			],
			"name": "royaltyInfo",
			"outputs": [
				{
					"internalType": "address",
					"name": "receiver",
					"type": "address"
				},
				{
					"internalType": "uint256",
					"name": "amount",
					"type": "uint256"
				}
			],
			"stateMutability": "view",
			"type": "function"
		},
		{
			"inputs": [
				{
					"internalType": "address",
					"name": "from",
					"type": "address"
				},
				{
					"internalType": "address",
					"name": "to",
					"type": "address"
				},
				{
					"internalType": "uint256",
					"name": "tokenId",
					"type": "uint256"
				}
			],
			"name": "safeTransferFrom",
			"outputs": [],
			"stateMutability": "nonpayable",
			"type": "function"
		},
		{
			"inputs": [
				{
					"internalType": "address",
					"name": "from",
					"type": "address"
				},
				{
					"internalType": "address",
					"name": "to",
					"type": "address"
				},
				{
					"internalType": "uint256",
					"name": "tokenId",
					"type": "uint256"
				},
				{
					"internalType": "bytes",
					"name": "data",
					"type": "bytes"
				}
			],
			"name": "safeTransferFrom",
			"outputs": [],
			"stateMutability": "nonpayable",
			"type": "function"
		},
		{
			"inputs": [
				{
					"internalType": "address",
					"name": "operator",
					"type": "address"
				},
				{
					"internalType": "bool",
					"name": "approved",
					"type": "bool"
				}
			],
			"name": "setApprovalForAll",
			"outputs": [],
			"stateMutability": "nonpayable",
			"type": "function"
		},
		{
			"inputs": [
				{
					"internalType": "bytes4",
					"name": "interfaceId",
					"type": "bytes4"
				}
			],
			"name": "supportsInterface",
			"outputs": [
				{
					"internalType": "bool",
					"name": "",
					"type": "bool"
				}
			],
			"stateMutability": "view",
			"type": "function"
		},
		{
			"inputs": [],
			"name": "symbol",
			"outputs": [
				{
					"internalType": "string",
					"name": "",
					"type": "string"
				}
			],
			"stateMutability": "view",
			"type": "function"
		},
		{
			"inputs": [
				{
					"internalType": "uint256",
					"name": "tokenId",
					"type": "uint256"
				}
			],
			"name": "tokenURI",
			"outputs": [
				{
					"internalType": "string",
					"name": "",
					"type": "string"
				}
			],
			"stateMutability": "view",
			"type": "function"
		},
		{
			"inputs": [
				{
					"internalType": "address",
					"name": "from",
					"type": "address"
				},
				{
					"internalType": "address",
					"name": "to",
					"type": "address"
				},
				{
					"internalType": "uint256",
					"name": "tokenId",
					"type": "uint256"
				}
			],
			"name": "transferFrom",
			"outputs": [],
			"stateMutability": "nonpayable",
			"type": "function"
		}
	]
}